{
  "address": "0xa17e1B749fa4C802195173712671b1F407c0D3B4",
  "abi": [
    {
      "anonymous": false,
      "inputs": [
        {
          "indexed": true,
          "internalType": "address",
          "name": "target",
          "type": "address"
        },
        {
          "indexed": true,
          "internalType": "address",
          "name": "caller",
          "type": "address"
        }
      ],
      "name": "AuthorizedAddressAdded",
      "type": "event"
    },
    {
      "anonymous": false,
      "inputs": [
        {
          "indexed": true,
          "internalType": "address",
          "name": "target",
          "type": "address"
        },
        {
          "indexed": true,
          "internalType": "address",
          "name": "caller",
          "type": "address"
        }
      ],
      "name": "AuthorizedAddressRemoved",
      "type": "event"
    },
    {
      "anonymous": false,
      "inputs": [
        {
          "indexed": true,
          "internalType": "address",
          "name": "previousOwner",
          "type": "address"
        },
        {
          "indexed": true,
          "internalType": "address",
          "name": "newOwner",
          "type": "address"
        }
      ],
      "name": "OwnershipTransferred",
      "type": "event"
    },
    {
      "constant": false,
      "inputs": [
        {
          "internalType": "address",
          "name": "target",
          "type": "address"
        }
      ],
      "name": "addAuthorizedAddress",
      "outputs": [],
      "payable": false,
      "stateMutability": "nonpayable",
      "type": "function"
    },
    {
      "constant": true,
      "inputs": [
        {
          "internalType": "uint256",
          "name": "",
          "type": "uint256"
        }
      ],
      "name": "authorities",
      "outputs": [
        {
          "internalType": "address",
          "name": "",
          "type": "address"
        }
      ],
      "payable": false,
      "stateMutability": "view",
      "type": "function"
    },
    {
      "constant": true,
      "inputs": [
        {
          "internalType": "address",
          "name": "",
          "type": "address"
        }
      ],
      "name": "authorized",
      "outputs": [
        {
          "internalType": "bool",
          "name": "",
          "type": "bool"
        }
      ],
      "payable": false,
      "stateMutability": "view",
      "type": "function"
    },
    {
      "constant": true,
      "inputs": [],
      "name": "getAuthorizedAddresses",
      "outputs": [
        {
          "internalType": "address[]",
          "name": "",
          "type": "address[]"
        }
      ],
      "payable": false,
      "stateMutability": "view",
      "type": "function"
    },
    {
      "constant": true,
      "inputs": [],
      "name": "getProxyId",
      "outputs": [
        {
          "internalType": "bytes4",
          "name": "",
          "type": "bytes4"
        }
      ],
      "payable": false,
      "stateMutability": "pure",
      "type": "function"
    },
    {
      "constant": true,
      "inputs": [],
      "name": "owner",
      "outputs": [
        {
          "internalType": "address",
          "name": "",
          "type": "address"
        }
      ],
      "payable": false,
      "stateMutability": "view",
      "type": "function"
    },
    {
      "constant": false,
      "inputs": [
        {
          "internalType": "address",
          "name": "target",
          "type": "address"
        }
      ],
      "name": "removeAuthorizedAddress",
      "outputs": [],
      "payable": false,
      "stateMutability": "nonpayable",
      "type": "function"
    },
    {
      "constant": false,
      "inputs": [
        {
          "internalType": "address",
          "name": "target",
          "type": "address"
        },
        {
          "internalType": "uint256",
          "name": "index",
          "type": "uint256"
        }
      ],
      "name": "removeAuthorizedAddressAtIndex",
      "outputs": [],
      "payable": false,
      "stateMutability": "nonpayable",
      "type": "function"
    },
    {
      "constant": false,
      "inputs": [
        {
          "internalType": "bytes",
          "name": "assetData",
          "type": "bytes"
        },
        {
          "internalType": "address",
          "name": "from",
          "type": "address"
        },
        {
          "internalType": "address",
          "name": "to",
          "type": "address"
        },
        {
          "internalType": "uint256",
          "name": "amount",
          "type": "uint256"
        }
      ],
      "name": "transferFrom",
      "outputs": [],
      "payable": false,
      "stateMutability": "nonpayable",
      "type": "function"
    },
    {
      "constant": false,
      "inputs": [
        {
          "internalType": "address",
          "name": "newOwner",
          "type": "address"
        }
      ],
      "name": "transferOwnership",
      "outputs": [],
      "payable": false,
      "stateMutability": "nonpayable",
      "type": "function"
    }
  ],
  "transactionHash": "0x3e45856f34e54d50ec726cda4d9441bf80567c665baa6009b1c7151ac98bfe7d",
  "args": [],
  "solcInputHash": "d4d5df6755b1f719201cd99bd7e5e31a",
  "bytecode": "0x6080604052600080546001600160a01b031916331790556110b1806100256000396000f3fe608060405234801561001057600080fd5b50600436106100be5760003560e01c8063a85e59e411610076578063b91816111161005b578063b918161114610244578063d39de6e91461027e578063f2fde38b146102d6576100be565b8063a85e59e41461017e578063ae25532e14610207576100be565b806370712939116100a757806370712939146101245780638da5cb5b1461014a5780639ad2674414610152576100be565b806342f1181e146100c3578063494503d4146100eb575b600080fd5b6100e9600480360360208110156100d957600080fd5b50356001600160a01b03166102fc565b005b6101086004803603602081101561010157600080fd5b503561045a565b604080516001600160a01b039092168252519081900360200190f35b6100e96004803603602081101561013a57600080fd5b50356001600160a01b0316610481565b610108610669565b6100e96004803603604081101561016857600080fd5b506001600160a01b038135169060200135610678565b6100e96004803603608081101561019457600080fd5b8101906020810181356401000000008111156101af57600080fd5b8201836020820111156101c157600080fd5b803590602001918460018302840111640100000000831117156101e357600080fd5b91935091506001600160a01b038135811691602081013590911690604001356108ea565b61020f610d99565b604080517fffffffff000000000000000000000000000000000000000000000000000000009092168252519081900360200190f35b61026a6004803603602081101561025a57600080fd5b50356001600160a01b0316610dba565b604080519115158252519081900360200190f35b610286610dcf565b60408051602080825283518183015283519192839290830191858101910280838360005b838110156102c25781810151838201526020016102aa565b505050509050019250505060405180910390f35b6100e9600480360360208110156102ec57600080fd5b50356001600160a01b0316610e31565b6000546001600160a01b03163314610351576040805162461bcd60e51b815260206004820152601360248201527227a7262cafa1a7a72a2920a1aa2fa7aba722a960691b604482015290519081900360640190fd5b6001600160a01b03811660009081526001602052604090205460ff16156103bf576040805162461bcd60e51b815260206004820152601960248201527f5441524745545f414c52454144595f415554484f52495a454400000000000000604482015290519081900360640190fd5b6001600160a01b0381166000818152600160208190526040808320805460ff19168317905560028054928301815583527f405787fa12a823e0f2b7631cc41b3ba8828b3321ca811111fa75cd3aa3bb5ace909101805473ffffffffffffffffffffffffffffffffffffffff191684179055513392917f3147867c59d17e8fa9d522465651d44aae0a9e38f902f3475b97e58072f0ed4c91a350565b6002818154811061046757fe5b6000918252602090912001546001600160a01b0316905081565b6000546001600160a01b031633146104d6576040805162461bcd60e51b815260206004820152601360248201527227a7262cafa1a7a72a2920a1aa2fa7aba722a960691b604482015290519081900360640190fd5b6001600160a01b03811660009081526001602052604090205460ff16610543576040805162461bcd60e51b815260206004820152601560248201527f5441524745545f4e4f545f415554484f52495a45440000000000000000000000604482015290519081900360640190fd5b6001600160a01b0381166000908152600160205260408120805460ff191690555b60025481101561062f57816001600160a01b03166002828154811061058557fe5b6000918252602090912001546001600160a01b03161415610627576002805460001981019081106105b257fe5b600091825260209091200154600280546001600160a01b0390921691839081106105d857fe5b6000918252602090912001805473ffffffffffffffffffffffffffffffffffffffff19166001600160a01b03929092169190911790556002805460001901906106219082611005565b5061062f565b600101610564565b5060405133906001600160a01b038316907f1f32c1b084e2de0713b8fb16bd46bb9df710a3dbeae2f3ca93af46e016dcc6b090600090a350565b6000546001600160a01b031681565b6000546001600160a01b031633146106cd576040805162461bcd60e51b815260206004820152601360248201527227a7262cafa1a7a72a2920a1aa2fa7aba722a960691b604482015290519081900360640190fd5b6001600160a01b03821660009081526001602052604090205460ff1661073a576040805162461bcd60e51b815260206004820152601560248201527f5441524745545f4e4f545f415554484f52495a45440000000000000000000000604482015290519081900360640190fd5b6002548110610790576040805162461bcd60e51b815260206004820152601360248201527f494e4445585f4f55545f4f465f424f554e445300000000000000000000000000604482015290519081900360640190fd5b816001600160a01b0316600282815481106107a757fe5b6000918252602090912001546001600160a01b03161461080e576040805162461bcd60e51b815260206004820152601b60248201527f415554484f52495a45445f414444524553535f4d49534d415443480000000000604482015290519081900360640190fd5b6001600160a01b0382166000908152600160205260409020805460ff1916905560028054600019810190811061084057fe5b600091825260209091200154600280546001600160a01b03909216918390811061086657fe5b6000918252602090912001805473ffffffffffffffffffffffffffffffffffffffff19166001600160a01b03929092169190911790556002805460001901906108af9082611005565b5060405133906001600160a01b038416907f1f32c1b084e2de0713b8fb16bd46bb9df710a3dbeae2f3ca93af46e016dcc6b090600090a35050565b3360009081526001602052604090205460ff1661094e576040805162461bcd60e51b815260206004820152601560248201527f53454e4445525f4e4f545f415554484f52495a45440000000000000000000000604482015290519081900360640190fd5b600060608060606109a460048a8a90508b8b8080601f01602080910402602001604051908101604052809392919081815260200183838082843760009201919091525092949392505063ffffffff610ec1169050565b80602001905160808110156109b857600080fd5b8151602083018051604051929492938301929190846401000000008211156109df57600080fd5b9083019060208201858111156109f457600080fd5b8251866020820283011164010000000082111715610a1157600080fd5b82525081516020918201928201910280838360005b83811015610a3e578181015183820152602001610a26565b5050505090500160405260200180516040519392919084640100000000821115610a6757600080fd5b908301906020820185811115610a7c57600080fd5b8251866020820283011164010000000082111715610a9957600080fd5b82525081516020918201928201910280838360005b83811015610ac6578181015183820152602001610aae565b5050505090500160405260200180516040519392919084640100000000821115610aef57600080fd5b908301906020820185811115610b0457600080fd5b8251640100000000811182820188101715610b1e57600080fd5b82525081516020918201929091019080838360005b83811015610b4b578181015183820152602001610b33565b50505050905090810190601f168015610b785780820380516001836020036101000a031916815260200191505b506040525050509350935093509350600082519050606081604051908082528060200260200182016040528015610bb9578160200160208202803883390190505b50905060005b828114610c0b57610bec88868381518110610bd657fe5b6020026020010151610f0490919063ffffffff16565b828281518110610bf857fe5b6020908102919091010152600101610bbf565b50856001600160a01b0316632eb2c2d68a8a8885886040518663ffffffff1660e01b815260040180866001600160a01b03166001600160a01b03168152602001856001600160a01b03166001600160a01b03168152602001806020018060200180602001848103845287818151815260200191508051906020019060200280838360005b83811015610ca7578181015183820152602001610c8f565b50505050905001848103835286818151815260200191508051906020019060200280838360005b83811015610ce6578181015183820152602001610cce565b50505050905001848103825285818151815260200191508051906020019080838360005b83811015610d22578181015183820152602001610d0a565b50505050905090810190601f168015610d4f5780820380516001836020036101000a031916815260200191505b5098505050505050505050600060405180830381600087803b158015610d7457600080fd5b505af1158015610d88573d6000803e3d6000fd5b505050505050505050505050505050565b6000604051808061104d603091396030019050604051809103902090505b90565b60016020526000908152604090205460ff1681565b60606002805480602002602001604051908101604052809291908181526020018280548015610e2757602002820191906000526020600020905b81546001600160a01b03168152600190910190602001808311610e09575b5050505050905090565b6000546001600160a01b03163314610e86576040805162461bcd60e51b815260206004820152601360248201527227a7262cafa1a7a72a2920a1aa2fa7aba722a960691b604482015290519081900360640190fd5b6001600160a01b03811615610ebe576000805473ffffffffffffffffffffffffffffffffffffffff19166001600160a01b0383161790555b50565b606081831115610edf57610edf610eda60008585610f3e565b610fdd565b8351821115610ef857610ef8610eda6001848751610f3e565b50819003910190815290565b600082610f1357506000610f38565b82820282848281610f2057fe5b0414610f3557610f35610eda60018686610fe5565b90505b92915050565b6060632800659560e01b84848460405160240180846007811115610f5e57fe5b60ff1681526020018381526020018281526020019350505050604051602081830303815290604052907bffffffffffffffffffffffffffffffffffffffffffffffffffffffff19166020820180517bffffffffffffffffffffffffffffffffffffffffffffffffffffffff838183161783525050505090509392505050565b805160208201fd5b606063e946c1bb60e01b84848460405160240180846003811115610f5e57fe5b8154818355818111156110295760008381526020902061102991810190830161102e565b505050565b610db791905b808211156110485760008155600101611034565b509056fe4552433131353541737365747328616464726573732c75696e743235365b5d2c75696e743235365b5d2c627974657329a265627a7a7231582076ef0428db9517d63824a548831f8efc3411c1610aa66fee044e0a8d6289a8b064736f6c63430005110032",
  "devdoc": {
    "methods": {
      "addAuthorizedAddress(address)": {
        "details": "Authorizes an address.",
        "params": {
          "target": "Address to authorize."
        }
      },
      "getAuthorizedAddresses()": {
        "details": "Gets all authorized addresses.",
        "return": "Array of authorized addresses."
      },
      "getProxyId()": {
        "details": "Gets the proxy id associated with the proxy address.",
        "return": "Proxy id."
      },
      "removeAuthorizedAddress(address)": {
        "details": "Removes authorizion of an address.",
        "params": {
          "target": "Address to remove authorization from."
        }
      },
      "removeAuthorizedAddressAtIndex(address,uint256)": {
        "details": "Removes authorizion of an address.",
        "params": {
          "index": "Index of target in authorities array.",
          "target": "Address to remove authorization from."
        }
      },
      "transferFrom(bytes,address,address,uint256)": {
        "details": "Transfers batch of ERC1155 assets. Either succeeds or throws.",
        "params": {
          "amount": "Amount that will be multiplied with each element of `assetData.values` to scale the        values that will be transferred.",
          "assetData": "Byte array encoded with ERC1155 token address, array of ids, array of values, and callback data.",
          "from": "Address to transfer assets from.",
          "to": "Address to transfer assets to."
        }
      }
    }
  },
  "userdoc": {
    "methods": {}
  },
  "storageLayout": {
    "storage": [
      {
        "astId": 6405,
        "contract": "contracts/0x/proxies/ERC1155Proxy.sol:ERC1155Proxy",
        "label": "owner",
        "offset": 0,
        "slot": "0",
        "type": "t_address"
      },
      {
        "astId": 6225,
        "contract": "contracts/0x/proxies/ERC1155Proxy.sol:ERC1155Proxy",
        "label": "authorized",
        "offset": 0,
        "slot": "1",
        "type": "t_mapping(t_address,t_bool)"
      },
      {
        "astId": 6228,
        "contract": "contracts/0x/proxies/ERC1155Proxy.sol:ERC1155Proxy",
        "label": "authorities",
        "offset": 0,
        "slot": "2",
        "type": "t_array(t_address)dyn_storage"
      }
    ],
    "types": {
      "t_address": {
        "encoding": "inplace",
        "label": "address",
        "numberOfBytes": "20"
      },
      "t_array(t_address)dyn_storage": {
        "base": "t_address",
        "encoding": "dynamic_array",
        "label": "address[]",
        "numberOfBytes": "32"
      },
      "t_bool": {
        "encoding": "inplace",
        "label": "bool",
        "numberOfBytes": "1"
      },
      "t_mapping(t_address,t_bool)": {
        "encoding": "mapping",
        "key": "t_address",
        "label": "mapping(address => bool)",
        "numberOfBytes": "32",
        "value": "t_bool"
      }
    }
  }
}