{
  "address": "0xe75411DC167f5369b93407A756e06ab1a65e2590",
  "abi": [
    {
      "inputs": [],
      "stateMutability": "nonpayable",
      "type": "constructor"
    },
    {
      "inputs": [
        {
          "internalType": "address",
          "name": "tokenOneAddress",
          "type": "address"
        },
        {
          "internalType": "address",
          "name": "tokenTwoAddress",
          "type": "address"
        },
        {
          "internalType": "address",
          "name": "tokenOneOwner",
          "type": "address"
        },
        {
          "internalType": "address",
          "name": "tokenTwoOwner",
          "type": "address"
        },
        {
          "internalType": "uint256",
          "name": "tokenOneId",
          "type": "uint256"
        },
        {
          "internalType": "uint256",
          "name": "tokenTwoId",
          "type": "uint256"
        },
        {
          "internalType": "uint256",
          "name": "tokenOneAmount",
          "type": "uint256"
        },
        {
          "internalType": "uint256",
          "name": "tokenTwoAmount",
          "type": "uint256"
        },
        {
          "internalType": "bytes",
          "name": "data",
          "type": "bytes"
        }
      ],
      "name": "executeOrder",
      "outputs": [],
      "stateMutability": "nonpayable",
      "type": "function"
    },
    {
      "inputs": [
        {
          "internalType": "address",
          "name": "addr",
          "type": "address"
        }
      ],
      "name": "getPass",
      "outputs": [
        {
          "internalType": "string",
          "name": "",
          "type": "string"
        }
      ],
      "stateMutability": "view",
      "type": "function"
    },
    {
      "inputs": [
        {
          "internalType": "string",
          "name": "authorizationKey",
          "type": "string"
        }
      ],
      "name": "setPass",
      "outputs": [
        {
          "internalType": "bool",
          "name": "",
          "type": "bool"
        }
      ],
      "stateMutability": "nonpayable",
      "type": "function"
    }
  ],
  "transactionHash": "0x854c760e8b0e4bfd80308f4b6ce6707918d9aaeb1baf1062682ec65585c4d2ab",
  "args": [],
  "solcInputHash": "c7c281d365612a41b86900c80d46f908",
  "bytecode": "0x608060405234801561001057600080fd5b50604080518082018252600b81526a42726f77736572426f6f6b60a81b6020918201528151808301835260018152603160f81b908201529051610539916100c1917f8b73c3c69bb8fe3d512ecc4cf759cc79239f7b179b0ffacaa9a75d522b39400f917fe1087249b96a4db6e26768fcd2ff115b7c565029b03764f9b576a6ddb546c8ca917fc89efdaa54c0f20c7adf612882df0950f5a951637e0307cdcb4c672f298b8bc69186913091016100e2565b60408051601f1981840301815291905280516020909101206000555061010e565b9485526020850193909352604084019190915260608301526001600160a01b0316608082015260a00190565b6105de8061011d6000396000f3fe608060405234801561001057600080fd5b50600436106100415760003560e01c806344e9fd4b14610046578063dc3eb47e1461006f578063e3cd7c0314610084575b600080fd5b6100596100543660046103ff565b6100a4565b60405161006691906104f9565b60405180910390f35b61008261007d366004610327565b6100ce565b005b610097610092366004610306565b6101aa565b6040516100669190610504565b336000908152600160209081526040822083516100c392850190610256565b50600190505b919050565b604051637921219560e11b81526001600160a01b038b169063f242432a90610104908b908b908b908a90899089906004016104a0565b600060405180830381600087803b15801561011e57600080fd5b505af1158015610132573d6000803e3d6000fd5b5050604051637921219560e11b81526001600160a01b038c16925063f242432a915061016c908a908c908a908990899089906004016104a0565b600060405180830381600087803b15801561018657600080fd5b505af115801561019a573d6000803e3d6000fd5b5050505050505050505050505050565b6001600160a01b03811660009081526001602052604090208054606091906101d190610557565b80601f01602080910402602001604051908101604052809291908181526020018280546101fd90610557565b801561024a5780601f1061021f5761010080835404028352916020019161024a565b820191906000526020600020905b81548152906001019060200180831161022d57829003601f168201915b50505050509050919050565b82805461026290610557565b90600052602060002090601f01602090048101928261028457600085556102ca565b82601f1061029d57805160ff19168380011785556102ca565b828001600101855582156102ca579182015b828111156102ca5782518255916020019190600101906102af565b506102d69291506102da565b5090565b5b808211156102d657600081556001016102db565b80356001600160a01b03811681146100c957600080fd5b600060208284031215610317578081fd5b610320826102ef565b9392505050565b6000806000806000806000806000806101208b8d031215610346578586fd5b61034f8b6102ef565b995061035d60208c016102ef565b985061036b60408c016102ef565b975061037960608c016102ef565b965060808b0135955060a08b0135945060c08b0135935060e08b013592506101008b013567ffffffffffffffff808211156103b2578384fd5b818d0191508d601f8301126103c5578384fd5b8135818111156103d3578485fd5b8e60208285010111156103e4578485fd5b6020830194508093505050509295989b9194979a5092959850565b60006020808385031215610411578182fd5b823567ffffffffffffffff80821115610428578384fd5b818501915085601f83011261043b578384fd5b81358181111561044d5761044d610592565b604051601f8201601f191681018501838111828210171561047057610470610592565b6040528181528382018501881015610486578586fd5b818585018683013790810190930193909352509392505050565b6001600160a01b03878116825286166020820152604081018590526060810184905260a06080820181905281018290526000828460c084013781830160c090810191909152601f909201601f1916010195945050505050565b901515815260200190565b6000602080835283518082850152825b8181101561053057858101830151858201604001528201610514565b818111156105415783604083870101525b50601f01601f1916929092016040019392505050565b60028104600182168061056b57607f821691505b6020821081141561058c57634e487b7160e01b600052602260045260246000fd5b50919050565b634e487b7160e01b600052604160045260246000fdfea2646970667358221220525bf643f21beb8bb7cc61ba5805eee38680d7895d9b0343508225bf931bf67564736f6c63430008000033",
  "devdoc": {
    "kind": "dev",
    "methods": {},
    "version": 1
  },
  "userdoc": {
    "kind": "user",
    "methods": {},
    "version": 1
  },
  "storageLayout": {
    "storage": [
      {
        "astId": 2665,
        "contract": "contracts/Exchange.sol:Exchange",
        "label": "DOMAIN_SEPARATOR",
        "offset": 0,
        "slot": "0",
        "type": "t_bytes32"
      },
      {
        "astId": 2669,
        "contract": "contracts/Exchange.sol:Exchange",
        "label": "password",
        "offset": 0,
        "slot": "1",
        "type": "t_mapping(t_address,t_string_storage)"
      }
    ],
    "types": {
      "t_address": {
        "encoding": "inplace",
        "label": "address",
        "numberOfBytes": "20"
      },
      "t_bytes32": {
        "encoding": "inplace",
        "label": "bytes32",
        "numberOfBytes": "32"
      },
      "t_mapping(t_address,t_string_storage)": {
        "encoding": "mapping",
        "key": "t_address",
        "label": "mapping(address => string)",
        "numberOfBytes": "32",
        "value": "t_string_storage"
      },
      "t_string_storage": {
        "encoding": "bytes",
        "label": "string",
        "numberOfBytes": "32"
      }
    }
  }
}