{
  "address": "0xe75411DC167f5369b93407A756e06ab1a65e2590",
  "abi": [
    {
      "inputs": [],
      "stateMutability": "nonpayable",
      "type": "constructor"
    },
    {
      "inputs": [
        {
          "internalType": "address",
          "name": "tokenOneAddress",
          "type": "address"
        },
        {
          "internalType": "address",
          "name": "tokenTwoAddress",
          "type": "address"
        },
        {
          "internalType": "address",
          "name": "tokenOneOwner",
          "type": "address"
        },
        {
          "internalType": "address",
          "name": "tokenTwoOwner",
          "type": "address"
        },
        {
          "internalType": "uint256",
          "name": "tokenOneId",
          "type": "uint256"
        },
        {
          "internalType": "uint256",
          "name": "tokenTwoId",
          "type": "uint256"
        },
        {
          "internalType": "uint256",
          "name": "tokenOneAmount",
          "type": "uint256"
        },
        {
          "internalType": "uint256",
          "name": "tokenTwoAmount",
          "type": "uint256"
        },
        {
          "internalType": "bytes",
          "name": "data",
          "type": "bytes"
        }
      ],
      "name": "executeOrder",
      "outputs": [],
      "stateMutability": "nonpayable",
      "type": "function"
    }
  ],
  "transactionHash": "0x4391925d2321a03fba2f7acbec5d4df39add3294a526f0323f23c64ceecacd63",
  "args": [],
  "solcInputHash": "19e36556dad1c2f74285f6ddb4c9a4c2",
  "bytecode": "0x608060405234801561001057600080fd5b50604080518082018252600b81526a42726f77736572426f6f6b60a81b6020918201528151808301835260018152603160f81b908201529051610539916100c1917f8b73c3c69bb8fe3d512ecc4cf759cc79239f7b179b0ffacaa9a75d522b39400f917fe1087249b96a4db6e26768fcd2ff115b7c565029b03764f9b576a6ddb546c8ca917fc89efdaa54c0f20c7adf612882df0950f5a951637e0307cdcb4c672f298b8bc69186913091016100e2565b60408051601f1981840301815291905280516020909101206000555061010e565b9485526020850193909352604084019190915260608301526001600160a01b0316608082015260a00190565b6102a48061011d6000396000f3fe608060405234801561001057600080fd5b506004361061002b5760003560e01c8063dc3eb47e14610030575b600080fd5b61004361003e36600461013d565b610045565b005b604051637921219560e11b81526001600160a01b038b169063f242432a9061007b908b908b908b908a9089908990600401610215565b600060405180830381600087803b15801561009557600080fd5b505af11580156100a9573d6000803e3d6000fd5b5050604051637921219560e11b81526001600160a01b038c16925063f242432a91506100e3908a908c908a90899089908990600401610215565b600060405180830381600087803b1580156100fd57600080fd5b505af1158015610111573d6000803e3d6000fd5b5050505050505050505050505050565b80356001600160a01b038116811461013857600080fd5b919050565b6000806000806000806000806000806101208b8d03121561015c578586fd5b6101658b610121565b995061017360208c01610121565b985061018160408c01610121565b975061018f60608c01610121565b965060808b0135955060a08b0135945060c08b0135935060e08b013592506101008b013567ffffffffffffffff808211156101c8578384fd5b818d0191508d601f8301126101db578384fd5b8135818111156101e9578485fd5b8e60208285010111156101fa578485fd5b6020830194508093505050509295989b9194979a5092959850565b6001600160a01b03878116825286166020820152604081018590526060810184905260a06080820181905281018290526000828460c084013781830160c090810191909152601f909201601f191601019594505050505056fea2646970667358221220dc99b0414756dff4a96b6e29029293028afb043661aa9a5d639e273880dad7c264736f6c63430008000033",
  "devdoc": {
    "kind": "dev",
    "methods": {},
    "version": 1
  },
  "userdoc": {
    "kind": "user",
    "methods": {},
    "version": 1
  },
  "storageLayout": {
    "storage": [
      {
        "astId": 2665,
        "contract": "contracts/Exchange.sol:Exchange",
        "label": "DOMAIN_SEPARATOR",
        "offset": 0,
        "slot": "0",
        "type": "t_bytes32"
      }
    ],
    "types": {
      "t_bytes32": {
        "encoding": "inplace",
        "label": "bytes32",
        "numberOfBytes": "32"
      }
    }
  }
}