{
  "address": "0x158DE9dCBD61Cb02C83FEE4D606288f12BFCbebB",
  "abi": [
    {
      "anonymous": false,
      "inputs": [
        {
          "indexed": true,
          "internalType": "address",
          "name": "",
          "type": "address"
        },
        {
          "indexed": true,
          "internalType": "address",
          "name": "",
          "type": "address"
        },
        {
          "indexed": false,
          "internalType": "string",
          "name": "",
          "type": "string"
        }
      ],
      "name": "TokenCreated",
      "type": "event"
    },
    {
      "inputs": [
        {
          "internalType": "string",
          "name": "URI",
          "type": "string"
        }
      ],
      "name": "create",
      "outputs": [
        {
          "internalType": "address",
          "name": "",
          "type": "address"
        }
      ],
      "stateMutability": "nonpayable",
      "type": "function"
    },
    {
      "inputs": [
        {
          "internalType": "string",
          "name": "URI",
          "type": "string"
        }
      ],
      "name": "getTokenAddress",
      "outputs": [
        {
          "internalType": "address",
          "name": "",
          "type": "address"
        }
      ],
      "stateMutability": "view",
      "type": "function"
    }
  ],
  "transactionHash": "0x5d4954d00a4cfc353d3352d5b1e9bbc631ec9fbf19c9034e092fda34d2c7f373",
  "args": [],
  "solcInputHash": "c7c281d365612a41b86900c80d46f908",
  "bytecode": "0x608060405234801561001057600080fd5b506130a9806100206000396000f3fe608060405234801561001057600080fd5b50600436106100365760003560e01c8063b6a46b3b1461003b578063c409123614610064575b600080fd5b61004e610049366004610223565b610077565b60405161005b91906102ca565b60405180910390f35b61004e610072366004610223565b6101b4565b600080838333604051610089906101e8565b610095939291906102fa565b604051809103906000f0801580156100b1573d6000803e3d6000fd5b50905080600085856040516100c79291906102ba565b908152604080516020928190038301812080546001600160a01b0319166001600160a01b03958616179055635a54cd2760e11b8152905160009385169263b4a99a4e9260048082019391829003018186803b15801561012557600080fd5b505afa158015610139573d6000803e3d6000fd5b505050506040513d601f19601f8201168201806040525081019061015d91906101f5565b9050816001600160a01b0316816001600160a01b03167fb51c8cbe199ffe8b0d1d39b62d473569750653cb18b165f77ae423b3900180ad87876040516101a49291906102de565b60405180910390a3509392505050565b60008083836040516101c79291906102ba565b908152604051908190036020019020546001600160a01b0316905092915050565b612d4d8061032783390190565b600060208284031215610206578081fd5b81516001600160a01b038116811461021c578182fd5b9392505050565b60008060208385031215610235578081fd5b823567ffffffffffffffff8082111561024c578283fd5b818501915085601f83011261025f578283fd5b81358181111561026d578384fd5b86602082850101111561027e578384fd5b60209290920196919550909350505050565b60008284528282602086013780602084860101526020601f19601f85011685010190509392505050565b6000828483379101908152919050565b6001600160a01b0391909116815260200190565b6000602082526102f2602083018486610290565b949350505050565b60006040825261030e604083018587610290565b905060018060a01b038316602083015294935050505056fe60806040523480156200001157600080fd5b5060405162002d4d38038062002d4d833981016040819052620000349162000144565b81620000408162000068565b50600380546001600160a01b0319166001600160a01b0392909216919091179055506200027b565b80516200007d90600290602084019062000081565b5050565b8280546200008f9062000228565b90600052602060002090601f016020900481019282620000b35760008555620000fe565b82601f10620000ce57805160ff1916838001178555620000fe565b82800160010185558215620000fe579182015b82811115620000fe578251825591602001919060010190620000e1565b506200010c92915062000110565b5090565b5b808211156200010c576000815560010162000111565b80516001600160a01b03811681146200013f57600080fd5b919050565b6000806040838503121562000157578182fd5b82516001600160401b03808211156200016e578384fd5b818501915085601f83011262000182578384fd5b81518181111562000197576200019762000265565b6040516020601f8301601f1916820181018481118382101715620001bf57620001bf62000265565b6040528282528483018101891015620001d6578687fd5b8693505b82841015620001f95784840181015182850182015292830192620001da565b828411156200020a57868184840101525b8196506200021a81890162000127565b955050505050509250929050565b6002810460018216806200023d57607f821691505b602082108114156200025f57634e487b7160e01b600052602260045260246000fd5b50919050565b634e487b7160e01b600052604160045260246000fd5b612ac2806200028b6000396000f3fe60806040526004361061013f5760003560e01c8063a22cb465116100b6578063e44591f01161006f578063e44591f01461039a578063e985e9c5146103ba578063f23a6e61146103da578063f242432a146103fa578063f5b5bfb91461041a578063fc67bf1c1461042d5761013f565b8063a22cb465146102e3578063adebf6f214610303578063b4a99a4e14610323578063bc197c8114610338578063d533da2a14610365578063e0a5c949146103855761013f565b80633fa9f7f3116101085780633fa9f7f3146102165780634e1273f4146102435780634fe7baf6146102705780635977e82a14610283578063717b7f36146102a357806398b4ad6f146102c35761013f565b8062fdd58e1461014457806301ffc9a71461017a5780630e89341c146101a75780632eb2c2d6146101d45780633a3aea10146101f6575b600080fd5b34801561015057600080fd5b5061016461015f366004611eba565b610442565b6040516101719190612876565b60405180910390f35b34801561018657600080fd5b5061019a6101953660046120b1565b610499565b6040516101719190612275565b3480156101b357600080fd5b506101c76101c23660046120e9565b6104e1565b6040516101719190612295565b3480156101e057600080fd5b506101f46101ef366004611d15565b610575565b005b34801561020257600080fd5b50610164610211366004612097565b6105d3565b34801561022257600080fd5b506102366102313660046120e9565b610669565b6040516101719190612186565b34801561024f57600080fd5b5061026361025e366004611fda565b610684565b604051610171919061223d565b6101f461027e366004611eba565b6107a3565b34801561028f57600080fd5b5061016461029e3660046120e9565b610850565b3480156102af57600080fd5b5061019a6102be366004611f4a565b610862565b3480156102cf57600080fd5b506101f46102de366004611ee3565b61092f565b3480156102ef57600080fd5b506101f46102fe366004611e91565b610a52565b34801561030f57600080fd5b5061019a61031e3660046120e9565b610a68565b34801561032f57600080fd5b50610236610a72565b34801561034457600080fd5b50610358610353366004611c5f565b610a82565b6040516101719190612280565b34801561037157600080fd5b5061019a610380366004611f7c565b610a96565b34801561039157600080fd5b50610358610bfb565b3480156103a657600080fd5b5061019a6103b53660046120e9565b610c06565b3480156103c657600080fd5b5061019a6103d5366004611c2d565b610c12565b3480156103e657600080fd5b506103586103f5366004611dba565b610c40565b34801561040657600080fd5b506101f4610415366004611e2f565b610c52565b6101f46104283660046120e9565b610d33565b34801561043957600080fd5b50610358610e63565b60006001600160a01b0383166104735760405162461bcd60e51b815260040161046a9061237b565b60405180910390fd5b506000908152602081815260408083206001600160a01b03949094168352929052205490565b60006001600160e01b03198216636cdb3d1360e11b14806104ca57506001600160e01b031982166303a24d0760e21b145b806104d957506104d982610e6e565b90505b919050565b6060600280546104f090612947565b80601f016020809104026020016040519081016040528092919081815260200182805461051c90612947565b80156105695780601f1061053e57610100808354040283529160200191610569565b820191906000526020600020905b81548152906001019060200180831161054c57829003601f168201915b50505050509050919050565b61057d610e87565b6001600160a01b0316856001600160a01b031614806105a357506105a3856103d5610e87565b6105bf5760405162461bcd60e51b815260040161046a906124ea565b6105cc8585858585610e8b565b5050505050565b6003546000906001600160a01b031633146106005760405162461bcd60e51b815260040161046a90612344565b60046000815461060f90612982565b91829055509050811561062357600160ff1b175b336001600160a01b03167f3b268e028f2b1bf58c83796923f89d1e1d1fcd7d3e76ae07ac57c0ddce79e5018260405161065c9190612876565b60405180910390a2919050565b6000908152600560205260409020546001600160a01b031690565b606081518351146106a75760405162461bcd60e51b815260040161046a906127a4565b600083516001600160401b038111156106d057634e487b7160e01b600052604160045260246000fd5b6040519080825280602002602001820160405280156106f9578160200160208202803683370190505b50905060005b845181101561079b5761076085828151811061072b57634e487b7160e01b600052603260045260246000fd5b602002602001015185838151811061075357634e487b7160e01b600052603260045260246000fd5b6020026020010151610442565b82828151811061078057634e487b7160e01b600052603260045260246000fd5b602090810291909101015261079481612982565b90506106ff565b509392505050565b6107ac81610a68565b6107c85760405162461bcd60e51b815260040161046a906123c6565b60008181526008602052604081206107e0908461105c565b6000838152600860205260408120919250906107fc9083611078565b6000858152600860205260409020909250610819915085836110cb565b506040516001600160a01b0385169082156108fc029083906000818181858888f193505050501580156105cc573d6000803e3d6000fd5b600c6020526000908152604090205481565b60035460009083906001600160a01b031633148061089e5750600081815260066020908152604080832033845290915290205460ff1615156001145b6108ba5760405162461bcd60e51b815260040161046a90612344565b6108c384610a68565b6108df5760405162461bcd60e51b815260040161046a90612458565b6108ea858585611176565b6000848152600c602052604081208054859290610908908490612930565b909155505060008481526007602052604090206109269086856110cb565b95945050505050565b60008281526005602052604090205482906001600160a01b0316156109665760405162461bcd60e51b815260040161046a90612687565b60035483906001600160a01b031633148061099f5750600081815260066020908152604080832033845290915290205460ff1615156001145b6109bb5760405162461bcd60e51b815260040161046a90612344565b6109c484610c06565b6109e05760405162461bcd60e51b815260040161046a906126be565b6109ea8486611285565b6000848152600c6020908152604080832060019055600b82529091208451610a1492860190611a04565b5060405184906001600160a01b038716907f1c99a3094efa6e992469bc3c39571effd2c0bb7c5c0e6b4dfbe767b3d2da142c90600090a35050505050565b610a64610a5d610e87565b8383611309565b5050565b600160ff1b161590565b6003546001600160a01b03165b90565b63bc197c8160e01b98975050505050505050565b60035460009084906001600160a01b0316331480610ad25750600081815260066020908152604080832033845290915290205460ff1615156001145b610aee5760405162461bcd60e51b815260040161046a90612344565b610af785610a68565b610b135760405162461bcd60e51b815260040161046a90612584565b610b1f868686866113ac565b60008581526009602090815260408083206001600160a01b038a16845290915290205460ff1615610b8d576000858152600c602052604081208054869290610b689084906128d9565b90915550506000858152600760205260409020610b8690878661149b565b9150610bf2565b6000858152600c602052604081208054869290610bab9084906128d9565b909155505060008581526009602090815260408083206001600160a01b038a1684528252808320805460ff1916600117905587835260079091529020610b8690878661150d565b50949350505050565b63f23a6e6160e01b81565b600160ff1b9081161490565b6001600160a01b03918216600090815260016020908152604080832093909416825291909152205460ff1690565b63f23a6e6160e01b9695505050505050565b610c5a610e87565b6001600160a01b0316856001600160a01b03161480610c805750610c80856103d5610e87565b610c9c5760405162461bcd60e51b815260040161046a9061253c565b610ca583610a68565b15610cf057610cb7858585858561166f565b6000838152600760205260409020610cd09086846110cb565b506000838152600760205260409020610cea90858461149b565b506105cc565b846001600160a01b0316610d0384610669565b6001600160a01b031614610d295760405162461bcd60e51b815260040161046a9061265e565b6105cc8385611285565b6003546001600160a01b03163314610d5d5760405162461bcd60e51b815260040161046a90612344565b610d6681610a68565b610d825760405162461bcd60e51b815260040161046a9061270b565b346000808060015b6000868152600760205260409020610da290826117a3565b15610e23576000868152600760205260409020610dbf9082611078565b6000888152600c60205260409020549195509350610dea908690610de49086906117ae565b906117ba565b9150610e1084610dfb846064612911565b6000898152600860205260409020919061150d565b50610e1c6001826128d9565b9050610d8a565b50847f37dc85b4c5675703b4cd256ce394429805a35dfb7927cb9752de79f9e8c6aa6685604051610e549190612876565b60405180910390a25050505050565b63bc197c8160e01b81565b6001600160e01b031981166301ffc9a760e01b14919050565b3390565b8151835114610eac5760405162461bcd60e51b815260040161046a906127ed565b6001600160a01b038416610ed25760405162461bcd60e51b815260040161046a906124a5565b6000610edc610e87565b9050610eec818787878787611054565b60005b8451811015610fee576000858281518110610f1a57634e487b7160e01b600052603260045260246000fd5b602002602001015190506000858381518110610f4657634e487b7160e01b600052603260045260246000fd5b602090810291909101810151600084815280835260408082206001600160a01b038e168352909352919091205490915081811015610f965760405162461bcd60e51b815260040161046a90612614565b6000838152602081815260408083206001600160a01b038e8116855292528083208585039055908b16825281208054849290610fd39084906128d9565b9250508190555050505080610fe790612982565b9050610eef565b50846001600160a01b0316866001600160a01b0316826001600160a01b03167f4a39dc06d4c0dbc64b70af90fd698a233a518aa5d07e595d983b8c0526c8f7fb878760405161103e929190612250565b60405180910390a46110548187878787876117c6565b505050505050565b6001600160a01b03166000908152602091909152604090205490565b60008083600101838154811061109e57634e487b7160e01b600052603260045260246000fd5b60009182526020808320909101546001600160a01b03168083529590526040902060010154939492505050565b6001600160a01b03821660009081526020849052604081205480801580159061112e575085600101828154811061111257634e487b7160e01b600052603260045260246000fd5b600091825260209091200154600160a01b900460ff1615156001145b156111685761113d8482612930565b6001600160a01b0386166000908152602088905260409020600190810191909155925061116f915050565b6000925050505b9392505050565b6001600160a01b03831661119c5760405162461bcd60e51b815260040161046a906125d1565b60006111a6610e87565b90506111d6818560006111b8876118d4565b6111c1876118d4565b60405180602001604052806000815250611054565b6000838152602081815260408083206001600160a01b0388168452909152902054828110156112175760405162461bcd60e51b815260040161046a90612414565b6000848152602081815260408083206001600160a01b03808a16808652919093528184208786039055905190918516907fc3d58168c5ae7397731d063d5bbf3d657854427343f4c083240f7aacaa2d0f6290611276908990899061287f565b60405180910390a45050505050565b60035482906001600160a01b03163314806112be5750600081815260066020908152604080832033845290915290205460ff1615156001145b6112da5760405162461bcd60e51b815260040161046a90612344565b5060009182526005602052604090912080546001600160a01b0319166001600160a01b03909216919091179055565b816001600160a01b0316836001600160a01b0316141561133b5760405162461bcd60e51b815260040161046a9061275b565b6001600160a01b0383811660008181526001602090815260408083209487168084529490915290819020805460ff1916851515179055517f17307eab39ab6107e8899845ad3d59bd9653f200f220920489ca2b5937696c319061139f908590612275565b60405180910390a3505050565b6001600160a01b0384166113d25760405162461bcd60e51b815260040161046a90612835565b60006113dc610e87565b90506113fd816000876113ee886118d4565b6113f7886118d4565b87611054565b6000848152602081815260408083206001600160a01b03891684529091528120805485929061142d9084906128d9565b92505081905550846001600160a01b031660006001600160a01b0316826001600160a01b03167fc3d58168c5ae7397731d063d5bbf3d657854427343f4c083240f7aacaa2d0f62878760405161148492919061287f565b60405180910390a46105cc8160008787878761192d565b6001600160a01b0382166000908152602084905260408120548080158015906114fe57508560010182815481106114e257634e487b7160e01b600052603260045260246000fd5b600091825260209091200154600160a01b900460ff1615156001145b156111685761113d84826128d9565b6001600160a01b0382166000908152602084905260408120548015158061156e575084600101818154811061155257634e487b7160e01b600052603260045260246000fd5b600091825260209091200154600160a01b900460ff1615156001145b1561157d57600091505061116f565b60018086015461158c916128d9565b60018087018054820181556001600160a01b038716600090815260208990526040902083815590910185905580549192508591839081106115dd57634e487b7160e01b600052603260045260246000fd5b600091825260209091200180546001600160a01b0319166001600160a01b0392909216919091179055600185810180548390811061162b57634e487b7160e01b600052603260045260246000fd5b600091825260208220018054921515600160a01b0260ff60a01b19909316929092179091556002860180549161166083612982565b9190505550600191505061116f565b6001600160a01b0384166116955760405162461bcd60e51b815260040161046a906124a5565b600061169f610e87565b90506116b08187876113ee886118d4565b6000848152602081815260408083206001600160a01b038a168452909152902054838110156116f15760405162461bcd60e51b815260040161046a90612614565b6000858152602081815260408083206001600160a01b038b811685529252808320878503905590881682528120805486929061172e9084906128d9565b92505081905550856001600160a01b0316876001600160a01b0316836001600160a01b03167fc3d58168c5ae7397731d063d5bbf3d657854427343f4c083240f7aacaa2d0f62888860405161178492919061287f565b60405180910390a461179a82888888888861192d565b50505050505050565b600191909101541190565b600061116f82846128f1565b600061116f8284612911565b6117d8846001600160a01b03166119fe565b156110545760405163bc197c8160e01b81526001600160a01b0385169063bc197c8190611811908990899088908890889060040161219a565b602060405180830381600087803b15801561182b57600080fd5b505af192505050801561185b575060408051601f3d908101601f19168201909252611858918101906120cd565b60015b6118a4576118676129cf565b80611872575061188c565b8060405162461bcd60e51b815260040161046a9190612295565b60405162461bcd60e51b815260040161046a906122a8565b6001600160e01b0319811663bc197c8160e01b1461179a5760405162461bcd60e51b815260040161046a906122fc565b6040805160018082528183019092526060916000919060208083019080368337019050509050828160008151811061191c57634e487b7160e01b600052603260045260246000fd5b602090810291909101015292915050565b61193f846001600160a01b03166119fe565b156110545760405163f23a6e6160e01b81526001600160a01b0385169063f23a6e619061197890899089908890889088906004016121f8565b602060405180830381600087803b15801561199257600080fd5b505af19250505080156119c2575060408051601f3d908101601f191682019092526119bf918101906120cd565b60015b6119ce576118676129cf565b6001600160e01b0319811663f23a6e6160e01b1461179a5760405162461bcd60e51b815260040161046a906122fc565b3b151590565b828054611a1090612947565b90600052602060002090601f016020900481019282611a325760008555611a78565b82601f10611a4b57805160ff1916838001178555611a78565b82800160010185558215611a78579182015b82811115611a78578251825591602001919060010190611a5d565b50611a84929150611a88565b5090565b5b80821115611a845760008155600101611a89565b60006001600160401b03831115611ab657611ab66129b3565b611ac9601f8401601f191660200161288d565b9050828152838383011115611add57600080fd5b828260208301376000602084830101529392505050565b80356001600160a01b03811681146104dc57600080fd5b60008083601f840112611b1c578182fd5b5081356001600160401b03811115611b32578182fd5b6020830191508360208083028501011115611b4c57600080fd5b9250929050565b600082601f830112611b63578081fd5b81356020611b78611b73836128b6565b61288d565b8281528181019085830183850287018401881015611b94578586fd5b855b85811015611bb257813584529284019290840190600101611b96565b5090979650505050505050565b803580151581146104dc57600080fd5b60008083601f840112611be0578182fd5b5081356001600160401b03811115611bf6578182fd5b602083019150836020828501011115611b4c57600080fd5b600082601f830112611c1e578081fd5b61116f83833560208501611a9d565b60008060408385031215611c3f578182fd5b611c4883611af4565b9150611c5660208401611af4565b90509250929050565b60008060008060008060008060a0898b031215611c7a578384fd5b611c8389611af4565b9750611c9160208a01611af4565b965060408901356001600160401b0380821115611cac578586fd5b611cb88c838d01611b0b565b909850965060608b0135915080821115611cd0578586fd5b611cdc8c838d01611b0b565b909650945060808b0135915080821115611cf4578384fd5b50611d018b828c01611bcf565b999c989b5096995094979396929594505050565b600080600080600060a08688031215611d2c578081fd5b611d3586611af4565b9450611d4360208701611af4565b935060408601356001600160401b0380821115611d5e578283fd5b611d6a89838a01611b53565b94506060880135915080821115611d7f578283fd5b611d8b89838a01611b53565b93506080880135915080821115611da0578283fd5b50611dad88828901611c0e565b9150509295509295909350565b60008060008060008060a08789031215611dd2578182fd5b611ddb87611af4565b9550611de960208801611af4565b9450604087013593506060870135925060808701356001600160401b03811115611e11578283fd5b611e1d89828a01611bcf565b979a9699509497509295939492505050565b600080600080600060a08688031215611e46578081fd5b611e4f86611af4565b9450611e5d60208701611af4565b9350604086013592506060860135915060808601356001600160401b03811115611e85578182fd5b611dad88828901611c0e565b60008060408385031215611ea3578182fd5b611eac83611af4565b9150611c5660208401611bbf565b60008060408385031215611ecc578182fd5b611ed583611af4565b946020939093013593505050565b600080600060608486031215611ef7578081fd5b611f0084611af4565b92506020840135915060408401356001600160401b03811115611f21578182fd5b8401601f81018613611f31578182fd5b611f4086823560208401611a9d565b9150509250925092565b600080600060608486031215611f5e578081fd5b611f6784611af4565b95602085013595506040909401359392505050565b60008060008060808587031215611f91578182fd5b611f9a85611af4565b9350602085013592506040850135915060608501356001600160401b03811115611fc2578182fd5b611fce87828801611c0e565b91505092959194509250565b60008060408385031215611fec578182fd5b82356001600160401b0380821115612002578384fd5b818501915085601f830112612015578384fd5b81356020612025611b73836128b6565b82815281810190858301838502870184018b1015612041578889fd5b8896505b8487101561206a5761205681611af4565b835260019690960195918301918301612045565b5096505086013592505080821115612080578283fd5b5061208d85828601611b53565b9150509250929050565b6000602082840312156120a8578081fd5b61116f82611bbf565b6000602082840312156120c2578081fd5b813561116f81612a73565b6000602082840312156120de578081fd5b815161116f81612a73565b6000602082840312156120fa578081fd5b5035919050565b6000815180845260208085019450808401835b8381101561213057815187529582019590820190600101612114565b509495945050505050565b60008151808452815b8181101561216057602081850181015186830182015201612144565b818111156121715782602083870101525b50601f01601f19169290920160200192915050565b6001600160a01b0391909116815260200190565b6001600160a01b0386811682528516602082015260a0604082018190526000906121c690830186612101565b82810360608401526121d88186612101565b905082810360808401526121ec818561213b565b98975050505050505050565b6001600160a01b03868116825285166020820152604081018490526060810183905260a0608082018190526000906122329083018461213b565b979650505050505050565b60006020825261116f6020830184612101565b6000604082526122636040830185612101565b82810360208401526109268185612101565b901515815260200190565b6001600160e01b031991909116815260200190565b60006020825261116f602083018461213b565b60208082526034908201527f455243313135353a207472616e7366657220746f206e6f6e20455243313135356040820152732932b1b2b4bb32b91034b6b83632b6b2b73a32b960611b606082015260800190565b60208082526028908201527f455243313135353a204552433131353552656365697665722072656a656374656040820152676420746f6b656e7360c01b606082015260800190565b6020808252601f908201527f596f752063616e6e6f7420706572666f726d207468697320616374696f6e2e00604082015260600190565b6020808252602b908201527f455243313135353a2062616c616e636520717565727920666f7220746865207a60408201526a65726f206164647265737360a81b606082015260800190565b6020808252602e908201527f54524945445f544f5f434c41494d5f4449564944454e445f464f525f4e4f4e5f60408201526d232aa723a4a12622afaa27a5a2a760911b606082015260800190565b60208082526024908201527f455243313135353a206275726e20616d6f756e7420657863656564732062616c604082015263616e636560e01b606082015260800190565b6020808252602d908201527f54524945445f544f5f4255524e5f46554e4749424c455f464f525f4e4f4e5f4660408201526c2aa723a4a12622afaa27a5a2a760991b606082015260800190565b60208082526025908201527f455243313135353a207472616e7366657220746f20746865207a65726f206164604082015264647265737360d81b606082015260800190565b60208082526032908201527f455243313135353a207472616e736665722063616c6c6572206973206e6f74206040820152711bdddb995c881b9bdc88185c1c1c9bdd995960721b606082015260800190565b60208082526028908201527f455243313135353a2043414c4c45525f49535f4e4f545f4f574e45525f4f525f6040820152671054141493d5915160c21b606082015260800190565b6020808252602d908201527f54524945445f544f5f4d494e545f4e4f4e5f46554e4749424c455f464f525f4660408201526c2aa723a4a12622afaa27a5a2a760991b606082015260800190565b60208082526023908201527f455243313135353a206275726e2066726f6d20746865207a65726f206164647260408201526265737360e81b606082015260800190565b6020808252602a908201527f455243313135353a20696e73756666696369656e742062616c616e636520666f60408201526939103a3930b739b332b960b11b606082015260800190565b6020808252600f908201526e2bb937b7339027232a1037bbb732b960891b604082015260600190565b6020808252601e908201527f4e465420697320616c7265616479206f776e6564206279206f74686572730000604082015260600190565b6020808252602d908201527f54524945445f544f5f4d494e545f46554e4749424c455f464f525f4e4f4e5f4660408201526c2aa723a4a12622afaa27a5a2a760991b606082015260800190565b60208082526030908201527f54524945445f544f5f50524f564944455f4449564944454e445f464f525f4e4f60408201526f272fa32aa723a4a12622afaa27a5a2a760811b606082015260800190565b60208082526029908201527f455243313135353a2073657474696e6720617070726f76616c20737461747573604082015268103337b91039b2b63360b91b606082015260800190565b60208082526029908201527f455243313135353a206163636f756e747320616e6420696473206c656e677468604082015268040dad2e6dac2e8c6d60bb1b606082015260800190565b60208082526028908201527f455243313135353a2069647320616e6420616d6f756e7473206c656e677468206040820152670dad2e6dac2e8c6d60c31b606082015260800190565b60208082526021908201527f455243313135353a206d696e7420746f20746865207a65726f206164647265736040820152607360f81b606082015260800190565b90815260200190565b918252602082015260400190565b6040518181016001600160401b03811182821017156128ae576128ae6129b3565b604052919050565b60006001600160401b038211156128cf576128cf6129b3565b5060209081020190565b600082198211156128ec576128ec61299d565b500190565b60008261290c57634e487b7160e01b81526012600452602481fd5b500490565b600081600019048311821515161561292b5761292b61299d565b500290565b6000828210156129425761294261299d565b500390565b60028104600182168061295b57607f821691505b6020821081141561297c57634e487b7160e01b600052602260045260246000fd5b50919050565b60006000198214156129965761299661299d565b5060010190565b634e487b7160e01b600052601160045260246000fd5b634e487b7160e01b600052604160045260246000fd5b60e01c90565b600060443d10156129df57610a7f565b600481823e6308c379a06129f382516129c9565b146129fd57610a7f565b6040513d600319016004823e80513d6001600160401b038160248401118184111715612a2c5750505050610a7f565b82840192508251915080821115612a465750505050610a7f565b503d83016020828401011115612a5e57505050610a7f565b601f01601f1916810160200160405291505090565b6001600160e01b031981168114612a8957600080fd5b5056fea26469706673582212201498260b605b97dd7b8ac8cc3f38eba1067e700bdf651581830ed2af22ff764e64736f6c63430008000033a264697066735822122035c452ec91ed80ec633f28e48c666c6fdcb9e4463072c14b103484754110c1e964736f6c63430008000033",
  "devdoc": {
    "kind": "dev",
    "methods": {},
    "version": 1
  },
  "userdoc": {
    "kind": "user",
    "methods": {},
    "version": 1
  },
  "storageLayout": {
    "storage": [
      {
        "astId": 2890,
        "contract": "contracts/TokenFactory.sol:TokenFactory",
        "label": "_tokenAddress",
        "offset": 0,
        "slot": "0",
        "type": "t_mapping(t_string_memory_ptr,t_address)"
      }
    ],
    "types": {
      "t_address": {
        "encoding": "inplace",
        "label": "address",
        "numberOfBytes": "20"
      },
      "t_mapping(t_string_memory_ptr,t_address)": {
        "encoding": "mapping",
        "key": "t_string_memory_ptr",
        "label": "mapping(string => address)",
        "numberOfBytes": "32",
        "value": "t_address"
      },
      "t_string_memory_ptr": {
        "encoding": "bytes",
        "label": "string",
        "numberOfBytes": "32"
      }
    }
  }
}