{
  "address": "0x9F2d7AA3884360a309A5f7D875E14cD9413FF794",
  "abi": [
    {
      "anonymous": false,
      "inputs": [
        {
          "indexed": false,
          "internalType": "string",
          "name": "",
          "type": "string"
        },
        {
          "indexed": true,
          "internalType": "address",
          "name": "",
          "type": "address"
        }
      ],
      "name": "TokenCreated",
      "type": "event"
    },
    {
      "anonymous": false,
      "inputs": [
        {
          "indexed": true,
          "internalType": "address",
          "name": "",
          "type": "address"
        },
        {
          "indexed": false,
          "internalType": "address",
          "name": "",
          "type": "address"
        }
      ],
      "name": "TokenOwnerNotice",
      "type": "event"
    },
    {
      "inputs": [
        {
          "internalType": "string",
          "name": "URI",
          "type": "string"
        }
      ],
      "name": "create",
      "outputs": [
        {
          "internalType": "address",
          "name": "",
          "type": "address"
        }
      ],
      "stateMutability": "nonpayable",
      "type": "function"
    },
    {
      "inputs": [
        {
          "internalType": "string",
          "name": "URI",
          "type": "string"
        }
      ],
      "name": "getTokenAddress",
      "outputs": [
        {
          "internalType": "address",
          "name": "",
          "type": "address"
        }
      ],
      "stateMutability": "view",
      "type": "function"
    }
  ],
  "transactionHash": "0x136cd16c52b200dc2b51e8174516c0029e0f5a2215e7d0f3ec15544d5c90f252",
  "args": [],
  "solcInputHash": "689e2945123819fb3ece645ca76c981c",
  "bytecode": "0x608060405234801561001057600080fd5b50612d6f806100206000396000f3fe608060405234801561001057600080fd5b50600436106100365760003560e01c8063b6a46b3b1461003b578063c409123614610064575b600080fd5b61004e61004936600461025a565b610077565b60405161005b9190610301565b60405180910390f35b61004e61007236600461025a565b6101eb565b6000808383336040516100899061021f565b61009593929190610331565b604051809103906000f0801580156100b1573d6000803e3d6000fd5b50905080600085856040516100c79291906102f1565b90815260405190819003602001812080546001600160a01b039384166001600160a01b0319909116179055908216907ffdc90d498a1602314464a0907c52c51090745809fb1655b49df42e9333129f70906101259087908790610315565b60405180910390a26000816001600160a01b031663b4a99a4e6040518163ffffffff1660e01b815260040160206040518083038186803b15801561016857600080fd5b505afa15801561017c573d6000803e3d6000fd5b505050506040513d601f19601f820116820180604052508101906101a0919061022c565b9050806001600160a01b03167f03c4a1e8b8ecb9d2c5710536ba956b376f50d5f43bb41146215c680639a7f53e836040516101db9190610301565b60405180910390a2509392505050565b60008083836040516101fe9291906102f1565b908152604051908190036020019020546001600160a01b0316905092915050565b6129dc8061035e83390190565b60006020828403121561023d578081fd5b81516001600160a01b0381168114610253578182fd5b9392505050565b6000806020838503121561026c578081fd5b823567ffffffffffffffff80821115610283578283fd5b818501915085601f830112610296578283fd5b8135818111156102a4578384fd5b8660208285010111156102b5578384fd5b60209290920196919550909350505050565b60008284528282602086013780602084860101526020601f19601f85011685010190509392505050565b6000828483379101908152919050565b6001600160a01b0391909116815260200190565b6000602082526103296020830184866102c7565b949350505050565b6000604082526103456040830185876102c7565b905060018060a01b038316602083015294935050505056fe60806040523480156200001157600080fd5b50604051620029dc380380620029dc833981016040819052620000349162000144565b81620000408162000068565b50600380546001600160a01b0319166001600160a01b0392909216919091179055506200027b565b80516200007d90600290602084019062000081565b5050565b8280546200008f9062000228565b90600052602060002090601f016020900481019282620000b35760008555620000fe565b82601f10620000ce57805160ff1916838001178555620000fe565b82800160010185558215620000fe579182015b82811115620000fe578251825591602001919060010190620000e1565b506200010c92915062000110565b5090565b5b808211156200010c576000815560010162000111565b80516001600160a01b03811681146200013f57600080fd5b919050565b6000806040838503121562000157578182fd5b82516001600160401b03808211156200016e578384fd5b818501915085601f83011262000182578384fd5b81518181111562000197576200019762000265565b6040516020601f8301601f1916820181018481118382101715620001bf57620001bf62000265565b6040528282528483018101891015620001d6578687fd5b8693505b82841015620001f95784840181015182850182015292830192620001da565b828411156200020a57868184840101525b8196506200021a81890162000127565b955050505050509250929050565b6002810460018216806200023d57607f821691505b602082108114156200025f57634e487b7160e01b600052602260045260246000fd5b50919050565b634e487b7160e01b600052604160045260246000fd5b612751806200028b6000396000f3fe6080604052600436106101135760003560e01c806398b4ad6f116100a0578063d533da2a11610064578063d533da2a1461030c578063e44591f01461032c578063e985e9c51461034c578063f242432a1461036c578063f5b5bfb91461038c57610113565b806398b4ad6f14610284578063a22cb465146102a4578063adebf6f2146102c4578063b4a99a4e146102e4578063cdbe4d87146102f957610113565b80633a3aea10116100e75780633a3aea10146101ca5780633fa9f7f3146101ea5780634e1273f4146102175780635977e82a14610244578063717b7f361461026457610113565b8062fdd58e1461011857806301ffc9a71461014e5780630e89341c1461017b5780632eb2c2d6146101a8575b600080fd5b34801561012457600080fd5b50610138610133366004611c42565b61039f565b6040516101459190612502565b60405180910390f35b34801561015a57600080fd5b5061016e610169366004611e3c565b6103f6565b6040516101459190612000565b34801561018757600080fd5b5061019b610196366004611e74565b61043e565b604051610145919061200b565b3480156101b457600080fd5b506101c86101c3366004611b10565b6104d2565b005b3480156101d657600080fd5b506101386101e5366004611e22565b610530565b3480156101f657600080fd5b5061020a610205366004611e74565b6105c6565b6040516101459190611f11565b34801561022357600080fd5b50610237610232366004611d64565b6105e1565b6040516101459190611fc8565b34801561025057600080fd5b5061013861025f366004611e74565b610701565b34801561027057600080fd5b5061016e61027f366004611cd3565b610713565b34801561029057600080fd5b506101c861029f366004611c6b565b6107e0565b3480156102b057600080fd5b506101c86102bf366004611c19565b610903565b3480156102d057600080fd5b5061016e6102df366004611e74565b6109d1565b3480156102f057600080fd5b5061020a6109db565b6101c8610307366004611c42565b6109eb565b34801561031857600080fd5b5061016e610327366004611d05565b610a98565b34801561033857600080fd5b5061016e610347366004611e74565b610bfd565b34801561035857600080fd5b5061016e610367366004611ade565b610c09565b34801561037857600080fd5b506101c8610387366004611bb6565b610c37565b6101c861039a366004611e74565b610d18565b60006001600160a01b0383166103d05760405162461bcd60e51b81526004016103c7906120f1565b60405180910390fd5b506000908152602081815260408083206001600160a01b03949094168352929052205490565b60006001600160e01b03198216636cdb3d1360e11b148061042757506001600160e01b031982166303a24d0760e21b145b80610436575061043682610e48565b90505b919050565b60606002805461044d906125d5565b80601f0160208091040260200160405190810160405280929190818152602001828054610479906125d5565b80156104c65780601f1061049b576101008083540402835291602001916104c6565b820191906000526020600020905b8154815290600101906020018083116104a957829003601f168201915b50505050509050919050565b6104da610e61565b6001600160a01b0316856001600160a01b03161480610500575061050085610367610e61565b61051c5760405162461bcd60e51b81526004016103c79061225b565b6105298585858585610e65565b5050505050565b6003546000906001600160a01b0316331461055d5760405162461bcd60e51b81526004016103c7906120ba565b60046000815461056c90612610565b91829055509050811561058057600160ff1b175b336001600160a01b03167f3b268e028f2b1bf58c83796923f89d1e1d1fcd7d3e76ae07ac57c0ddce79e501826040516105b99190612502565b60405180910390a2919050565b6000908152600560205260409020546001600160a01b031690565b606081518351146106045760405162461bcd60e51b81526004016103c790612430565b6000835167ffffffffffffffff81111561062e57634e487b7160e01b600052604160045260246000fd5b604051908082528060200260200182016040528015610657578160200160208202803683370190505b50905060005b84518110156106f9576106be85828151811061068957634e487b7160e01b600052603260045260246000fd5b60200260200101518583815181106106b157634e487b7160e01b600052603260045260246000fd5b602002602001015161039f565b8282815181106106de57634e487b7160e01b600052603260045260246000fd5b60209081029190910101526106f281612610565b905061065d565b509392505050565b600c6020526000908152604090205481565b60035460009083906001600160a01b031633148061074f5750600081815260066020908152604080832033845290915290205460ff1615156001145b61076b5760405162461bcd60e51b81526004016103c7906120ba565b610774846109d1565b6107905760405162461bcd60e51b81526004016103c7906121c9565b61079b858585611036565b6000848152600c6020526040812080548592906107b99084906125be565b909155505060008481526007602052604090206107d7908685611145565b95945050505050565b60008281526005602052604090205482906001600160a01b0316156108175760405162461bcd60e51b81526004016103c790612363565b60035483906001600160a01b03163314806108505750600081815260066020908152604080832033845290915290205460ff1615156001145b61086c5760405162461bcd60e51b81526004016103c7906120ba565b61087584610bfd565b6108915760405162461bcd60e51b81526004016103c79061239a565b61089b84866111f0565b6000848152600c6020908152604080832060019055600b825290912084516108c59286019061193b565b5060405184906001600160a01b038716907f1c99a3094efa6e992469bc3c39571effd2c0bb7c5c0e6b4dfbe767b3d2da142c90600090a35050505050565b816001600160a01b0316610915610e61565b6001600160a01b0316141561093c5760405162461bcd60e51b81526004016103c7906123e7565b8060016000610949610e61565b6001600160a01b03908116825260208083019390935260409182016000908120918716808252919093529120805460ff19169215159290921790915561098d610e61565b6001600160a01b03167f17307eab39ab6107e8899845ad3d59bd9653f200f220920489ca2b5937696c31836040516109c59190612000565b60405180910390a35050565b600160ff1b161590565b6003546001600160a01b03165b90565b6109f4816109d1565b610a105760405162461bcd60e51b81526004016103c7906121c9565b6000818152600860205260408120610a289084611274565b600083815260086020526040812091925090610a449083611290565b6000858152600860205260409020909250610a6191508583611145565b506040516001600160a01b0385169082156108fc029083906000818181858888f19350505050158015610529573d6000803e3d6000fd5b60035460009084906001600160a01b0316331480610ad45750600081815260066020908152604080832033845290915290205460ff1615156001145b610af05760405162461bcd60e51b81526004016103c7906120ba565b610af9856109d1565b610b155760405162461bcd60e51b81526004016103c79061239a565b610b21868686866112e3565b60008581526009602090815260408083206001600160a01b038a16845290915290205460ff1615610b8f576000858152600c602052604081208054869290610b6a908490612567565b90915550506000858152600760205260409020610b889087866113d2565b9150610bf4565b6000858152600c602052604081208054869290610bad908490612567565b909155505060008581526009602090815260408083206001600160a01b038a1684528252808320805460ff1916600117905587835260079091529020610b88908786611444565b50949350505050565b600160ff1b9081161490565b6001600160a01b03918216600090815260016020908152604080832093909416825291909152205460ff1690565b610c3f610e61565b6001600160a01b0316856001600160a01b03161480610c655750610c6585610367610e61565b610c815760405162461bcd60e51b81526004016103c790612180565b610c8a836109d1565b15610cd557610c9c85858585856115a6565b6000838152600760205260409020610cb5908684611145565b506000838152600760205260409020610ccf9085846113d2565b50610529565b846001600160a01b0316610ce8846105c6565b6001600160a01b031614610d0e5760405162461bcd60e51b81526004016103c79061233a565b61052983856111f0565b6003546001600160a01b03163314610d425760405162461bcd60e51b81526004016103c7906120ba565b610d4b816109d1565b610d675760405162461bcd60e51b81526004016103c7906121c9565b346000808060015b6000868152600760205260409020610d8790826116da565b15610e08576000868152600760205260409020610da49082611290565b6000888152600c60205260409020549195509350610dcf908690610dc99086906116e5565b906116f1565b9150610df584610de084606461259f565b60008981526008602052604090209190611444565b50610e01600182612567565b9050610d6f565b50847f37dc85b4c5675703b4cd256ce394429805a35dfb7927cb9752de79f9e8c6aa6685604051610e399190612502565b60405180910390a25050505050565b6001600160e01b031981166301ffc9a760e01b14919050565b3390565b8151835114610e865760405162461bcd60e51b81526004016103c790612479565b6001600160a01b038416610eac5760405162461bcd60e51b81526004016103c790612216565b6000610eb6610e61565b9050610ec681878787878761102e565b60005b8451811015610fc8576000858281518110610ef457634e487b7160e01b600052603260045260246000fd5b602002602001015190506000858381518110610f2057634e487b7160e01b600052603260045260246000fd5b602090810291909101810151600084815280835260408082206001600160a01b038e168352909352919091205490915081811015610f705760405162461bcd60e51b81526004016103c7906122f0565b6000838152602081815260408083206001600160a01b038e8116855292528083208585039055908b16825281208054849290610fad908490612567565b9250508190555050505080610fc190612610565b9050610ec9565b50846001600160a01b0316866001600160a01b0316826001600160a01b03167f4a39dc06d4c0dbc64b70af90fd698a233a518aa5d07e595d983b8c0526c8f7fb8787604051611018929190611fdb565b60405180910390a461102e8187878787876116fd565b505050505050565b6001600160a01b03831661105c5760405162461bcd60e51b81526004016103c7906122ad565b6000611066610e61565b9050611096818560006110788761180b565b6110818761180b565b6040518060200160405280600081525061102e565b6000838152602081815260408083206001600160a01b0388168452909152902054828110156110d75760405162461bcd60e51b81526004016103c79061213c565b6000848152602081815260408083206001600160a01b03808a16808652919093528184208786039055905190918516907fc3d58168c5ae7397731d063d5bbf3d657854427343f4c083240f7aacaa2d0f6290611136908990899061250b565b60405180910390a45050505050565b6001600160a01b0382166000908152602084905260408120548080158015906111a8575085600101828154811061118c57634e487b7160e01b600052603260045260246000fd5b600091825260209091200154600160a01b900460ff1615156001145b156111e2576111b784826125be565b6001600160a01b038616600090815260208890526040902060019081019190915592506111e9915050565b6000925050505b9392505050565b60035482906001600160a01b03163314806112295750600081815260066020908152604080832033845290915290205460ff1615156001145b6112455760405162461bcd60e51b81526004016103c7906120ba565b5060009182526005602052604090912080546001600160a01b0319166001600160a01b03909216919091179055565b6001600160a01b03166000908152602091909152604090205490565b6000808360010183815481106112b657634e487b7160e01b600052603260045260246000fd5b60009182526020808320909101546001600160a01b03168083529590526040902060010154939492505050565b6001600160a01b0384166113095760405162461bcd60e51b81526004016103c7906124c1565b6000611313610e61565b9050611334816000876113258861180b565b61132e8861180b565b8761102e565b6000848152602081815260408083206001600160a01b038916845290915281208054859290611364908490612567565b92505081905550846001600160a01b031660006001600160a01b0316826001600160a01b03167fc3d58168c5ae7397731d063d5bbf3d657854427343f4c083240f7aacaa2d0f6287876040516113bb92919061250b565b60405180910390a461052981600087878787611864565b6001600160a01b038216600090815260208490526040812054808015801590611435575085600101828154811061141957634e487b7160e01b600052603260045260246000fd5b600091825260209091200154600160a01b900460ff1615156001145b156111e2576111b78482612567565b6001600160a01b038216600090815260208490526040812054801515806114a5575084600101818154811061148957634e487b7160e01b600052603260045260246000fd5b600091825260209091200154600160a01b900460ff1615156001145b156114b45760009150506111e9565b6001808601546114c391612567565b60018087018054820181556001600160a01b0387166000908152602089905260409020838155909101859055805491925085918390811061151457634e487b7160e01b600052603260045260246000fd5b600091825260209091200180546001600160a01b0319166001600160a01b0392909216919091179055600185810180548390811061156257634e487b7160e01b600052603260045260246000fd5b600091825260208220018054921515600160a01b0260ff60a01b19909316929092179091556002860180549161159783612610565b919050555060019150506111e9565b6001600160a01b0384166115cc5760405162461bcd60e51b81526004016103c790612216565b60006115d6610e61565b90506115e78187876113258861180b565b6000848152602081815260408083206001600160a01b038a168452909152902054838110156116285760405162461bcd60e51b81526004016103c7906122f0565b6000858152602081815260408083206001600160a01b038b8116855292528083208785039055908816825281208054869290611665908490612567565b92505081905550856001600160a01b0316876001600160a01b0316836001600160a01b03167fc3d58168c5ae7397731d063d5bbf3d657854427343f4c083240f7aacaa2d0f6288886040516116bb92919061250b565b60405180910390a46116d1828888888888611864565b50505050505050565b600191909101541190565b60006111e9828461257f565b60006111e9828461259f565b61170f846001600160a01b0316611935565b1561102e5760405163bc197c8160e01b81526001600160a01b0385169063bc197c81906117489089908990889088908890600401611f25565b602060405180830381600087803b15801561176257600080fd5b505af1925050508015611792575060408051601f3d908101601f1916820190925261178f91810190611e58565b60015b6117db5761179e61265d565b806117a957506117c3565b8060405162461bcd60e51b81526004016103c7919061200b565b60405162461bcd60e51b81526004016103c79061201e565b6001600160e01b0319811663bc197c8160e01b146116d15760405162461bcd60e51b81526004016103c790612072565b6040805160018082528183019092526060916000919060208083019080368337019050509050828160008151811061185357634e487b7160e01b600052603260045260246000fd5b602090810291909101015292915050565b611876846001600160a01b0316611935565b1561102e5760405163f23a6e6160e01b81526001600160a01b0385169063f23a6e61906118af9089908990889088908890600401611f83565b602060405180830381600087803b1580156118c957600080fd5b505af19250505080156118f9575060408051601f3d908101601f191682019092526118f691810190611e58565b60015b6119055761179e61265d565b6001600160e01b0319811663f23a6e6160e01b146116d15760405162461bcd60e51b81526004016103c790612072565b3b151590565b828054611947906125d5565b90600052602060002090601f01602090048101928261196957600085556119af565b82601f1061198257805160ff19168380011785556119af565b828001600101855582156119af579182015b828111156119af578251825591602001919060010190611994565b506119bb9291506119bf565b5090565b5b808211156119bb57600081556001016119c0565b600067ffffffffffffffff8311156119ee576119ee612641565b611a01601f8401601f1916602001612519565b9050828152838383011115611a1557600080fd5b828260208301376000602084830101529392505050565b80356001600160a01b038116811461043957600080fd5b600082601f830112611a53578081fd5b81356020611a68611a6383612543565b612519565b8281528181019085830183850287018401881015611a84578586fd5b855b85811015611aa257813584529284019290840190600101611a86565b5090979650505050505050565b8035801515811461043957600080fd5b600082601f830112611acf578081fd5b6111e9838335602085016119d4565b60008060408385031215611af0578182fd5b611af983611a2c565b9150611b0760208401611a2c565b90509250929050565b600080600080600060a08688031215611b27578081fd5b611b3086611a2c565b9450611b3e60208701611a2c565b9350604086013567ffffffffffffffff80821115611b5a578283fd5b611b6689838a01611a43565b94506060880135915080821115611b7b578283fd5b611b8789838a01611a43565b93506080880135915080821115611b9c578283fd5b50611ba988828901611abf565b9150509295509295909350565b600080600080600060a08688031215611bcd578081fd5b611bd686611a2c565b9450611be460208701611a2c565b93506040860135925060608601359150608086013567ffffffffffffffff811115611c0d578182fd5b611ba988828901611abf565b60008060408385031215611c2b578182fd5b611c3483611a2c565b9150611b0760208401611aaf565b60008060408385031215611c54578182fd5b611c5d83611a2c565b946020939093013593505050565b600080600060608486031215611c7f578283fd5b611c8884611a2c565b925060208401359150604084013567ffffffffffffffff811115611caa578182fd5b8401601f81018613611cba578182fd5b611cc9868235602084016119d4565b9150509250925092565b600080600060608486031215611ce7578283fd5b611cf084611a2c565b95602085013595506040909401359392505050565b60008060008060808587031215611d1a578182fd5b611d2385611a2c565b93506020850135925060408501359150606085013567ffffffffffffffff811115611d4c578182fd5b611d5887828801611abf565b91505092959194509250565b60008060408385031215611d76578182fd5b823567ffffffffffffffff80821115611d8d578384fd5b818501915085601f830112611da0578384fd5b81356020611db0611a6383612543565b82815281810190858301838502870184018b1015611dcc578889fd5b8896505b84871015611df557611de181611a2c565b835260019690960195918301918301611dd0565b5096505086013592505080821115611e0b578283fd5b50611e1885828601611a43565b9150509250929050565b600060208284031215611e33578081fd5b6111e982611aaf565b600060208284031215611e4d578081fd5b81356111e981612702565b600060208284031215611e69578081fd5b81516111e981612702565b600060208284031215611e85578081fd5b5035919050565b6000815180845260208085019450808401835b83811015611ebb57815187529582019590820190600101611e9f565b509495945050505050565b60008151808452815b81811015611eeb57602081850181015186830182015201611ecf565b81811115611efc5782602083870101525b50601f01601f19169290920160200192915050565b6001600160a01b0391909116815260200190565b6001600160a01b0386811682528516602082015260a060408201819052600090611f5190830186611e8c565b8281036060840152611f638186611e8c565b90508281036080840152611f778185611ec6565b98975050505050505050565b6001600160a01b03868116825285166020820152604081018490526060810183905260a060808201819052600090611fbd90830184611ec6565b979650505050505050565b6000602082526111e96020830184611e8c565b600060408252611fee6040830185611e8c565b82810360208401526107d78185611e8c565b901515815260200190565b6000602082526111e96020830184611ec6565b60208082526034908201527f455243313135353a207472616e7366657220746f206e6f6e20455243313135356040820152732932b1b2b4bb32b91034b6b83632b6b2b73a32b960611b606082015260800190565b60208082526028908201527f455243313135353a204552433131353552656365697665722072656a656374656040820152676420746f6b656e7360c01b606082015260800190565b6020808252601f908201527f596f752063616e6e6f7420706572666f726d207468697320616374696f6e2e00604082015260600190565b6020808252602b908201527f455243313135353a2062616c616e636520717565727920666f7220746865207a60408201526a65726f206164647265737360a81b606082015260800190565b60208082526024908201527f455243313135353a206275726e20616d6f756e7420657863656564732062616c604082015263616e636560e01b606082015260800190565b60208082526029908201527f455243313135353a2063616c6c6572206973206e6f74206f776e6572206e6f7260408201526808185c1c1c9bdd995960ba1b606082015260800190565b6020808252602d908201527f54524945445f544f5f4255524e5f46554e4749424c455f464f525f4e4f4e5f4660408201526c2aa723a4a12622afaa27a5a2a760991b606082015260800190565b60208082526025908201527f455243313135353a207472616e7366657220746f20746865207a65726f206164604082015264647265737360d81b606082015260800190565b60208082526032908201527f455243313135353a207472616e736665722063616c6c6572206973206e6f74206040820152711bdddb995c881b9bdc88185c1c1c9bdd995960721b606082015260800190565b60208082526023908201527f455243313135353a206275726e2066726f6d20746865207a65726f206164647260408201526265737360e81b606082015260800190565b6020808252602a908201527f455243313135353a20696e73756666696369656e742062616c616e636520666f60408201526939103a3930b739b332b960b11b606082015260800190565b6020808252600f908201526e2bb937b7339027232a1037bbb732b960891b604082015260600190565b6020808252601e908201527f4e465420697320616c7265616479206f776e6564206279206f74686572730000604082015260600190565b6020808252602d908201527f54524945445f544f5f4d494e545f46554e4749424c455f464f525f4e4f4e5f4660408201526c2aa723a4a12622afaa27a5a2a760991b606082015260800190565b60208082526029908201527f455243313135353a2073657474696e6720617070726f76616c20737461747573604082015268103337b91039b2b63360b91b606082015260800190565b60208082526029908201527f455243313135353a206163636f756e747320616e6420696473206c656e677468604082015268040dad2e6dac2e8c6d60bb1b606082015260800190565b60208082526028908201527f455243313135353a2069647320616e6420616d6f756e7473206c656e677468206040820152670dad2e6dac2e8c6d60c31b606082015260800190565b60208082526021908201527f455243313135353a206d696e7420746f20746865207a65726f206164647265736040820152607360f81b606082015260800190565b90815260200190565b918252602082015260400190565b60405181810167ffffffffffffffff8111828210171561253b5761253b612641565b604052919050565b600067ffffffffffffffff82111561255d5761255d612641565b5060209081020190565b6000821982111561257a5761257a61262b565b500190565b60008261259a57634e487b7160e01b81526012600452602481fd5b500490565b60008160001904831182151516156125b9576125b961262b565b500290565b6000828210156125d0576125d061262b565b500390565b6002810460018216806125e957607f821691505b6020821081141561260a57634e487b7160e01b600052602260045260246000fd5b50919050565b60006000198214156126245761262461262b565b5060010190565b634e487b7160e01b600052601160045260246000fd5b634e487b7160e01b600052604160045260246000fd5b60e01c90565b600060443d101561266d576109e8565b600481823e6308c379a06126818251612657565b1461268b576109e8565b6040513d600319016004823e80513d67ffffffffffffffff81602484011181841117156126bb57505050506109e8565b828401925082519150808211156126d557505050506109e8565b503d830160208284010111156126ed575050506109e8565b601f01601f1916810160200160405291505090565b6001600160e01b03198116811461271857600080fd5b5056fea2646970667358221220cffcd0a3c4be3d30a123dbeec6658c233ec931d998cf4c4dad5defde0652e53a64736f6c63430008000033a2646970667358221220a816eba73a7c374f23526a165fce9091d9c0c9ecd59d154130b09edfb223bebb64736f6c63430008000033",
  "devdoc": {
    "kind": "dev",
    "methods": {},
    "version": 1
  },
  "userdoc": {
    "kind": "user",
    "methods": {},
    "version": 1
  },
  "storageLayout": {
    "storage": [
      {
        "astId": 2639,
        "contract": "contracts/TokenFactory.sol:TokenFactory",
        "label": "_tokenAddress",
        "offset": 0,
        "slot": "0",
        "type": "t_mapping(t_string_memory_ptr,t_address)"
      }
    ],
    "types": {
      "t_address": {
        "encoding": "inplace",
        "label": "address",
        "numberOfBytes": "20"
      },
      "t_mapping(t_string_memory_ptr,t_address)": {
        "encoding": "mapping",
        "key": "t_string_memory_ptr",
        "label": "mapping(string => address)",
        "numberOfBytes": "32",
        "value": "t_address"
      },
      "t_string_memory_ptr": {
        "encoding": "bytes",
        "label": "string",
        "numberOfBytes": "32"
      }
    }
  }
}