{
  "_format": "hh-sol-artifact-1",
  "contractName": "LibAssetData",
  "sourceName": "contracts/0x/dev-utils/LibAssetData.sol",
  "abi": [
    {
      "constant": true,
      "inputs": [
        {
          "internalType": "bytes",
          "name": "assetData",
          "type": "bytes"
        }
      ],
      "name": "decodeAssetProxyId",
      "outputs": [
        {
          "internalType": "bytes4",
          "name": "assetProxyId",
          "type": "bytes4"
        }
      ],
      "payable": false,
      "stateMutability": "pure",
      "type": "function"
    },
    {
      "constant": true,
      "inputs": [
        {
          "internalType": "bytes",
          "name": "assetData",
          "type": "bytes"
        }
      ],
      "name": "decodeERC1155AssetData",
      "outputs": [
        {
          "internalType": "bytes4",
          "name": "assetProxyId",
          "type": "bytes4"
        },
        {
          "internalType": "address",
          "name": "tokenAddress",
          "type": "address"
        },
        {
          "internalType": "uint256[]",
          "name": "tokenIds",
          "type": "uint256[]"
        },
        {
          "internalType": "uint256[]",
          "name": "tokenValues",
          "type": "uint256[]"
        },
        {
          "internalType": "bytes",
          "name": "callbackData",
          "type": "bytes"
        }
      ],
      "payable": false,
      "stateMutability": "pure",
      "type": "function"
    },
    {
      "constant": true,
      "inputs": [
        {
          "internalType": "bytes",
          "name": "assetData",
          "type": "bytes"
        }
      ],
      "name": "decodeERC20AssetData",
      "outputs": [
        {
          "internalType": "bytes4",
          "name": "assetProxyId",
          "type": "bytes4"
        },
        {
          "internalType": "address",
          "name": "tokenAddress",
          "type": "address"
        }
      ],
      "payable": false,
      "stateMutability": "pure",
      "type": "function"
    },
    {
      "constant": true,
      "inputs": [
        {
          "internalType": "bytes",
          "name": "assetData",
          "type": "bytes"
        }
      ],
      "name": "decodeERC20BridgeAssetData",
      "outputs": [
        {
          "internalType": "bytes4",
          "name": "assetProxyId",
          "type": "bytes4"
        },
        {
          "internalType": "address",
          "name": "tokenAddress",
          "type": "address"
        },
        {
          "internalType": "address",
          "name": "bridgeAddress",
          "type": "address"
        },
        {
          "internalType": "bytes",
          "name": "bridgeData",
          "type": "bytes"
        }
      ],
      "payable": false,
      "stateMutability": "pure",
      "type": "function"
    },
    {
      "constant": true,
      "inputs": [
        {
          "internalType": "bytes",
          "name": "assetData",
          "type": "bytes"
        }
      ],
      "name": "decodeERC721AssetData",
      "outputs": [
        {
          "internalType": "bytes4",
          "name": "assetProxyId",
          "type": "bytes4"
        },
        {
          "internalType": "address",
          "name": "tokenAddress",
          "type": "address"
        },
        {
          "internalType": "uint256",
          "name": "tokenId",
          "type": "uint256"
        }
      ],
      "payable": false,
      "stateMutability": "pure",
      "type": "function"
    },
    {
      "constant": true,
      "inputs": [
        {
          "internalType": "bytes",
          "name": "assetData",
          "type": "bytes"
        }
      ],
      "name": "decodeMultiAssetData",
      "outputs": [
        {
          "internalType": "bytes4",
          "name": "assetProxyId",
          "type": "bytes4"
        },
        {
          "internalType": "uint256[]",
          "name": "amounts",
          "type": "uint256[]"
        },
        {
          "internalType": "bytes[]",
          "name": "nestedAssetData",
          "type": "bytes[]"
        }
      ],
      "payable": false,
      "stateMutability": "pure",
      "type": "function"
    },
    {
      "constant": true,
      "inputs": [
        {
          "internalType": "bytes",
          "name": "assetData",
          "type": "bytes"
        }
      ],
      "name": "decodeStaticCallAssetData",
      "outputs": [
        {
          "internalType": "bytes4",
          "name": "assetProxyId",
          "type": "bytes4"
        },
        {
          "internalType": "address",
          "name": "staticCallTargetAddress",
          "type": "address"
        },
        {
          "internalType": "bytes",
          "name": "staticCallData",
          "type": "bytes"
        },
        {
          "internalType": "bytes32",
          "name": "expectedReturnDataHash",
          "type": "bytes32"
        }
      ],
      "payable": false,
      "stateMutability": "pure",
      "type": "function"
    },
    {
      "constant": true,
      "inputs": [
        {
          "internalType": "address",
          "name": "tokenAddress",
          "type": "address"
        },
        {
          "internalType": "uint256[]",
          "name": "tokenIds",
          "type": "uint256[]"
        },
        {
          "internalType": "uint256[]",
          "name": "tokenValues",
          "type": "uint256[]"
        },
        {
          "internalType": "bytes",
          "name": "callbackData",
          "type": "bytes"
        }
      ],
      "name": "encodeERC1155AssetData",
      "outputs": [
        {
          "internalType": "bytes",
          "name": "assetData",
          "type": "bytes"
        }
      ],
      "payable": false,
      "stateMutability": "pure",
      "type": "function"
    },
    {
      "constant": true,
      "inputs": [
        {
          "internalType": "address",
          "name": "tokenAddress",
          "type": "address"
        }
      ],
      "name": "encodeERC20AssetData",
      "outputs": [
        {
          "internalType": "bytes",
          "name": "assetData",
          "type": "bytes"
        }
      ],
      "payable": false,
      "stateMutability": "pure",
      "type": "function"
    },
    {
      "constant": true,
      "inputs": [
        {
          "internalType": "address",
          "name": "tokenAddress",
          "type": "address"
        },
        {
          "internalType": "uint256",
          "name": "tokenId",
          "type": "uint256"
        }
      ],
      "name": "encodeERC721AssetData",
      "outputs": [
        {
          "internalType": "bytes",
          "name": "assetData",
          "type": "bytes"
        }
      ],
      "payable": false,
      "stateMutability": "pure",
      "type": "function"
    },
    {
      "constant": true,
      "inputs": [
        {
          "internalType": "uint256[]",
          "name": "amounts",
          "type": "uint256[]"
        },
        {
          "internalType": "bytes[]",
          "name": "nestedAssetData",
          "type": "bytes[]"
        }
      ],
      "name": "encodeMultiAssetData",
      "outputs": [
        {
          "internalType": "bytes",
          "name": "assetData",
          "type": "bytes"
        }
      ],
      "payable": false,
      "stateMutability": "pure",
      "type": "function"
    },
    {
      "constant": true,
      "inputs": [
        {
          "internalType": "address",
          "name": "staticCallTargetAddress",
          "type": "address"
        },
        {
          "internalType": "bytes",
          "name": "staticCallData",
          "type": "bytes"
        },
        {
          "internalType": "bytes32",
          "name": "expectedReturnDataHash",
          "type": "bytes32"
        }
      ],
      "name": "encodeStaticCallAssetData",
      "outputs": [
        {
          "internalType": "bytes",
          "name": "assetData",
          "type": "bytes"
        }
      ],
      "payable": false,
      "stateMutability": "pure",
      "type": "function"
    },
    {
      "constant": true,
      "inputs": [
        {
          "internalType": "bytes",
          "name": "assetData",
          "type": "bytes"
        }
      ],
      "name": "revertIfInvalidAssetData",
      "outputs": [],
      "payable": false,
      "stateMutability": "pure",
      "type": "function"
    }
  ],
  "bytecode": "0x61160f610026600b82828239805160001a60731461001957fe5b30600052607381538281f3fe73000000000000000000000000000000000000000030146080604052600436106100e95760003560e01c80639eadc83511610096578063bbb2dcf611610070578063bbb2dcf6146101ef578063ca49f47c14610211578063d3d862d114610234578063d469502814610247576100e9565b80639eadc835146101a5578063a6627e9f146101c9578063b43cffe1146101dc576100e9565b806363eb3992116100c757806363eb39921461014e578063750bdb30146101615780638f4ce47914610184576100e9565b806304a5618a146100ee57806346eb65cb14610119578063590aa8751461012e575b600080fd5b6101016100fc366004610fc1565b610267565b604051610110939291906113fe565b60405180910390f35b61012c610127366004610fc1565b6102e2565b005b61014161013c366004610ce7565b610400565b604051610110919061145a565b61014161015c366004610e6e565b610457565b61017461016f366004610fc1565b6104b4565b604051610110949392919061131f565b610197610192366004610fc1565b610532565b604051610110929190611304565b6101b86101b3366004610fc1565b61058f565b604051610110959493929190611359565b6101416101d7366004610ec9565b610607565b6101416101ea366004610dc5565b610661565b6102026101fd366004610fc1565b6106c1565b60405161011093929190611426565b61022461021f366004610fc1565b61073b565b60405161011094939291906113b9565b610141610242366004610f03565b6107ac565b61025a610255366004610fc1565b6107cb565b60405161011091906112f6565b6000808061027b848263ffffffff61087b16565b92506001600160e01b0319831663012b8bc960e11b146102b65760405162461bcd60e51b81526004016102ad90611486565b60405180910390fd5b6102c784601063ffffffff6108b416565b91506102da84602463ffffffff6108f416565b929491935050565b60006102f4828263ffffffff61087b16565b90506001600160e01b03198116630f47261b60e41b141561031f5761031882610532565b50506103fc565b6001600160e01b0319811663012b8bc960e11b14156103495761034182610267565b5050506103fc565b6001600160e01b0319811663a7cb5fb760e01b14156103755761036b8261058f565b50505050506103fc565b6001600160e01b031981166394cfcdd760e01b141561039757610341826106c1565b6001600160e01b0319811663619ce88560e11b14156103c2576103b98261073b565b505050506103fc565b6001600160e01b0319811663dc1600f360e01b14156103e4576103b9826104b4565b60405162461bcd60e51b81526004016102ad90611486565b5050565b604051606090630f47261b60e41b9061041d908490602401611227565b60408051601f198184030181529190526020810180516001600160e01b03166001600160e01b03199093169290921790915290505b919050565b60405160609063619ce88560e11b9061047890869086908690602401611287565b60408051601f198184030181529190526020810180516001600160e01b03166001600160e01b03199093169290921790915290505b9392505050565b6000808060606104ca858363ffffffff61087b16565b93506001600160e01b0319841663dc1600f360e01b146104fc5760405162461bcd60e51b81526004016102ad90611486565b845161051290869060049063ffffffff61090016565b8060200190516105259190810190610d05565b9597919650949350915050565b600080610545838263ffffffff61087b16565b91506001600160e01b03198216630f47261b60e41b146105775760405162461bcd60e51b81526004016102ad90611486565b61058883601063ffffffff6108b416565b9050915091565b600080606080806105a6868563ffffffff61087b16565b94506001600160e01b0319851663a7cb5fb760e01b146105d85760405162461bcd60e51b81526004016102ad90611486565b505050506024828101516044840151606485015160848601519496929591820184019490820184019391010190565b60405160609063012b8bc960e11b9061062690859085906024016112b6565b60408051601f198184030181529190526020810180516001600160e01b03166001600160e01b03199093169290921790915290505b92915050565b60405160609063a7cb5fb760e01b90610684908790879087908790602401611235565b60408051601f198184030181529190526020810180516001600160e01b03166001600160e01b03199093169290921790915290505b949350505050565b60006060806106d6848463ffffffff61087b16565b92506001600160e01b031983166394cfcdd760e01b146107085760405162461bcd60e51b81526004016102ad90611486565b835161071e90859060049063ffffffff61090016565b8060200190516107319190810190610f62565b9395909450915050565b600080606081610751858263ffffffff61087b16565b93506001600160e01b0319841663619ce88560e11b146107835760405162461bcd60e51b81526004016102ad90611486565b845161079990869060049063ffffffff61090016565b8060200190516105259190810190610d6a565b6040516060906394cfcdd760e01b9061062690859085906024016112d1565b60006107dd828263ffffffff61087b16565b90506001600160e01b03198116630f47261b60e41b148061080e57506001600160e01b0319811663012b8bc960e11b145b8061082957506001600160e01b0319811663a7cb5fb760e01b145b8061084457506001600160e01b031981166394cfcdd760e01b145b8061085f57506001600160e01b0319811663619ce88560e11b145b6104525760405162461bcd60e51b81526004016102ad90611486565b600081600401835110156108a1576108a161089c6003855185600401610980565b61099f565b5001602001516001600160e01b03191690565b600081601401835110156108d5576108d561089c6004855185601401610980565b50016014015173ffffffffffffffffffffffffffffffffffffffff1690565b60006104ad83836109a7565b6060818311156109195761091961089c60008585610980565b83518211156109325761093261089c6001848751610980565b8282036040519080825280601f01601f19166020018201604052801561095f576020820181803883390190505b5090506104ad61096e826109d1565b84610978876109d1565b0183516109d7565b6060632800659560e01b8484846040516024016104789392919061146b565b805160208201fd5b600081602001835110156109c8576109c861089c6005855185602001610980565b50016020015190565b60200190565b6020811015610a01576001816020036101000a038019835116818551168082178652505050610a78565b82821415610a0e57610a78565b82821115610a485760208103905080820181840181515b82851015610a40578451865260209586019590940193610a25565b905250610a78565b60208103905080820181840183515b81861215610a735782518252601f199283019290910190610a57565b855250505b505050565b803561065b816115af565b805161065b816115af565b600082601f830112610aa457600080fd5b8151610ab7610ab2826114bd565b611496565b81815260209384019390925082018360005b83811015610af55781518601610adf8882610ca1565b8452506020928301929190910190600101610ac9565b5050505092915050565b600082601f830112610b1057600080fd5b8135610b1e610ab2826114bd565b81815260209384019390925082018360005b83811015610af55781358601610b468882610c52565b8452506020928301929190910190600101610b30565b600082601f830112610b6d57600080fd5b8151610b7b610ab2826114bd565b91508181835260208401935060208101905083856020840282011115610ba057600080fd5b60005b83811015610af55781610bb68882610c47565b8452506020928301929190910190600101610ba3565b600082601f830112610bdd57600080fd5b8135610beb610ab2826114bd565b91508181835260208401935060208101905083856020840282011115610c1057600080fd5b60005b83811015610af55781610c268882610c3c565b8452506020928301929190910190600101610c13565b803561065b816115c3565b805161065b816115c3565b600082601f830112610c6357600080fd5b8135610c71610ab2826114de565b91508082526020830160208301858383011115610c8d57600080fd5b610c9883828461155c565b50505092915050565b600082601f830112610cb257600080fd5b8151610cc0610ab2826114de565b91508082526020830160208301858383011115610cdc57600080fd5b610c98838284611568565b600060208284031215610cf957600080fd5b60006106b98484610a7d565b600080600060608486031215610d1a57600080fd5b6000610d268686610a88565b9350506020610d3786828701610a88565b925050604084015167ffffffffffffffff811115610d5457600080fd5b610d6086828701610ca1565b9150509250925092565b600080600060608486031215610d7f57600080fd5b6000610d8b8686610a88565b935050602084015167ffffffffffffffff811115610da857600080fd5b610db486828701610ca1565b9250506040610d6086828701610c47565b60008060008060808587031215610ddb57600080fd5b6000610de78787610a7d565b945050602085013567ffffffffffffffff811115610e0457600080fd5b610e1087828801610bcc565b935050604085013567ffffffffffffffff811115610e2d57600080fd5b610e3987828801610bcc565b925050606085013567ffffffffffffffff811115610e5657600080fd5b610e6287828801610c52565b91505092959194509250565b600080600060608486031215610e8357600080fd5b6000610e8f8686610a7d565b935050602084013567ffffffffffffffff811115610eac57600080fd5b610eb886828701610c52565b9250506040610d6086828701610c3c565b60008060408385031215610edc57600080fd5b6000610ee88585610a7d565b9250506020610ef985828601610c3c565b9150509250929050565b60008060408385031215610f1657600080fd5b823567ffffffffffffffff811115610f2d57600080fd5b610f3985828601610bcc565b925050602083013567ffffffffffffffff811115610f5657600080fd5b610ef985828601610aff565b60008060408385031215610f7557600080fd5b825167ffffffffffffffff811115610f8c57600080fd5b610f9885828601610b5c565b925050602083015167ffffffffffffffff811115610fb557600080fd5b610ef985828601610a93565b600060208284031215610fd357600080fd5b813567ffffffffffffffff811115610fea57600080fd5b6106b984828501610c52565b60006104ad83836111ad565b600061100e838361119b565b505060200190565b61101f81611513565b82525050565b600061103082611506565b61103a818561150a565b93508360208202850161104c856109d1565b8060005b8581101561108657848403895281516110698582610ff6565b9450611074836109d1565b60209a909a0199925050600101611050565b5091979650505050505050565b600061109e82611506565b6110a8818561150a565b9350836020820285016110ba856109d1565b8060005b8581101561108657848403895281516110d78582610ff6565b94506110e2836109d1565b60209a909a01999250506001016110be565b60006110ff82611506565b611109818561150a565b9350611114836109d1565b8060005b8381101561114257815161112c8882611002565b9750611137836109d1565b925050600101611118565b509495945050505050565b600061115882611506565b611162818561150a565b935061116d836109d1565b8060005b838110156111425781516111858882611002565b9750611190836109d1565b925050600101611171565b61101f8161151e565b61101f81611521565b60006111b882611506565b6111c2818561150a565b93506111d2818560208601611568565b6111db81611598565b9093019392505050565b61101f81611551565b60006111fb600e8361150a565b7f57524f4e475f50524f58595f4944000000000000000000000000000000000000815260200192915050565b6020810161065b8284611016565b608081016112438287611016565b818103602083015261125581866110f4565b9050818103604083015261126981856110f4565b9050818103606083015261127d81846111ad565b9695505050505050565b606081016112958286611016565b81810360208301526112a781856111ad565b90506106b9604083018461119b565b604081016112c48285611016565b6104ad602083018461119b565b604080825281016112e281856110f4565b905081810360208301526106b98184611025565b6020810161065b82846111a4565b6040810161131282856111a4565b6104ad6020830184611016565b6080810161132d82876111a4565b61133a6020830186611016565b6113476040830185611016565b818103606083015261127d81846111ad565b60a0810161136782886111a4565b6113746020830187611016565b8181036040830152611386818661114d565b9050818103606083015261139a818561114d565b905081810360808301526113ae81846111ad565b979650505050505050565b608081016113c782876111a4565b6113d46020830186611016565b81810360408301526113e681856111ad565b90506113f5606083018461119b565b95945050505050565b6060810161140c82866111a4565b6114196020830185611016565b6106b9604083018461119b565b6060810161143482866111a4565b8181036020830152611446818561114d565b905081810360408301526113f58184611093565b602080825281016104ad81846111ad565b6060810161147982866111e5565b611419602083018561119b565b6020808252810161065b816111ee565b60405181810167ffffffffffffffff811182821017156114b557600080fd5b604052919050565b600067ffffffffffffffff8211156114d457600080fd5b5060209081020190565b600067ffffffffffffffff8211156114f557600080fd5b506020601f91909101601f19160190565b5190565b90815260200190565b600061065b82611538565b90565b6001600160e01b03191690565b80610452816115a2565b73ffffffffffffffffffffffffffffffffffffffff1690565b600061065b8261152e565b82818337506000910152565b60005b8381101561158357818101518382015260200161156b565b83811115611592576000848401525b50505050565b601f01601f191690565b600881106115ac57fe5b50565b6115b881611513565b81146115ac57600080fd5b6115b88161151e56fea365627a7a723158209efda36f3cb5141790ccdf07cc22c7a21973d0397ccfcc547e275ba75cfe9d3f6c6578706572696d656e74616cf564736f6c63430005110040",
  "linkReferences": {},
  "deployedLinkReferences": {}
}