{
  "_format": "hh-sol-artifact-1",
  "contractName": "ERC721Token",
  "sourceName": "contracts/0x/erc721/ERC721Token.sol",
  "abi": [
    {
      "anonymous": false,
      "inputs": [
        {
          "indexed": true,
          "internalType": "address",
          "name": "_owner",
          "type": "address"
        },
        {
          "indexed": true,
          "internalType": "address",
          "name": "_approved",
          "type": "address"
        },
        {
          "indexed": true,
          "internalType": "uint256",
          "name": "_tokenId",
          "type": "uint256"
        }
      ],
      "name": "Approval",
      "type": "event"
    },
    {
      "anonymous": false,
      "inputs": [
        {
          "indexed": true,
          "internalType": "address",
          "name": "_owner",
          "type": "address"
        },
        {
          "indexed": true,
          "internalType": "address",
          "name": "_operator",
          "type": "address"
        },
        {
          "indexed": false,
          "internalType": "bool",
          "name": "_approved",
          "type": "bool"
        }
      ],
      "name": "ApprovalForAll",
      "type": "event"
    },
    {
      "anonymous": false,
      "inputs": [
        {
          "indexed": true,
          "internalType": "address",
          "name": "_from",
          "type": "address"
        },
        {
          "indexed": true,
          "internalType": "address",
          "name": "_to",
          "type": "address"
        },
        {
          "indexed": true,
          "internalType": "uint256",
          "name": "_tokenId",
          "type": "uint256"
        }
      ],
      "name": "Transfer",
      "type": "event"
    },
    {
      "constant": false,
      "inputs": [
        {
          "internalType": "address",
          "name": "_approved",
          "type": "address"
        },
        {
          "internalType": "uint256",
          "name": "_tokenId",
          "type": "uint256"
        }
      ],
      "name": "approve",
      "outputs": [],
      "payable": false,
      "stateMutability": "nonpayable",
      "type": "function"
    },
    {
      "constant": true,
      "inputs": [
        {
          "internalType": "address",
          "name": "_owner",
          "type": "address"
        }
      ],
      "name": "balanceOf",
      "outputs": [
        {
          "internalType": "uint256",
          "name": "",
          "type": "uint256"
        }
      ],
      "payable": false,
      "stateMutability": "view",
      "type": "function"
    },
    {
      "constant": true,
      "inputs": [
        {
          "internalType": "uint256",
          "name": "_tokenId",
          "type": "uint256"
        }
      ],
      "name": "getApproved",
      "outputs": [
        {
          "internalType": "address",
          "name": "",
          "type": "address"
        }
      ],
      "payable": false,
      "stateMutability": "view",
      "type": "function"
    },
    {
      "constant": true,
      "inputs": [
        {
          "internalType": "address",
          "name": "_owner",
          "type": "address"
        },
        {
          "internalType": "address",
          "name": "_operator",
          "type": "address"
        }
      ],
      "name": "isApprovedForAll",
      "outputs": [
        {
          "internalType": "bool",
          "name": "",
          "type": "bool"
        }
      ],
      "payable": false,
      "stateMutability": "view",
      "type": "function"
    },
    {
      "constant": true,
      "inputs": [
        {
          "internalType": "uint256",
          "name": "_tokenId",
          "type": "uint256"
        }
      ],
      "name": "ownerOf",
      "outputs": [
        {
          "internalType": "address",
          "name": "",
          "type": "address"
        }
      ],
      "payable": false,
      "stateMutability": "view",
      "type": "function"
    },
    {
      "constant": false,
      "inputs": [
        {
          "internalType": "address",
          "name": "_from",
          "type": "address"
        },
        {
          "internalType": "address",
          "name": "_to",
          "type": "address"
        },
        {
          "internalType": "uint256",
          "name": "_tokenId",
          "type": "uint256"
        }
      ],
      "name": "safeTransferFrom",
      "outputs": [],
      "payable": false,
      "stateMutability": "nonpayable",
      "type": "function"
    },
    {
      "constant": false,
      "inputs": [
        {
          "internalType": "address",
          "name": "_from",
          "type": "address"
        },
        {
          "internalType": "address",
          "name": "_to",
          "type": "address"
        },
        {
          "internalType": "uint256",
          "name": "_tokenId",
          "type": "uint256"
        },
        {
          "internalType": "bytes",
          "name": "_data",
          "type": "bytes"
        }
      ],
      "name": "safeTransferFrom",
      "outputs": [],
      "payable": false,
      "stateMutability": "nonpayable",
      "type": "function"
    },
    {
      "constant": false,
      "inputs": [
        {
          "internalType": "address",
          "name": "_operator",
          "type": "address"
        },
        {
          "internalType": "bool",
          "name": "_approved",
          "type": "bool"
        }
      ],
      "name": "setApprovalForAll",
      "outputs": [],
      "payable": false,
      "stateMutability": "nonpayable",
      "type": "function"
    },
    {
      "constant": false,
      "inputs": [
        {
          "internalType": "address",
          "name": "_from",
          "type": "address"
        },
        {
          "internalType": "address",
          "name": "_to",
          "type": "address"
        },
        {
          "internalType": "uint256",
          "name": "_tokenId",
          "type": "uint256"
        }
      ],
      "name": "transferFrom",
      "outputs": [],
      "payable": false,
      "stateMutability": "nonpayable",
      "type": "function"
    }
  ],
  "bytecode": "0x608060405234801561001057600080fd5b50610b8c806100206000396000f3fe608060405234801561001057600080fd5b50600436106100a35760003560e01c80636352211e11610076578063a22cb4651161005b578063a22cb465146101d0578063b88d4fde146101fe578063e985e9c51461028e576100a3565b80636352211e1461017b57806370a0823114610198576100a3565b8063081812fc146100a8578063095ea7b3146100e157806323b872dd1461010f57806342842e0e14610145575b600080fd5b6100c5600480360360208110156100be57600080fd5b50356102d0565b604080516001600160a01b039092168252519081900360200190f35b61010d600480360360408110156100f757600080fd5b506001600160a01b0381351690602001356102eb565b005b61010d6004803603606081101561012557600080fd5b506001600160a01b038135811691602081013590911690604001356103ce565b61010d6004803603606081101561015b57600080fd5b506001600160a01b0381358116916020810135909116906040013561064e565b6100c56004803603602081101561019157600080fd5b503561077e565b6101be600480360360208110156101ae57600080fd5b50356001600160a01b03166107ee565b60408051918252519081900360200190f35b61010d600480360360408110156101e657600080fd5b506001600160a01b0381351690602001351515610867565b61010d6004803603608081101561021457600080fd5b6001600160a01b0382358116926020810135909116916040820135919081019060808101606082013564010000000081111561024f57600080fd5b82018360208201111561026157600080fd5b8035906020019184600183028401116401000000008311171561028357600080fd5b5090925090506108d5565b6102bc600480360360408110156102a457600080fd5b506001600160a01b0381358116916020013516610a36565b604080519115158252519081900360200190f35b6000908152600160205260409020546001600160a01b031690565b60006102f68261077e565b9050336001600160a01b038216148061031457506103148133610a36565b610365576040805162461bcd60e51b815260206004820152601560248201527f4552433732315f494e56414c49445f53454e4445520000000000000000000000604482015290519081900360640190fd5b600082815260016020526040808220805473ffffffffffffffffffffffffffffffffffffffff19166001600160a01b0387811691821790925591518593918516917f8c5be1e5ebec7d5bd14f71427d1e84f3dd0314c0f7b2291e5b200ac8c7c3b92591a4505050565b6001600160a01b038216610429576040805162461bcd60e51b815260206004820152601660248201527f4552433732315f5a45524f5f544f5f4144445245535300000000000000000000604482015290519081900360640190fd5b60006104348261077e565b9050806001600160a01b0316846001600160a01b03161461049c576040805162461bcd60e51b815260206004820152601560248201527f4552433732315f4f574e45525f4d49534d415443480000000000000000000000604482015290519081900360640190fd5b3360006104a8846102d0565b9050826001600160a01b0316826001600160a01b031614806104cf57506104cf8383610a36565b806104eb5750816001600160a01b0316816001600160a01b0316145b61053c576040805162461bcd60e51b815260206004820152601660248201527f4552433732315f494e56414c49445f5350454e44455200000000000000000000604482015290519081900360640190fd5b6001600160a01b03811615610575576000848152600160205260409020805473ffffffffffffffffffffffffffffffffffffffff191690555b600084815260208181526040808320805473ffffffffffffffffffffffffffffffffffffffff19166001600160a01b038a8116919091179091558916835260029091529020546105c6906001610a64565b6001600160a01b0380881660009081526002602052604080822093909355908716815220546105fc90600163ffffffff610a8816565b6001600160a01b03808716600081815260026020526040808220949094559251879391928a16917fddf252ad1be2c89b69c2b068fc378daa952ba7f163c4a11628f55a4df523b3ef91a4505050505050565b6106598383836103ce565b813b80156107785760408051630a85bd0160e11b81523360048201526001600160a01b038681166024830152604482018590526080606483015260006084830181905292519086169163150b7a029160c480830192602092919082900301818787803b1580156106c857600080fd5b505af11580156106dc573d6000803e3d6000fd5b505050506040513d60208110156106f257600080fd5b505160405190915080602f610b298239602f01905060405180910390206001600160e01b031916816001600160e01b03191614610776576040805162461bcd60e51b815260206004820152601760248201527f4552433732315f494e56414c49445f53454c4543544f52000000000000000000604482015290519081900360640190fd5b505b50505050565b6000818152602081905260408120546001600160a01b0316806107e8576040805162461bcd60e51b815260206004820152601160248201527f4552433732315f5a45524f5f4f574e4552000000000000000000000000000000604482015290519081900360640190fd5b92915050565b60006001600160a01b03821661084b576040805162461bcd60e51b815260206004820152601160248201527f4552433732315f5a45524f5f4f574e4552000000000000000000000000000000604482015290519081900360640190fd5b506001600160a01b031660009081526002602052604090205490565b3360008181526003602090815260408083206001600160a01b03871680855290835292819020805460ff1916861515908117909155815190815290519293927f17307eab39ab6107e8899845ad3d59bd9653f200f220920489ca2b5937696c31929181900390910190a35050565b6108e08585856103ce565b833b8015610a2e57604051630a85bd0160e11b815233600482018181526001600160a01b0389811660248501526044840188905260806064850190815260848501879052600094918a169363150b7a029390928c928b928b928b929060a401848480828437600081840152601f19601f8201169050808301925050509650505050505050602060405180830381600087803b15801561097e57600080fd5b505af1158015610992573d6000803e3d6000fd5b505050506040513d60208110156109a857600080fd5b505160405190915080602f610b298239602f01905060405180910390206001600160e01b031916816001600160e01b03191614610a2c576040805162461bcd60e51b815260206004820152601760248201527f4552433732315f494e56414c49445f53454c4543544f52000000000000000000604482015290519081900360640190fd5b505b505050505050565b6001600160a01b03918216600090815260036020908152604080832093909416825291909152205460ff1690565b600082821115610a8257610a82610a7d60028585610aab565b610b20565b50900390565b600082820183811015610aa457610aa4610a7d60008686610aab565b9392505050565b606063e946c1bb60e01b84848460405160240180846003811115610acb57fe5b60ff1681526020018381526020018281526020019350505050604051602081830303815290604052906001600160e01b0319166020820180516001600160e01b03838183161783525050505090509392505050565b805160208201fdfe6f6e455243373231526563656976656428616464726573732c616464726573732c75696e743235362c627974657329a265627a7a7231582057a4223cff8890a01732f6906c6cf4431821e32fe92a4408da479fcc2cae5fb164736f6c63430005110032",
  "linkReferences": {},
  "deployedLinkReferences": {}
}