{
  "_format": "hh-sol-artifact-1",
  "contractName": "MixinAuthorizable",
  "sourceName": "contracts/0x/archive/MixinAuthorizable.sol",
  "abi": [
    {
      "anonymous": false,
      "inputs": [
        {
          "indexed": true,
          "internalType": "address",
          "name": "target",
          "type": "address"
        },
        {
          "indexed": true,
          "internalType": "address",
          "name": "caller",
          "type": "address"
        }
      ],
      "name": "AuthorizedAddressAdded",
      "type": "event"
    },
    {
      "anonymous": false,
      "inputs": [
        {
          "indexed": true,
          "internalType": "address",
          "name": "target",
          "type": "address"
        },
        {
          "indexed": true,
          "internalType": "address",
          "name": "caller",
          "type": "address"
        }
      ],
      "name": "AuthorizedAddressRemoved",
      "type": "event"
    },
    {
      "anonymous": false,
      "inputs": [
        {
          "indexed": true,
          "internalType": "address",
          "name": "previousOwner",
          "type": "address"
        },
        {
          "indexed": true,
          "internalType": "address",
          "name": "newOwner",
          "type": "address"
        }
      ],
      "name": "OwnershipTransferred",
      "type": "event"
    },
    {
      "constant": false,
      "inputs": [
        {
          "internalType": "address",
          "name": "target",
          "type": "address"
        }
      ],
      "name": "addAuthorizedAddress",
      "outputs": [],
      "payable": false,
      "stateMutability": "nonpayable",
      "type": "function"
    },
    {
      "constant": true,
      "inputs": [
        {
          "internalType": "uint256",
          "name": "",
          "type": "uint256"
        }
      ],
      "name": "authorities",
      "outputs": [
        {
          "internalType": "address",
          "name": "",
          "type": "address"
        }
      ],
      "payable": false,
      "stateMutability": "view",
      "type": "function"
    },
    {
      "constant": true,
      "inputs": [
        {
          "internalType": "address",
          "name": "",
          "type": "address"
        }
      ],
      "name": "authorized",
      "outputs": [
        {
          "internalType": "bool",
          "name": "",
          "type": "bool"
        }
      ],
      "payable": false,
      "stateMutability": "view",
      "type": "function"
    },
    {
      "constant": true,
      "inputs": [],
      "name": "getAuthorizedAddresses",
      "outputs": [
        {
          "internalType": "address[]",
          "name": "",
          "type": "address[]"
        }
      ],
      "payable": false,
      "stateMutability": "view",
      "type": "function"
    },
    {
      "constant": true,
      "inputs": [],
      "name": "owner",
      "outputs": [
        {
          "internalType": "address",
          "name": "",
          "type": "address"
        }
      ],
      "payable": false,
      "stateMutability": "view",
      "type": "function"
    },
    {
      "constant": false,
      "inputs": [
        {
          "internalType": "address",
          "name": "target",
          "type": "address"
        }
      ],
      "name": "removeAuthorizedAddress",
      "outputs": [],
      "payable": false,
      "stateMutability": "nonpayable",
      "type": "function"
    },
    {
      "constant": false,
      "inputs": [
        {
          "internalType": "address",
          "name": "target",
          "type": "address"
        },
        {
          "internalType": "uint256",
          "name": "index",
          "type": "uint256"
        }
      ],
      "name": "removeAuthorizedAddressAtIndex",
      "outputs": [],
      "payable": false,
      "stateMutability": "nonpayable",
      "type": "function"
    },
    {
      "constant": false,
      "inputs": [
        {
          "internalType": "address",
          "name": "newOwner",
          "type": "address"
        }
      ],
      "name": "transferOwnership",
      "outputs": [],
      "payable": false,
      "stateMutability": "nonpayable",
      "type": "function"
    }
  ],
  "bytecode": "0x6080604052600080546001600160a01b03191633179055610972806100256000396000f3fe608060405234801561001057600080fd5b50600436106100885760003560e01c80639ad267441161005b5780639ad267441461011c578063b918161114610148578063d39de6e914610182578063f2fde38b146101da57610088565b806342f1181e1461008d578063494503d4146100b557806370712939146100ee5780638da5cb5b14610114575b600080fd5b6100b3600480360360208110156100a357600080fd5b50356001600160a01b0316610200565b005b6100d2600480360360208110156100cb57600080fd5b503561035e565b604080516001600160a01b039092168252519081900360200190f35b6100b36004803603602081101561010457600080fd5b50356001600160a01b0316610385565b6100d261056d565b6100b36004803603604081101561013257600080fd5b506001600160a01b03813516906020013561057c565b61016e6004803603602081101561015e57600080fd5b50356001600160a01b03166107ee565b604080519115158252519081900360200190f35b61018a610803565b60408051602080825283518183015283519192839290830191858101910280838360005b838110156101c65781810151838201526020016101ae565b505050509050019250505060405180910390f35b6100b3600480360360208110156101f057600080fd5b50356001600160a01b0316610866565b6000546001600160a01b03163314610255576040805162461bcd60e51b815260206004820152601360248201527227a7262cafa1a7a72a2920a1aa2fa7aba722a960691b604482015290519081900360640190fd5b6001600160a01b03811660009081526001602052604090205460ff16156102c3576040805162461bcd60e51b815260206004820152601960248201527f5441524745545f414c52454144595f415554484f52495a454400000000000000604482015290519081900360640190fd5b6001600160a01b0381166000818152600160208190526040808320805460ff19168317905560028054928301815583527f405787fa12a823e0f2b7631cc41b3ba8828b3321ca811111fa75cd3aa3bb5ace909101805473ffffffffffffffffffffffffffffffffffffffff191684179055513392917f3147867c59d17e8fa9d522465651d44aae0a9e38f902f3475b97e58072f0ed4c91a350565b6002818154811061036b57fe5b6000918252602090912001546001600160a01b0316905081565b6000546001600160a01b031633146103da576040805162461bcd60e51b815260206004820152601360248201527227a7262cafa1a7a72a2920a1aa2fa7aba722a960691b604482015290519081900360640190fd5b6001600160a01b03811660009081526001602052604090205460ff16610447576040805162461bcd60e51b815260206004820152601560248201527f5441524745545f4e4f545f415554484f52495a45440000000000000000000000604482015290519081900360640190fd5b6001600160a01b0381166000908152600160205260408120805460ff191690555b60025481101561053357816001600160a01b03166002828154811061048957fe5b6000918252602090912001546001600160a01b0316141561052b576002805460001981019081106104b657fe5b600091825260209091200154600280546001600160a01b0390921691839081106104dc57fe5b6000918252602090912001805473ffffffffffffffffffffffffffffffffffffffff19166001600160a01b039290921691909117905560028054600019019061052590826108f6565b50610533565b600101610468565b5060405133906001600160a01b038316907f1f32c1b084e2de0713b8fb16bd46bb9df710a3dbeae2f3ca93af46e016dcc6b090600090a350565b6000546001600160a01b031681565b6000546001600160a01b031633146105d1576040805162461bcd60e51b815260206004820152601360248201527227a7262cafa1a7a72a2920a1aa2fa7aba722a960691b604482015290519081900360640190fd5b6001600160a01b03821660009081526001602052604090205460ff1661063e576040805162461bcd60e51b815260206004820152601560248201527f5441524745545f4e4f545f415554484f52495a45440000000000000000000000604482015290519081900360640190fd5b6002548110610694576040805162461bcd60e51b815260206004820152601360248201527f494e4445585f4f55545f4f465f424f554e445300000000000000000000000000604482015290519081900360640190fd5b816001600160a01b0316600282815481106106ab57fe5b6000918252602090912001546001600160a01b031614610712576040805162461bcd60e51b815260206004820152601b60248201527f415554484f52495a45445f414444524553535f4d49534d415443480000000000604482015290519081900360640190fd5b6001600160a01b0382166000908152600160205260409020805460ff1916905560028054600019810190811061074457fe5b600091825260209091200154600280546001600160a01b03909216918390811061076a57fe5b6000918252602090912001805473ffffffffffffffffffffffffffffffffffffffff19166001600160a01b03929092169190911790556002805460001901906107b390826108f6565b5060405133906001600160a01b038416907f1f32c1b084e2de0713b8fb16bd46bb9df710a3dbeae2f3ca93af46e016dcc6b090600090a35050565b60016020526000908152604090205460ff1681565b6060600280548060200260200160405190810160405280929190818152602001828054801561085b57602002820191906000526020600020905b81546001600160a01b0316815260019091019060200180831161083d575b505050505090505b90565b6000546001600160a01b031633146108bb576040805162461bcd60e51b815260206004820152601360248201527227a7262cafa1a7a72a2920a1aa2fa7aba722a960691b604482015290519081900360640190fd5b6001600160a01b038116156108f3576000805473ffffffffffffffffffffffffffffffffffffffff19166001600160a01b0383161790555b50565b81548183558181111561091a5760008381526020902061091a91810190830161091f565b505050565b61086391905b808211156109395760008155600101610925565b509056fea265627a7a72315820db91ca723dd9b7cb4869ce59a3ad6c0f12d2e5faa06cbdaf94f8050521a3220b64736f6c63430005110032",
  "linkReferences": {},
  "deployedLinkReferences": {}
}