{
  "_format": "hh-sol-artifact-1",
  "contractName": "ERC721Proxy",
  "sourceName": "contracts/0x/proxies/ERC721Proxy.sol",
  "abi": [
    {
      "anonymous": false,
      "inputs": [
        {
          "indexed": true,
          "internalType": "address",
          "name": "target",
          "type": "address"
        },
        {
          "indexed": true,
          "internalType": "address",
          "name": "caller",
          "type": "address"
        }
      ],
      "name": "AuthorizedAddressAdded",
      "type": "event"
    },
    {
      "anonymous": false,
      "inputs": [
        {
          "indexed": true,
          "internalType": "address",
          "name": "target",
          "type": "address"
        },
        {
          "indexed": true,
          "internalType": "address",
          "name": "caller",
          "type": "address"
        }
      ],
      "name": "AuthorizedAddressRemoved",
      "type": "event"
    },
    {
      "anonymous": false,
      "inputs": [
        {
          "indexed": true,
          "internalType": "address",
          "name": "previousOwner",
          "type": "address"
        },
        {
          "indexed": true,
          "internalType": "address",
          "name": "newOwner",
          "type": "address"
        }
      ],
      "name": "OwnershipTransferred",
      "type": "event"
    },
    {
      "payable": false,
      "stateMutability": "nonpayable",
      "type": "fallback"
    },
    {
      "constant": false,
      "inputs": [
        {
          "internalType": "address",
          "name": "target",
          "type": "address"
        }
      ],
      "name": "addAuthorizedAddress",
      "outputs": [],
      "payable": false,
      "stateMutability": "nonpayable",
      "type": "function"
    },
    {
      "constant": true,
      "inputs": [
        {
          "internalType": "uint256",
          "name": "",
          "type": "uint256"
        }
      ],
      "name": "authorities",
      "outputs": [
        {
          "internalType": "address",
          "name": "",
          "type": "address"
        }
      ],
      "payable": false,
      "stateMutability": "view",
      "type": "function"
    },
    {
      "constant": true,
      "inputs": [
        {
          "internalType": "address",
          "name": "",
          "type": "address"
        }
      ],
      "name": "authorized",
      "outputs": [
        {
          "internalType": "bool",
          "name": "",
          "type": "bool"
        }
      ],
      "payable": false,
      "stateMutability": "view",
      "type": "function"
    },
    {
      "constant": true,
      "inputs": [],
      "name": "getAuthorizedAddresses",
      "outputs": [
        {
          "internalType": "address[]",
          "name": "",
          "type": "address[]"
        }
      ],
      "payable": false,
      "stateMutability": "view",
      "type": "function"
    },
    {
      "constant": true,
      "inputs": [],
      "name": "getProxyId",
      "outputs": [
        {
          "internalType": "bytes4",
          "name": "",
          "type": "bytes4"
        }
      ],
      "payable": false,
      "stateMutability": "pure",
      "type": "function"
    },
    {
      "constant": true,
      "inputs": [],
      "name": "owner",
      "outputs": [
        {
          "internalType": "address",
          "name": "",
          "type": "address"
        }
      ],
      "payable": false,
      "stateMutability": "view",
      "type": "function"
    },
    {
      "constant": false,
      "inputs": [
        {
          "internalType": "address",
          "name": "target",
          "type": "address"
        }
      ],
      "name": "removeAuthorizedAddress",
      "outputs": [],
      "payable": false,
      "stateMutability": "nonpayable",
      "type": "function"
    },
    {
      "constant": false,
      "inputs": [
        {
          "internalType": "address",
          "name": "target",
          "type": "address"
        },
        {
          "internalType": "uint256",
          "name": "index",
          "type": "uint256"
        }
      ],
      "name": "removeAuthorizedAddressAtIndex",
      "outputs": [],
      "payable": false,
      "stateMutability": "nonpayable",
      "type": "function"
    },
    {
      "constant": false,
      "inputs": [
        {
          "internalType": "address",
          "name": "newOwner",
          "type": "address"
        }
      ],
      "name": "transferOwnership",
      "outputs": [],
      "payable": false,
      "stateMutability": "nonpayable",
      "type": "function"
    }
  ],
  "bytecode": "0x6080604052600080546001600160a01b03191633179055610b76806100256000396000f3fe608060405234801561001057600080fd5b50600436106100a35760003560e01c80639ad2674411610076578063b91816111161005b578063b918161114610317578063d39de6e914610351578063f2fde38b146103a9576100a3565b80639ad26744146102ae578063ae25532e146102da576100a3565b806342f1181e1461021f578063494503d41461024757806370712939146102805780638da5cb5b146102a6575b7fffffffff00000000000000000000000000000000000000000000000000000000600035167fa85e59e40000000000000000000000000000000000000000000000000000000081141561021a576040805133815260016020820152908120546101445762461bcd60e51b600052600160e51b6020527c1553454e4445525f4e4f545f415554484f52495a454400000000000000604052600060605260646000fd5b6001606435031561018d5762461bcd60e51b600052600160e51b6020527c0e494e56414c49445f414d4f554e540000000000000000000000000000604052600060605260646000fd5b7f23b872dd000000000000000000000000000000000000000000000000000000006000526040602460043760043560206048820160443760288101356000806064600080855af180156101dc57005b62461bcd60e51b600052600160e51b6020527c0f5452414e534645525f4641494c454400000000000000000000000000604052600060605260646000fd5b600080fd5b6102456004803603602081101561023557600080fd5b50356001600160a01b03166103cf565b005b6102646004803603602081101561025d57600080fd5b503561052d565b604080516001600160a01b039092168252519081900360200190f35b6102456004803603602081101561029657600080fd5b50356001600160a01b0316610554565b61026461073c565b610245600480360360408110156102c457600080fd5b506001600160a01b03813516906020013561074b565b6102e26109bd565b604080517fffffffff000000000000000000000000000000000000000000000000000000009092168252519081900360200190f35b61033d6004803603602081101561032d57600080fd5b50356001600160a01b03166109f3565b604080519115158252519081900360200190f35b610359610a08565b60408051602080825283518183015283519192839290830191858101910280838360005b8381101561039557818101518382015260200161037d565b505050509050019250505060405180910390f35b610245600480360360208110156103bf57600080fd5b50356001600160a01b0316610a6a565b6000546001600160a01b03163314610424576040805162461bcd60e51b815260206004820152601360248201527227a7262cafa1a7a72a2920a1aa2fa7aba722a960691b604482015290519081900360640190fd5b6001600160a01b03811660009081526001602052604090205460ff1615610492576040805162461bcd60e51b815260206004820152601960248201527f5441524745545f414c52454144595f415554484f52495a454400000000000000604482015290519081900360640190fd5b6001600160a01b0381166000818152600160208190526040808320805460ff19168317905560028054928301815583527f405787fa12a823e0f2b7631cc41b3ba8828b3321ca811111fa75cd3aa3bb5ace909101805473ffffffffffffffffffffffffffffffffffffffff191684179055513392917f3147867c59d17e8fa9d522465651d44aae0a9e38f902f3475b97e58072f0ed4c91a350565b6002818154811061053a57fe5b6000918252602090912001546001600160a01b0316905081565b6000546001600160a01b031633146105a9576040805162461bcd60e51b815260206004820152601360248201527227a7262cafa1a7a72a2920a1aa2fa7aba722a960691b604482015290519081900360640190fd5b6001600160a01b03811660009081526001602052604090205460ff16610616576040805162461bcd60e51b815260206004820152601560248201527f5441524745545f4e4f545f415554484f52495a45440000000000000000000000604482015290519081900360640190fd5b6001600160a01b0381166000908152600160205260408120805460ff191690555b60025481101561070257816001600160a01b03166002828154811061065857fe5b6000918252602090912001546001600160a01b031614156106fa5760028054600019810190811061068557fe5b600091825260209091200154600280546001600160a01b0390921691839081106106ab57fe5b6000918252602090912001805473ffffffffffffffffffffffffffffffffffffffff19166001600160a01b03929092169190911790556002805460001901906106f49082610afa565b50610702565b600101610637565b5060405133906001600160a01b038316907f1f32c1b084e2de0713b8fb16bd46bb9df710a3dbeae2f3ca93af46e016dcc6b090600090a350565b6000546001600160a01b031681565b6000546001600160a01b031633146107a0576040805162461bcd60e51b815260206004820152601360248201527227a7262cafa1a7a72a2920a1aa2fa7aba722a960691b604482015290519081900360640190fd5b6001600160a01b03821660009081526001602052604090205460ff1661080d576040805162461bcd60e51b815260206004820152601560248201527f5441524745545f4e4f545f415554484f52495a45440000000000000000000000604482015290519081900360640190fd5b6002548110610863576040805162461bcd60e51b815260206004820152601360248201527f494e4445585f4f55545f4f465f424f554e445300000000000000000000000000604482015290519081900360640190fd5b816001600160a01b03166002828154811061087a57fe5b6000918252602090912001546001600160a01b0316146108e1576040805162461bcd60e51b815260206004820152601b60248201527f415554484f52495a45445f414444524553535f4d49534d415443480000000000604482015290519081900360640190fd5b6001600160a01b0382166000908152600160205260409020805460ff1916905560028054600019810190811061091357fe5b600091825260209091200154600280546001600160a01b03909216918390811061093957fe5b6000918252602090912001805473ffffffffffffffffffffffffffffffffffffffff19166001600160a01b03929092169190911790556002805460001901906109829082610afa565b5060405133906001600160a01b038416907f1f32c1b084e2de0713b8fb16bd46bb9df710a3dbeae2f3ca93af46e016dcc6b090600090a35050565b604080517f455243373231546f6b656e28616464726573732c75696e7432353629000000008152905190819003601c0190205b90565b60016020526000908152604090205460ff1681565b60606002805480602002602001604051908101604052809291908181526020018280548015610a6057602002820191906000526020600020905b81546001600160a01b03168152600190910190602001808311610a42575b5050505050905090565b6000546001600160a01b03163314610abf576040805162461bcd60e51b815260206004820152601360248201527227a7262cafa1a7a72a2920a1aa2fa7aba722a960691b604482015290519081900360640190fd5b6001600160a01b03811615610af7576000805473ffffffffffffffffffffffffffffffffffffffff19166001600160a01b0383161790555b50565b815481835581811115610b1e57600083815260209020610b1e918101908301610b23565b505050565b6109f091905b80821115610b3d5760008155600101610b29565b509056fea265627a7a72315820451bfbe7b0b5fd830c52141fe34a134710f379f259a76fa40255a6404a76769c64736f6c63430005110032",
  "linkReferences": {},
  "deployedLinkReferences": {}
}