{
  "_format": "hh-sol-artifact-1",
  "contractName": "LibEIP1271",
  "sourceName": "@0x/contracts-utils/contracts/src/LibEIP1271.sol",
  "abi": [
    {
      "constant": true,
      "inputs": [],
      "name": "EIP1271_MAGIC_VALUE",
      "outputs": [
        {
          "internalType": "bytes4",
          "name": "",
          "type": "bytes4"
        }
      ],
      "payable": false,
      "stateMutability": "view",
      "type": "function"
    }
  ],
  "bytecode": "0x6080604052348015600f57600080fd5b5060c18061001e6000396000f3fe6080604052348015600f57600080fd5b506004361060285760003560e01c8063dd885e2d14602d575b600080fd5b60336068565b604080517fffffffff000000000000000000000000000000000000000000000000000000009092168252519081900360200190f35b7f20c13b0b000000000000000000000000000000000000000000000000000000008156fea265627a7a7231582090e32e5bd52572d0713db4419314fad2c15b0cc813e9384efeef169b47216c9e64736f6c63430005110032",
  "linkReferences": {},
  "deployedLinkReferences": {}
}