{
  "_format": "hh-sol-artifact-1",
  "contractName": "DevUtils",
  "sourceName": "contracts/0x/dev-utils/DevUtils.sol",
  "abi": [
    {
      "inputs": [
        {
          "internalType": "address",
          "name": "exchange_",
          "type": "address"
        }
      ],
      "payable": false,
      "stateMutability": "nonpayable",
      "type": "constructor"
    },
    {
      "constant": true,
      "inputs": [],
      "name": "EIP712_EXCHANGE_DOMAIN_HASH",
      "outputs": [
        {
          "internalType": "bytes32",
          "name": "",
          "type": "bytes32"
        }
      ],
      "payable": false,
      "stateMutability": "view",
      "type": "function"
    },
    {
      "constant": true,
      "inputs": [
        {
          "internalType": "bytes",
          "name": "assetData",
          "type": "bytes"
        }
      ],
      "name": "decodeAssetProxyId",
      "outputs": [
        {
          "internalType": "bytes4",
          "name": "assetProxyId",
          "type": "bytes4"
        }
      ],
      "payable": false,
      "stateMutability": "pure",
      "type": "function"
    },
    {
      "constant": true,
      "inputs": [
        {
          "internalType": "bytes",
          "name": "assetData",
          "type": "bytes"
        }
      ],
      "name": "decodeERC1155AssetData",
      "outputs": [
        {
          "internalType": "bytes4",
          "name": "assetProxyId",
          "type": "bytes4"
        },
        {
          "internalType": "address",
          "name": "tokenAddress",
          "type": "address"
        },
        {
          "internalType": "uint256[]",
          "name": "tokenIds",
          "type": "uint256[]"
        },
        {
          "internalType": "uint256[]",
          "name": "tokenValues",
          "type": "uint256[]"
        },
        {
          "internalType": "bytes",
          "name": "callbackData",
          "type": "bytes"
        }
      ],
      "payable": false,
      "stateMutability": "pure",
      "type": "function"
    },
    {
      "constant": true,
      "inputs": [
        {
          "internalType": "bytes",
          "name": "assetData",
          "type": "bytes"
        }
      ],
      "name": "decodeERC20AssetData",
      "outputs": [
        {
          "internalType": "bytes4",
          "name": "assetProxyId",
          "type": "bytes4"
        },
        {
          "internalType": "address",
          "name": "tokenAddress",
          "type": "address"
        }
      ],
      "payable": false,
      "stateMutability": "pure",
      "type": "function"
    },
    {
      "constant": true,
      "inputs": [
        {
          "internalType": "bytes",
          "name": "assetData",
          "type": "bytes"
        }
      ],
      "name": "decodeERC20BridgeAssetData",
      "outputs": [
        {
          "internalType": "bytes4",
          "name": "assetProxyId",
          "type": "bytes4"
        },
        {
          "internalType": "address",
          "name": "tokenAddress",
          "type": "address"
        },
        {
          "internalType": "address",
          "name": "bridgeAddress",
          "type": "address"
        },
        {
          "internalType": "bytes",
          "name": "bridgeData",
          "type": "bytes"
        }
      ],
      "payable": false,
      "stateMutability": "pure",
      "type": "function"
    },
    {
      "constant": true,
      "inputs": [
        {
          "internalType": "bytes",
          "name": "assetData",
          "type": "bytes"
        }
      ],
      "name": "decodeERC721AssetData",
      "outputs": [
        {
          "internalType": "bytes4",
          "name": "assetProxyId",
          "type": "bytes4"
        },
        {
          "internalType": "address",
          "name": "tokenAddress",
          "type": "address"
        },
        {
          "internalType": "uint256",
          "name": "tokenId",
          "type": "uint256"
        }
      ],
      "payable": false,
      "stateMutability": "pure",
      "type": "function"
    },
    {
      "constant": true,
      "inputs": [
        {
          "internalType": "bytes",
          "name": "assetData",
          "type": "bytes"
        }
      ],
      "name": "decodeMultiAssetData",
      "outputs": [
        {
          "internalType": "bytes4",
          "name": "assetProxyId",
          "type": "bytes4"
        },
        {
          "internalType": "uint256[]",
          "name": "amounts",
          "type": "uint256[]"
        },
        {
          "internalType": "bytes[]",
          "name": "nestedAssetData",
          "type": "bytes[]"
        }
      ],
      "payable": false,
      "stateMutability": "pure",
      "type": "function"
    },
    {
      "constant": true,
      "inputs": [
        {
          "internalType": "bytes",
          "name": "assetData",
          "type": "bytes"
        }
      ],
      "name": "decodeStaticCallAssetData",
      "outputs": [
        {
          "internalType": "bytes4",
          "name": "assetProxyId",
          "type": "bytes4"
        },
        {
          "internalType": "address",
          "name": "staticCallTargetAddress",
          "type": "address"
        },
        {
          "internalType": "bytes",
          "name": "staticCallData",
          "type": "bytes"
        },
        {
          "internalType": "bytes32",
          "name": "expectedReturnDataHash",
          "type": "bytes32"
        }
      ],
      "payable": false,
      "stateMutability": "pure",
      "type": "function"
    },
    {
      "constant": true,
      "inputs": [
        {
          "internalType": "bytes",
          "name": "transactionData",
          "type": "bytes"
        }
      ],
      "name": "decodeZeroExTransactionData",
      "outputs": [
        {
          "internalType": "string",
          "name": "functionName",
          "type": "string"
        },
        {
          "components": [
            {
              "internalType": "address",
              "name": "makerAddress",
              "type": "address"
            },
            {
              "internalType": "address",
              "name": "takerAddress",
              "type": "address"
            },
            {
              "internalType": "address",
              "name": "feeRecipientAddress",
              "type": "address"
            },
            {
              "internalType": "address",
              "name": "senderAddress",
              "type": "address"
            },
            {
              "internalType": "uint256",
              "name": "makerAssetAmount",
              "type": "uint256"
            },
            {
              "internalType": "uint256",
              "name": "takerAssetAmount",
              "type": "uint256"
            },
            {
              "internalType": "uint256",
              "name": "makerFee",
              "type": "uint256"
            },
            {
              "internalType": "uint256",
              "name": "takerFee",
              "type": "uint256"
            },
            {
              "internalType": "uint256",
              "name": "expirationTimeSeconds",
              "type": "uint256"
            },
            {
              "internalType": "uint256",
              "name": "salt",
              "type": "uint256"
            },
            {
              "internalType": "bytes",
              "name": "makerAssetData",
              "type": "bytes"
            },
            {
              "internalType": "bytes",
              "name": "takerAssetData",
              "type": "bytes"
            },
            {
              "internalType": "bytes",
              "name": "makerFeeAssetData",
              "type": "bytes"
            },
            {
              "internalType": "bytes",
              "name": "takerFeeAssetData",
              "type": "bytes"
            }
          ],
          "internalType": "struct LibOrder.Order[]",
          "name": "orders",
          "type": "tuple[]"
        },
        {
          "internalType": "uint256[]",
          "name": "takerAssetFillAmounts",
          "type": "uint256[]"
        },
        {
          "internalType": "bytes[]",
          "name": "signatures",
          "type": "bytes[]"
        }
      ],
      "payable": false,
      "stateMutability": "pure",
      "type": "function"
    },
    {
      "constant": true,
      "inputs": [
        {
          "internalType": "address",
          "name": "tokenAddress",
          "type": "address"
        },
        {
          "internalType": "uint256[]",
          "name": "tokenIds",
          "type": "uint256[]"
        },
        {
          "internalType": "uint256[]",
          "name": "tokenValues",
          "type": "uint256[]"
        },
        {
          "internalType": "bytes",
          "name": "callbackData",
          "type": "bytes"
        }
      ],
      "name": "encodeERC1155AssetData",
      "outputs": [
        {
          "internalType": "bytes",
          "name": "assetData",
          "type": "bytes"
        }
      ],
      "payable": false,
      "stateMutability": "pure",
      "type": "function"
    },
    {
      "constant": true,
      "inputs": [
        {
          "internalType": "address",
          "name": "tokenAddress",
          "type": "address"
        }
      ],
      "name": "encodeERC20AssetData",
      "outputs": [
        {
          "internalType": "bytes",
          "name": "assetData",
          "type": "bytes"
        }
      ],
      "payable": false,
      "stateMutability": "pure",
      "type": "function"
    },
    {
      "constant": true,
      "inputs": [
        {
          "internalType": "address",
          "name": "tokenAddress",
          "type": "address"
        },
        {
          "internalType": "uint256",
          "name": "tokenId",
          "type": "uint256"
        }
      ],
      "name": "encodeERC721AssetData",
      "outputs": [
        {
          "internalType": "bytes",
          "name": "assetData",
          "type": "bytes"
        }
      ],
      "payable": false,
      "stateMutability": "pure",
      "type": "function"
    },
    {
      "constant": true,
      "inputs": [
        {
          "internalType": "uint256[]",
          "name": "amounts",
          "type": "uint256[]"
        },
        {
          "internalType": "bytes[]",
          "name": "nestedAssetData",
          "type": "bytes[]"
        }
      ],
      "name": "encodeMultiAssetData",
      "outputs": [
        {
          "internalType": "bytes",
          "name": "assetData",
          "type": "bytes"
        }
      ],
      "payable": false,
      "stateMutability": "pure",
      "type": "function"
    },
    {
      "constant": true,
      "inputs": [
        {
          "internalType": "address",
          "name": "staticCallTargetAddress",
          "type": "address"
        },
        {
          "internalType": "bytes",
          "name": "staticCallData",
          "type": "bytes"
        },
        {
          "internalType": "bytes32",
          "name": "expectedReturnDataHash",
          "type": "bytes32"
        }
      ],
      "name": "encodeStaticCallAssetData",
      "outputs": [
        {
          "internalType": "bytes",
          "name": "assetData",
          "type": "bytes"
        }
      ],
      "payable": false,
      "stateMutability": "pure",
      "type": "function"
    },
    {
      "constant": true,
      "inputs": [],
      "name": "erc1155ProxyAddress",
      "outputs": [
        {
          "internalType": "address",
          "name": "",
          "type": "address"
        }
      ],
      "payable": false,
      "stateMutability": "view",
      "type": "function"
    },
    {
      "constant": true,
      "inputs": [],
      "name": "erc20ProxyAddress",
      "outputs": [
        {
          "internalType": "address",
          "name": "",
          "type": "address"
        }
      ],
      "payable": false,
      "stateMutability": "view",
      "type": "function"
    },
    {
      "constant": true,
      "inputs": [],
      "name": "erc721ProxyAddress",
      "outputs": [
        {
          "internalType": "address",
          "name": "",
          "type": "address"
        }
      ],
      "payable": false,
      "stateMutability": "view",
      "type": "function"
    },
    {
      "constant": true,
      "inputs": [],
      "name": "exchangeAddress",
      "outputs": [
        {
          "internalType": "address",
          "name": "",
          "type": "address"
        }
      ],
      "payable": false,
      "stateMutability": "view",
      "type": "function"
    },
    {
      "constant": false,
      "inputs": [
        {
          "internalType": "address",
          "name": "ownerAddress",
          "type": "address"
        },
        {
          "internalType": "bytes",
          "name": "assetData",
          "type": "bytes"
        }
      ],
      "name": "getAssetProxyAllowance",
      "outputs": [
        {
          "internalType": "uint256",
          "name": "allowance",
          "type": "uint256"
        }
      ],
      "payable": false,
      "stateMutability": "nonpayable",
      "type": "function"
    },
    {
      "constant": false,
      "inputs": [
        {
          "internalType": "address",
          "name": "ownerAddress",
          "type": "address"
        },
        {
          "internalType": "bytes",
          "name": "assetData",
          "type": "bytes"
        }
      ],
      "name": "getBalance",
      "outputs": [
        {
          "internalType": "uint256",
          "name": "balance",
          "type": "uint256"
        }
      ],
      "payable": false,
      "stateMutability": "nonpayable",
      "type": "function"
    },
    {
      "constant": false,
      "inputs": [
        {
          "internalType": "address",
          "name": "ownerAddress",
          "type": "address"
        },
        {
          "internalType": "bytes",
          "name": "assetData",
          "type": "bytes"
        }
      ],
      "name": "getBalanceAndAssetProxyAllowance",
      "outputs": [
        {
          "internalType": "uint256",
          "name": "balance",
          "type": "uint256"
        },
        {
          "internalType": "uint256",
          "name": "allowance",
          "type": "uint256"
        }
      ],
      "payable": false,
      "stateMutability": "nonpayable",
      "type": "function"
    },
    {
      "constant": false,
      "inputs": [
        {
          "internalType": "address",
          "name": "ownerAddress",
          "type": "address"
        },
        {
          "internalType": "bytes[]",
          "name": "assetData",
          "type": "bytes[]"
        }
      ],
      "name": "getBatchAssetProxyAllowances",
      "outputs": [
        {
          "internalType": "uint256[]",
          "name": "allowances",
          "type": "uint256[]"
        }
      ],
      "payable": false,
      "stateMutability": "nonpayable",
      "type": "function"
    },
    {
      "constant": false,
      "inputs": [
        {
          "internalType": "address",
          "name": "ownerAddress",
          "type": "address"
        },
        {
          "internalType": "bytes[]",
          "name": "assetData",
          "type": "bytes[]"
        }
      ],
      "name": "getBatchBalances",
      "outputs": [
        {
          "internalType": "uint256[]",
          "name": "balances",
          "type": "uint256[]"
        }
      ],
      "payable": false,
      "stateMutability": "nonpayable",
      "type": "function"
    },
    {
      "constant": false,
      "inputs": [
        {
          "internalType": "address",
          "name": "ownerAddress",
          "type": "address"
        },
        {
          "internalType": "bytes[]",
          "name": "assetData",
          "type": "bytes[]"
        }
      ],
      "name": "getBatchBalancesAndAssetProxyAllowances",
      "outputs": [
        {
          "internalType": "uint256[]",
          "name": "balances",
          "type": "uint256[]"
        },
        {
          "internalType": "uint256[]",
          "name": "allowances",
          "type": "uint256[]"
        }
      ],
      "payable": false,
      "stateMutability": "nonpayable",
      "type": "function"
    },
    {
      "constant": true,
      "inputs": [
        {
          "internalType": "address[]",
          "name": "addresses",
          "type": "address[]"
        }
      ],
      "name": "getEthBalances",
      "outputs": [
        {
          "internalType": "uint256[]",
          "name": "",
          "type": "uint256[]"
        }
      ],
      "payable": false,
      "stateMutability": "view",
      "type": "function"
    },
    {
      "constant": true,
      "inputs": [
        {
          "components": [
            {
              "internalType": "address",
              "name": "makerAddress",
              "type": "address"
            },
            {
              "internalType": "address",
              "name": "takerAddress",
              "type": "address"
            },
            {
              "internalType": "address",
              "name": "feeRecipientAddress",
              "type": "address"
            },
            {
              "internalType": "address",
              "name": "senderAddress",
              "type": "address"
            },
            {
              "internalType": "uint256",
              "name": "makerAssetAmount",
              "type": "uint256"
            },
            {
              "internalType": "uint256",
              "name": "takerAssetAmount",
              "type": "uint256"
            },
            {
              "internalType": "uint256",
              "name": "makerFee",
              "type": "uint256"
            },
            {
              "internalType": "uint256",
              "name": "takerFee",
              "type": "uint256"
            },
            {
              "internalType": "uint256",
              "name": "expirationTimeSeconds",
              "type": "uint256"
            },
            {
              "internalType": "uint256",
              "name": "salt",
              "type": "uint256"
            },
            {
              "internalType": "bytes",
              "name": "makerAssetData",
              "type": "bytes"
            },
            {
              "internalType": "bytes",
              "name": "takerAssetData",
              "type": "bytes"
            },
            {
              "internalType": "bytes",
              "name": "makerFeeAssetData",
              "type": "bytes"
            },
            {
              "internalType": "bytes",
              "name": "takerFeeAssetData",
              "type": "bytes"
            }
          ],
          "internalType": "struct LibOrder.Order",
          "name": "order",
          "type": "tuple"
        },
        {
          "internalType": "uint256",
          "name": "chainId",
          "type": "uint256"
        },
        {
          "internalType": "address",
          "name": "exchange",
          "type": "address"
        }
      ],
      "name": "getOrderHash",
      "outputs": [
        {
          "internalType": "bytes32",
          "name": "orderHash",
          "type": "bytes32"
        }
      ],
      "payable": false,
      "stateMutability": "pure",
      "type": "function"
    },
    {
      "constant": false,
      "inputs": [
        {
          "components": [
            {
              "internalType": "address",
              "name": "makerAddress",
              "type": "address"
            },
            {
              "internalType": "address",
              "name": "takerAddress",
              "type": "address"
            },
            {
              "internalType": "address",
              "name": "feeRecipientAddress",
              "type": "address"
            },
            {
              "internalType": "address",
              "name": "senderAddress",
              "type": "address"
            },
            {
              "internalType": "uint256",
              "name": "makerAssetAmount",
              "type": "uint256"
            },
            {
              "internalType": "uint256",
              "name": "takerAssetAmount",
              "type": "uint256"
            },
            {
              "internalType": "uint256",
              "name": "makerFee",
              "type": "uint256"
            },
            {
              "internalType": "uint256",
              "name": "takerFee",
              "type": "uint256"
            },
            {
              "internalType": "uint256",
              "name": "expirationTimeSeconds",
              "type": "uint256"
            },
            {
              "internalType": "uint256",
              "name": "salt",
              "type": "uint256"
            },
            {
              "internalType": "bytes",
              "name": "makerAssetData",
              "type": "bytes"
            },
            {
              "internalType": "bytes",
              "name": "takerAssetData",
              "type": "bytes"
            },
            {
              "internalType": "bytes",
              "name": "makerFeeAssetData",
              "type": "bytes"
            },
            {
              "internalType": "bytes",
              "name": "takerFeeAssetData",
              "type": "bytes"
            }
          ],
          "internalType": "struct LibOrder.Order",
          "name": "order",
          "type": "tuple"
        },
        {
          "internalType": "bytes",
          "name": "signature",
          "type": "bytes"
        }
      ],
      "name": "getOrderRelevantState",
      "outputs": [
        {
          "components": [
            {
              "internalType": "enum LibOrder.OrderStatus",
              "name": "orderStatus",
              "type": "uint8"
            },
            {
              "internalType": "bytes32",
              "name": "orderHash",
              "type": "bytes32"
            },
            {
              "internalType": "uint256",
              "name": "orderTakerAssetFilledAmount",
              "type": "uint256"
            }
          ],
          "internalType": "struct LibOrder.OrderInfo",
          "name": "orderInfo",
          "type": "tuple"
        },
        {
          "internalType": "uint256",
          "name": "fillableTakerAssetAmount",
          "type": "uint256"
        },
        {
          "internalType": "bool",
          "name": "isValidSignature",
          "type": "bool"
        }
      ],
      "payable": false,
      "stateMutability": "nonpayable",
      "type": "function"
    },
    {
      "constant": false,
      "inputs": [
        {
          "components": [
            {
              "internalType": "address",
              "name": "makerAddress",
              "type": "address"
            },
            {
              "internalType": "address",
              "name": "takerAddress",
              "type": "address"
            },
            {
              "internalType": "address",
              "name": "feeRecipientAddress",
              "type": "address"
            },
            {
              "internalType": "address",
              "name": "senderAddress",
              "type": "address"
            },
            {
              "internalType": "uint256",
              "name": "makerAssetAmount",
              "type": "uint256"
            },
            {
              "internalType": "uint256",
              "name": "takerAssetAmount",
              "type": "uint256"
            },
            {
              "internalType": "uint256",
              "name": "makerFee",
              "type": "uint256"
            },
            {
              "internalType": "uint256",
              "name": "takerFee",
              "type": "uint256"
            },
            {
              "internalType": "uint256",
              "name": "expirationTimeSeconds",
              "type": "uint256"
            },
            {
              "internalType": "uint256",
              "name": "salt",
              "type": "uint256"
            },
            {
              "internalType": "bytes",
              "name": "makerAssetData",
              "type": "bytes"
            },
            {
              "internalType": "bytes",
              "name": "takerAssetData",
              "type": "bytes"
            },
            {
              "internalType": "bytes",
              "name": "makerFeeAssetData",
              "type": "bytes"
            },
            {
              "internalType": "bytes",
              "name": "takerFeeAssetData",
              "type": "bytes"
            }
          ],
          "internalType": "struct LibOrder.Order[]",
          "name": "orders",
          "type": "tuple[]"
        },
        {
          "internalType": "bytes[]",
          "name": "signatures",
          "type": "bytes[]"
        }
      ],
      "name": "getOrderRelevantStates",
      "outputs": [
        {
          "components": [
            {
              "internalType": "enum LibOrder.OrderStatus",
              "name": "orderStatus",
              "type": "uint8"
            },
            {
              "internalType": "bytes32",
              "name": "orderHash",
              "type": "bytes32"
            },
            {
              "internalType": "uint256",
              "name": "orderTakerAssetFilledAmount",
              "type": "uint256"
            }
          ],
          "internalType": "struct LibOrder.OrderInfo[]",
          "name": "ordersInfo",
          "type": "tuple[]"
        },
        {
          "internalType": "uint256[]",
          "name": "fillableTakerAssetAmounts",
          "type": "uint256[]"
        },
        {
          "internalType": "bool[]",
          "name": "isValidSignature",
          "type": "bool[]"
        }
      ],
      "payable": false,
      "stateMutability": "nonpayable",
      "type": "function"
    },
    {
      "constant": false,
      "inputs": [
        {
          "components": [
            {
              "internalType": "address",
              "name": "makerAddress",
              "type": "address"
            },
            {
              "internalType": "address",
              "name": "takerAddress",
              "type": "address"
            },
            {
              "internalType": "address",
              "name": "feeRecipientAddress",
              "type": "address"
            },
            {
              "internalType": "address",
              "name": "senderAddress",
              "type": "address"
            },
            {
              "internalType": "uint256",
              "name": "makerAssetAmount",
              "type": "uint256"
            },
            {
              "internalType": "uint256",
              "name": "takerAssetAmount",
              "type": "uint256"
            },
            {
              "internalType": "uint256",
              "name": "makerFee",
              "type": "uint256"
            },
            {
              "internalType": "uint256",
              "name": "takerFee",
              "type": "uint256"
            },
            {
              "internalType": "uint256",
              "name": "expirationTimeSeconds",
              "type": "uint256"
            },
            {
              "internalType": "uint256",
              "name": "salt",
              "type": "uint256"
            },
            {
              "internalType": "bytes",
              "name": "makerAssetData",
              "type": "bytes"
            },
            {
              "internalType": "bytes",
              "name": "takerAssetData",
              "type": "bytes"
            },
            {
              "internalType": "bytes",
              "name": "makerFeeAssetData",
              "type": "bytes"
            },
            {
              "internalType": "bytes",
              "name": "takerFeeAssetData",
              "type": "bytes"
            }
          ],
          "internalType": "struct LibOrder.Order",
          "name": "order",
          "type": "tuple"
        },
        {
          "internalType": "address",
          "name": "takerAddress",
          "type": "address"
        },
        {
          "internalType": "uint256",
          "name": "takerAssetFillAmount",
          "type": "uint256"
        }
      ],
      "name": "getSimulatedOrderMakerTransferResults",
      "outputs": [
        {
          "internalType": "enum LibOrderTransferSimulation.OrderTransferResults",
          "name": "orderTransferResults",
          "type": "uint8"
        }
      ],
      "payable": false,
      "stateMutability": "nonpayable",
      "type": "function"
    },
    {
      "constant": false,
      "inputs": [
        {
          "components": [
            {
              "internalType": "address",
              "name": "makerAddress",
              "type": "address"
            },
            {
              "internalType": "address",
              "name": "takerAddress",
              "type": "address"
            },
            {
              "internalType": "address",
              "name": "feeRecipientAddress",
              "type": "address"
            },
            {
              "internalType": "address",
              "name": "senderAddress",
              "type": "address"
            },
            {
              "internalType": "uint256",
              "name": "makerAssetAmount",
              "type": "uint256"
            },
            {
              "internalType": "uint256",
              "name": "takerAssetAmount",
              "type": "uint256"
            },
            {
              "internalType": "uint256",
              "name": "makerFee",
              "type": "uint256"
            },
            {
              "internalType": "uint256",
              "name": "takerFee",
              "type": "uint256"
            },
            {
              "internalType": "uint256",
              "name": "expirationTimeSeconds",
              "type": "uint256"
            },
            {
              "internalType": "uint256",
              "name": "salt",
              "type": "uint256"
            },
            {
              "internalType": "bytes",
              "name": "makerAssetData",
              "type": "bytes"
            },
            {
              "internalType": "bytes",
              "name": "takerAssetData",
              "type": "bytes"
            },
            {
              "internalType": "bytes",
              "name": "makerFeeAssetData",
              "type": "bytes"
            },
            {
              "internalType": "bytes",
              "name": "takerFeeAssetData",
              "type": "bytes"
            }
          ],
          "internalType": "struct LibOrder.Order",
          "name": "order",
          "type": "tuple"
        },
        {
          "internalType": "address",
          "name": "takerAddress",
          "type": "address"
        },
        {
          "internalType": "uint256",
          "name": "takerAssetFillAmount",
          "type": "uint256"
        }
      ],
      "name": "getSimulatedOrderTransferResults",
      "outputs": [
        {
          "internalType": "enum LibOrderTransferSimulation.OrderTransferResults",
          "name": "orderTransferResults",
          "type": "uint8"
        }
      ],
      "payable": false,
      "stateMutability": "nonpayable",
      "type": "function"
    },
    {
      "constant": false,
      "inputs": [
        {
          "components": [
            {
              "internalType": "address",
              "name": "makerAddress",
              "type": "address"
            },
            {
              "internalType": "address",
              "name": "takerAddress",
              "type": "address"
            },
            {
              "internalType": "address",
              "name": "feeRecipientAddress",
              "type": "address"
            },
            {
              "internalType": "address",
              "name": "senderAddress",
              "type": "address"
            },
            {
              "internalType": "uint256",
              "name": "makerAssetAmount",
              "type": "uint256"
            },
            {
              "internalType": "uint256",
              "name": "takerAssetAmount",
              "type": "uint256"
            },
            {
              "internalType": "uint256",
              "name": "makerFee",
              "type": "uint256"
            },
            {
              "internalType": "uint256",
              "name": "takerFee",
              "type": "uint256"
            },
            {
              "internalType": "uint256",
              "name": "expirationTimeSeconds",
              "type": "uint256"
            },
            {
              "internalType": "uint256",
              "name": "salt",
              "type": "uint256"
            },
            {
              "internalType": "bytes",
              "name": "makerAssetData",
              "type": "bytes"
            },
            {
              "internalType": "bytes",
              "name": "takerAssetData",
              "type": "bytes"
            },
            {
              "internalType": "bytes",
              "name": "makerFeeAssetData",
              "type": "bytes"
            },
            {
              "internalType": "bytes",
              "name": "takerFeeAssetData",
              "type": "bytes"
            }
          ],
          "internalType": "struct LibOrder.Order[]",
          "name": "orders",
          "type": "tuple[]"
        },
        {
          "internalType": "address[]",
          "name": "takerAddresses",
          "type": "address[]"
        },
        {
          "internalType": "uint256[]",
          "name": "takerAssetFillAmounts",
          "type": "uint256[]"
        }
      ],
      "name": "getSimulatedOrdersTransferResults",
      "outputs": [
        {
          "internalType": "enum LibOrderTransferSimulation.OrderTransferResults[]",
          "name": "orderTransferResults",
          "type": "uint8[]"
        }
      ],
      "payable": false,
      "stateMutability": "nonpayable",
      "type": "function"
    },
    {
      "constant": true,
      "inputs": [
        {
          "components": [
            {
              "internalType": "uint256",
              "name": "salt",
              "type": "uint256"
            },
            {
              "internalType": "uint256",
              "name": "expirationTimeSeconds",
              "type": "uint256"
            },
            {
              "internalType": "uint256",
              "name": "gasPrice",
              "type": "uint256"
            },
            {
              "internalType": "address",
              "name": "signerAddress",
              "type": "address"
            },
            {
              "internalType": "bytes",
              "name": "data",
              "type": "bytes"
            }
          ],
          "internalType": "struct LibZeroExTransaction.ZeroExTransaction",
          "name": "transaction",
          "type": "tuple"
        },
        {
          "internalType": "uint256",
          "name": "chainId",
          "type": "uint256"
        },
        {
          "internalType": "address",
          "name": "exchange",
          "type": "address"
        }
      ],
      "name": "getTransactionHash",
      "outputs": [
        {
          "internalType": "bytes32",
          "name": "transactionHash",
          "type": "bytes32"
        }
      ],
      "payable": false,
      "stateMutability": "pure",
      "type": "function"
    },
    {
      "constant": false,
      "inputs": [
        {
          "internalType": "address",
          "name": "ownerAddress",
          "type": "address"
        },
        {
          "internalType": "bytes",
          "name": "assetData",
          "type": "bytes"
        }
      ],
      "name": "getTransferableAssetAmount",
      "outputs": [
        {
          "internalType": "uint256",
          "name": "transferableAssetAmount",
          "type": "uint256"
        }
      ],
      "payable": false,
      "stateMutability": "nonpayable",
      "type": "function"
    },
    {
      "constant": true,
      "inputs": [
        {
          "internalType": "bytes",
          "name": "assetData",
          "type": "bytes"
        }
      ],
      "name": "revertIfInvalidAssetData",
      "outputs": [],
      "payable": false,
      "stateMutability": "pure",
      "type": "function"
    },
    {
      "constant": true,
      "inputs": [],
      "name": "staticCallProxyAddress",
      "outputs": [
        {
          "internalType": "address",
          "name": "",
          "type": "address"
        }
      ],
      "payable": false,
      "stateMutability": "view",
      "type": "function"
    }
  ],
  "bytecode": "0x60806040523480156200001157600080fd5b5060405162004e4438038062004e448339810160408190526200003491620003b1565b600080546001600160a01b0319166001600160a01b0383169081178255604051630c0e082160e31b8152829184916360704108906200007f90630f47261b60e41b90600401620003eb565b60206040518083038186803b1580156200009857600080fd5b505afa158015620000ad573d6000803e3d6000fd5b505050506040513d601f19601f82011682018060405250620000d39190810190620003b1565b600180546001600160a01b0319166001600160a01b03928316179055604051630c0e082160e31b8152908216906360704108906200011d9063012b8bc960e11b90600401620003eb565b60206040518083038186803b1580156200013657600080fd5b505afa1580156200014b573d6000803e3d6000fd5b505050506040513d601f19601f82011682018060405250620001719190810190620003b1565b600280546001600160a01b0319166001600160a01b03928316179055604051630c0e082160e31b815290821690636070410890620001bb9063a7cb5fb760e01b90600401620003eb565b60206040518083038186803b158015620001d457600080fd5b505afa158015620001e9573d6000803e3d6000fd5b505050506040513d601f19601f820116820180604052506200020f9190810190620003b1565b600380546001600160a01b0319166001600160a01b03928316179055604051630c0e082160e31b815290821690636070410890620002599063619ce88560e11b90600401620003eb565b60206040518083038186803b1580156200027257600080fd5b505afa15801562000287573d6000803e3d6000fd5b505050506040513d601f19601f82011682018060405250620002ad9190810190620003b1565b600480546001600160a01b0319166001600160a01b0392831617905560009150821615620002dc5781620002de565b305b9050620003396040518060400160405280600b81526020016a0c1e08141c9bdd1bd8dbdb60aa1b815250604051806040016040528060058152602001640332e302e360dc1b81525085846200034760201b620023b41760201c565b600555506200043b92505050565b8351602094850120835193850193909320604080517f8b73c3c69bb8fe3d512ecc4cf759cc79239f7b179b0ffacaa9a75d522b39400f815295860194909452928401929092526060830152608082015260a0902090565b8051620003ab8162000421565b92915050565b600060208284031215620003c457600080fd5b6000620003d284846200039e565b949350505050565b620003e58162000408565b82525050565b60208101620003ab8284620003da565b6000620003ab8262000415565b6001600160e01b03191690565b6001600160a01b031690565b6200042c81620003fb565b81146200043857600080fd5b50565b6149f9806200044b6000396000f3fe608060405234801561001057600080fd5b50600436106102415760003560e01c8063a0901e5111610145578063d3637905116100bd578063e4e6e7da1161008c578063ee18599711610071578063ee18599714610592578063ef3bb0971461059a578063ff84e7cc146105a257610241565b8063e4e6e7da1461054f578063e77286eb1461057057610241565b8063d3637905146104e7578063d3d862d1146104fa578063d46950281461050d578063e25cabf71461052d57610241565b8063bbb2dcf611610114578063ca49f47c116100f9578063ca49f47c1461049e578063d001c5dc146104c1578063d186037f146104d457610241565b8063bbb2dcf614610474578063c26cfecd1461049657610241565b8063a0901e511461041b578063a5cd62ba1461042e578063a6627e9f1461044e578063b43cffe11461046157610241565b8063750bdb30116101d85780638f4ce479116101a75780639cd016051161018c5780639cd01605146103dc5780639eadc835146103e4578063a070cac81461040857610241565b80638f4ce479146103a65780639baf2705146103c757610241565b8063750bdb301461033d5780637982653e1461036057806379c9c426146103805780637d7275121461039357610241565b80634dfdac20116102145780634dfdac20146102c7578063590aa875146102e757806363eb3992146103075780636f83188e1461031a57610241565b806304a5618a146102465780630d7b7d76146102715780632322cf761461029257806346eb65cb146102b2575b600080fd5b610259610254366004613ae9565b6105aa565b60405161026893929190614658565b60405180910390f35b61028461027f3660046135f3565b610643565b6040516102689291906147e1565b6102a56102a03660046135f3565b610665565b6040516102689190614558565b6102c56102c0366004613ae9565b61068d565b005b6102da6102d53660046134f8565b610711565b60405161026891906144fd565b6102fa6102f53660046134da565b610794565b60405161026891906146b4565b6102fa61031536600461363b565b610843565b61032d610328366004613ae9565b6108f8565b6040516102689493929190614736565b61035061034b366004613ae9565b610998565b6040516102689493929190614582565b61037361036e366004613c43565b610a2a565b6040516102689190614728565b6102a561038e366004613d1c565b610adc565b6102a56103a13660046135f3565b610b33565b6103b96103b4366004613ae9565b61121a565b604051610268929190614574565b6103cf6112ad565b604051610268919061436a565b6103cf6112bc565b6103f76103f2366004613ae9565b6112cb565b6040516102689594939291906145bc565b6102a5610416366004613cc2565b611370565b6102da6104293660046136d0565b6113c7565b61044161043c36600461373a565b611440565b60405161026891906144b3565b6102fa61045c3660046136a0565b6114fa565b6102fa61046f36600461354a565b6115a3565b610487610482366004613ae9565b61165b565b60405161026893929190614680565b6102a56116eb565b6104b16104ac366004613ae9565b6116f1565b604051610268949392919061461c565b6102da6104cf3660046134f8565b611783565b6102a56104e23660046135f3565b6117f1565b6103736104f5366004613c43565b611e57565b6102fa6105083660046137fa565b611eb9565b61052061051b366004613ae9565b611f0e565b6040516102689190614566565b61054061053b3660046137c4565b611fb1565b604051610268939291906144c4565b61056261055d3660046134f8565b6120e9565b604051610268929190614533565b61058361057e366004613c8c565b612102565b60405161026893929190614783565b6103cf612371565b6103cf612380565b6103cf61238f565b600080600073__$47982cde888c0746e89627bc11b9f7281b$__6304a5618a856040518263ffffffff1660e01b81526004016105e691906146b4565b60606040518083038186803b1580156105fe57600080fd5b505af4158015610612573d6000803e3d6000fd5b505050506040513d601f19601f820116820180604052506106369190810190613a33565b9250925092509193909250565b6000806106508484610b33565b915061065c84846117f1565b90509250929050565b60008060006106748585610643565b91509150610682828261239e565b925050505b92915050565b6040517f46eb65cb00000000000000000000000000000000000000000000000000000000815273__$47982cde888c0746e89627bc11b9f7281b$__906346eb65cb906106dd9084906004016146b4565b60006040518083038186803b1580156106f557600080fd5b505af4158015610709573d6000803e3d6000fd5b505050505b50565b606060008251905080604051908082528060200260200182016040528015610743578160200160208202803883390190505b50915060005b81811461078c5761076d8585838151811061076057fe5b60200260200101516117f1565b83828151811061077957fe5b6020908102919091010152600101610749565b505092915050565b6040517f590aa87500000000000000000000000000000000000000000000000000000000815260609073__$47982cde888c0746e89627bc11b9f7281b$__9063590aa875906107e790859060040161436a565b60006040518083038186803b1580156107ff57600080fd5b505af4158015610813573d6000803e3d6000fd5b505050506040513d6000823e601f3d908101601f1916820160405261083b9190810190613b1e565b90505b919050565b6040517f63eb399200000000000000000000000000000000000000000000000000000000815260609073__$47982cde888c0746e89627bc11b9f7281b$__906363eb39929061089a9087908790879060040161442d565b60006040518083038186803b1580156108b257600080fd5b505af41580156108c6573d6000803e3d6000fd5b505050506040513d6000823e601f3d908101601f191682016040526108ee9190810190613b1e565b90505b9392505050565b60608060608073__$4d0f2b3974cdf1500cd4f356b7888b9293$__636f83188e866040518263ffffffff1660e01b815260040161093591906146b4565b60006040518083038186803b15801561094d57600080fd5b505af4158015610961573d6000803e3d6000fd5b505050506040513d6000823e601f3d908101601f191682016040526109899190810190613b71565b93509350935093509193509193565b6000806000606073__$47982cde888c0746e89627bc11b9f7281b$__63750bdb30866040518263ffffffff1660e01b81526004016109d691906146b4565b60006040518083038186803b1580156109ee57600080fd5b505af4158015610a02573d6000803e3d6000fd5b505050506040513d6000823e601f3d908101601f19168201604052610989919081019061389c565b600080546040517f9caa023b00000000000000000000000000000000000000000000000000000000815273__$3c4d503b54d7e7d0eb97e5059041e5056d$__91639caa023b91610a8c916001600160a01b03169088908890889060040161445c565b60206040518083038186803b158015610aa457600080fd5b505af4158015610ab8573d6000803e3d6000fd5b505050506040513d601f19601f820116820180604052506108ee9190810190613b53565b60006108ee84610b2e6040518060400160405280600b81526020016a0c1e08141c9bdd1bd8dbdb60aa1b815250604051806040016040528060058152602001640332e302e360dc1b81525087876123b4565b61240b565b600080610b46838263ffffffff61241f16565b90506001600160e01b03198116630f47261b60e41b1415610b88576000610b7484601063ffffffff61245816565b9050610b80818661248b565b925050611213565b6001600160e01b0319811663012b8bc960e11b1415610d5e5760008073__$47982cde888c0746e89627bc11b9f7281b$__6304a5618a866040518263ffffffff1660e01b8152600401610bdb91906146b4565b60606040518083038186803b158015610bf357600080fd5b505af4158015610c07573d6000803e3d6000fd5b505050506040513d601f19601f82011682018060405250610c2b9190810190613a33565b6040519194509250606091507f6352211e0000000000000000000000000000000000000000000000000000000090610c67908490602401614558565b604051602081830303815290604052906001600160e01b0319166020820180516001600160e01b038381831617835250505050905060006060846001600160a01b031683604051610cb8919061435e565b600060405180830381855afa9150503d8060008114610cf3576040519150601f19603f3d011682016040523d82523d6000602084013e610cf8565b606091505b50915091506000828015610d0d575081516020145b610d18576000610d29565b610d2982600c63ffffffff61245816565b9050896001600160a01b0316816001600160a01b031614610d4b576000610d4e565b60015b60ff169750505050505050611213565b6001600160e01b0319811663a7cb5fb760e01b1415610fb757600060608073__$47982cde888c0746e89627bc11b9f7281b$__639eadc835876040518263ffffffff1660e01b8152600401610db391906146b4565b60006040518083038186803b158015610dcb57600080fd5b505af4158015610ddf573d6000803e3d6000fd5b505050506040513d6000823e601f3d908101601f19168201604052610e079190810190613909565b5081519296509094509250905060005b818114610fad57828181518110610e2a57fe5b602002602001015160001415610e3f57610fa5565b83516060907efdd58e00000000000000000000000000000000000000000000000000000000908b90879085908110610e7357fe5b6020026020010151604051602401610e8c929190614498565b604051602081830303815290604052906001600160e01b0319166020820180516001600160e01b038381831617835250505050905060006060876001600160a01b031683604051610edd919061435e565b600060405180830381855afa9150503d8060008114610f18576040519150601f19603f3d011682016040523d82523d6000602084013e610f1d565b606091505b50915091506000828015610f32575081516020145b610f3d576000610f4e565b610f4e82600063ffffffff61256e16565b90506000878681518110610f5e57fe5b60200260200101518281610f6e57fe5b04905080610f8a5760009b505050505050505050505050610687565b8b811080610f9657508b155b15610f9f57809b505b50505050505b600101610e17565b5050505050611213565b6001600160e01b0319811663619ce88560e11b14156110bc576040516060907fa85e59e4000000000000000000000000000000000000000000000000000000009061100d908690600090819081906024016146c5565b60408051601f198184030181529181526020820180516001600160e01b03166001600160e01b03199094169390931790925260045491519092506000916001600160a01b03169061105f90849061435e565b600060405180830381855afa9150503d806000811461109a576040519150601f19603f3d011682016040523d82523d6000602084013e61109f565b606091505b50509050806110af5760006110b3565b6000195b93505050611213565b6001600160e01b031981166394cfcdd760e01b14156112135760608073__$47982cde888c0746e89627bc11b9f7281b$__63bbb2dcf6866040518263ffffffff1660e01b815260040161110f91906146b4565b60006040518083038186803b15801561112757600080fd5b505af415801561113b573d6000803e3d6000fd5b505050506040513d6000823e601f3d908101601f191682016040526111639190810190613a76565b80519194509250905060005b81811461120e5783818151811061118257fe5b60200260200101516000141561119757611206565b60006111b6898584815181106111a957fe5b6020026020010151610b33565b905060008583815181106111c657fe5b602002602001015182816111d657fe5b049050806111ee576000975050505050505050610687565b878110806111fa575087155b15611203578097505b50505b60010161116f565b505050505b5092915050565b60008073__$47982cde888c0746e89627bc11b9f7281b$__638f4ce479846040518263ffffffff1660e01b815260040161125491906146b4565b604080518083038186803b15801561126b57600080fd5b505af415801561127f573d6000803e3d6000fd5b505050506040513d601f19601f820116820180604052506112a3919081019061386c565b915091505b915091565b6004546001600160a01b031681565b6000546001600160a01b031681565b600080606080606073__$47982cde888c0746e89627bc11b9f7281b$__639eadc835876040518263ffffffff1660e01b815260040161130a91906146b4565b60006040518083038186803b15801561132257600080fd5b505af4158015611336573d6000803e3d6000fd5b505050506040513d6000823e601f3d908101601f1916820160405261135e9190810190613909565b939a9299509097509550909350915050565b60006108ee846113c26040518060400160405280600b81526020016a0c1e08141c9bdd1bd8dbdb60aa1b815250604051806040016040528060058152602001640332e302e360dc1b81525087876123b4565b61257a565b60608082516040519080825280602002602001820160405280156113f5578160200160208202803883390190505b50905060005b835181146112135783818151811061140f57fe5b60200260200101516001600160a01b03163182828151811061142d57fe5b60209081029190910101526001016113fb565b6000546040517f02cffc4500000000000000000000000000000000000000000000000000000000815260609173__$3c4d503b54d7e7d0eb97e5059041e5056d$__916302cffc45916114a6916001600160a01b0390911690889088908890600401614393565b60006040518083038186803b1580156114be57600080fd5b505af41580156114d2573d6000803e3d6000fd5b505050506040513d6000823e601f3d908101601f191682016040526108ee9190810190613705565b6040517fa6627e9f00000000000000000000000000000000000000000000000000000000815260609073__$47982cde888c0746e89627bc11b9f7281b$__9063a6627e9f9061154f9086908690600401614498565b60006040518083038186803b15801561156757600080fd5b505af415801561157b573d6000803e3d6000fd5b505050506040513d6000823e601f3d908101601f191682016040526108f19190810190613b1e565b6040517fb43cffe100000000000000000000000000000000000000000000000000000000815260609073__$47982cde888c0746e89627bc11b9f7281b$__9063b43cffe1906115fc9088908890889088906004016143e5565b60006040518083038186803b15801561161457600080fd5b505af4158015611628573d6000803e3d6000fd5b505050506040513d6000823e601f3d908101601f191682016040526116509190810190613b1e565b90505b949350505050565b600060608073__$47982cde888c0746e89627bc11b9f7281b$__63bbb2dcf6856040518263ffffffff1660e01b815260040161169791906146b4565b60006040518083038186803b1580156116af57600080fd5b505af41580156116c3573d6000803e3d6000fd5b505050506040513d6000823e601f3d908101601f191682016040526106369190810190613a76565b60055481565b6000806060600073__$47982cde888c0746e89627bc11b9f7281b$__63ca49f47c866040518263ffffffff1660e01b815260040161172f91906146b4565b60006040518083038186803b15801561174757600080fd5b505af415801561175b573d6000803e3d6000fd5b505050506040513d6000823e601f3d908101601f1916820160405261098991908101906139c6565b6060600082519050806040519080825280602002602001820160405280156117b5578160200160208202803883390190505b50915060005b81811461078c576117d2858583815181106111a957fe5b8382815181106117de57fe5b60209081029190910101526001016117bb565b600080611804838263ffffffff61241f16565b90506001600160e01b031981166394cfcdd760e01b14156119565760608073__$47982cde888c0746e89627bc11b9f7281b$__63bbb2dcf6866040518263ffffffff1660e01b815260040161185991906146b4565b60006040518083038186803b15801561187157600080fd5b505af4158015611885573d6000803e3d6000fd5b505050506040513d6000823e601f3d908101601f191682016040526118ad9190810190613a76565b80519194509250905060005b81811461194b578381815181106118cc57fe5b6020026020010151600014156118e157611943565b60006118f38985848151811061076057fe5b9050600085838151811061190357fe5b6020026020010151828161191357fe5b0490508061192b576000975050505050505050610687565b87811080611937575087155b15611940578097505b50505b6001016118b9565b506106879350505050565b6001600160e01b03198116630f47261b60e41b141561199e57600061198284601063ffffffff61245816565b600154909150610b8090829087906001600160a01b0316612589565b6001600160e01b0319811663012b8bc960e11b1415611c685760008073__$47982cde888c0746e89627bc11b9f7281b$__6304a5618a866040518263ffffffff1660e01b81526004016119f191906146b4565b60606040518083038186803b158015611a0957600080fd5b505af4158015611a1d573d6000803e3d6000fd5b505050506040513d601f19601f82011682018060405250611a419190810190613a33565b6002546040519295509093506060925063e985e9c560e01b91611a74918a916001600160a01b0390911690602401614378565b604051602081830303815290604052906001600160e01b0319166020820180516001600160e01b038381831617835250505050905060006060846001600160a01b031683604051611ac5919061435e565b600060405180830381855afa9150503d8060008114611b00576040519150601f19603f3d011682016040523d82523d6000602084013e611b05565b606091505b5091509150811580611b1957508051602014155b80611b355750611b3081600063ffffffff61256e16565b600114155b15611c59576040516060907f081812fc0000000000000000000000000000000000000000000000000000000090611b70908790602401614558565b604051602081830303815290604052906001600160e01b0319166020820180516001600160e01b0383818316178352505050509050856001600160a01b031681604051611bbd919061435e565b600060405180830381855afa9150503d8060008114611bf8576040519150601f19603f3d011682016040523d82523d6000602084013e611bfd565b606091505b509093509150828015611c11575081516020145b8015611c4057506002546001600160a01b0316611c3583600c63ffffffff61245816565b6001600160a01b0316145b611c4b576000611c4e565b60015b60ff16975050610fad565b60001996505050505050611213565b6001600160e01b0319811663a7cb5fb760e01b1415611e33576040517f9eadc83500000000000000000000000000000000000000000000000000000000815260009073__$47982cde888c0746e89627bc11b9f7281b$__90639eadc83590611cd49087906004016146b4565b60006040518083038186803b158015611cec57600080fd5b505af4158015611d00573d6000803e3d6000fd5b505050506040513d6000823e601f3d908101601f19168201604052611d289190810190613909565b50506003546040519294506060935063e985e9c560e01b92611d59925089916001600160a01b031690602401614378565b604051602081830303815290604052906001600160e01b0319166020820180516001600160e01b038381831617835250505050905060006060836001600160a01b031683604051611daa919061435e565b600060405180830381855afa9150503d8060008114611de5576040519150601f19603f3d011682016040523d82523d6000602084013e611dea565b606091505b5091509150818015611dfd575080516020145b8015611e195750611e1581600063ffffffff61256e16565b6001145b611e24576000611e28565b6000195b955050505050611213565b6001600160e01b0319811663619ce88560e11b141561121357506000199392505050565b600080546040517f8dccde0400000000000000000000000000000000000000000000000000000000815273__$3c4d503b54d7e7d0eb97e5059041e5056d$__91638dccde0491610a8c916001600160a01b03169088908890889060040161445c565b6040517fd3d862d100000000000000000000000000000000000000000000000000000000815260609073__$47982cde888c0746e89627bc11b9f7281b$__9063d3d862d19061154f908690869060040161450e565b6040517fd469502800000000000000000000000000000000000000000000000000000000815260009073__$47982cde888c0746e89627bc11b9f7281b$__9063d469502890611f619085906004016146b4565b60206040518083038186803b158015611f7957600080fd5b505af4158015611f8d573d6000803e3d6000fd5b505050506040513d601f19601f8201168201806040525061083b919081019061384e565b606080606060008551905080604051908082528060200260200182016040528015611ff657816020015b611fe3612c55565b815260200190600190039081611fdb5790505b50935080604051908082528060200260200182016040528015612023578160200160208202803883390190505b50925080604051908082528060200260200182016040528015612050578160200160208202803883390190505b50915060005b8181146120e05761208d87828151811061206c57fe5b602002602001015187838151811061208057fe5b6020026020010151612102565b875188908590811061209b57fe5b602002602001018785815181106120ae57fe5b602002602001018786815181106120c157fe5b9315156020948502919091019093019290925291905252600101612056565b50509250925092565b6060806120f68484611783565b915061065c8484610711565b61210a612c55565b600080546040517f9d3fa4b900000000000000000000000000000000000000000000000000000000815282916001600160a01b031690639d3fa4b9906121549088906004016147ab565b60606040518083038186803b15801561216c57600080fd5b505afa158015612180573d6000803e3d6000fd5b505050506040513d601f19601f820116820180604052506121a49190810190613c25565b85516000546040517fa12dcc6f00000000000000000000000000000000000000000000000000000000815292955090916001600160a01b039091169063a12dcc6f906121f690899089906004016147bc565b60206040518083038186803b15801561220e57600080fd5b505afa158015612222573d6000803e3d6000fd5b505050506040513d601f19601f820116820180604052506122469190810190613830565b915060006122538761267e565b905060006122748861018001518961014001516126aa90919063ffffffff16565b156122a9576122a2826122988a60c001518b608001516126cf90919063ffffffff16565b8a60a001516126eb565b9050612316565b60c08801516122c5576122a28289608001518a60a001516126eb565b60006122d6848a6101800151610665565b905060006122ed848b608001518c60a001516126eb565b90506000612304838c60c001518d60a001516126eb565b9050612310828261239e565b93505050505b61233a61233487604001518a60a0015161270d90919063ffffffff16565b8261239e565b94506123458861272c565b61234e57600094505b60038651600681111561235d57fe5b1461236757600094505b5050509250925092565b6001546001600160a01b031681565b6002546001600160a01b031681565b6003546001600160a01b031681565b60008183106123ad57816108f1565b5090919050565b8351602094850120835193850193909320604080517f8b73c3c69bb8fe3d512ecc4cf759cc79239f7b179b0ffacaa9a75d522b39400f815295860194909452928401929092526060830152608082015260a0902090565b60006108f18261241a85612793565b61280e565b60008160040183511015612445576124456124406003855185600401612848565b6128a2565b5001602001516001600160e01b03191690565b60008160140183511015612479576124796124406004855185601401612848565b5001601401516001600160a01b031690565b60405160009081906060906001600160a01b038616907f70a0823100000000000000000000000000000000000000000000000000000000906124d190879060240161436a565b60408051601f198184030181529181526020820180516001600160e01b03166001600160e01b031990941693909317909252905161250f919061435e565b600060405180830381855afa9150503d806000811461254a576040519150601f19603f3d011682016040523d82523d6000602084013e61254f565b606091505b5091509150818015612562575080516020145b1561078c576106828160005b60006108f183836128aa565b60006108f18261241a856128d4565b60405160009081906060906001600160a01b038716907fdd62ed3e00000000000000000000000000000000000000000000000000000000906125d19088908890602401614378565b60408051601f198184030181529181526020820180516001600160e01b03166001600160e01b031990941693909317909252905161260f919061435e565b600060405180830381855afa9150503d806000811461264a576040519150601f19603f3d011682016040523d82523d6000602084013e61264f565b606091505b5091509150818015612662575080516020145b156126755761267281600061256e565b92505b50509392505050565b600080600061268c8461298d565b9150915061269a828261239e565b925061165383856080015161239e565b6000815183511480156108f15750508051602091820120825192909101919091201490565b6000828201838110156108f1576108f1612440600086866129f5565b60006108ee83612701868563ffffffff612a1416565b9063ffffffff612a4516565b60008282111561272657612726612440600285856129f5565b50900390565b600061273c826101400151612a6f565b801561275d575060c0820151158061275d575061275d826101800151612a6f565b80156127725750612772826101600151612a6f565b801561083b575060e0820151158061083b575061083b826101a00151612a6f565b608081810151825160208085015160408087015160609788015186519685019690962082517fec69816980a3a3ca4554410e60253953e9ff375ba4536a98adfa15cc7154150881529485019590955290830191909152948101949094526001600160a01b039091169183019190915260a082015260c0902090565b6040517f19010000000000000000000000000000000000000000000000000000000000008152600281019290925260228201526042902090565b6060632800659560e01b8484846040516024016128679392919061471a565b60408051601f198184030181529190526020810180516001600160e01b03166001600160e01b03199093169290921790915290509392505050565b805160208201fd5b600081602001835110156128cb576128cb6124406005855185602001612848565b50016020015190565b6101408101516101608201516101808301516101a08401516000937ff80322eb8376aafb64eadf8f0d7623f22130fd9491a221e902b713cb984a75349390929091602087101561292057fe5b601f1987018051610140890180516101608b0180516101808d0180516101a08f0180519d89528c5160209d8e012087528b519b8d019b909b2084528951998c01999099208152875197909a019690962088526101e085209390945290529190529252919091529050919050565b60008060048361014001515110156129aa575060009050806112a8565b6101408301516000906129c3908263ffffffff61241f16565b90506129d88460000151856101400151610b33565b6129eb85600001518661014001516117f1565b9250925050915091565b606063e946c1bb60e01b848484604051602401612867939291906146ff565b600082612a2357506000610687565b82820282848281612a3057fe5b04146108f1576108f1612440600186866129f5565b600081612a5b57612a5b612440600385856129f5565b6000828481612a6657fe5b04949350505050565b60006020825181612a7c57fe5b06600414612a8c5750600061083e565b6000612a9e838263ffffffff61241f16565b90506001600160e01b031981166394cfcdd760e01b14612ac257600191505061083e565b6040517fbbb2dcf600000000000000000000000000000000000000000000000000000000815260609073__$47982cde888c0746e89627bc11b9f7281b$__9063bbb2dcf690612b159087906004016146b4565b60006040518083038186803b158015612b2d57600080fd5b505af4158015612b41573d6000803e3d6000fd5b505050506040513d6000823e601f3d908101601f19168201604052612b699190810190613a76565b80519093509150600090505b818114612be6576000612ba56000858481518110612b8f57fe5b602002602001015161241f90919063ffffffff16565b90506001600160e01b0319811663012b8bc960e11b1415612bdd57612bca8483612bf2565b15612bdd5760009550505050505061083e565b50600101612b75565b50600195945050505050565b8151600090600183015b8181101561078c57612c3d858281518110612c1357fe5b6020026020010151868681518110612c2757fe5b60200260200101516126aa90919063ffffffff16565b15612c4d57600192505050610687565b600101612bfc565b6040805160608101909152806000815260006020820181905260409091015290565b80356106878161496d565b80516106878161496d565b600082601f830112612c9e57600080fd5b8135612cb1612cac82614816565b6147ef565b91508181835260208401935060208101905083856020840282011115612cd657600080fd5b60005b83811015612d025781612cec8882612c77565b8452506020928301929190910190600101612cd9565b5050505092915050565b600082601f830112612d1d57600080fd5b8135612d2b612cac82614816565b81815260209384019390925082018360005b83811015612d025781358601612d538882612ffc565b8452506020928301929190910190600101612d3d565b600082601f830112612d7a57600080fd5b8151612d88612cac82614816565b81815260209384019390925082018360005b83811015612d025781518601612db0888261304b565b8452506020928301929190910190600101612d9a565b600082601f830112612dd757600080fd5b8151612de5612cac82614816565b91508181835260208401935060208101905083856020840282011115612e0a57600080fd5b60005b83811015612d025781612e20888261309c565b8452506020928301929190910190600101612e0d565b600082601f830112612e4757600080fd5b8135612e55612cac82614816565b81815260209384019390925082018360005b83811015612d025781358601612e7d8882613102565b8452506020928301929190910190600101612e67565b600082601f830112612ea457600080fd5b8151612eb2612cac82614816565b81815260209384019390925082018360005b83811015612d025781518601612eda88826132a7565b8452506020928301929190910190600101612ec4565b600082601f830112612f0157600080fd5b8135612f0f612cac82614816565b91508181835260208401935060208101905083856020840282011115612f3457600080fd5b60005b83811015612d025781612f4a8882612fdb565b8452506020928301929190910190600101612f37565b600082601f830112612f7157600080fd5b8151612f7f612cac82614816565b91508181835260208401935060208101905083856020840282011115612fa457600080fd5b60005b83811015612d025781612fba8882612fe6565b8452506020928301929190910190600101612fa7565b805161068781614981565b80356106878161498a565b80516106878161498a565b805161068781614993565b600082601f83011261300d57600080fd5b813561301b612cac82614837565b9150808252602083016020830185838301111561303757600080fd5b613042838284614903565b50505092915050565b600082601f83011261305c57600080fd5b815161306a612cac82614837565b9150808252602083016020830185838301111561308657600080fd5b61304283828461490f565b80516106878161499c565b8051610687816149a9565b6000606082840312156130b957600080fd5b6130c360606147ef565b905060006130d18484613091565b82525060206130e284848301612fe6565b60208301525060406130f684828501612fe6565b60408301525092915050565b60006101c0828403121561311557600080fd5b6131206101c06147ef565b9050600061312e8484612c77565b825250602061313f84848301612c77565b602083015250604061315384828501612c77565b604083015250606061316784828501612c77565b606083015250608061317b84828501612fdb565b60808301525060a061318f84828501612fdb565b60a08301525060c06131a384828501612fdb565b60c08301525060e06131b784828501612fdb565b60e0830152506101006131cc84828501612fdb565b610100830152506101206131e284828501612fdb565b6101208301525061014082013567ffffffffffffffff81111561320457600080fd5b61321084828501612ffc565b6101408301525061016082013567ffffffffffffffff81111561323257600080fd5b61323e84828501612ffc565b6101608301525061018082013567ffffffffffffffff81111561326057600080fd5b61326c84828501612ffc565b610180830152506101a082013567ffffffffffffffff81111561328e57600080fd5b61329a84828501612ffc565b6101a08301525092915050565b60006101c082840312156132ba57600080fd5b6132c56101c06147ef565b905060006132d38484612c82565b82525060206132e484848301612c82565b60208301525060406132f884828501612c82565b604083015250606061330c84828501612c82565b606083015250608061332084828501612fe6565b60808301525060a061333484828501612fe6565b60a08301525060c061334884828501612fe6565b60c08301525060e061335c84828501612fe6565b60e08301525061010061337184828501612fe6565b6101008301525061012061338784828501612fe6565b6101208301525061014082015167ffffffffffffffff8111156133a957600080fd5b6133b58482850161304b565b6101408301525061016082015167ffffffffffffffff8111156133d757600080fd5b6133e38482850161304b565b6101608301525061018082015167ffffffffffffffff81111561340557600080fd5b6134118482850161304b565b610180830152506101a082015167ffffffffffffffff81111561343357600080fd5b61329a8482850161304b565b600060a0828403121561345157600080fd5b61345b60a06147ef565b905060006134698484612fdb565b825250602061347a84848301612fdb565b602083015250604061348e84828501612fdb565b60408301525060606134a284828501612c77565b606083015250608082013567ffffffffffffffff8111156134c257600080fd5b6134ce84828501612ffc565b60808301525092915050565b6000602082840312156134ec57600080fd5b60006116538484612c77565b6000806040838503121561350b57600080fd5b60006135178585612c77565b925050602083013567ffffffffffffffff81111561353457600080fd5b61354085828601612d0c565b9150509250929050565b6000806000806080858703121561356057600080fd5b600061356c8787612c77565b945050602085013567ffffffffffffffff81111561358957600080fd5b61359587828801612ef0565b935050604085013567ffffffffffffffff8111156135b257600080fd5b6135be87828801612ef0565b925050606085013567ffffffffffffffff8111156135db57600080fd5b6135e787828801612ffc565b91505092959194509250565b6000806040838503121561360657600080fd5b60006136128585612c77565b925050602083013567ffffffffffffffff81111561362f57600080fd5b61354085828601612ffc565b60008060006060848603121561365057600080fd5b600061365c8686612c77565b935050602084013567ffffffffffffffff81111561367957600080fd5b61368586828701612ffc565b925050604061369686828701612fdb565b9150509250925092565b600080604083850312156136b357600080fd5b60006136bf8585612c77565b925050602061354085828601612fdb565b6000602082840312156136e257600080fd5b813567ffffffffffffffff8111156136f957600080fd5b61165384828501612c8d565b60006020828403121561371757600080fd5b815167ffffffffffffffff81111561372e57600080fd5b61165384828501612dc6565b60008060006060848603121561374f57600080fd5b833567ffffffffffffffff81111561376657600080fd5b61377286828701612e36565b935050602084013567ffffffffffffffff81111561378f57600080fd5b61379b86828701612c8d565b925050604084013567ffffffffffffffff8111156137b857600080fd5b61369686828701612ef0565b600080604083850312156137d757600080fd5b823567ffffffffffffffff8111156137ee57600080fd5b61351785828601612e36565b6000806040838503121561380d57600080fd5b823567ffffffffffffffff81111561382457600080fd5b61351785828601612ef0565b60006020828403121561384257600080fd5b60006116538484612fd0565b60006020828403121561386057600080fd5b60006116538484612ff1565b6000806040838503121561387f57600080fd5b600061388b8585612ff1565b925050602061354085828601612c82565b600080600080608085870312156138b257600080fd5b60006138be8787612ff1565b94505060206138cf87828801612c82565b93505060406138e087828801612c82565b925050606085015167ffffffffffffffff8111156138fd57600080fd5b6135e78782880161304b565b600080600080600060a0868803121561392157600080fd5b600061392d8888612ff1565b955050602061393e88828901612c82565b945050604086015167ffffffffffffffff81111561395b57600080fd5b61396788828901612f60565b935050606086015167ffffffffffffffff81111561398457600080fd5b61399088828901612f60565b925050608086015167ffffffffffffffff8111156139ad57600080fd5b6139b98882890161304b565b9150509295509295909350565b600080600080608085870312156139dc57600080fd5b60006139e88787612ff1565b94505060206139f987828801612c82565b935050604085015167ffffffffffffffff811115613a1657600080fd5b613a228782880161304b565b92505060606135e787828801612fe6565b600080600060608486031215613a4857600080fd5b6000613a548686612ff1565b9350506020613a6586828701612c82565b925050604061369686828701612fe6565b600080600060608486031215613a8b57600080fd5b6000613a978686612ff1565b935050602084015167ffffffffffffffff811115613ab457600080fd5b613ac086828701612f60565b925050604084015167ffffffffffffffff811115613add57600080fd5b61369686828701612d69565b600060208284031215613afb57600080fd5b813567ffffffffffffffff811115613b1257600080fd5b61165384828501612ffc565b600060208284031215613b3057600080fd5b815167ffffffffffffffff811115613b4757600080fd5b6116538482850161304b565b600060208284031215613b6557600080fd5b6000611653848461309c565b60008060008060808587031215613b8757600080fd5b845167ffffffffffffffff811115613b9e57600080fd5b613baa8782880161304b565b945050602085015167ffffffffffffffff811115613bc757600080fd5b613bd387828801612e93565b935050604085015167ffffffffffffffff811115613bf057600080fd5b613bfc87828801612f60565b925050606085015167ffffffffffffffff811115613c1957600080fd5b6135e787828801612d69565b600060608284031215613c3757600080fd5b600061165384846130a7565b600080600060608486031215613c5857600080fd5b833567ffffffffffffffff811115613c6f57600080fd5b613c7b86828701613102565b935050602061368586828701612c77565b60008060408385031215613c9f57600080fd5b823567ffffffffffffffff811115613cb657600080fd5b61361285828601613102565b600080600060608486031215613cd757600080fd5b833567ffffffffffffffff811115613cee57600080fd5b613cfa86828701613102565b9350506020613d0b86828701612fdb565b925050604061369686828701612c77565b600080600060608486031215613d3157600080fd5b833567ffffffffffffffff811115613d4857600080fd5b613cfa8682870161343f565b6000613d608383613db8565b505060200190565b6000613d608383614137565b60006108f18383614152565b6000613d6083836141d4565b6000613d9883836141e6565b505060600190565b60006108f18383614223565b6000613d608383614140565b613dc181614872565b82525050565b6000613dd282614865565b613ddc8185614869565b9350613de78361485f565b8060005b83811015613e15578151613dff8882613d54565b9750613e0a8361485f565b925050600101613deb565b509495945050505050565b6000613e2b82614865565b613e358185614869565b9350613e408361485f565b8060005b83811015613e15578151613e588882613d68565b9750613e638361485f565b925050600101613e44565b6000613e7982614865565b613e838185614869565b935083602082028501613e958561485f565b8060005b85811015613ecf5784840389528151613eb28582613d74565b9450613ebd8361485f565b60209a909a0199925050600101613e99565b5091979650505050505050565b6000613ee782614865565b613ef18185614869565b935083602082028501613f038561485f565b8060005b85811015613ecf5784840389528151613f208582613d74565b9450613f2b8361485f565b60209a909a0199925050600101613f07565b6000613f4882614865565b613f528185614869565b9350613f5d8361485f565b8060005b83811015613e15578151613f758882613d80565b9750613f808361485f565b925050600101613f61565b6000613f9682614865565b613fa08185614869565b9350613fab8361485f565b8060005b83811015613e15578151613fc38882613d8c565b9750613fce8361485f565b925050600101613faf565b6000613fe482614865565b613fee8185614869565b9350836020820285016140008561485f565b8060005b85811015613ecf578484038952815161401d8582613da0565b94506140288361485f565b60209a909a0199925050600101614004565b600061404582614865565b61404f8185614869565b9350836020820285016140618561485f565b8060005b85811015613ecf578484038952815161407e8582613da0565b94506140898361485f565b60209a909a0199925050600101614065565b60006140a682614865565b6140b08185614869565b93506140bb8361485f565b8060005b83811015613e155781516140d38882613dac565b97506140de8361485f565b9250506001016140bf565b60006140f482614865565b6140fe8185614869565b93506141098361485f565b8060005b83811015613e155781516141218882613dac565b975061412c8361485f565b92505060010161410d565b613dc18161487d565b613dc181614882565b613dc181614885565b600061415d82614865565b6141678185614869565b935061417781856020860161490f565b6141808161493b565b9093019392505050565b600061419582614865565b61419f818561083e565b93506141af81856020860161490f565b9290920192915050565b613dc1816148cc565b613dc1816148d7565b613dc1816148e2565b613dc1816148ed565b613dc1816148f8565b805160608301906141f784826141cb565b50602082015161420a6020850182614140565b50604082015161421d6040850182614140565b50505050565b80516000906101c08401906142388582613db8565b50602083015161424b6020860182613db8565b50604083015161425e6040860182613db8565b5060608301516142716060860182613db8565b5060808301516142846080860182614140565b5060a083015161429760a0860182614140565b5060c08301516142aa60c0860182614140565b5060e08301516142bd60e0860182614140565b506101008301516142d2610100860182614140565b506101208301516142e7610120860182614140565b506101408301518482036101408601526143018282614152565b91505061016083015184820361016086015261431d8282614152565b9150506101808301518482036101808601526143398282614152565b9150506101a08301518482036101a08601526143558282614152565b95945050505050565b60006108f1828461418a565b602081016106878284613db8565b604081016143868285613db8565b6108f16020830184613db8565b608081016143a18287613db8565b81810360208301526143b3818661403a565b905081810360408301526143c78185613dc7565b905081810360608301526143db81846140e9565b9695505050505050565b608081016143f38287613db8565b818103602083015261440581866140e9565b9050818103604083015261441981856140e9565b905081810360608301526143db8184614152565b6060810161443b8286613db8565b818103602083015261444d8185614152565b90506116536040830184614140565b6080810161446a8287613db8565b818103602083015261447c8186614223565b905061448b6040830185613db8565b6143556060830184614140565b604081016144a68285613db8565b6108f16020830184614140565b602080825281016108f18184613f3d565b606080825281016144d58186613f8b565b905081810360208301526144e9818561409b565b905081810360408301526116508184613e20565b602080825281016108f1818461409b565b6040808252810161451f81856140e9565b905081810360208301526108ee8184613edc565b60408082528101614544818561409b565b905081810360208301526108ee818461409b565b602081016106878284614140565b602081016106878284614149565b604081016143868285614149565b608081016145908287614149565b61459d6020830186613db8565b6145aa6040830185613db8565b81810360608301526143db8184614152565b60a081016145ca8288614149565b6145d76020830187613db8565b81810360408301526145e9818661409b565b905081810360608301526145fd818561409b565b905081810360808301526146118184614152565b979650505050505050565b6080810161462a8287614149565b6146376020830186613db8565b81810360408301526146498185614152565b90506143556060830184614140565b606081016146668286614149565b6146736020830185613db8565b6116536040830184614140565b6060810161468e8286614149565b81810360208301526146a0818561409b565b905081810360408301526116508184613e6e565b602080825281016108f18184614152565b608080825281016146d68187614152565b90506146e56020830186613db8565b6146f26040830185613db8565b61435560608301846141dd565b6060810161470d82866141b9565b6146736020830185614140565b6060810161470d82866141c2565b6020810161068782846141d4565b608080825281016147478187614152565b9050818103602083015261475b8186613fd9565b9050818103604083015261476f818561409b565b905081810360608301526143db8184613e6e565b60a0810161479182866141e6565b61479e6060830185614140565b6116536080830184614137565b602080825281016108f18184614223565b604080825281016147cd8185614223565b905081810360208301526108ee8184614152565b604081016144a68285614140565b60405181810167ffffffffffffffff8111828210171561480e57600080fd5b604052919050565b600067ffffffffffffffff82111561482d57600080fd5b5060209081020190565b600067ffffffffffffffff82111561484e57600080fd5b506020601f91909101601f19160190565b60200190565b5190565b90815260200190565b600061083b826148ba565b151590565b90565b6001600160e01b03191690565b8061083e81614945565b8061083e8161494f565b8061083e81614959565b8061083e81614963565b6001600160a01b031690565b60ff1690565b600061083b82614892565b600061083b8261489c565b600061083b826148a6565b600061083b826148b0565b600061083b826148c6565b82818337506000910152565b60005b8381101561492a578181015183820152602001614912565b8381111561421d5750506000910152565b601f01601f191690565b6004811061070e57fe5b6008811061070e57fe5b6007811061070e57fe5b6005811061070e57fe5b61497681614872565b811461070e57600080fd5b6149768161487d565b61497681614882565b61497681614885565b6007811061070e57600080fd5b6005811061070e57600080fdfea365627a7a72315820f8181311579b8d30cb6aaa72b9e5ee7cf71d53945b802e50877b0d5d211e49416c6578706572696d656e74616cf564736f6c63430005110040",
  "linkReferences": {
    "contracts/0x/dev-utils/LibAssetData.sol": {
      "LibAssetData": [
        {
          "length": 20,
          "start": 2556
        },
        {
          "length": 20,
          "start": 2816
        },
        {
          "length": 20,
          "start": 3082
        },
        {
          "length": 20,
          "start": 3257
        },
        {
          "length": 20,
          "start": 3564
        },
        {
          "length": 20,
          "start": 4081
        },
        {
          "length": 20,
          "start": 4553
        },
        {
          "length": 20,
          "start": 5413
        },
        {
          "length": 20,
          "start": 5738
        },
        {
          "length": 20,
          "start": 5920
        },
        {
          "length": 20,
          "start": 6512
        },
        {
          "length": 20,
          "start": 6681
        },
        {
          "length": 20,
          "start": 6829
        },
        {
          "length": 20,
          "start": 6981
        },
        {
          "length": 20,
          "start": 7279
        },
        {
          "length": 20,
          "start": 7687
        },
        {
          "length": 20,
          "start": 8439
        },
        {
          "length": 20,
          "start": 9007
        },
        {
          "length": 20,
          "start": 9092
        },
        {
          "length": 20,
          "start": 12088
        }
      ]
    },
    "contracts/0x/dev-utils/LibOrderTransferSimulation.sol": {
      "LibOrderTransferSimulation": [
        {
          "length": 20,
          "start": 3745
        },
        {
          "length": 20,
          "start": 6329
        },
        {
          "length": 20,
          "start": 8910
        }
      ]
    },
    "contracts/0x/dev-utils/LibTransactionDecoder.sol": {
      "LibTransactionDecoder": [
        {
          "length": 20,
          "start": 3403
        }
      ]
    }
  },
  "deployedLinkReferences": {
    "contracts/0x/dev-utils/LibAssetData.sol": {
      "LibAssetData": [
        {
          "length": 20,
          "start": 1457
        },
        {
          "length": 20,
          "start": 1717
        },
        {
          "length": 20,
          "start": 1983
        },
        {
          "length": 20,
          "start": 2158
        },
        {
          "length": 20,
          "start": 2465
        },
        {
          "length": 20,
          "start": 2982
        },
        {
          "length": 20,
          "start": 3454
        },
        {
          "length": 20,
          "start": 4314
        },
        {
          "length": 20,
          "start": 4639
        },
        {
          "length": 20,
          "start": 4821
        },
        {
          "length": 20,
          "start": 5413
        },
        {
          "length": 20,
          "start": 5582
        },
        {
          "length": 20,
          "start": 5730
        },
        {
          "length": 20,
          "start": 5882
        },
        {
          "length": 20,
          "start": 6180
        },
        {
          "length": 20,
          "start": 6588
        },
        {
          "length": 20,
          "start": 7340
        },
        {
          "length": 20,
          "start": 7908
        },
        {
          "length": 20,
          "start": 7993
        },
        {
          "length": 20,
          "start": 10989
        }
      ]
    },
    "contracts/0x/dev-utils/LibOrderTransferSimulation.sol": {
      "LibOrderTransferSimulation": [
        {
          "length": 20,
          "start": 2646
        },
        {
          "length": 20,
          "start": 5230
        },
        {
          "length": 20,
          "start": 7811
        }
      ]
    },
    "contracts/0x/dev-utils/LibTransactionDecoder.sol": {
      "LibTransactionDecoder": [
        {
          "length": 20,
          "start": 2304
        }
      ]
    }
  }
}