{
  "_format": "hh-sol-artifact-1",
  "contractName": "ERC1155",
  "sourceName": "contracts/0x/erc1155/ERC1155.sol",
  "abi": [
    {
      "anonymous": false,
      "inputs": [
        {
          "indexed": true,
          "internalType": "address",
          "name": "owner",
          "type": "address"
        },
        {
          "indexed": true,
          "internalType": "address",
          "name": "operator",
          "type": "address"
        },
        {
          "indexed": false,
          "internalType": "bool",
          "name": "approved",
          "type": "bool"
        }
      ],
      "name": "ApprovalForAll",
      "type": "event"
    },
    {
      "anonymous": false,
      "inputs": [
        {
          "indexed": true,
          "internalType": "address",
          "name": "operator",
          "type": "address"
        },
        {
          "indexed": true,
          "internalType": "address",
          "name": "from",
          "type": "address"
        },
        {
          "indexed": true,
          "internalType": "address",
          "name": "to",
          "type": "address"
        },
        {
          "indexed": false,
          "internalType": "uint256[]",
          "name": "ids",
          "type": "uint256[]"
        },
        {
          "indexed": false,
          "internalType": "uint256[]",
          "name": "values",
          "type": "uint256[]"
        }
      ],
      "name": "TransferBatch",
      "type": "event"
    },
    {
      "anonymous": false,
      "inputs": [
        {
          "indexed": true,
          "internalType": "address",
          "name": "operator",
          "type": "address"
        },
        {
          "indexed": true,
          "internalType": "address",
          "name": "from",
          "type": "address"
        },
        {
          "indexed": true,
          "internalType": "address",
          "name": "to",
          "type": "address"
        },
        {
          "indexed": false,
          "internalType": "uint256",
          "name": "id",
          "type": "uint256"
        },
        {
          "indexed": false,
          "internalType": "uint256",
          "name": "value",
          "type": "uint256"
        }
      ],
      "name": "TransferSingle",
      "type": "event"
    },
    {
      "anonymous": false,
      "inputs": [
        {
          "indexed": false,
          "internalType": "string",
          "name": "value",
          "type": "string"
        },
        {
          "indexed": true,
          "internalType": "uint256",
          "name": "id",
          "type": "uint256"
        }
      ],
      "name": "URI",
      "type": "event"
    },
    {
      "constant": true,
      "inputs": [],
      "name": "ERC1155_BATCH_RECEIVED",
      "outputs": [
        {
          "internalType": "bytes4",
          "name": "",
          "type": "bytes4"
        }
      ],
      "payable": false,
      "stateMutability": "view",
      "type": "function"
    },
    {
      "constant": true,
      "inputs": [],
      "name": "ERC1155_RECEIVED",
      "outputs": [
        {
          "internalType": "bytes4",
          "name": "",
          "type": "bytes4"
        }
      ],
      "payable": false,
      "stateMutability": "view",
      "type": "function"
    },
    {
      "constant": true,
      "inputs": [
        {
          "internalType": "address",
          "name": "owner",
          "type": "address"
        },
        {
          "internalType": "uint256",
          "name": "id",
          "type": "uint256"
        }
      ],
      "name": "balanceOf",
      "outputs": [
        {
          "internalType": "uint256",
          "name": "",
          "type": "uint256"
        }
      ],
      "payable": false,
      "stateMutability": "view",
      "type": "function"
    },
    {
      "constant": true,
      "inputs": [
        {
          "internalType": "address[]",
          "name": "owners",
          "type": "address[]"
        },
        {
          "internalType": "uint256[]",
          "name": "ids",
          "type": "uint256[]"
        }
      ],
      "name": "balanceOfBatch",
      "outputs": [
        {
          "internalType": "uint256[]",
          "name": "balances_",
          "type": "uint256[]"
        }
      ],
      "payable": false,
      "stateMutability": "view",
      "type": "function"
    },
    {
      "constant": true,
      "inputs": [
        {
          "internalType": "uint256",
          "name": "id",
          "type": "uint256"
        }
      ],
      "name": "getNonFungibleBaseType",
      "outputs": [
        {
          "internalType": "uint256",
          "name": "",
          "type": "uint256"
        }
      ],
      "payable": false,
      "stateMutability": "pure",
      "type": "function"
    },
    {
      "constant": true,
      "inputs": [
        {
          "internalType": "uint256",
          "name": "id",
          "type": "uint256"
        }
      ],
      "name": "getNonFungibleIndex",
      "outputs": [
        {
          "internalType": "uint256",
          "name": "",
          "type": "uint256"
        }
      ],
      "payable": false,
      "stateMutability": "pure",
      "type": "function"
    },
    {
      "constant": true,
      "inputs": [
        {
          "internalType": "address",
          "name": "owner",
          "type": "address"
        },
        {
          "internalType": "address",
          "name": "operator",
          "type": "address"
        }
      ],
      "name": "isApprovedForAll",
      "outputs": [
        {
          "internalType": "bool",
          "name": "",
          "type": "bool"
        }
      ],
      "payable": false,
      "stateMutability": "view",
      "type": "function"
    },
    {
      "constant": true,
      "inputs": [
        {
          "internalType": "uint256",
          "name": "id",
          "type": "uint256"
        }
      ],
      "name": "isFungible",
      "outputs": [
        {
          "internalType": "bool",
          "name": "",
          "type": "bool"
        }
      ],
      "payable": false,
      "stateMutability": "pure",
      "type": "function"
    },
    {
      "constant": true,
      "inputs": [
        {
          "internalType": "uint256",
          "name": "id",
          "type": "uint256"
        }
      ],
      "name": "isNonFungible",
      "outputs": [
        {
          "internalType": "bool",
          "name": "",
          "type": "bool"
        }
      ],
      "payable": false,
      "stateMutability": "pure",
      "type": "function"
    },
    {
      "constant": true,
      "inputs": [
        {
          "internalType": "uint256",
          "name": "id",
          "type": "uint256"
        }
      ],
      "name": "isNonFungibleBaseType",
      "outputs": [
        {
          "internalType": "bool",
          "name": "",
          "type": "bool"
        }
      ],
      "payable": false,
      "stateMutability": "pure",
      "type": "function"
    },
    {
      "constant": true,
      "inputs": [
        {
          "internalType": "uint256",
          "name": "id",
          "type": "uint256"
        }
      ],
      "name": "isNonFungibleItem",
      "outputs": [
        {
          "internalType": "bool",
          "name": "",
          "type": "bool"
        }
      ],
      "payable": false,
      "stateMutability": "pure",
      "type": "function"
    },
    {
      "constant": true,
      "inputs": [
        {
          "internalType": "uint256",
          "name": "id",
          "type": "uint256"
        }
      ],
      "name": "ownerOf",
      "outputs": [
        {
          "internalType": "address",
          "name": "",
          "type": "address"
        }
      ],
      "payable": false,
      "stateMutability": "view",
      "type": "function"
    },
    {
      "constant": false,
      "inputs": [
        {
          "internalType": "address",
          "name": "from",
          "type": "address"
        },
        {
          "internalType": "address",
          "name": "to",
          "type": "address"
        },
        {
          "internalType": "uint256[]",
          "name": "ids",
          "type": "uint256[]"
        },
        {
          "internalType": "uint256[]",
          "name": "values",
          "type": "uint256[]"
        },
        {
          "internalType": "bytes",
          "name": "data",
          "type": "bytes"
        }
      ],
      "name": "safeBatchTransferFrom",
      "outputs": [],
      "payable": false,
      "stateMutability": "nonpayable",
      "type": "function"
    },
    {
      "constant": false,
      "inputs": [
        {
          "internalType": "address",
          "name": "from",
          "type": "address"
        },
        {
          "internalType": "address",
          "name": "to",
          "type": "address"
        },
        {
          "internalType": "uint256",
          "name": "id",
          "type": "uint256"
        },
        {
          "internalType": "uint256",
          "name": "value",
          "type": "uint256"
        },
        {
          "internalType": "bytes",
          "name": "data",
          "type": "bytes"
        }
      ],
      "name": "safeTransferFrom",
      "outputs": [],
      "payable": false,
      "stateMutability": "nonpayable",
      "type": "function"
    },
    {
      "constant": false,
      "inputs": [
        {
          "internalType": "address",
          "name": "operator",
          "type": "address"
        },
        {
          "internalType": "bool",
          "name": "approved",
          "type": "bool"
        }
      ],
      "name": "setApprovalForAll",
      "outputs": [],
      "payable": false,
      "stateMutability": "nonpayable",
      "type": "function"
    }
  ],
  "bytecode": "0x608060405234801561001057600080fd5b5061161e806100206000396000f3fe608060405234801561001057600080fd5b50600436106100f45760003560e01c80639cca1c6411610097578063e44591f011610066578063e44591f01461020b578063e985e9c51461021e578063f242432a14610231578063fc67bf1c14610244576100f4565b80639cca1c64146101bd578063a22cb465146101d0578063adebf6f2146101e3578063e0a5c949146101f6576100f4565b80635e81b958116100d35780635e81b958146101575780636352211e146101775780636f969c2d146101975780637269a327146101aa576100f4565b8062fdd58e146100f95780632eb2c2d6146101225780634e1273f414610137575b600080fd5b61010c610107366004610f80565b61024c565b60405161011991906114f6565b60405180910390f35b610135610130366004610df6565b6102bc565b005b61014a610145366004610fb0565b610662565b6040516101199190611431565b61016a61016536600461103e565b6107c8565b6040516101199190611442565b61018a61018536600461103e565b6107f8565b6040516101199190611338565b61010c6101a536600461103e565b610813565b61016a6101b836600461103e565b610838565b61010c6101cb36600461103e565b610861565b6101356101de366004610f50565b610876565b61016a6101f136600461103e565b6108e5565b6101fe6108ef565b6040516101199190611450565b61016a61021936600461103e565b6108fa565b61016a61022c366004610dbc565b610906565b61013561023f366004610ec0565b610934565b6101fe610c18565b6000610257826107c8565b15610291576000828152602081905260409020546001600160a01b03848116911614610284576000610287565b60015b60ff1690506102b6565b5060008181526001602090815260408083206001600160a01b03861684529091529020545b92915050565b6001600160a01b0387166102eb5760405162461bcd60e51b81526004016102e290611486565b60405180910390fd5b84831461030a5760405162461bcd60e51b81526004016102e290611496565b6001600160a01b03881633148061034957506001600160a01b038816600090815260026020908152604080832033845290915290205460ff1615156001145b6103655760405162461bcd60e51b81526004016102e2906114b6565b60005b8581101561052257600087878381811061037e57fe5b905060200201359050600086868481811061039557fe5b9050602002013590506103a7826108fa565b1561043e57806001146103cc5760405162461bcd60e51b81526004016102e2906114c6565b6000828152602081905260409020546001600160a01b038c81169116146104055760405162461bcd60e51b81526004016102e2906114a6565b6000828152602081905260409020805473ffffffffffffffffffffffffffffffffffffffff19166001600160a01b038c16179055610518565b60008281526001602090815260408083206001600160a01b038f168452909152902054610471908263ffffffff610c2316565b6001600084815260200190815260200160002060008d6001600160a01b03166001600160a01b03168152602001908152602001600020819055506104f4816001600085815260200190815260200160002060008d6001600160a01b03166001600160a01b0316815260200190815260200160002054610c4790919063ffffffff16565b60008381526001602090815260408083206001600160a01b038f1684529091529020555b5050600101610368565b50866001600160a01b0316886001600160a01b0316336001600160a01b03167f4a39dc06d4c0dbc64b70af90fd698a233a518aa5d07e595d983b8c0526c8f7fb898989896040516105769493929190611400565b60405180910390a4610590876001600160a01b0316610c6a565b156106585760405163bc197c8160e01b81526000906001600160a01b0389169063bc197c81906105d29033908d908c908c908c908c908c908c90600401611346565b602060405180830381600087803b1580156105ec57600080fd5b505af1158015610600573d6000803e3d6000fd5b505050506040513d601f19601f820116820180604052506106249190810190611020565b90506001600160e01b0319811663bc197c8160e01b146106565760405162461bcd60e51b81526004016102e2906114e6565b505b5050505050505050565b60608382146106835760405162461bcd60e51b81526004016102e2906114d6565b6040805185815260208087028201019091528480156106ac578160200160208202803883390190505b50905060005b848110156107be5760008484838181106106c857fe5b9050602002013590506106da816107c8565b1561074b578686838181106106eb57fe5b90506020020160206107009190810190610d9e565b6000828152602081905260409020546001600160a01b0390811691161461072857600061072b565b60015b60ff1683838151811061073a57fe5b6020026020010181815250506107b5565b60008181526001602052604081209088888581811061076657fe5b905060200201602061077b9190810190610d9e565b6001600160a01b03166001600160a01b03168152602001908152602001600020548383815181106107a857fe5b6020026020010181815250505b506001016106b2565b505b949350505050565b6000600160ff1b8083161480156107f057506fffffffffffffffffffffffffffffffff821615155b90505b919050565b6000908152602081905260409020546001600160a01b031690565b7fffffffffffffffffffffffffffffffff000000000000000000000000000000001690565b6000600160ff1b8083161480156107f05750506fffffffffffffffffffffffffffffffff161590565b6fffffffffffffffffffffffffffffffff1690565b3360008181526002602090815260408083206001600160a01b038716808552925291829020805460ff191685151517905590519091907f17307eab39ab6107e8899845ad3d59bd9653f200f220920489ca2b5937696c31906108d9908590611442565b60405180910390a35050565b600160ff1b161590565b63f23a6e6160e01b81565b600160ff1b9081161490565b6001600160a01b03918216600090815260026020908152604080832093909416825291909152205460ff1690565b6001600160a01b03851661095a5760405162461bcd60e51b81526004016102e290611486565b6001600160a01b03861633148061099957506001600160a01b038616600090815260026020908152604080832033845290915290205460ff1615156001145b6109b55760405162461bcd60e51b81526004016102e2906114b6565b6109be846108fa565b15610a5557826001146109e35760405162461bcd60e51b81526004016102e2906114c6565b6000848152602081905260409020546001600160a01b03878116911614610a1c5760405162461bcd60e51b81526004016102e2906114a6565b6000848152602081905260409020805473ffffffffffffffffffffffffffffffffffffffff19166001600160a01b038716179055610ae3565b60008481526001602090815260408083206001600160a01b038a168452909152902054610a88908463ffffffff610c2316565b60008581526001602090815260408083206001600160a01b038b81168552925280832093909355871681522054610abf9084610c47565b60008581526001602090815260408083206001600160a01b038a1684529091529020555b846001600160a01b0316866001600160a01b0316336001600160a01b03167fc3d58168c5ae7397731d063d5bbf3d657854427343f4c083240f7aacaa2d0f628787604051610b32929190611504565b60405180910390a4610b4c856001600160a01b0316610c6a565b15610c105760405163f23a6e6160e01b81526000906001600160a01b0387169063f23a6e6190610b8a9033908b908a908a908a908a906004016113ac565b602060405180830381600087803b158015610ba457600080fd5b505af1158015610bb8573d6000803e3d6000fd5b505050506040513d601f19601f82011682018060405250610bdc9190810190611020565b90506001600160e01b0319811663f23a6e6160e01b14610c0e5760405162461bcd60e51b81526004016102e2906114e6565b505b505050505050565b63bc197c8160e01b81565b600082821115610c4157610c41610c3c60028585610c70565b610cdf565b50900390565b600082820183811015610c6357610c63610c3c60008686610c70565b9392505050565b3b151590565b606063e946c1bb60e01b848484604051602401610c8f9392919061145e565b60408051601f198184030181529190526020810180517bffffffffffffffffffffffffffffffffffffffffffffffffffffffff166001600160e01b03199093169290921790915290509392505050565b805160208201fd5b80356102b6816115ac565b60008083601f840112610d0457600080fd5b50813567ffffffffffffffff811115610d1c57600080fd5b602083019150836020820283011115610d3457600080fd5b9250929050565b80356102b6816115c0565b80516102b6816115c9565b60008083601f840112610d6357600080fd5b50813567ffffffffffffffff811115610d7b57600080fd5b602083019150836001820283011115610d3457600080fd5b80356102b6816115d2565b600060208284031215610db057600080fd5b60006107c08484610ce7565b60008060408385031215610dcf57600080fd5b6000610ddb8585610ce7565b9250506020610dec85828601610ce7565b9150509250929050565b60008060008060008060008060a0898b031215610e1257600080fd5b6000610e1e8b8b610ce7565b9850506020610e2f8b828c01610ce7565b975050604089013567ffffffffffffffff811115610e4c57600080fd5b610e588b828c01610cf2565b9650965050606089013567ffffffffffffffff811115610e7757600080fd5b610e838b828c01610cf2565b9450945050608089013567ffffffffffffffff811115610ea257600080fd5b610eae8b828c01610d51565b92509250509295985092959890939650565b60008060008060008060a08789031215610ed957600080fd5b6000610ee58989610ce7565b9650506020610ef689828a01610ce7565b9550506040610f0789828a01610d93565b9450506060610f1889828a01610d93565b935050608087013567ffffffffffffffff811115610f3557600080fd5b610f4189828a01610d51565b92509250509295509295509295565b60008060408385031215610f6357600080fd5b6000610f6f8585610ce7565b9250506020610dec85828601610d3b565b60008060408385031215610f9357600080fd5b6000610f9f8585610ce7565b9250506020610dec85828601610d93565b60008060008060408587031215610fc657600080fd5b843567ffffffffffffffff811115610fdd57600080fd5b610fe987828801610cf2565b9450945050602085013567ffffffffffffffff81111561100857600080fd5b61101487828801610cf2565b95989497509550505050565b60006020828403121561103257600080fd5b60006107c08484610d46565b60006020828403121561105057600080fd5b60006107c08484610d93565b6000611068838361132f565b505060200190565b61107981611568565b82525050565b61107981611532565b60006110948385611529565b93507f07ffffffffffffffffffffffffffffffffffffffffffffffffffffffffffffff8311156110c357600080fd5b6020830292506110d4838584611589565b50500190565b60006110e582611525565b6110ef8185611529565b93506110fa8361151f565b8060005b83811015611128578151611112888261105c565b975061111d8361151f565b9250506001016110fe565b509495945050505050565b6110798161153d565b61107981611542565b60006111518385611529565b935061115e838584611589565b61116783611595565b9093019392505050565b61107981611573565b6000611187601f83611529565b7f43414e4e4f545f5452414e534645525f544f5f414444524553535f5a45524f00815260200192915050565b60006111c0602083611529565b7f544f4b454e5f414e445f56414c5545535f4c454e4754485f4d49534d41544348815260200192915050565b60006111f9601d83611529565b7f4e46545f4e4f545f4f574e45445f42595f46524f4d5f41444452455353000000815260200192915050565b6000611232601683611529565b7f494e53554646494349454e545f414c4c4f57414e434500000000000000000000815260200192915050565b600061126b601c83611529565b7f414d4f554e545f455155414c5f544f5f4f4e455f524551554952454400000000815260200192915050565b60006112a4602483611529565b7f4f574e4552535f414e445f4944535f4d5553545f484156455f53414d455f4c4581527f4e47544800000000000000000000000000000000000000000000000000000000602082015260400192915050565b6000611303601983611529565b7f4241445f52454345495645525f52455455524e5f56414c554500000000000000815260200192915050565b61107981611565565b602081016102b6828461107f565b60a08101611354828b611070565b611361602083018a61107f565b818103604083015261137481888a611088565b90508181036060830152611389818688611088565b9050818103608083015261139e818486611145565b9a9950505050505050505050565b60a081016113ba8289611070565b6113c7602083018861107f565b6113d4604083018761132f565b6113e1606083018661132f565b81810360808301526113f4818486611145565b98975050505050505050565b60408082528101611412818688611088565b90508181036020830152611427818486611088565b9695505050505050565b60208082528101610c6381846110da565b602081016102b68284611133565b602081016102b6828461113c565b6060810161146c8286611171565b611479602083018561132f565b6107c0604083018461132f565b602080825281016107f08161117a565b602080825281016107f0816111b3565b602080825281016107f0816111ec565b602080825281016107f081611225565b602080825281016107f08161125e565b602080825281016107f081611297565b602080825281016107f0816112f6565b602081016102b6828461132f565b60408101611512828561132f565b610c63602083018461132f565b60200190565b5190565b90815260200190565b60006107f082611559565b151590565b6001600160e01b03191690565b806107f38161159f565b6001600160a01b031690565b90565b60006107f08261157e565b60006107f08261154f565b60006107f082611532565b82818337506000910152565b601f01601f191690565b600481106115a957fe5b50565b6115b581611532565b81146115a957600080fd5b6115b58161153d565b6115b581611542565b6115b58161156556fea365627a7a723158204799ac4f3eb2e84e5fbfe575b6f67bc7a7af51510ade8b9eeed818e42fa33a4b6c6578706572696d656e74616cf564736f6c63430005110040",
  "linkReferences": {},
  "deployedLinkReferences": {}
}