{
  "_format": "hh-sol-artifact-1",
  "contractName": "Addresses",
  "sourceName": "contracts/0x/dev-utils/Addresses.sol",
  "abi": [
    {
      "inputs": [
        {
          "internalType": "address",
          "name": "exchange_",
          "type": "address"
        }
      ],
      "payable": false,
      "stateMutability": "nonpayable",
      "type": "constructor"
    },
    {
      "constant": true,
      "inputs": [],
      "name": "erc1155ProxyAddress",
      "outputs": [
        {
          "internalType": "address",
          "name": "",
          "type": "address"
        }
      ],
      "payable": false,
      "stateMutability": "view",
      "type": "function"
    },
    {
      "constant": true,
      "inputs": [],
      "name": "erc20ProxyAddress",
      "outputs": [
        {
          "internalType": "address",
          "name": "",
          "type": "address"
        }
      ],
      "payable": false,
      "stateMutability": "view",
      "type": "function"
    },
    {
      "constant": true,
      "inputs": [],
      "name": "erc721ProxyAddress",
      "outputs": [
        {
          "internalType": "address",
          "name": "",
          "type": "address"
        }
      ],
      "payable": false,
      "stateMutability": "view",
      "type": "function"
    },
    {
      "constant": true,
      "inputs": [],
      "name": "exchangeAddress",
      "outputs": [
        {
          "internalType": "address",
          "name": "",
          "type": "address"
        }
      ],
      "payable": false,
      "stateMutability": "view",
      "type": "function"
    },
    {
      "constant": true,
      "inputs": [],
      "name": "staticCallProxyAddress",
      "outputs": [
        {
          "internalType": "address",
          "name": "",
          "type": "address"
        }
      ],
      "payable": false,
      "stateMutability": "view",
      "type": "function"
    }
  ],
  "bytecode": "0x608060405234801561001057600080fd5b506040516104bd3803806104bd83398101604081905261002f916102c4565b600080546001600160a01b0319166001600160a01b038316908117909155604051630c0e082160e31b815263607041089061007590630f47261b60e41b906004016102f9565b60206040518083038186803b15801561008d57600080fd5b505afa1580156100a1573d6000803e3d6000fd5b505050506040513d601f19601f820116820180604052506100c591908101906102c4565b600180546001600160a01b0319166001600160a01b03928316179055604051630c0e082160e31b81529082169063607041089061010d9063012b8bc960e11b906004016102f9565b60206040518083038186803b15801561012557600080fd5b505afa158015610139573d6000803e3d6000fd5b505050506040513d601f19601f8201168201806040525061015d91908101906102c4565b600280546001600160a01b0319166001600160a01b03928316179055604051630c0e082160e31b8152908216906360704108906101a59063a7cb5fb760e01b906004016102f9565b60206040518083038186803b1580156101bd57600080fd5b505afa1580156101d1573d6000803e3d6000fd5b505050506040513d601f19601f820116820180604052506101f591908101906102c4565b600380546001600160a01b0319166001600160a01b03928316179055604051630c0e082160e31b81529082169063607041089061023d9063619ce88560e11b906004016102f9565b60206040518083038186803b15801561025557600080fd5b505afa158015610269573d6000803e3d6000fd5b505050506040513d601f19601f8201168201806040525061028d91908101906102c4565b600480546001600160a01b0319166001600160a01b039290921691909117905550610342565b80516102be8161032b565b92915050565b6000602082840312156102d657600080fd5b60006102e284846102b3565b949350505050565b6102f381610312565b82525050565b602081016102be82846102ea565b60006102be8261031f565b6001600160e01b03191690565b6001600160a01b031690565b61033481610307565b811461033f57600080fd5b50565b61016c806103516000396000f3fe608060405234801561001057600080fd5b50600436106100675760003560e01c8063ee18599711610050578063ee18599714610092578063ef3bb0971461009a578063ff84e7cc146100a257610067565b80639baf27051461006c5780639cd016051461008a575b600080fd5b6100746100aa565b6040516100819190610104565b60405180910390f35b6100746100b9565b6100746100c8565b6100746100d7565b6100746100e6565b6004546001600160a01b031681565b6000546001600160a01b031681565b6001546001600160a01b031681565b6002546001600160a01b031681565b6003546001600160a01b031681565b6100fe81610118565b82525050565b6020810161011282846100f5565b92915050565b60006001600160a01b03821661011256fea365627a7a723158202398df05f957eb080f630f32d0db52097ea169f95def2f077795e3b7e7d0d27c6c6578706572696d656e74616cf564736f6c63430005110040",
  "linkReferences": {},
  "deployedLinkReferences": {}
}