{
  "_format": "hh-sol-artifact-1",
  "contractName": "MixinTransferSimulator",
  "sourceName": "contracts/0x/exchange/MixinTransferSimulator.sol",
  "abi": [
    {
      "anonymous": false,
      "inputs": [
        {
          "indexed": false,
          "internalType": "bytes4",
          "name": "id",
          "type": "bytes4"
        },
        {
          "indexed": false,
          "internalType": "address",
          "name": "assetProxy",
          "type": "address"
        }
      ],
      "name": "AssetProxyRegistered",
      "type": "event"
    },
    {
      "anonymous": false,
      "inputs": [
        {
          "indexed": true,
          "internalType": "address",
          "name": "previousOwner",
          "type": "address"
        },
        {
          "indexed": true,
          "internalType": "address",
          "name": "newOwner",
          "type": "address"
        }
      ],
      "name": "OwnershipTransferred",
      "type": "event"
    },
    {
      "constant": true,
      "inputs": [
        {
          "internalType": "bytes4",
          "name": "assetProxyId",
          "type": "bytes4"
        }
      ],
      "name": "getAssetProxy",
      "outputs": [
        {
          "internalType": "address",
          "name": "assetProxy",
          "type": "address"
        }
      ],
      "payable": false,
      "stateMutability": "view",
      "type": "function"
    },
    {
      "constant": true,
      "inputs": [],
      "name": "owner",
      "outputs": [
        {
          "internalType": "address",
          "name": "",
          "type": "address"
        }
      ],
      "payable": false,
      "stateMutability": "view",
      "type": "function"
    },
    {
      "constant": false,
      "inputs": [
        {
          "internalType": "address",
          "name": "assetProxy",
          "type": "address"
        }
      ],
      "name": "registerAssetProxy",
      "outputs": [],
      "payable": false,
      "stateMutability": "nonpayable",
      "type": "function"
    },
    {
      "constant": false,
      "inputs": [
        {
          "internalType": "bytes[]",
          "name": "assetData",
          "type": "bytes[]"
        },
        {
          "internalType": "address[]",
          "name": "fromAddresses",
          "type": "address[]"
        },
        {
          "internalType": "address[]",
          "name": "toAddresses",
          "type": "address[]"
        },
        {
          "internalType": "uint256[]",
          "name": "amounts",
          "type": "uint256[]"
        }
      ],
      "name": "simulateDispatchTransferFromCalls",
      "outputs": [],
      "payable": false,
      "stateMutability": "nonpayable",
      "type": "function"
    },
    {
      "constant": false,
      "inputs": [
        {
          "internalType": "address",
          "name": "newOwner",
          "type": "address"
        }
      ],
      "name": "transferOwnership",
      "outputs": [],
      "payable": false,
      "stateMutability": "nonpayable",
      "type": "function"
    }
  ],
  "bytecode": "0x6080604052600080546001600160a01b03191633179055610cf6806100256000396000f3fe608060405234801561001057600080fd5b50600436106100675760003560e01c8063b04fbddd11610050578063b04fbddd1461009d578063c585bb93146100b2578063f2fde38b146100c557610067565b8063607041081461006c5780638da5cb5b14610095575b600080fd5b61007f61007a366004610937565b6100d8565b60405161008c9190610a52565b60405180910390f35b61007f610101565b6100b06100ab366004610877565b610110565b005b6100b06100c0366004610851565b6101bc565b6100b06100d3366004610851565b6102f3565b6001600160e01b031981166000908152600160205260409020546001600160a01b03165b919050565b6000546001600160a01b031681565b835160005b818114610180576101788160001b87838151811061012f57fe5b602002602001015187848151811061014357fe5b602002602001015187858151811061015757fe5b602002602001015187868151811061016b57fe5b6020026020010151610372565b600101610115565b506040517f08c379a00000000000000000000000000000000000000000000000000000000081526004016101b390610b55565b60405180910390fd5b6101c46104da565b6000816001600160a01b031663ae25532e6040518163ffffffff1660e01b815260040160206040518083038186803b1580156101ff57600080fd5b505afa158015610213573d6000803e3d6000fd5b505050506040513d601f19601f820116820180604052506102379190810190610955565b6001600160e01b031981166000908152600160205260409020549091506001600160a01b03168015610275576102756102708383610509565b610561565b6001600160e01b0319821660009081526001602052604090819020805473ffffffffffffffffffffffffffffffffffffffff19166001600160a01b038616179055517fd2c6b762299c609bdb96520b58a49bfb80186934d4f71a86a367571a15c03194906102e69084908690610ab8565b60405180910390a1505050565b6102fb6104da565b6001600160a01b03811661031957610314610270610569565b61036f565b6000805473ffffffffffffffffffffffffffffffffffffffff19166001600160a01b0383169081178255604051909133917f8be0079c531659141344cd1fd0a4f28419497f9722a3daafe3b4186f6b6457e09190a35b50565b80156104d357602084518161038357fe5b0660041461039a5761039a610270600087876105a0565b60006103ac858263ffffffff6105fb16565b6001600160e01b031981166000908152600160205260409020549091506001600160a01b0316806103e6576103e6610270600189896105a0565b6040516060907fa85e59e40000000000000000000000000000000000000000000000000000000090610422908990899089908990602401610ac6565b604051602081830303815290604052906001600160e01b0319166020820180516001600160e01b038381831617835250505050905060006060836001600160a01b0316836040516104739190610a46565b6000604051808303816000865af19150503d80600081146104b0576040519150601f19603f3d011682016040523d82523d6000602084013e6104b5565b606091505b5091509150816104cd576104cd6102708b8b8461062f565b50505050505b5050505050565b6000546001600160a01b0316331461050757600054610507906102709033906001600160a01b031661064e565b565b60606311c7b72060e01b8383604051602401610526929190610ab8565b60408051601f198184030181529190526020810180516001600160e01b03166001600160e01b03199093169290921790915290505b92915050565b805160208201fd5b60408051808201909152600481527fe69edc3e00000000000000000000000000000000000000000000000000000000602082015290565b606063488219a660e01b8484846040516024016105bf93929190610b00565b60408051601f198184030181529190526020810180516001600160e01b03166001600160e01b03199093169290921790915290505b9392505050565b6000816004018351101561061c5761061c610270600385518560040161066b565b5001602001516001600160e01b03191690565b6060634678472b60e01b8484846040516024016105bf93929190610a7b565b6060631de45ad160e01b8383604051602401610526929190610a60565b6060632800659560e01b8484846040516024016105bf93929190610b2d565b803561055b81610c8d565b600082601f8301126106a657600080fd5b81356106b96106b482610b8c565b610b65565b915081818352602084019350602081019050838560208402820111156106de57600080fd5b60005b8381101561070a57816106f4888261068a565b84525060209283019291909101906001016106e1565b5050505092915050565b600082601f83011261072557600080fd5b81356107336106b482610b8c565b81815260209384019390925082018360005b8381101561070a578135860161075b88826107f7565b8452506020928301929190910190600101610745565b600082601f83011261078257600080fd5b81356107906106b482610b8c565b915081818352602084019350602081019050838560208402820111156107b557600080fd5b60005b8381101561070a57816107cb8882610846565b84525060209283019291909101906001016107b8565b803561055b81610ca1565b805161055b81610ca1565b600082601f83011261080857600080fd5b81356108166106b482610bad565b9150808252602083016020830185838301111561083257600080fd5b61083d838284610c33565b50505092915050565b803561055b81610caa565b60006020828403121561086357600080fd5b600061086f848461068a565b949350505050565b6000806000806080858703121561088d57600080fd5b843567ffffffffffffffff8111156108a457600080fd5b6108b087828801610714565b945050602085013567ffffffffffffffff8111156108cd57600080fd5b6108d987828801610695565b935050604085013567ffffffffffffffff8111156108f657600080fd5b61090287828801610695565b925050606085013567ffffffffffffffff81111561091f57600080fd5b61092b87828801610771565b91505092959194509250565b60006020828403121561094957600080fd5b600061086f84846107e1565b60006020828403121561096757600080fd5b600061086f84846107ec565b61097c81610be2565b82525050565b61097c81610bed565b61097c81610bf0565b600061099f82610bd5565b6109a98185610bd9565b93506109b9818560208601610c3f565b6109c281610c6f565b9093019392505050565b60006109d782610bd5565b6109e181856100fc565b93506109f1818560208601610c3f565b9290920192915050565b61097c81610c1d565b61097c81610c28565b6000610a1a601483610bd9565b7f5452414e53464552535f5355434345535346554c000000000000000000000000815260200192915050565b60006105f482846109cc565b6020810161055b8284610973565b60408101610a6e8285610973565b6105f46020830184610973565b60608101610a898286610982565b8181036020830152610a9b8185610994565b90508181036040830152610aaf8184610994565b95945050505050565b60408101610a6e828561098b565b60808082528101610ad78187610994565b9050610ae66020830186610973565b610af36040830185610973565b610aaf6060830184610982565b60608101610b0e82866109fb565b610b1b6020830185610982565b8181036040830152610aaf8184610994565b60608101610b3b8286610a04565b610b486020830185610982565b61086f6040830184610982565b6020808252810161055b81610a0d565b60405181810167ffffffffffffffff81118282101715610b8457600080fd5b604052919050565b600067ffffffffffffffff821115610ba357600080fd5b5060209081020190565b600067ffffffffffffffff821115610bc457600080fd5b506020601f91909101601f19160190565b5190565b90815260200190565b600061055b82610c11565b90565b6001600160e01b03191690565b806100fc81610c79565b806100fc81610c83565b6001600160a01b031690565b600061055b82610bfd565b600061055b82610c07565b82818337506000910152565b60005b83811015610c5a578181015183820152602001610c42565b83811115610c69576000848401525b50505050565b601f01601f191690565b6002811061036f57fe5b6008811061036f57fe5b610c9681610be2565b811461036f57600080fd5b610c9681610bf0565b610c9681610bed56fea365627a7a72315820b5a6e2d717296bd96f48aafa32ae71cc0712449cf4dba6b46bcd251a69d1f3176c6578706572696d656e74616cf564736f6c63430005110040",
  "linkReferences": {},
  "deployedLinkReferences": {}
}