{
  "address": "0x9B725217E1B9a55b0829d4bd248882671D409008",
  "abi": [
    {
      "anonymous": false,
      "inputs": [
        {
          "indexed": true,
          "internalType": "address",
          "name": "account",
          "type": "address"
        },
        {
          "indexed": true,
          "internalType": "address",
          "name": "operator",
          "type": "address"
        },
        {
          "indexed": false,
          "internalType": "bool",
          "name": "approved",
          "type": "bool"
        }
      ],
      "name": "ApprovalForAll",
      "type": "event"
    },
    {
      "anonymous": false,
      "inputs": [
        {
          "indexed": true,
          "internalType": "address",
          "name": "operator",
          "type": "address"
        },
        {
          "indexed": true,
          "internalType": "address",
          "name": "from",
          "type": "address"
        },
        {
          "indexed": true,
          "internalType": "address",
          "name": "to",
          "type": "address"
        },
        {
          "indexed": false,
          "internalType": "uint256[]",
          "name": "ids",
          "type": "uint256[]"
        },
        {
          "indexed": false,
          "internalType": "uint256[]",
          "name": "values",
          "type": "uint256[]"
        }
      ],
      "name": "TransferBatch",
      "type": "event"
    },
    {
      "anonymous": false,
      "inputs": [
        {
          "indexed": true,
          "internalType": "address",
          "name": "operator",
          "type": "address"
        },
        {
          "indexed": true,
          "internalType": "address",
          "name": "from",
          "type": "address"
        },
        {
          "indexed": true,
          "internalType": "address",
          "name": "to",
          "type": "address"
        },
        {
          "indexed": false,
          "internalType": "uint256",
          "name": "id",
          "type": "uint256"
        },
        {
          "indexed": false,
          "internalType": "uint256",
          "name": "value",
          "type": "uint256"
        }
      ],
      "name": "TransferSingle",
      "type": "event"
    },
    {
      "anonymous": false,
      "inputs": [
        {
          "indexed": false,
          "internalType": "string",
          "name": "value",
          "type": "string"
        },
        {
          "indexed": true,
          "internalType": "uint256",
          "name": "id",
          "type": "uint256"
        }
      ],
      "name": "URI",
      "type": "event"
    },
    {
      "inputs": [
        {
          "internalType": "address",
          "name": "account",
          "type": "address"
        },
        {
          "internalType": "uint256",
          "name": "id",
          "type": "uint256"
        }
      ],
      "name": "balanceOf",
      "outputs": [
        {
          "internalType": "uint256",
          "name": "",
          "type": "uint256"
        }
      ],
      "stateMutability": "view",
      "type": "function"
    },
    {
      "inputs": [
        {
          "internalType": "address[]",
          "name": "accounts",
          "type": "address[]"
        },
        {
          "internalType": "uint256[]",
          "name": "ids",
          "type": "uint256[]"
        }
      ],
      "name": "balanceOfBatch",
      "outputs": [
        {
          "internalType": "uint256[]",
          "name": "",
          "type": "uint256[]"
        }
      ],
      "stateMutability": "view",
      "type": "function"
    },
    {
      "inputs": [
        {
          "internalType": "address",
          "name": "account",
          "type": "address"
        },
        {
          "internalType": "uint256",
          "name": "id",
          "type": "uint256"
        },
        {
          "internalType": "uint256",
          "name": "amount",
          "type": "uint256"
        }
      ],
      "name": "burn",
      "outputs": [],
      "stateMutability": "nonpayable",
      "type": "function"
    },
    {
      "inputs": [
        {
          "internalType": "address",
          "name": "account",
          "type": "address"
        },
        {
          "internalType": "address",
          "name": "operator",
          "type": "address"
        }
      ],
      "name": "isApprovedForAll",
      "outputs": [
        {
          "internalType": "bool",
          "name": "",
          "type": "bool"
        }
      ],
      "stateMutability": "view",
      "type": "function"
    },
    {
      "inputs": [
        {
          "internalType": "address",
          "name": "account",
          "type": "address"
        },
        {
          "internalType": "uint256",
          "name": "id",
          "type": "uint256"
        },
        {
          "internalType": "uint256",
          "name": "amount",
          "type": "uint256"
        },
        {
          "internalType": "bytes",
          "name": "data",
          "type": "bytes"
        }
      ],
      "name": "mint",
      "outputs": [],
      "stateMutability": "nonpayable",
      "type": "function"
    },
    {
      "inputs": [
        {
          "internalType": "address",
          "name": "from",
          "type": "address"
        },
        {
          "internalType": "address",
          "name": "to",
          "type": "address"
        },
        {
          "internalType": "uint256[]",
          "name": "ids",
          "type": "uint256[]"
        },
        {
          "internalType": "uint256[]",
          "name": "amounts",
          "type": "uint256[]"
        },
        {
          "internalType": "bytes",
          "name": "data",
          "type": "bytes"
        }
      ],
      "name": "safeBatchTransferFrom",
      "outputs": [],
      "stateMutability": "nonpayable",
      "type": "function"
    },
    {
      "inputs": [
        {
          "internalType": "address",
          "name": "from",
          "type": "address"
        },
        {
          "internalType": "address",
          "name": "to",
          "type": "address"
        },
        {
          "internalType": "uint256",
          "name": "id",
          "type": "uint256"
        },
        {
          "internalType": "uint256",
          "name": "amount",
          "type": "uint256"
        },
        {
          "internalType": "bytes",
          "name": "data",
          "type": "bytes"
        }
      ],
      "name": "safeTransferFrom",
      "outputs": [],
      "stateMutability": "nonpayable",
      "type": "function"
    },
    {
      "inputs": [
        {
          "internalType": "address",
          "name": "operator",
          "type": "address"
        },
        {
          "internalType": "bool",
          "name": "approved",
          "type": "bool"
        }
      ],
      "name": "setApprovalForAll",
      "outputs": [],
      "stateMutability": "nonpayable",
      "type": "function"
    },
    {
      "inputs": [
        {
          "internalType": "bytes4",
          "name": "interfaceId",
          "type": "bytes4"
        }
      ],
      "name": "supportsInterface",
      "outputs": [
        {
          "internalType": "bool",
          "name": "",
          "type": "bool"
        }
      ],
      "stateMutability": "view",
      "type": "function"
    },
    {
      "inputs": [
        {
          "internalType": "uint256",
          "name": "",
          "type": "uint256"
        }
      ],
      "name": "uri",
      "outputs": [
        {
          "internalType": "string",
          "name": "",
          "type": "string"
        }
      ],
      "stateMutability": "view",
      "type": "function"
    }
  ],
  "transactionHash": "0xdcad33fbd079bea424fd6808fe392fcb66a191ae380f7ea0bde28291d9bbeaaa",
  "args": [],
  "solcInputHash": "039ac77dbce315e67f7e3506bbbffb5f",
  "bytecode": "0x60806040523480156200001157600080fd5b5060408051808201909152600b81526a212137b7b5aa37b5b2b71960a91b60208201526200003f8162000046565b5062000142565b80516200005b9060029060208401906200005f565b5050565b8280546200006d9062000105565b90600052602060002090601f016020900481019282620000915760008555620000dc565b82601f10620000ac57805160ff1916838001178555620000dc565b82800160010185558215620000dc579182015b82811115620000dc578251825591602001919060010190620000bf565b50620000ea929150620000ee565b5090565b5b80821115620000ea5760008155600101620000ef565b6002810460018216806200011a57607f821691505b602082108114156200013c57634e487b7160e01b600052602260045260246000fd5b50919050565b6118e680620001526000396000f3fe608060405234801561001057600080fd5b506004361061009d5760003560e01c8063731133e911610066578063731133e914610140578063a22cb46514610153578063e985e9c514610166578063f242432a14610179578063f5298aca1461018c5761009d565b8062fdd58e146100a257806301ffc9a7146100cb5780630e89341c146100eb5780632eb2c2d61461010b5780634e1273f414610120575b600080fd5b6100b56100b0366004610fcd565b61019f565b6040516100c291906116d6565b60405180910390f35b6100de6100d9366004611145565b6101f6565b6040516100c29190611305565b6100fe6100f9366004611184565b61023e565b6040516100c29190611310565b61011e610119366004610e8a565b6102d2565b005b61013361012e366004611087565b610330565b6040516100c291906112c4565b61011e61014e366004611028565b610450565b61011e610161366004610f93565b610485565b6100de610174366004610e58565b610553565b61011e610187366004610f30565b610581565b61011e61019a366004610ff6565b6105d8565b60006001600160a01b0383166101d05760405162461bcd60e51b81526004016101c7906113bf565b60405180910390fd5b506000908152602081815260408083206001600160a01b03949094168352929052205490565b60006001600160e01b03198216636cdb3d1360e11b148061022757506001600160e01b031982166303a24d0760e21b145b8061023657506102368261060b565b90505b919050565b60606002805461024d9061176a565b80601f01602080910402602001604051908101604052809291908181526020018280546102799061176a565b80156102c65780601f1061029b576101008083540402835291602001916102c6565b820191906000526020600020905b8154815290600101906020018083116102a957829003601f168201915b50505050509050919050565b6102da610624565b6001600160a01b0316856001600160a01b03161480610300575061030085610174610624565b61031c5760405162461bcd60e51b81526004016101c7906114dc565b6103298585858585610629565b5050505050565b606081518351146103535760405162461bcd60e51b81526004016101c790611604565b6000835167ffffffffffffffff81111561037d57634e487b7160e01b600052604160045260246000fd5b6040519080825280602002602001820160405280156103a6578160200160208202803683370190505b50905060005b84518110156104485761040d8582815181106103d857634e487b7160e01b600052603260045260246000fd5b602002602001015185838151811061040057634e487b7160e01b600052603260045260246000fd5b602002602001015161019f565b82828151811061042d57634e487b7160e01b600052603260045260246000fd5b6020908102919091010152610441816117a5565b90506103ac565b509392505050565b61045c848484846107fa565b6000838152600360205260408120805484929061047a90849061173b565b909155505050505050565b816001600160a01b0316610497610624565b6001600160a01b031614156104be5760405162461bcd60e51b81526004016101c7906115bb565b80600160006104cb610624565b6001600160a01b03908116825260208083019390935260409182016000908120918716808252919093529120805460ff19169215159290921790915561050f610624565b6001600160a01b03167f17307eab39ab6107e8899845ad3d59bd9653f200f220920489ca2b5937696c31836040516105479190611305565b60405180910390a35050565b6001600160a01b03918216600090815260016020908152604080832093909416825291909152205460ff1690565b610589610624565b6001600160a01b0316856001600160a01b031614806105af57506105af85610174610624565b6105cb5760405162461bcd60e51b81526004016101c79061144e565b61032985858585856108e9565b6105e3838383610a1d565b60008281526003602052604081208054839290610601908490611753565b9091555050505050565b6001600160e01b031981166301ffc9a760e01b14919050565b335b90565b815183511461064a5760405162461bcd60e51b81526004016101c79061164d565b6001600160a01b0384166106705760405162461bcd60e51b81526004016101c790611497565b600061067a610624565b905061068a8187878787876107f2565b60005b845181101561078c5760008582815181106106b857634e487b7160e01b600052603260045260246000fd5b6020026020010151905060008583815181106106e457634e487b7160e01b600052603260045260246000fd5b602090810291909101810151600084815280835260408082206001600160a01b038e1683529093529190912054909150818110156107345760405162461bcd60e51b81526004016101c790611571565b6000838152602081815260408083206001600160a01b038e8116855292528083208585039055908b1682528120805484929061077190849061173b565b9250508190555050505080610785906117a5565b905061068d565b50846001600160a01b0316866001600160a01b0316826001600160a01b03167f4a39dc06d4c0dbc64b70af90fd698a233a518aa5d07e595d983b8c0526c8f7fb87876040516107dc9291906112d7565b60405180910390a46107f2818787878787610b2c565b505050505050565b6001600160a01b0384166108205760405162461bcd60e51b81526004016101c790611695565b600061082a610624565b905061084b8160008761083c88610c3a565b61084588610c3a565b876107f2565b6000848152602081815260408083206001600160a01b03891684529091528120805485929061087b90849061173b565b92505081905550846001600160a01b031660006001600160a01b0316826001600160a01b03167fc3d58168c5ae7397731d063d5bbf3d657854427343f4c083240f7aacaa2d0f6287876040516108d29291906116df565b60405180910390a461032981600087878787610c93565b6001600160a01b03841661090f5760405162461bcd60e51b81526004016101c790611497565b6000610919610624565b905061092a81878761083c88610c3a565b6000848152602081815260408083206001600160a01b038a1684529091529020548381101561096b5760405162461bcd60e51b81526004016101c790611571565b6000858152602081815260408083206001600160a01b038b81168552925280832087850390559088168252812080548692906109a890849061173b565b92505081905550856001600160a01b0316876001600160a01b0316836001600160a01b03167fc3d58168c5ae7397731d063d5bbf3d657854427343f4c083240f7aacaa2d0f6288886040516109fe9291906116df565b60405180910390a4610a14828888888888610c93565b50505050505050565b6001600160a01b038316610a435760405162461bcd60e51b81526004016101c79061152e565b6000610a4d610624565b9050610a7d81856000610a5f87610c3a565b610a6887610c3a565b604051806020016040528060008152506107f2565b6000838152602081815260408083206001600160a01b038816845290915290205482811015610abe5760405162461bcd60e51b81526004016101c79061140a565b6000848152602081815260408083206001600160a01b03808a16808652919093528184208786039055905190918516907fc3d58168c5ae7397731d063d5bbf3d657854427343f4c083240f7aacaa2d0f6290610b1d90899089906116df565b60405180910390a45050505050565b610b3e846001600160a01b0316610d64565b156107f25760405163bc197c8160e01b81526001600160a01b0385169063bc197c8190610b779089908990889088908890600401611221565b602060405180830381600087803b158015610b9157600080fd5b505af1925050508015610bc1575060408051601f3d908101601f19168201909252610bbe91810190611168565b60015b610c0a57610bcd6117f2565b80610bd85750610bf2565b8060405162461bcd60e51b81526004016101c79190611310565b60405162461bcd60e51b81526004016101c790611323565b6001600160e01b0319811663bc197c8160e01b14610a145760405162461bcd60e51b81526004016101c790611377565b60408051600180825281830190925260609160009190602080830190803683370190505090508281600081518110610c8257634e487b7160e01b600052603260045260246000fd5b602090810291909101015292915050565b610ca5846001600160a01b0316610d64565b156107f25760405163f23a6e6160e01b81526001600160a01b0385169063f23a6e6190610cde908990899088908890889060040161127f565b602060405180830381600087803b158015610cf857600080fd5b505af1925050508015610d28575060408051601f3d908101601f19168201909252610d2591810190611168565b60015b610d3457610bcd6117f2565b6001600160e01b0319811663f23a6e6160e01b14610a145760405162461bcd60e51b81526004016101c790611377565b3b151590565b80356001600160a01b038116811461023957600080fd5b600082601f830112610d91578081fd5b81356020610da6610da183611717565b6116ed565b8281528181019085830183850287018401881015610dc2578586fd5b855b85811015610de057813584529284019290840190600101610dc4565b5090979650505050505050565b600082601f830112610dfd578081fd5b813567ffffffffffffffff811115610e1757610e176117d6565b610e2a601f8201601f19166020016116ed565b818152846020838601011115610e3e578283fd5b816020850160208301379081016020019190915292915050565b60008060408385031215610e6a578182fd5b610e7383610d6a565b9150610e8160208401610d6a565b90509250929050565b600080600080600060a08688031215610ea1578081fd5b610eaa86610d6a565b9450610eb860208701610d6a565b9350604086013567ffffffffffffffff80821115610ed4578283fd5b610ee089838a01610d81565b94506060880135915080821115610ef5578283fd5b610f0189838a01610d81565b93506080880135915080821115610f16578283fd5b50610f2388828901610ded565b9150509295509295909350565b600080600080600060a08688031215610f47578081fd5b610f5086610d6a565b9450610f5e60208701610d6a565b93506040860135925060608601359150608086013567ffffffffffffffff811115610f87578182fd5b610f2388828901610ded565b60008060408385031215610fa5578182fd5b610fae83610d6a565b915060208301358015158114610fc2578182fd5b809150509250929050565b60008060408385031215610fdf578182fd5b610fe883610d6a565b946020939093013593505050565b60008060006060848603121561100a578283fd5b61101384610d6a565b95602085013595506040909401359392505050565b6000806000806080858703121561103d578384fd5b61104685610d6a565b93506020850135925060408501359150606085013567ffffffffffffffff81111561106f578182fd5b61107b87828801610ded565b91505092959194509250565b60008060408385031215611099578182fd5b823567ffffffffffffffff808211156110b0578384fd5b818501915085601f8301126110c3578384fd5b813560206110d3610da183611717565b82815281810190858301838502870184018b10156110ef578889fd5b8896505b848710156111185761110481610d6a565b8352600196909601959183019183016110f3565b509650508601359250508082111561112e578283fd5b5061113b85828601610d81565b9150509250929050565b600060208284031215611156578081fd5b813561116181611897565b9392505050565b600060208284031215611179578081fd5b815161116181611897565b600060208284031215611195578081fd5b5035919050565b6000815180845260208085019450808401835b838110156111cb578151875295820195908201906001016111af565b509495945050505050565b60008151808452815b818110156111fb576020818501810151868301820152016111df565b8181111561120c5782602083870101525b50601f01601f19169290920160200192915050565b6001600160a01b0386811682528516602082015260a06040820181905260009061124d9083018661119c565b828103606084015261125f818661119c565b9050828103608084015261127381856111d6565b98975050505050505050565b6001600160a01b03868116825285166020820152604081018490526060810183905260a0608082018190526000906112b9908301846111d6565b979650505050505050565b600060208252611161602083018461119c565b6000604082526112ea604083018561119c565b82810360208401526112fc818561119c565b95945050505050565b901515815260200190565b60006020825261116160208301846111d6565b60208082526034908201527f455243313135353a207472616e7366657220746f206e6f6e20455243313135356040820152732932b1b2b4bb32b91034b6b83632b6b2b73a32b960611b606082015260800190565b60208082526028908201527f455243313135353a204552433131353552656365697665722072656a656374656040820152676420746f6b656e7360c01b606082015260800190565b6020808252602b908201527f455243313135353a2062616c616e636520717565727920666f7220746865207a60408201526a65726f206164647265737360a81b606082015260800190565b60208082526024908201527f455243313135353a206275726e20616d6f756e7420657863656564732062616c604082015263616e636560e01b606082015260800190565b60208082526029908201527f455243313135353a2063616c6c6572206973206e6f74206f776e6572206e6f7260408201526808185c1c1c9bdd995960ba1b606082015260800190565b60208082526025908201527f455243313135353a207472616e7366657220746f20746865207a65726f206164604082015264647265737360d81b606082015260800190565b60208082526032908201527f455243313135353a207472616e736665722063616c6c6572206973206e6f74206040820152711bdddb995c881b9bdc88185c1c1c9bdd995960721b606082015260800190565b60208082526023908201527f455243313135353a206275726e2066726f6d20746865207a65726f206164647260408201526265737360e81b606082015260800190565b6020808252602a908201527f455243313135353a20696e73756666696369656e742062616c616e636520666f60408201526939103a3930b739b332b960b11b606082015260800190565b60208082526029908201527f455243313135353a2073657474696e6720617070726f76616c20737461747573604082015268103337b91039b2b63360b91b606082015260800190565b60208082526029908201527f455243313135353a206163636f756e747320616e6420696473206c656e677468604082015268040dad2e6dac2e8c6d60bb1b606082015260800190565b60208082526028908201527f455243313135353a2069647320616e6420616d6f756e7473206c656e677468206040820152670dad2e6dac2e8c6d60c31b606082015260800190565b60208082526021908201527f455243313135353a206d696e7420746f20746865207a65726f206164647265736040820152607360f81b606082015260800190565b90815260200190565b918252602082015260400190565b60405181810167ffffffffffffffff8111828210171561170f5761170f6117d6565b604052919050565b600067ffffffffffffffff821115611731576117316117d6565b5060209081020190565b6000821982111561174e5761174e6117c0565b500190565b600082821015611765576117656117c0565b500390565b60028104600182168061177e57607f821691505b6020821081141561179f57634e487b7160e01b600052602260045260246000fd5b50919050565b60006000198214156117b9576117b96117c0565b5060010190565b634e487b7160e01b600052601160045260246000fd5b634e487b7160e01b600052604160045260246000fd5b60e01c90565b600060443d101561180257610626565b600481823e6308c379a061181682516117ec565b1461182057610626565b6040513d600319016004823e80513d67ffffffffffffffff81602484011181841117156118505750505050610626565b8284019250825191508082111561186a5750505050610626565b503d8301602082840101111561188257505050610626565b601f01601f1916810160200160405291505090565b6001600160e01b0319811681146118ad57600080fd5b5056fea2646970667358221220823a821996836dc0ae6c7bcc87232e58e3468cabdf7b7eeb6dab78e7b24f322364736f6c63430008000033",
  "devdoc": {
    "kind": "dev",
    "methods": {
      "balanceOf(address,uint256)": {
        "details": "See {IERC1155-balanceOf}. Requirements: - `account` cannot be the zero address."
      },
      "balanceOfBatch(address[],uint256[])": {
        "details": "See {IERC1155-balanceOfBatch}. Requirements: - `accounts` and `ids` must have the same length."
      },
      "isApprovedForAll(address,address)": {
        "details": "See {IERC1155-isApprovedForAll}."
      },
      "safeBatchTransferFrom(address,address,uint256[],uint256[],bytes)": {
        "details": "See {IERC1155-safeBatchTransferFrom}."
      },
      "safeTransferFrom(address,address,uint256,uint256,bytes)": {
        "details": "See {IERC1155-safeTransferFrom}."
      },
      "setApprovalForAll(address,bool)": {
        "details": "See {IERC1155-setApprovalForAll}."
      },
      "supportsInterface(bytes4)": {
        "details": "See {IERC165-supportsInterface}."
      },
      "uri(uint256)": {
        "details": "See {IERC1155MetadataURI-uri}. This implementation returns the same URI for *all* token types. It relies on the token type ID substitution mechanism https://eips.ethereum.org/EIPS/eip-1155#metadata[defined in the EIP]. Clients calling this function must replace the `\\{id\\}` substring with the actual token type ID."
      }
    },
    "version": 1
  },
  "userdoc": {
    "kind": "user",
    "methods": {},
    "version": 1
  },
  "storageLayout": {
    "storage": [
      {
        "astId": 25,
        "contract": "contracts/BBookToken2.sol:BBookToken2",
        "label": "_balances",
        "offset": 0,
        "slot": "0",
        "type": "t_mapping(t_uint256,t_mapping(t_address,t_uint256))"
      },
      {
        "astId": 31,
        "contract": "contracts/BBookToken2.sol:BBookToken2",
        "label": "_operatorApprovals",
        "offset": 0,
        "slot": "1",
        "type": "t_mapping(t_address,t_mapping(t_address,t_bool))"
      },
      {
        "astId": 33,
        "contract": "contracts/BBookToken2.sol:BBookToken2",
        "label": "_uri",
        "offset": 0,
        "slot": "2",
        "type": "t_string_storage"
      },
      {
        "astId": 1687,
        "contract": "contracts/BBookToken2.sol:BBookToken2",
        "label": "_totalSupply",
        "offset": 0,
        "slot": "3",
        "type": "t_mapping(t_uint256,t_uint256)"
      }
    ],
    "types": {
      "t_address": {
        "encoding": "inplace",
        "label": "address",
        "numberOfBytes": "20"
      },
      "t_bool": {
        "encoding": "inplace",
        "label": "bool",
        "numberOfBytes": "1"
      },
      "t_mapping(t_address,t_bool)": {
        "encoding": "mapping",
        "key": "t_address",
        "label": "mapping(address => bool)",
        "numberOfBytes": "32",
        "value": "t_bool"
      },
      "t_mapping(t_address,t_mapping(t_address,t_bool))": {
        "encoding": "mapping",
        "key": "t_address",
        "label": "mapping(address => mapping(address => bool))",
        "numberOfBytes": "32",
        "value": "t_mapping(t_address,t_bool)"
      },
      "t_mapping(t_address,t_uint256)": {
        "encoding": "mapping",
        "key": "t_address",
        "label": "mapping(address => uint256)",
        "numberOfBytes": "32",
        "value": "t_uint256"
      },
      "t_mapping(t_uint256,t_mapping(t_address,t_uint256))": {
        "encoding": "mapping",
        "key": "t_uint256",
        "label": "mapping(uint256 => mapping(address => uint256))",
        "numberOfBytes": "32",
        "value": "t_mapping(t_address,t_uint256)"
      },
      "t_mapping(t_uint256,t_uint256)": {
        "encoding": "mapping",
        "key": "t_uint256",
        "label": "mapping(uint256 => uint256)",
        "numberOfBytes": "32",
        "value": "t_uint256"
      },
      "t_string_storage": {
        "encoding": "bytes",
        "label": "string",
        "numberOfBytes": "32"
      },
      "t_uint256": {
        "encoding": "inplace",
        "label": "uint256",
        "numberOfBytes": "32"
      }
    }
  }
}