{
  "address": "0x2f2c80fACC4621430456105aAf58908B5eABd456",
  "abi": [
    {
      "inputs": [],
      "stateMutability": "nonpayable",
      "type": "constructor"
    },
    {
      "inputs": [
        {
          "internalType": "string",
          "name": "signerKey",
          "type": "string"
        }
      ],
      "name": "setSignerKey",
      "outputs": [],
      "stateMutability": "nonpayable",
      "type": "function"
    },
    {
      "inputs": [
        {
          "internalType": "address",
          "name": "",
          "type": "address"
        }
      ],
      "name": "signerKeys",
      "outputs": [
        {
          "internalType": "string",
          "name": "",
          "type": "string"
        }
      ],
      "stateMutability": "view",
      "type": "function"
    }
  ],
  "transactionHash": "0xd477b8681ae2be2e45c0fff35054e8b79efc1a393f49893707cb1e5a51f60935",
  "args": [],
  "solcInputHash": "0a941e75b3d6c208b4d57a36f63b56bd",
  "bytecode": "0x608060405234801561001057600080fd5b5061032a806100206000396000f3fe608060405234801561001057600080fd5b50600436106100365760003560e01c8063a5140ccb1461003b578063b1af1a1014610064575b600080fd5b61004e6100493660046101cb565b610079565b60405161005b9190610266565b60405180910390f35b6100776100723660046101f9565b610113565b005b60006020819052908152604090208054610092906102b9565b80601f01602080910402602001604051908101604052809291908181526020018280546100be906102b9565b801561010b5780601f106100e05761010080835404028352916020019161010b565b820191906000526020600020905b8154815290600101906020018083116100ee57829003601f168201915b505050505081565b33600090815260208190526040902061012d908383610132565b505050565b82805461013e906102b9565b90600052602060002090601f01602090048101928261016057600085556101a6565b82601f106101795782800160ff198235161785556101a6565b828001600101855582156101a6579182015b828111156101a657823582559160200191906001019061018b565b506101b29291506101b6565b5090565b5b808211156101b257600081556001016101b7565b6000602082840312156101dc578081fd5b81356001600160a01b03811681146101f2578182fd5b9392505050565b6000806020838503121561020b578081fd5b823567ffffffffffffffff80821115610222578283fd5b818501915085601f830112610235578283fd5b813581811115610243578384fd5b866020828501011115610254578384fd5b60209290920196919550909350505050565b6000602080835283518082850152825b8181101561029257858101830151858201604001528201610276565b818111156102a35783604083870101525b50601f01601f1916929092016040019392505050565b6002810460018216806102cd57607f821691505b602082108114156102ee57634e487b7160e01b600052602260045260246000fd5b5091905056fea2646970667358221220f7f7a78a7de0d6db39f89dbe4213a5b0ccb743b5feac35c3313bf0b27dc63cb864736f6c63430008000033",
  "devdoc": {
    "kind": "dev",
    "methods": {},
    "version": 1
  },
  "userdoc": {
    "kind": "user",
    "methods": {},
    "version": 1
  },
  "storageLayout": {
    "storage": [
      {
        "astId": 5,
        "contract": "contracts/Encrypt.sol:Encrypt",
        "label": "signerKeys",
        "offset": 0,
        "slot": "0",
        "type": "t_mapping(t_address,t_string_storage)"
      }
    ],
    "types": {
      "t_address": {
        "encoding": "inplace",
        "label": "address",
        "numberOfBytes": "20"
      },
      "t_mapping(t_address,t_string_storage)": {
        "encoding": "mapping",
        "key": "t_address",
        "label": "mapping(address => string)",
        "numberOfBytes": "32",
        "value": "t_string_storage"
      },
      "t_string_storage": {
        "encoding": "bytes",
        "label": "string",
        "numberOfBytes": "32"
      }
    }
  }
}