{
  "address": "0x27398618B407e609A7366f236c9535d54B4D5E20",
  "abi": [
    {
      "inputs": [],
      "stateMutability": "nonpayable",
      "type": "constructor"
    },
    {
      "anonymous": false,
      "inputs": [
        {
          "indexed": true,
          "internalType": "address",
          "name": "",
          "type": "address"
        },
        {
          "indexed": true,
          "internalType": "address",
          "name": "",
          "type": "address"
        },
        {
          "indexed": false,
          "internalType": "uint256",
          "name": "",
          "type": "uint256"
        },
        {
          "indexed": false,
          "internalType": "uint256",
          "name": "",
          "type": "uint256"
        }
      ],
      "name": "TokensExchangedAt",
      "type": "event"
    },
    {
      "inputs": [
        {
          "internalType": "address",
          "name": "tokenOneAddress",
          "type": "address"
        },
        {
          "internalType": "address",
          "name": "tokenTwoAddress",
          "type": "address"
        },
        {
          "internalType": "address",
          "name": "tokenOneOwner",
          "type": "address"
        },
        {
          "internalType": "address",
          "name": "tokenTwoOwner",
          "type": "address"
        },
        {
          "internalType": "uint256",
          "name": "tokenOneId",
          "type": "uint256"
        },
        {
          "internalType": "uint256",
          "name": "tokenTwoId",
          "type": "uint256"
        },
        {
          "internalType": "uint256",
          "name": "tokenOneAmount",
          "type": "uint256"
        },
        {
          "internalType": "uint256",
          "name": "tokenTwoAmount",
          "type": "uint256"
        },
        {
          "internalType": "bytes",
          "name": "data",
          "type": "bytes"
        }
      ],
      "name": "executeOrder",
      "outputs": [],
      "stateMutability": "nonpayable",
      "type": "function"
    },
    {
      "inputs": [
        {
          "internalType": "address",
          "name": "addr",
          "type": "address"
        }
      ],
      "name": "getPass",
      "outputs": [
        {
          "internalType": "string",
          "name": "",
          "type": "string"
        }
      ],
      "stateMutability": "view",
      "type": "function"
    },
    {
      "inputs": [
        {
          "internalType": "string",
          "name": "authorizationKey",
          "type": "string"
        }
      ],
      "name": "setPass",
      "outputs": [
        {
          "internalType": "bool",
          "name": "",
          "type": "bool"
        }
      ],
      "stateMutability": "nonpayable",
      "type": "function"
    }
  ],
  "transactionHash": "0x0939f95416fb5ab20695f18896105a05fcc90c82ce74a96731820ef23de32cda",
  "args": [],
  "solcInputHash": "bb429b2969cd719dffde04cea65d2544",
  "bytecode": "0x608060405234801561001057600080fd5b50604080518082018252600b81526a42726f77736572426f6f6b60a81b6020918201528151808301835260018152603160f81b908201529051610539916100c1917f8b73c3c69bb8fe3d512ecc4cf759cc79239f7b179b0ffacaa9a75d522b39400f917fe1087249b96a4db6e26768fcd2ff115b7c565029b03764f9b576a6ddb546c8ca917fc89efdaa54c0f20c7adf612882df0950f5a951637e0307cdcb4c672f298b8bc69186913091016100e2565b60408051601f1981840301815291905280516020909101206000555061010e565b9485526020850193909352604084019190915260608301526001600160a01b0316608082015260a00190565b6106398061011d6000396000f3fe608060405234801561001057600080fd5b50600436106100415760003560e01c806344e9fd4b14610046578063dc3eb47e1461006f578063e3cd7c0314610084575b600080fd5b61005961005436600461044c565b6100a4565b6040516100669190610546565b60405180910390f35b61008261007d366004610374565b6100ce565b005b610097610092366004610353565b6101f7565b6040516100669190610551565b336000908152600160209081526040822083516100c3928501906102a3565b50600190505b919050565b604051637921219560e11b81526001600160a01b038b169063f242432a90610104908b908b908b908a90899089906004016104ed565b600060405180830381600087803b15801561011e57600080fd5b505af1158015610132573d6000803e3d6000fd5b5050604051637921219560e11b81526001600160a01b038c16925063f242432a915061016c908a908c908a908990899089906004016104ed565b600060405180830381600087803b15801561018657600080fd5b505af115801561019a573d6000803e3d6000fd5b50505050886001600160a01b03168a6001600160a01b03167f2de04c1cab2f0d31ca65b7f984748626e85676cbc738af619d6b297408696eca86866040516101e39291906105a4565b60405180910390a350505050505050505050565b6001600160a01b038116600090815260016020526040902080546060919061021e906105b2565b80601f016020809104026020016040519081016040528092919081815260200182805461024a906105b2565b80156102975780601f1061026c57610100808354040283529160200191610297565b820191906000526020600020905b81548152906001019060200180831161027a57829003601f168201915b50505050509050919050565b8280546102af906105b2565b90600052602060002090601f0160209004810192826102d15760008555610317565b82601f106102ea57805160ff1916838001178555610317565b82800160010185558215610317579182015b828111156103175782518255916020019190600101906102fc565b50610323929150610327565b5090565b5b808211156103235760008155600101610328565b80356001600160a01b03811681146100c957600080fd5b600060208284031215610364578081fd5b61036d8261033c565b9392505050565b6000806000806000806000806000806101208b8d031215610393578586fd5b61039c8b61033c565b99506103aa60208c0161033c565b98506103b860408c0161033c565b97506103c660608c0161033c565b965060808b0135955060a08b0135945060c08b0135935060e08b013592506101008b013567ffffffffffffffff808211156103ff578384fd5b818d0191508d601f830112610412578384fd5b813581811115610420578485fd5b8e6020828501011115610431578485fd5b6020830194508093505050509295989b9194979a5092959850565b6000602080838503121561045e578182fd5b823567ffffffffffffffff80821115610475578384fd5b818501915085601f830112610488578384fd5b81358181111561049a5761049a6105ed565b604051601f8201601f19168101850183811182821017156104bd576104bd6105ed565b60405281815283820185018810156104d3578586fd5b818585018683013790810190930193909352509392505050565b6001600160a01b03878116825286166020820152604081018590526060810184905260a06080820181905281018290526000828460c084013781830160c090810191909152601f909201601f1916010195945050505050565b901515815260200190565b6000602080835283518082850152825b8181101561057d57858101830151858201604001528201610561565b8181111561058e5783604083870101525b50601f01601f1916929092016040019392505050565b918252602082015260400190565b6002810460018216806105c657607f821691505b602082108114156105e757634e487b7160e01b600052602260045260246000fd5b50919050565b634e487b7160e01b600052604160045260246000fdfea26469706673582212205c0e3b563cb6fb0f75eac7afb98a9feb471d8b1030289a8521df7f92b5030dad64736f6c63430008000033",
  "devdoc": {
    "kind": "dev",
    "methods": {},
    "version": 1
  },
  "userdoc": {
    "kind": "user",
    "methods": {},
    "version": 1
  },
  "storageLayout": {
    "storage": [
      {
        "astId": 2650,
        "contract": "contracts/Exchange.sol:Exchange",
        "label": "DOMAIN_SEPARATOR",
        "offset": 0,
        "slot": "0",
        "type": "t_bytes32"
      },
      {
        "astId": 2654,
        "contract": "contracts/Exchange.sol:Exchange",
        "label": "password",
        "offset": 0,
        "slot": "1",
        "type": "t_mapping(t_address,t_string_storage)"
      }
    ],
    "types": {
      "t_address": {
        "encoding": "inplace",
        "label": "address",
        "numberOfBytes": "20"
      },
      "t_bytes32": {
        "encoding": "inplace",
        "label": "bytes32",
        "numberOfBytes": "32"
      },
      "t_mapping(t_address,t_string_storage)": {
        "encoding": "mapping",
        "key": "t_address",
        "label": "mapping(address => string)",
        "numberOfBytes": "32",
        "value": "t_string_storage"
      },
      "t_string_storage": {
        "encoding": "bytes",
        "label": "string",
        "numberOfBytes": "32"
      }
    }
  }
}