{
  "_format": "hh-sol-artifact-1",
  "contractName": "LibDydxBalance",
  "sourceName": "contracts/0x/dev-utils/LibDydxBalance.sol",
  "abi": [
    {
      "constant": true,
      "inputs": [
        {
          "internalType": "address",
          "name": "makerAddress",
          "type": "address"
        },
        {
          "internalType": "address",
          "name": "bridgeAddress",
          "type": "address"
        },
        {
          "internalType": "address",
          "name": "dydx",
          "type": "address"
        }
      ],
      "name": "getDydxMakerAllowance",
      "outputs": [
        {
          "internalType": "uint256",
          "name": "allowance",
          "type": "uint256"
        }
      ],
      "payable": false,
      "stateMutability": "view",
      "type": "function"
    },
    {
      "constant": true,
      "inputs": [
        {
          "components": [
            {
              "internalType": "address",
              "name": "makerAddress",
              "type": "address"
            },
            {
              "internalType": "address",
              "name": "takerAddress",
              "type": "address"
            },
            {
              "internalType": "address",
              "name": "feeRecipientAddress",
              "type": "address"
            },
            {
              "internalType": "address",
              "name": "senderAddress",
              "type": "address"
            },
            {
              "internalType": "uint256",
              "name": "makerAssetAmount",
              "type": "uint256"
            },
            {
              "internalType": "uint256",
              "name": "takerAssetAmount",
              "type": "uint256"
            },
            {
              "internalType": "uint256",
              "name": "makerFee",
              "type": "uint256"
            },
            {
              "internalType": "uint256",
              "name": "takerFee",
              "type": "uint256"
            },
            {
              "internalType": "uint256",
              "name": "expirationTimeSeconds",
              "type": "uint256"
            },
            {
              "internalType": "uint256",
              "name": "salt",
              "type": "uint256"
            },
            {
              "internalType": "bytes",
              "name": "makerAssetData",
              "type": "bytes"
            },
            {
              "internalType": "bytes",
              "name": "takerAssetData",
              "type": "bytes"
            },
            {
              "internalType": "bytes",
              "name": "makerFeeAssetData",
              "type": "bytes"
            },
            {
              "internalType": "bytes",
              "name": "takerFeeAssetData",
              "type": "bytes"
            }
          ],
          "internalType": "struct LibOrder.Order",
          "name": "order",
          "type": "tuple"
        },
        {
          "internalType": "address",
          "name": "dydx",
          "type": "address"
        }
      ],
      "name": "getDydxMakerBalance",
      "outputs": [
        {
          "internalType": "uint256",
          "name": "balance",
          "type": "uint256"
        }
      ],
      "payable": false,
      "stateMutability": "view",
      "type": "function"
    }
  ],
  "bytecode": "0x612233610026600b82828239805160001a60731461001957fe5b30600052607381538281f3fe73000000000000000000000000000000000000000030146080604052600436106100405760003560e01c80630e70a03314610045578063d12a79601461006e575b600080fd5b610058610053366004611bba565b610081565b604051610065919061207a565b60405180910390f35b61005861007c366004611d2b565b610134565b6040517f3a031bf00000000000000000000000000000000000000000000000000000000081526000906001600160a01b03831690633a031bf0906100cb9087908790600401611fb2565b60206040518083038186803b1580156100e357600080fd5b505afa1580156100f7573d6000803e3d6000fd5b505050506040513d601f19601f8201168201806040525061011b9190810190611c07565b61012657600061012a565b6000195b90505b9392505050565b600061013e61157a565b61014884846101a6565b9050610153816103db565b6101615760009150506101a0565b6101696105de565b610172826105ea565b12156101825760009150506101a0565b61019c61018e8261061c565b61019783610797565b6109b0565b9150505b92915050565b6101ae61157a565b6101408301516040517f750bdb3000000000000000000000000000000000000000000000000000000000815260609173__$47982cde888c0746e89627bc11b9f7281b$__9163750bdb309161020591600401611fcd565b60006040518083038186803b15801561021d57600080fd5b505af4158015610231573d6000803e3d6000fd5b505050506040513d6000823e601f3d908101601f191682016040526102599190810190611c5f565b6001600160a01b0391821660208701529181166060860152858116855286511660408501526101608601515190925060241415905061038f576101608401517ff47261b000000000000000000000000000000000000000000000000000000000906102cb90600063ffffffff6109c616565b6001600160e01b031916141561038f576101608401516040517f8f4ce47900000000000000000000000000000000000000000000000000000000815273__$47982cde888c0746e89627bc11b9f7281b$__91638f4ce479916103309190600401611fcd565b604080518083038186803b15801561034757600080fd5b505af415801561035b573d6000803e3d6000fd5b505050506040513d601f19601f8201168201806040525061037f9190810190611c25565b6001600160a01b03166080840152505b6103a18460a0015185608001516109ff565b60a08301526103ae6115ec565b818060200190516103c29190810190611cd8565b805160c08501526020015160e084015250909392505050565b60008160e0015151600014156103f3575060006105d9565b60005b8260e00151518110156104b95761040b611606565b8360e00151828151811061041b57fe5b602002602001015190506000600181111561043257fe5b8151600181111561043f57fe5b1461044a57506104b9565b604081015160005b8381101561049257818660e00151828151811061046b57fe5b602002602001015160400151141561048a5760009450505050506105d9565b600101610452565b508460c00151518260200151106104af57600093505050506105d9565b50506001016103f6565b8260e001515181600101146104d25760009150506105d9565b6104da611606565b8360e0015182815181106104ea57fe5b6020026020010151905060018081111561050057fe5b8151600181111561050d57fe5b1461051d576000925050506105d9565b83606001516001600160a01b031684600001516001600160a01b031663062bd3e983604001516040518263ffffffff1660e01b815260040161055f919061207a565b60206040518083038186803b15801561057757600080fd5b505afa15801561058b573d6000803e3d6000fd5b505050506040513d601f19601f820116820180604052506105af9190810190611b9c565b6001600160a01b0316146105c8576000925050506105d9565b8360c0015151816020015110925050505b919050565b670de0b6b3a764000090565b60006105f4611606565b60e08301518051600019810190811061060957fe5b6020026020010151905061012d81610a66565b60001960005b8260e001515181101561079157610637611606565b8360e00151828151811061064757fe5b602002602001015190506000600181111561065e57fe5b8151600181111561066b57fe5b146106765750610789565b600061068182610a66565b9050600085600001516001600160a01b031663062bd3e984604001516040518263ffffffff1660e01b81526004016106b9919061207a565b60206040518083038186803b1580156106d157600080fd5b505afa1580156106e5573d6000803e3d6000fd5b505050506040513d601f19601f820116820180604052506107099190810190611b9c565b60808701519091506001600160a01b03161580159061073d575085608001516001600160a01b0316816001600160a01b0316145b1561075357610750828760a00151610a93565b91505b60008213156107855760006107718288604001518960000151610aa2565b9050610781866101978386610abc565b9550505b5050505b600101610622565b50919050565b60e08101515160001990600111156107ab57fe5b6107b3611606565b60e0830151805160001981019081106107c857fe5b602002602001015190506001808111156107de57fe5b815160018111156107eb57fe5b146107f257fe5b60006108106108048560000151610ade565b655af3107a4000610b72565b905060005b8460c00151518110156109a857600080610846878860c00151858151811061083957fe5b6020026020010151610b7e565b915091508060001415801561086357508361086183836109ff565b125b15610876576000955050505050506105d9565b846020015183146108885750506109a0565b6000805b60018960e00151510381101561090a576108a4611606565b8960e0015182815181106108b457fe5b60200260200101519050600060018111156108cb57fe5b815160018111156108d857fe5b146108df57fe5b8581602001511415610901576108fe836108f98c84610c66565b610b72565b92505b5060010161088c565b5060006109178988610c66565b9050856109248383610f21565b1261093257505050506109a0565b8161093d8783610f38565b141561094c57505050506109a0565b600061097c6109648661095f8a88610f55565b610f84565b6109776109718a86610f38565b86610a93565b610f21565b9050610998896101978c6060015161099385610fb3565b610fca565b985050505050505b600101610815565b505050919050565b60008183106109bf578161012d565b5090919050565b600081600401835110156109ec576109ec6109e76003855185600401611016565b611070565b5001602001516001600160e01b03191690565b600080831215610a2a5760405162461bcd60e51b8152600401610a219061202c565b60405180910390fd5b6000821215610a4b5760405162461bcd60e51b8152600401610a219061202c565b61012d610a6084670de0b6b3a7640000611078565b836110d2565b60008160800151600014610a8b57610a86826060015183608001516109ff565b6101a0565b6101a06105de565b600061012d838360000361114f565b600061012a610ab28585856111ab565b61019786866112a0565b600080831215610a4b5760405162461bcd60e51b8152600401610a219061202c565b6000610ae8611636565b826001600160a01b031663697947956040518163ffffffff1660e01b815260040160806040518083038186803b158015610b2157600080fd5b505afa158015610b35573d6000803e3d6000fd5b505050506040513d601f19601f82011682018060405250610b599190810190611d72565b905061012d610b666105de565b8251516108f990611392565b600061012d838361114f565b600080610b89611675565b610b91611675565b85600001516001600160a01b031663f9416052604051806040016040528089604001516001600160a01b03168152602001888152506040518263ffffffff1660e01b8152600401610be2919061206c565b604080518083038186803b158015610bf957600080fd5b505afa158015610c0d573d6000803e3d6000fd5b505050506040513d601f19601f82011682018060405250610c319190810190611d90565b81519193509150670de0b6b3a76400009004670de0b6b3a7640000826000015181610c5857fe5b049350935050509250929050565b60008083600001516001600160a01b031663062bd3e984604001516040518263ffffffff1660e01b8152600401610c9d919061207a565b60206040518083038186803b158015610cb557600080fd5b505afa158015610cc9573d6000803e3d6000fd5b505050506040513d601f19601f82011682018060405250610ced9190810190611b9c565b90506000610cfe85606001516113b8565b60ff1690506000610d0e836113b8565b60ff169050818111610d3d57610d38818303600a0a610d2c87610a66565b9063ffffffff61147c16565b610d5b565b610d5b828203600a0a610d4f87610a66565b9063ffffffff6114ad16565b9350600086600001516001600160a01b0316638928378e87604001516040518263ffffffff1660e01b8152600401610d93919061207a565b60206040518083038186803b158015610dab57600080fd5b505afa158015610dbf573d6000803e3d6000fd5b505050506040513d601f19601f82011682018060405250610de39190810190611d0d565b5190506012821115610e0d57610e06816011198401600a0a63ffffffff61147c16565b9050610e27565b610e24816012849003600a0a63ffffffff6114ad16565b90505b610e3181866114d7565b94506000610ee1610e406105de565b89516040808b015190517ffd04b6060000000000000000000000000000000000000000000000000000000081526001600160a01b039092169163fd04b60691610e8b9160040161207a565b60206040518083038186803b158015610ea357600080fd5b505afa158015610eb7573d6000803e3d6000fd5b505050506040513d601f19601f82011682018060405250610edb9190810190611d0d565b516114f9565b9050600087516001811115610ef257fe5b1415610f0957610f028682610f21565b9550610f16565b610f138682610f38565b95505b505050505092915050565b600061012d610a6084670de0b6b3a7640000611078565b600061012d610f478484611078565b670de0b6b3a76400006110d2565b600080821215610f775760405162461bcd60e51b8152600401610a219061202c565b61012d610f478484611078565b600080831215610fa65760405162461bcd60e51b8152600401610a219061202c565b61012d838360000361114f565b6000808212610fc257816101a0565b600092915050565b600080610fd6846113b8565b60ff16905060128111610fff57610ffa836012839003600a0a63ffffffff6114ad16565b61019c565b61019c836011198301600a0a63ffffffff61147c16565b6060632800659560e01b8484846040516024016110359392919061200e565b60408051601f198184030181529190526020810180516001600160e01b03166001600160e01b03199093169290921790915290509392505050565b805160208201fd5b6000821580611085575081155b15611092575060006101a0565b50818102818382816110a057fe5b051480156110b65750828282816110b357fe5b05145b6101a05760405162461bcd60e51b8152600401610a219061203c565b6000816110f15760405162461bcd60e51b8152600401610a219061205c565b7f80000000000000000000000000000000000000000000000000000000000000008314158061112257508160001914155b61113e5760405162461bcd60e51b8152600401610a219061204c565b81838161114757fe5b059392505050565b8181016000831280156111625750600082125b801561116d57508281135b8061118e57506000831380156111835750600082135b801561118e57508281125b156101a05760405162461bcd60e51b8152600401610a219061201c565b60405160009081906060906001600160a01b038716907fdd62ed3e00000000000000000000000000000000000000000000000000000000906111f39088908890602401611fb2565b60408051601f198184030181529181526020820180516001600160e01b03166001600160e01b03199094169390931790925290516112319190611f98565b600060405180830381855afa9150503d806000811461126c576040519150601f19603f3d011682016040523d82523d6000602084013e611271565b606091505b5091509150818015611284575080516020145b1561129757611294816000611525565b92505b50509392505050565b60405160009081906060906001600160a01b038616907f70a0823100000000000000000000000000000000000000000000000000000000906112e6908790602401611fa4565b60408051601f198184030181529181526020820180516001600160e01b03166001600160e01b03199094169390931790925290516113249190611f98565b600060405180830381855afa9150503d806000811461135f576040519150601f19603f3d011682016040523d82523d6000602084013e611364565b606091505b5091509150818015611377575080516020145b1561138a57611387816000611525565b92505b505092915050565b6000808212156113b45760405162461bcd60e51b8152600401610a219061202c565b5090565b60006012905060006060836001600160a01b03166040518060400160405280600481526020017f313ce5670000000000000000000000000000000000000000000000000000000081525060405161140f9190611f98565b600060405180830381855afa9150503d806000811461144a576040519150601f19603f3d011682016040523d82523d6000602084013e61144f565b606091505b5091509150818015611462575080516020145b1561147557611472816000611525565b92505b5050919050565b60008261148b575060006101a0565b8282028284828161149857fe5b041461012d5761012d6109e760018686611531565b6000816114c3576114c36109e760038585611531565b60008284816114ce57fe5b04949350505050565b600080831215610f775760405162461bcd60e51b8152600401610a219061202c565b60008082121561151b5760405162461bcd60e51b8152600401610a219061202c565b61012d838361114f565b600061012d8383611550565b606063e946c1bb60e01b84848460405160240161103593929190611fde565b60008160200183511015611571576115716109e76005855185602001611016565b50016020015190565b60405180610100016040528060006001600160a01b0316815260200160006001600160a01b0316815260200160006001600160a01b0316815260200160006001600160a01b0316815260200160006001600160a01b031681526020016000815260200160608152602001606081525090565b604051806040016040528060608152602001606081525090565b6040805160a081019091528060008152602001600081526020016000815260200160008152602001600081525090565b6040518060800160405280611649611675565b8152602001611656611675565b8152602001611663611675565b8152602001611670611675565b905290565b6040518060200160405280600081525090565b80356101a0816121b4565b80516101a0816121b4565b600082601f8301126116af57600080fd5b81516116c26116bd826120af565b612088565b915081818352602084019350602081019050838560a08402820111156116e757600080fd5b60005b8381101561171557816116fd8882611845565b84525060209092019160a091909101906001016116ea565b5050505092915050565b600082601f83011261173057600080fd5b815161173e6116bd826120af565b9150818183526020840193506020810190508385602084028201111561176357600080fd5b60005b8381101561171557816117798882611b91565b8452506020928301929190910190600101611766565b80516101a0816121c8565b80516101a0816121d1565b600082601f8301126117b657600080fd5b81356117c46116bd826120d0565b915080825260208301602083018583830111156117e057600080fd5b6117eb83828461215b565b50505092915050565b600082601f83011261180557600080fd5b81516118136116bd826120d0565b9150808252602083016020830185838301111561182f57600080fd5b6117eb838284612167565b80516101a0816121da565b600060a0828403121561185757600080fd5b61186160a0612088565b9050600061186f848461183a565b825250602061188084848301611b91565b602083015250604061189484828501611b91565b60408301525060606118a884828501611b91565b60608301525060806118bc84828501611b91565b60808301525092915050565b6000604082840312156118da57600080fd5b6118e46040612088565b825190915067ffffffffffffffff8111156118fe57600080fd5b61190a8482850161171f565b825250602082015167ffffffffffffffff81111561192757600080fd5b6119338482850161169e565b60208301525092915050565b60006020828403121561195157600080fd5b61195b6020612088565b905060006119698484611b91565b82525092915050565b60006101c0828403121561198557600080fd5b6119906101c0612088565b9050600061199e8484611688565b82525060206119af84848301611688565b60208301525060406119c384828501611688565b60408301525060606119d784828501611688565b60608301525060806119eb84828501611b86565b60808301525060a06119ff84828501611b86565b60a08301525060c0611a1384828501611b86565b60c08301525060e0611a2784828501611b86565b60e083015250610100611a3c84828501611b86565b61010083015250610120611a5284828501611b86565b6101208301525061014082013567ffffffffffffffff811115611a7457600080fd5b611a80848285016117a5565b6101408301525061016082013567ffffffffffffffff811115611aa257600080fd5b611aae848285016117a5565b6101608301525061018082013567ffffffffffffffff811115611ad057600080fd5b611adc848285016117a5565b610180830152506101a082013567ffffffffffffffff811115611afe57600080fd5b611b0a848285016117a5565b6101a08301525092915050565b600060808284031215611b2957600080fd5b611b336080612088565b90506000611b41848461193f565b8252506020611b528484830161193f565b6020830152506040611b668482850161193f565b6040830152506060611b7a8482850161193f565b60608301525092915050565b80356101a0816121e7565b80516101a0816121e7565b600060208284031215611bae57600080fd5b600061019c8484611693565b600080600060608486031215611bcf57600080fd5b6000611bdb8686611688565b9350506020611bec86828701611688565b9250506040611bfd86828701611688565b9150509250925092565b600060208284031215611c1957600080fd5b600061019c848461178f565b60008060408385031215611c3857600080fd5b6000611c44858561179a565b9250506020611c5585828601611693565b9150509250929050565b60008060008060808587031215611c7557600080fd5b6000611c81878761179a565b9450506020611c9287828801611693565b9350506040611ca387828801611693565b925050606085015167ffffffffffffffff811115611cc057600080fd5b611ccc878288016117f4565b91505092959194509250565b600060208284031215611cea57600080fd5b815167ffffffffffffffff811115611d0157600080fd5b61019c848285016118c8565b600060208284031215611d1f57600080fd5b600061019c848461193f565b60008060408385031215611d3e57600080fd5b823567ffffffffffffffff811115611d5557600080fd5b611d6185828601611972565b9250506020611c5585828601611688565b600060808284031215611d8457600080fd5b600061019c8484611b17565b60008060408385031215611da357600080fd5b6000611daf858561193f565b9250506020611c558582860161193f565b611dc981612105565b82525050565b6000611dda826120f8565b611de481856105d9565b9350611df4818560208601612167565b9290920192915050565b6000611e09826120f8565b611e1381856120fc565b9350611e23818560208601612167565b611e2c81612193565b9093019392505050565b611dc981612145565b611dc981612150565b6000611e556018836120fc565b7f4431382f444543494d414c5f4144445f4f564552464c4f570000000000000000815260200192915050565b6000611e8e6019836120fc565b7f4431382f444543494d414c5f56414c55455f544f4f5f42494700000000000000815260200192915050565b6000611ec76018836120fc565b7f4431382f444543494d414c5f4d554c5f4f564552464c4f570000000000000000815260200192915050565b6000611f006018836120fc565b7f4431382f444543494d414c5f4449565f4f564552464c4f570000000000000000815260200192915050565b6000611f396017836120fc565b7f4431382f444543494d414c5f4449565f42595f5a45524f000000000000000000815260200192915050565b80516040830190611f768482611dc0565b506020820151611f896020850182611f8f565b50505050565b611dc981612142565b600061012d8284611dcf565b602081016101a08284611dc0565b60408101611fc08285611dc0565b61012d6020830184611dc0565b6020808252810161012d8184611dfe565b60608101611fec8286611e36565b611ff96020830185611f8f565b6120066040830184611f8f565b949350505050565b60608101611fec8286611e3f565b602080825281016101a081611e48565b602080825281016101a081611e81565b602080825281016101a081611eba565b602080825281016101a081611ef3565b602080825281016101a081611f2c565b604081016101a08284611f65565b602081016101a08284611f8f565b60405181810167ffffffffffffffff811182821017156120a757600080fd5b604052919050565b600067ffffffffffffffff8211156120c657600080fd5b5060209081020190565b600067ffffffffffffffff8211156120e757600080fd5b506020601f91909101601f19160190565b5190565b90815260200190565b60006101a082612136565b151590565b6001600160e01b03191690565b806105d98161219d565b806105d9816121aa565b6001600160a01b031690565b90565b60006101a082612122565b60006101a08261212c565b82818337506000910152565b60005b8381101561218257818101518382015260200161216a565b83811115611f895750506000910152565b601f01601f191690565b600481106121a757fe5b50565b600881106121a757fe5b6121bd81612105565b81146121a757600080fd5b6121bd81612110565b6121bd81612115565b600281106121a757600080fd5b6121bd8161214256fea365627a7a7231582012f12fd51127dc42d9e4f64f269279db50a57072bd3a17cef569665623662e476c6578706572696d656e74616cf564736f6c63430005110040",
  "linkReferences": {
    "contracts/0x/dev-utils/LibAssetData.sol": {
      "LibAssetData": [
        {
          "length": 20,
          "start": 517
        },
        {
          "length": 20,
          "start": 815
        }
      ]
    }
  },
  "deployedLinkReferences": {
    "contracts/0x/dev-utils/LibAssetData.sol": {
      "LibAssetData": [
        {
          "length": 20,
          "start": 479
        },
        {
          "length": 20,
          "start": 777
        }
      ]
    }
  }
}