{
  "_format": "hh-sol-artifact-1",
  "contractName": "ERC1155Mintable",
  "sourceName": "contracts/0x/erc1155/ERC1155Mintable.sol",
  "abi": [
    {
      "anonymous": false,
      "inputs": [
        {
          "indexed": true,
          "internalType": "address",
          "name": "owner",
          "type": "address"
        },
        {
          "indexed": true,
          "internalType": "address",
          "name": "operator",
          "type": "address"
        },
        {
          "indexed": false,
          "internalType": "bool",
          "name": "approved",
          "type": "bool"
        }
      ],
      "name": "ApprovalForAll",
      "type": "event"
    },
    {
      "anonymous": false,
      "inputs": [
        {
          "indexed": true,
          "internalType": "address",
          "name": "operator",
          "type": "address"
        },
        {
          "indexed": true,
          "internalType": "address",
          "name": "from",
          "type": "address"
        },
        {
          "indexed": true,
          "internalType": "address",
          "name": "to",
          "type": "address"
        },
        {
          "indexed": false,
          "internalType": "uint256[]",
          "name": "ids",
          "type": "uint256[]"
        },
        {
          "indexed": false,
          "internalType": "uint256[]",
          "name": "values",
          "type": "uint256[]"
        }
      ],
      "name": "TransferBatch",
      "type": "event"
    },
    {
      "anonymous": false,
      "inputs": [
        {
          "indexed": true,
          "internalType": "address",
          "name": "operator",
          "type": "address"
        },
        {
          "indexed": true,
          "internalType": "address",
          "name": "from",
          "type": "address"
        },
        {
          "indexed": true,
          "internalType": "address",
          "name": "to",
          "type": "address"
        },
        {
          "indexed": false,
          "internalType": "uint256",
          "name": "id",
          "type": "uint256"
        },
        {
          "indexed": false,
          "internalType": "uint256",
          "name": "value",
          "type": "uint256"
        }
      ],
      "name": "TransferSingle",
      "type": "event"
    },
    {
      "anonymous": false,
      "inputs": [
        {
          "indexed": false,
          "internalType": "string",
          "name": "value",
          "type": "string"
        },
        {
          "indexed": true,
          "internalType": "uint256",
          "name": "id",
          "type": "uint256"
        }
      ],
      "name": "URI",
      "type": "event"
    },
    {
      "constant": true,
      "inputs": [],
      "name": "ERC1155_BATCH_RECEIVED",
      "outputs": [
        {
          "internalType": "bytes4",
          "name": "",
          "type": "bytes4"
        }
      ],
      "payable": false,
      "stateMutability": "view",
      "type": "function"
    },
    {
      "constant": true,
      "inputs": [],
      "name": "ERC1155_RECEIVED",
      "outputs": [
        {
          "internalType": "bytes4",
          "name": "",
          "type": "bytes4"
        }
      ],
      "payable": false,
      "stateMutability": "view",
      "type": "function"
    },
    {
      "constant": true,
      "inputs": [
        {
          "internalType": "address",
          "name": "owner",
          "type": "address"
        },
        {
          "internalType": "uint256",
          "name": "id",
          "type": "uint256"
        }
      ],
      "name": "balanceOf",
      "outputs": [
        {
          "internalType": "uint256",
          "name": "",
          "type": "uint256"
        }
      ],
      "payable": false,
      "stateMutability": "view",
      "type": "function"
    },
    {
      "constant": true,
      "inputs": [
        {
          "internalType": "address[]",
          "name": "owners",
          "type": "address[]"
        },
        {
          "internalType": "uint256[]",
          "name": "ids",
          "type": "uint256[]"
        }
      ],
      "name": "balanceOfBatch",
      "outputs": [
        {
          "internalType": "uint256[]",
          "name": "balances_",
          "type": "uint256[]"
        }
      ],
      "payable": false,
      "stateMutability": "view",
      "type": "function"
    },
    {
      "constant": false,
      "inputs": [
        {
          "internalType": "string",
          "name": "uri",
          "type": "string"
        },
        {
          "internalType": "bool",
          "name": "isNF",
          "type": "bool"
        }
      ],
      "name": "create",
      "outputs": [
        {
          "internalType": "uint256",
          "name": "type_",
          "type": "uint256"
        }
      ],
      "payable": false,
      "stateMutability": "nonpayable",
      "type": "function"
    },
    {
      "constant": false,
      "inputs": [
        {
          "internalType": "uint256",
          "name": "type_",
          "type": "uint256"
        },
        {
          "internalType": "string",
          "name": "uri",
          "type": "string"
        }
      ],
      "name": "createWithType",
      "outputs": [],
      "payable": false,
      "stateMutability": "nonpayable",
      "type": "function"
    },
    {
      "constant": true,
      "inputs": [
        {
          "internalType": "uint256",
          "name": "",
          "type": "uint256"
        }
      ],
      "name": "creators",
      "outputs": [
        {
          "internalType": "address",
          "name": "",
          "type": "address"
        }
      ],
      "payable": false,
      "stateMutability": "view",
      "type": "function"
    },
    {
      "constant": true,
      "inputs": [
        {
          "internalType": "uint256",
          "name": "id",
          "type": "uint256"
        }
      ],
      "name": "getNonFungibleBaseType",
      "outputs": [
        {
          "internalType": "uint256",
          "name": "",
          "type": "uint256"
        }
      ],
      "payable": false,
      "stateMutability": "pure",
      "type": "function"
    },
    {
      "constant": true,
      "inputs": [
        {
          "internalType": "uint256",
          "name": "id",
          "type": "uint256"
        }
      ],
      "name": "getNonFungibleIndex",
      "outputs": [
        {
          "internalType": "uint256",
          "name": "",
          "type": "uint256"
        }
      ],
      "payable": false,
      "stateMutability": "pure",
      "type": "function"
    },
    {
      "constant": true,
      "inputs": [
        {
          "internalType": "address",
          "name": "owner",
          "type": "address"
        },
        {
          "internalType": "address",
          "name": "operator",
          "type": "address"
        }
      ],
      "name": "isApprovedForAll",
      "outputs": [
        {
          "internalType": "bool",
          "name": "",
          "type": "bool"
        }
      ],
      "payable": false,
      "stateMutability": "view",
      "type": "function"
    },
    {
      "constant": true,
      "inputs": [
        {
          "internalType": "uint256",
          "name": "id",
          "type": "uint256"
        }
      ],
      "name": "isFungible",
      "outputs": [
        {
          "internalType": "bool",
          "name": "",
          "type": "bool"
        }
      ],
      "payable": false,
      "stateMutability": "pure",
      "type": "function"
    },
    {
      "constant": true,
      "inputs": [
        {
          "internalType": "uint256",
          "name": "id",
          "type": "uint256"
        }
      ],
      "name": "isNonFungible",
      "outputs": [
        {
          "internalType": "bool",
          "name": "",
          "type": "bool"
        }
      ],
      "payable": false,
      "stateMutability": "pure",
      "type": "function"
    },
    {
      "constant": true,
      "inputs": [
        {
          "internalType": "uint256",
          "name": "id",
          "type": "uint256"
        }
      ],
      "name": "isNonFungibleBaseType",
      "outputs": [
        {
          "internalType": "bool",
          "name": "",
          "type": "bool"
        }
      ],
      "payable": false,
      "stateMutability": "pure",
      "type": "function"
    },
    {
      "constant": true,
      "inputs": [
        {
          "internalType": "uint256",
          "name": "id",
          "type": "uint256"
        }
      ],
      "name": "isNonFungibleItem",
      "outputs": [
        {
          "internalType": "bool",
          "name": "",
          "type": "bool"
        }
      ],
      "payable": false,
      "stateMutability": "pure",
      "type": "function"
    },
    {
      "constant": true,
      "inputs": [
        {
          "internalType": "uint256",
          "name": "",
          "type": "uint256"
        }
      ],
      "name": "maxIndex",
      "outputs": [
        {
          "internalType": "uint256",
          "name": "",
          "type": "uint256"
        }
      ],
      "payable": false,
      "stateMutability": "view",
      "type": "function"
    },
    {
      "constant": false,
      "inputs": [
        {
          "internalType": "uint256",
          "name": "id",
          "type": "uint256"
        },
        {
          "internalType": "address[]",
          "name": "to",
          "type": "address[]"
        },
        {
          "internalType": "uint256[]",
          "name": "quantities",
          "type": "uint256[]"
        }
      ],
      "name": "mintFungible",
      "outputs": [],
      "payable": false,
      "stateMutability": "nonpayable",
      "type": "function"
    },
    {
      "constant": false,
      "inputs": [
        {
          "internalType": "uint256",
          "name": "type_",
          "type": "uint256"
        },
        {
          "internalType": "address[]",
          "name": "to",
          "type": "address[]"
        }
      ],
      "name": "mintNonFungible",
      "outputs": [],
      "payable": false,
      "stateMutability": "nonpayable",
      "type": "function"
    },
    {
      "constant": true,
      "inputs": [
        {
          "internalType": "uint256",
          "name": "id",
          "type": "uint256"
        }
      ],
      "name": "ownerOf",
      "outputs": [
        {
          "internalType": "address",
          "name": "",
          "type": "address"
        }
      ],
      "payable": false,
      "stateMutability": "view",
      "type": "function"
    },
    {
      "constant": false,
      "inputs": [
        {
          "internalType": "address",
          "name": "from",
          "type": "address"
        },
        {
          "internalType": "address",
          "name": "to",
          "type": "address"
        },
        {
          "internalType": "uint256[]",
          "name": "ids",
          "type": "uint256[]"
        },
        {
          "internalType": "uint256[]",
          "name": "values",
          "type": "uint256[]"
        },
        {
          "internalType": "bytes",
          "name": "data",
          "type": "bytes"
        }
      ],
      "name": "safeBatchTransferFrom",
      "outputs": [],
      "payable": false,
      "stateMutability": "nonpayable",
      "type": "function"
    },
    {
      "constant": false,
      "inputs": [
        {
          "internalType": "address",
          "name": "from",
          "type": "address"
        },
        {
          "internalType": "address",
          "name": "to",
          "type": "address"
        },
        {
          "internalType": "uint256",
          "name": "id",
          "type": "uint256"
        },
        {
          "internalType": "uint256",
          "name": "value",
          "type": "uint256"
        },
        {
          "internalType": "bytes",
          "name": "data",
          "type": "bytes"
        }
      ],
      "name": "safeTransferFrom",
      "outputs": [],
      "payable": false,
      "stateMutability": "nonpayable",
      "type": "function"
    },
    {
      "constant": false,
      "inputs": [
        {
          "internalType": "address",
          "name": "operator",
          "type": "address"
        },
        {
          "internalType": "bool",
          "name": "approved",
          "type": "bool"
        }
      ],
      "name": "setApprovalForAll",
      "outputs": [],
      "payable": false,
      "stateMutability": "nonpayable",
      "type": "function"
    }
  ],
  "bytecode": "0x608060405234801561001057600080fd5b50611fa2806100206000396000f3fe608060405234801561001057600080fd5b50600436106101765760003560e01c80639f4b286a116100d8578063e0a5c9491161008c578063f242432a11610066578063f242432a14610312578063f941908814610325578063fc67bf1c1461033857610176565b8063e0a5c949146102d7578063e44591f0146102ec578063e985e9c5146102ff57610176565b8063adebf6f2116100bd578063adebf6f21461029e578063cc10e401146102b1578063cd53d08e146102c457610176565b80639f4b286a14610278578063a22cb4651461028b57610176565b80636352211e1161012f5780637269a327116101145780637269a3271461023f57806378b27221146102525780639cca1c641461026557610176565b80636352211e1461020c5780636f969c2d1461022c57610176565b80632eb2c2d6116101605780632eb2c2d6146101b75780634e1273f4146101cc5780635e81b958146101ec57610176565b8062fdd58e1461017b57806308d7d469146101a4575b600080fd5b61018e610189366004611601565b610340565b60405161019b9190611e54565b60405180910390f35b61018e6101b2366004611714565b6103b0565b6101ca6101c5366004611477565b6103c2565b005b6101df6101da366004611631565b61075b565b60405161019b9190611d5d565b6101ff6101fa366004611714565b6108c1565b60405161019b9190611d6e565b61021f61021a366004611714565b6108f1565b60405161019b9190611be9565b61018e61023a366004611714565b61090c565b6101ff61024d366004611714565b610931565b6101ca610260366004611788565b61095a565b61018e610273366004611714565b610b67565b6101ca61028636600461180f565b610b7c565b6101ca6102993660046115d1565b610c20565b6101ff6102ac366004611714565b610c8f565b61018e6102bf3660046116bf565b610c99565b61021f6102d2366004611714565b610d5a565b6102df610d75565b60405161019b9190611d7c565b6101ff6102fa366004611714565b610d80565b6101ff61030d36600461143d565b610d8c565b6101ca610320366004611541565b610dba565b6101ca610333366004611732565b61108f565b6102df6112a0565b600061034b826108c1565b15610385576000828152602081905260409020546001600160a01b0384811691161461037857600061037b565b60015b60ff1690506103aa565b5060008181526001602090815260408083206001600160a01b03861684529091529020545b92915050565b60056020526000908152604090205481565b6001600160a01b0387166103f15760405162461bcd60e51b81526004016103e890611dc4565b60405180910390fd5b8483146104105760405162461bcd60e51b81526004016103e890611dd4565b6001600160a01b03881633148061044f57506001600160a01b038816600090815260026020908152604080832033845290915290205460ff1615156001145b61046b5760405162461bcd60e51b81526004016103e890611df4565b60005b8581101561061b57600087878381811061048457fe5b905060200201359050600086868481811061049b57fe5b9050602002013590506104ad82610d80565b1561053757806001146104d25760405162461bcd60e51b81526004016103e890611e04565b6000828152602081905260409020546001600160a01b038c811691161461050b5760405162461bcd60e51b81526004016103e890611de4565b600082815260208190526040902080546001600160a01b0319166001600160a01b038c16179055610611565b60008281526001602090815260408083206001600160a01b038f16845290915290205461056a908263ffffffff6112ab16565b6001600084815260200190815260200160002060008d6001600160a01b03166001600160a01b03168152602001908152602001600020819055506105ed816001600085815260200190815260200160002060008d6001600160a01b03166001600160a01b03168152602001908152602001600020546112cf90919063ffffffff16565b60008381526001602090815260408083206001600160a01b038f1684529091529020555b505060010161046e565b50866001600160a01b0316886001600160a01b0316336001600160a01b03167f4a39dc06d4c0dbc64b70af90fd698a233a518aa5d07e595d983b8c0526c8f7fb8989898960405161066f9493929190611d36565b60405180910390a4610689876001600160a01b03166112eb565b156107515760405163bc197c8160e01b81526000906001600160a01b0389169063bc197c81906106cb9033908d908c908c908c908c908c908c90600401611c7c565b602060405180830381600087803b1580156106e557600080fd5b505af11580156106f9573d6000803e3d6000fd5b505050506040513d601f19601f8201168201806040525061071d91908101906116a1565b90506001600160e01b0319811663bc197c8160e01b1461074f5760405162461bcd60e51b81526004016103e890611e44565b505b5050505050505050565b606083821461077c5760405162461bcd60e51b81526004016103e890611e24565b6040805185815260208087028201019091528480156107a5578160200160208202803883390190505b50905060005b848110156108b75760008484838181106107c157fe5b9050602002013590506107d3816108c1565b15610844578686838181106107e457fe5b90506020020160206107f9919081019061141f565b6000828152602081905260409020546001600160a01b03908116911614610821576000610824565b60015b60ff1683838151811061083357fe5b6020026020010181815250506108ae565b60008181526001602052604081209088888581811061085f57fe5b9050602002016020610874919081019061141f565b6001600160a01b03166001600160a01b03168152602001908152602001600020548383815181106108a157fe5b6020026020010181815250505b506001016107ab565b505b949350505050565b6000600160ff1b8083161480156108e957506fffffffffffffffffffffffffffffffff821615155b90505b919050565b6000908152602081905260409020546001600160a01b031690565b7fffffffffffffffffffffffffffffffff000000000000000000000000000000001690565b6000600160ff1b8083161480156108e95750506fffffffffffffffffffffffffffffffff161590565b60008581526004602052604090205485906001600160a01b0316331461097f57600080fd5b61098886610c8f565b6109a45760405162461bcd60e51b81526004016103e890611e34565b60005b84811015610b5e5760008686838181106109bd57fe5b90506020020160206109d2919081019061141f565b905060008585848181106109e257fe5b60008c81526001602090815260408083206001600160a01b0389168452825290912054910292909201359250610a209183915063ffffffff6112cf16565b60008a81526001602090815260408083206001600160a01b038716808552925280832093909355915133907fc3d58168c5ae7397731d063d5bbf3d657854427343f4c083240f7aacaa2d0f6290610a7a908e908790611e7d565b60405180910390a4610a94826001600160a01b03166112eb565b15610b545760405163f23a6e6160e01b81526000906001600160a01b0384169063f23a6e6190610ace90339081908f908890600401611c47565b602060405180830381600087803b158015610ae857600080fd5b505af1158015610afc573d6000803e3d6000fd5b505050506040513d601f19601f82011682018060405250610b2091908101906116a1565b90506001600160e01b0319811663f23a6e6160e01b14610b525760405162461bcd60e51b81526004016103e890611e44565b505b50506001016109a7565b50505050505050565b6fffffffffffffffffffffffffffffffff1690565b60008381526004602052604080822080546001600160a01b0319163390811790915590518291907fc3d58168c5ae7397731d063d5bbf3d657854427343f4c083240f7aacaa2d0f6290610bd29088908590611e62565b60405180910390a48015610c1b57827f6bb7ff708619ba0610cba295a58592e0451dee2622938c8755667688daf3529b8383604051610c12929190611db2565b60405180910390a25b505050565b3360008181526002602090815260408083206001600160a01b038716808552925291829020805460ff191685151517905590519091907f17307eab39ab6107e8899845ad3d59bd9653f200f220920489ca2b5937696c3190610c83908590611d6e565b60405180910390a35050565b600160ff1b161590565b600380546001019081905560801b8115610cb457600160ff1b175b60008181526004602052604080822080546001600160a01b0319163390811790915590518291907fc3d58168c5ae7397731d063d5bbf3d657854427343f4c083240f7aacaa2d0f6290610d0a9086908590611e62565b60405180910390a48215610d5357807f6bb7ff708619ba0610cba295a58592e0451dee2622938c8755667688daf3529b8585604051610d4a929190611db2565b60405180910390a25b9392505050565b6004602052600090815260409020546001600160a01b031681565b63f23a6e6160e01b81565b600160ff1b9081161490565b6001600160a01b03918216600090815260026020908152604080832093909416825291909152205460ff1690565b6001600160a01b038516610de05760405162461bcd60e51b81526004016103e890611dc4565b6001600160a01b038616331480610e1f57506001600160a01b038616600090815260026020908152604080832033845290915290205460ff1615156001145b610e3b5760405162461bcd60e51b81526004016103e890611df4565b610e4484610d80565b15610ece5782600114610e695760405162461bcd60e51b81526004016103e890611e04565b6000848152602081905260409020546001600160a01b03878116911614610ea25760405162461bcd60e51b81526004016103e890611de4565b600084815260208190526040902080546001600160a01b0319166001600160a01b038716179055610f5c565b60008481526001602090815260408083206001600160a01b038a168452909152902054610f01908463ffffffff6112ab16565b60008581526001602090815260408083206001600160a01b038b81168552925280832093909355871681522054610f3890846112cf565b60008581526001602090815260408083206001600160a01b038a1684529091529020555b846001600160a01b0316866001600160a01b0316336001600160a01b03167fc3d58168c5ae7397731d063d5bbf3d657854427343f4c083240f7aacaa2d0f628787604051610fab929190611e7d565b60405180910390a4610fc5856001600160a01b03166112eb565b156110875760405163f23a6e6160e01b81526000906001600160a01b0387169063f23a6e61906110039033908b908a908a908a908a90600401611ce2565b602060405180830381600087803b15801561101d57600080fd5b505af1158015611031573d6000803e3d6000fd5b505050506040513d601f19601f8201168201806040525061105591908101906116a1565b90506001600160e01b0319811663f23a6e6160e01b14610b5e5760405162461bcd60e51b81526004016103e890611e44565b505050505050565b60008381526004602052604090205483906001600160a01b031633146110b457600080fd5b6110bd84610d80565b6110d95760405162461bcd60e51b81526004016103e890611e14565b600084815260056020526040812054600101905b8381101561126657600085858381811061110357fe5b9050602002016020611118919081019061141f565b828401881760008181526020819052604080822080546001600160a01b0319166001600160a01b0386169081179091559051939450919233907fc3d58168c5ae7397731d063d5bbf3d657854427343f4c083240f7aacaa2d0f6290611181908690600190611e62565b60405180910390a461119b826001600160a01b03166112eb565b1561125c5760405163f23a6e6160e01b81526000906001600160a01b0384169063f23a6e61906111d690339081908790600190600401611bf7565b602060405180830381600087803b1580156111f057600080fd5b505af1158015611204573d6000803e3d6000fd5b505050506040513d601f19601f8201168201806040525061122891908101906116a1565b90506001600160e01b0319811663f23a6e6160e01b1461125a5760405162461bcd60e51b81526004016103e890611e44565b505b50506001016110ed565b5060008581526005602052604090205461128790849063ffffffff6112cf16565b6000958652600560205260409095209490945550505050565b63bc197c8160e01b81565b6000828211156112c9576112c96112c4600285856112f1565b611360565b50900390565b600082820183811015610d5357610d536112c4600086866112f1565b3b151590565b606063e946c1bb60e01b84848460405160240161131093929190611d8a565b60408051601f198184030181529190526020810180517bffffffffffffffffffffffffffffffffffffffffffffffffffffffff166001600160e01b03199093169290921790915290509392505050565b805160208201fd5b80356103aa81611f30565b60008083601f84011261138557600080fd5b50813567ffffffffffffffff81111561139d57600080fd5b6020830191508360208202830111156113b557600080fd5b9250929050565b80356103aa81611f44565b80516103aa81611f4d565b60008083601f8401126113e457600080fd5b50813567ffffffffffffffff8111156113fc57600080fd5b6020830191508360018202830111156113b557600080fd5b80356103aa81611f56565b60006020828403121561143157600080fd5b60006108b98484611368565b6000806040838503121561145057600080fd5b600061145c8585611368565b925050602061146d85828601611368565b9150509250929050565b60008060008060008060008060a0898b03121561149357600080fd5b600061149f8b8b611368565b98505060206114b08b828c01611368565b975050604089013567ffffffffffffffff8111156114cd57600080fd5b6114d98b828c01611373565b9650965050606089013567ffffffffffffffff8111156114f857600080fd5b6115048b828c01611373565b9450945050608089013567ffffffffffffffff81111561152357600080fd5b61152f8b828c016113d2565b92509250509295985092959890939650565b60008060008060008060a0878903121561155a57600080fd5b60006115668989611368565b965050602061157789828a01611368565b955050604061158889828a01611414565b945050606061159989828a01611414565b935050608087013567ffffffffffffffff8111156115b657600080fd5b6115c289828a016113d2565b92509250509295509295509295565b600080604083850312156115e457600080fd5b60006115f08585611368565b925050602061146d858286016113bc565b6000806040838503121561161457600080fd5b60006116208585611368565b925050602061146d85828601611414565b6000806000806040858703121561164757600080fd5b843567ffffffffffffffff81111561165e57600080fd5b61166a87828801611373565b9450945050602085013567ffffffffffffffff81111561168957600080fd5b61169587828801611373565b95989497509550505050565b6000602082840312156116b357600080fd5b60006108b984846113c7565b6000806000604084860312156116d457600080fd5b833567ffffffffffffffff8111156116eb57600080fd5b6116f7868287016113d2565b9350935050602061170a868287016113bc565b9150509250925092565b60006020828403121561172657600080fd5b60006108b98484611414565b60008060006040848603121561174757600080fd5b60006117538686611414565b935050602084013567ffffffffffffffff81111561177057600080fd5b61177c86828701611373565b92509250509250925092565b6000806000806000606086880312156117a057600080fd5b60006117ac8888611414565b955050602086013567ffffffffffffffff8111156117c957600080fd5b6117d588828901611373565b9450945050604086013567ffffffffffffffff8111156117f457600080fd5b61180088828901611373565b92509250509295509295909350565b60008060006040848603121561182457600080fd5b60006118308686611414565b935050602084013567ffffffffffffffff81111561184d57600080fd5b61177c868287016113d2565b60006118658383611be0565b505060200190565b61187681611ee1565b82525050565b61187681611eab565b60006118918385611ea2565b93507f07ffffffffffffffffffffffffffffffffffffffffffffffffffffffffffffff8311156118c057600080fd5b6020830292506118d1838584611f0d565b50500190565b60006118e282611e9e565b6118ec8185611ea2565b93506118f783611e98565b8060005b8381101561192557815161190f8882611859565b975061191a83611e98565b9250506001016118fb565b509495945050505050565b61187681611eb6565b61187681611ebb565b600061194e8385611ea2565b935061195b838584611f0d565b61196483611f19565b9093019392505050565b61187681611eec565b61187681611ef7565b600061198d601f83611ea2565b7f43414e4e4f545f5452414e534645525f544f5f414444524553535f5a45524f00815260200192915050565b60006119c6602083611ea2565b7f544f4b454e5f414e445f56414c5545535f4c454e4754485f4d49534d41544348815260200192915050565b60006119ff601d83611ea2565b7f4e46545f4e4f545f4f574e45445f42595f46524f4d5f41444452455353000000815260200192915050565b6000611a38601683611ea2565b7f494e53554646494349454e545f414c4c4f57414e434500000000000000000000815260200192915050565b6000611a71601c83611ea2565b7f414d4f554e545f455155414c5f544f5f4f4e455f524551554952454400000000815260200192915050565b6000611aaa602d83611ea2565b7f54524945445f544f5f4d494e545f4e4f4e5f46554e4749424c455f464f525f4681526c2aa723a4a12622afaa27a5a2a760991b602082015260400192915050565b6000611af9602483611ea2565b7f4f574e4552535f414e445f4944535f4d5553545f484156455f53414d455f4c4581527f4e47544800000000000000000000000000000000000000000000000000000000602082015260400192915050565b6000611b58602d83611ea2565b7f54524945445f544f5f4d494e545f46554e4749424c455f464f525f4e4f4e5f4681526c2aa723a4a12622afaa27a5a2a760991b602082015260400192915050565b60006103aa600083611ea2565b6000611bb4601983611ea2565b7f4241445f52454345495645525f52455455524e5f56414c554500000000000000815260200192915050565b61187681611ede565b602081016103aa828461187c565b60a08101611c05828761186d565b611c12602083018661186d565b611c1f6040830185611be0565b611c2c6060830184611977565b8181036080830152611c3d81611b9a565b9695505050505050565b60a08101611c55828761186d565b611c62602083018661186d565b611c6f6040830185611be0565b611c2c6060830184611be0565b60a08101611c8a828b61186d565b611c97602083018a61187c565b8181036040830152611caa81888a611885565b90508181036060830152611cbf818688611885565b90508181036080830152611cd4818486611942565b9a9950505050505050505050565b60a08101611cf0828961186d565b611cfd602083018861187c565b611d0a6040830187611be0565b611d176060830186611be0565b8181036080830152611d2a818486611942565b98975050505050505050565b60408082528101611d48818688611885565b90508181036020830152611c3d818486611885565b60208082528101610d5381846118d7565b602081016103aa8284611930565b602081016103aa8284611939565b60608101611d98828661196e565b611da56020830185611be0565b6108b96040830184611be0565b602080825281016108b9818486611942565b602080825281016108e981611980565b602080825281016108e9816119b9565b602080825281016108e9816119f2565b602080825281016108e981611a2b565b602080825281016108e981611a64565b602080825281016108e981611a9d565b602080825281016108e981611aec565b602080825281016108e981611b4b565b602080825281016108e981611ba7565b602081016103aa8284611be0565b60408101611e708285611be0565b610d536020830184611977565b60408101611e8b8285611be0565b610d536020830184611be0565b60200190565b5190565b90815260200190565b60006108e982611ed2565b151590565b6001600160e01b03191690565b806108ec81611f23565b6001600160a01b031690565b90565b60006108e982611f02565b60006108e982611ec8565b60006108e982611ede565b60006108e982611eab565b82818337506000910152565b601f01601f191690565b60048110611f2d57fe5b50565b611f3981611eab565b8114611f2d57600080fd5b611f3981611eb6565b611f3981611ebb565b611f3981611ede56fea365627a7a7231582013ed66b471b416abcbea0224fc6d9abc559d253ad3a5011488624ea5cc04c1776c6578706572696d656e74616cf564736f6c63430005110040",
  "linkReferences": {},
  "deployedLinkReferences": {}
}