{
  "_format": "hh-sol-artifact-1",
  "contractName": "MixinProtocolFees",
  "sourceName": "contracts/0x/exchange/MixinProtocolFees.sol",
  "abi": [
    {
      "anonymous": false,
      "inputs": [
        {
          "indexed": true,
          "internalType": "address",
          "name": "previousOwner",
          "type": "address"
        },
        {
          "indexed": true,
          "internalType": "address",
          "name": "newOwner",
          "type": "address"
        }
      ],
      "name": "OwnershipTransferred",
      "type": "event"
    },
    {
      "anonymous": false,
      "inputs": [
        {
          "indexed": false,
          "internalType": "address",
          "name": "oldProtocolFeeCollector",
          "type": "address"
        },
        {
          "indexed": false,
          "internalType": "address",
          "name": "updatedProtocolFeeCollector",
          "type": "address"
        }
      ],
      "name": "ProtocolFeeCollectorAddress",
      "type": "event"
    },
    {
      "anonymous": false,
      "inputs": [
        {
          "indexed": false,
          "internalType": "uint256",
          "name": "oldProtocolFeeMultiplier",
          "type": "uint256"
        },
        {
          "indexed": false,
          "internalType": "uint256",
          "name": "updatedProtocolFeeMultiplier",
          "type": "uint256"
        }
      ],
      "name": "ProtocolFeeMultiplier",
      "type": "event"
    },
    {
      "constant": false,
      "inputs": [],
      "name": "detachProtocolFeeCollector",
      "outputs": [],
      "payable": false,
      "stateMutability": "nonpayable",
      "type": "function"
    },
    {
      "constant": true,
      "inputs": [],
      "name": "owner",
      "outputs": [
        {
          "internalType": "address",
          "name": "",
          "type": "address"
        }
      ],
      "payable": false,
      "stateMutability": "view",
      "type": "function"
    },
    {
      "constant": true,
      "inputs": [],
      "name": "protocolFeeCollector",
      "outputs": [
        {
          "internalType": "address",
          "name": "",
          "type": "address"
        }
      ],
      "payable": false,
      "stateMutability": "view",
      "type": "function"
    },
    {
      "constant": true,
      "inputs": [],
      "name": "protocolFeeMultiplier",
      "outputs": [
        {
          "internalType": "uint256",
          "name": "",
          "type": "uint256"
        }
      ],
      "payable": false,
      "stateMutability": "view",
      "type": "function"
    },
    {
      "constant": false,
      "inputs": [
        {
          "internalType": "address",
          "name": "updatedProtocolFeeCollector",
          "type": "address"
        }
      ],
      "name": "setProtocolFeeCollectorAddress",
      "outputs": [],
      "payable": false,
      "stateMutability": "nonpayable",
      "type": "function"
    },
    {
      "constant": false,
      "inputs": [
        {
          "internalType": "uint256",
          "name": "updatedProtocolFeeMultiplier",
          "type": "uint256"
        }
      ],
      "name": "setProtocolFeeMultiplier",
      "outputs": [],
      "payable": false,
      "stateMutability": "nonpayable",
      "type": "function"
    },
    {
      "constant": false,
      "inputs": [
        {
          "internalType": "address",
          "name": "newOwner",
          "type": "address"
        }
      ],
      "name": "transferOwnership",
      "outputs": [],
      "payable": false,
      "stateMutability": "nonpayable",
      "type": "function"
    }
  ],
  "bytecode": "0x6080604052600080546001600160a01b031916331790556103eb806100256000396000f3fe608060405234801561001057600080fd5b506004361061007d5760003560e01c80638da5cb5b1161005b5780638da5cb5b146100ca5780639331c742146100d2578063c0fa16cc146100ef578063f2fde38b146101155761007d565b80630efca185146100825780631ce4c78b1461008c578063850a1501146100a6575b600080fd5b61008a61013b565b005b61009461014f565b60408051918252519081900360200190f35b6100ae610155565b604080516001600160a01b039092168252519081900360200190f35b6100ae610164565b61008a600480360360208110156100e857600080fd5b5035610173565b61008a6004803603602081101561010557600080fd5b50356001600160a01b03166101bd565b61008a6004803603602081101561012b57600080fd5b50356001600160a01b03166101d1565b610143610254565b61014d6000610281565b565b60015481565b6002546001600160a01b031681565b6000546001600160a01b031681565b61017b610254565b600154604080519182526020820183905280517f3a3e76d7a75e198aef1f53137e4f2a8a2ec74e2e9526db8404d08ccc9f1e621d9281900390910190a1600155565b6101c5610254565b6101ce81610281565b50565b6101d9610254565b6001600160a01b0381166101fc576101f76101f26102f8565b61032f565b6101ce565b6000805473ffffffffffffffffffffffffffffffffffffffff19166001600160a01b0383169081178255604051909133917f8be0079c531659141344cd1fd0a4f28419497f9722a3daafe3b4186f6b6457e09190a350565b6000546001600160a01b0316331461014d5760005461014d906101f29033906001600160a01b0316610337565b600254604080516001600160a01b039283168152918316602083015280517fe1a5430ebec577336427f40f15822f1f36c5e3509ff209d6db9e6c9e6941cb0b9281900390910190a16002805473ffffffffffffffffffffffffffffffffffffffff19166001600160a01b0392909216919091179055565b60408051808201909152600481527fe69edc3e00000000000000000000000000000000000000000000000000000000602082015290565b805160208201fd5b604080516001600160a01b03808516602483015283166044808301919091528251808303909101815260649091019091526020810180517bffffffffffffffffffffffffffffffffffffffffffffffffffffffff167f1de45ad1000000000000000000000000000000000000000000000000000000001790529291505056fea265627a7a72315820638d9098a0231dd5860b4597e47603738dbad75d7d5bbe58f903bb64c05b9fb664736f6c63430005110032",
  "linkReferences": {},
  "deployedLinkReferences": {}
}