{
  "_format": "hh-sol-artifact-1",
  "contractName": "MaximumGasPrice",
  "sourceName": "contracts/0x/MaximumGasPrice.sol",
  "abi": [
    {
      "constant": true,
      "inputs": [],
      "name": "checkGasPrice",
      "outputs": [],
      "payable": false,
      "stateMutability": "view",
      "type": "function"
    },
    {
      "constant": true,
      "inputs": [
        {
          "internalType": "uint256",
          "name": "maxGasPrice",
          "type": "uint256"
        }
      ],
      "name": "checkGasPrice",
      "outputs": [],
      "payable": false,
      "stateMutability": "view",
      "type": "function"
    }
  ],
  "bytecode": "0x608060405234801561001057600080fd5b50610171806100206000396000f3fe608060405234801561001057600080fd5b50600436106100365760003560e01c8063d728f5b71461003b578063da5b166a14610045575b600080fd5b610043610062565b005b6100436004803603602081101561005b57600080fd5b50356100a8565b6404a817c8003a11156100a65760405162461bcd60e51b81526004018080602001828103825260298152602001806101146029913960400191505060405180910390fd5b565b803a11156100e75760405162461bcd60e51b81526004018080602001828103825260298152602001806100eb6029913960400191505060405180910390fd5b5056fe4d6178696d756d47617350726963652f4741535f50524943455f455843454544535f4d4158494d554d4d6178696d756d47617350726963652f4741535f50524943455f455843454544535f32305f47574549a265627a7a72315820aae87c3146c047a8b4b9d50a69cbec6a2016d8e1d48026e9a4a98676a9e1c8cf64736f6c63430005110032",
  "linkReferences": {},
  "deployedLinkReferences": {}
}