{
  "_format": "hh-sol-artifact-1",
  "contractName": "BBToken",
  "sourceName": "contracts/BBToken.sol",
  "abi": [
    {
      "inputs": [
        {
          "internalType": "string",
          "name": "URI",
          "type": "string"
        },
        {
          "internalType": "address",
          "name": "owner",
          "type": "address"
        }
      ],
      "stateMutability": "nonpayable",
      "type": "constructor"
    },
    {
      "anonymous": false,
      "inputs": [
        {
          "indexed": true,
          "internalType": "address",
          "name": "account",
          "type": "address"
        },
        {
          "indexed": true,
          "internalType": "address",
          "name": "operator",
          "type": "address"
        },
        {
          "indexed": false,
          "internalType": "bool",
          "name": "approved",
          "type": "bool"
        }
      ],
      "name": "ApprovalForAll",
      "type": "event"
    },
    {
      "anonymous": false,
      "inputs": [
        {
          "indexed": true,
          "internalType": "address",
          "name": "operator",
          "type": "address"
        },
        {
          "indexed": true,
          "internalType": "address",
          "name": "from",
          "type": "address"
        },
        {
          "indexed": true,
          "internalType": "address",
          "name": "to",
          "type": "address"
        },
        {
          "indexed": false,
          "internalType": "uint256[]",
          "name": "ids",
          "type": "uint256[]"
        },
        {
          "indexed": false,
          "internalType": "uint256[]",
          "name": "values",
          "type": "uint256[]"
        }
      ],
      "name": "TransferBatch",
      "type": "event"
    },
    {
      "anonymous": false,
      "inputs": [
        {
          "indexed": true,
          "internalType": "address",
          "name": "operator",
          "type": "address"
        },
        {
          "indexed": true,
          "internalType": "address",
          "name": "from",
          "type": "address"
        },
        {
          "indexed": true,
          "internalType": "address",
          "name": "to",
          "type": "address"
        },
        {
          "indexed": false,
          "internalType": "uint256",
          "name": "id",
          "type": "uint256"
        },
        {
          "indexed": false,
          "internalType": "uint256",
          "name": "value",
          "type": "uint256"
        }
      ],
      "name": "TransferSingle",
      "type": "event"
    },
    {
      "anonymous": false,
      "inputs": [
        {
          "indexed": false,
          "internalType": "string",
          "name": "value",
          "type": "string"
        },
        {
          "indexed": true,
          "internalType": "uint256",
          "name": "id",
          "type": "uint256"
        }
      ],
      "name": "URI",
      "type": "event"
    },
    {
      "anonymous": false,
      "inputs": [
        {
          "indexed": true,
          "internalType": "address",
          "name": "",
          "type": "address"
        },
        {
          "indexed": true,
          "internalType": "uint256",
          "name": "",
          "type": "uint256"
        }
      ],
      "name": "nfTokenMint",
      "type": "event"
    },
    {
      "anonymous": false,
      "inputs": [
        {
          "indexed": true,
          "internalType": "uint256",
          "name": "",
          "type": "uint256"
        },
        {
          "indexed": false,
          "internalType": "uint256",
          "name": "",
          "type": "uint256"
        }
      ],
      "name": "ownerCredited",
      "type": "event"
    },
    {
      "anonymous": false,
      "inputs": [
        {
          "indexed": true,
          "internalType": "address",
          "name": "",
          "type": "address"
        },
        {
          "indexed": false,
          "internalType": "uint256",
          "name": "",
          "type": "uint256"
        }
      ],
      "name": "tokenCreation",
      "type": "event"
    },
    {
      "inputs": [],
      "name": "ERC1155_BATCH_RECEIVED",
      "outputs": [
        {
          "internalType": "bytes4",
          "name": "",
          "type": "bytes4"
        }
      ],
      "stateMutability": "view",
      "type": "function"
    },
    {
      "inputs": [],
      "name": "ERC1155_RECEIVED",
      "outputs": [
        {
          "internalType": "bytes4",
          "name": "",
          "type": "bytes4"
        }
      ],
      "stateMutability": "view",
      "type": "function"
    },
    {
      "inputs": [],
      "name": "Owner",
      "outputs": [
        {
          "internalType": "address",
          "name": "",
          "type": "address"
        }
      ],
      "stateMutability": "view",
      "type": "function"
    },
    {
      "inputs": [
        {
          "internalType": "uint256",
          "name": "",
          "type": "uint256"
        }
      ],
      "name": "_totalSupply",
      "outputs": [
        {
          "internalType": "uint256",
          "name": "",
          "type": "uint256"
        }
      ],
      "stateMutability": "view",
      "type": "function"
    },
    {
      "inputs": [
        {
          "internalType": "address",
          "name": "account",
          "type": "address"
        },
        {
          "internalType": "uint256",
          "name": "id",
          "type": "uint256"
        }
      ],
      "name": "balanceOf",
      "outputs": [
        {
          "internalType": "uint256",
          "name": "",
          "type": "uint256"
        }
      ],
      "stateMutability": "view",
      "type": "function"
    },
    {
      "inputs": [
        {
          "internalType": "address[]",
          "name": "accounts",
          "type": "address[]"
        },
        {
          "internalType": "uint256[]",
          "name": "ids",
          "type": "uint256[]"
        }
      ],
      "name": "balanceOfBatch",
      "outputs": [
        {
          "internalType": "uint256[]",
          "name": "",
          "type": "uint256[]"
        }
      ],
      "stateMutability": "view",
      "type": "function"
    },
    {
      "inputs": [
        {
          "internalType": "bool",
          "name": "isNF",
          "type": "bool"
        }
      ],
      "name": "createToken",
      "outputs": [
        {
          "internalType": "uint256",
          "name": "id_",
          "type": "uint256"
        }
      ],
      "stateMutability": "nonpayable",
      "type": "function"
    },
    {
      "inputs": [
        {
          "internalType": "address",
          "name": "account",
          "type": "address"
        },
        {
          "internalType": "uint256",
          "name": "id",
          "type": "uint256"
        }
      ],
      "name": "dividendClaim",
      "outputs": [],
      "stateMutability": "payable",
      "type": "function"
    },
    {
      "inputs": [
        {
          "internalType": "address",
          "name": "account",
          "type": "address"
        },
        {
          "internalType": "uint256",
          "name": "id",
          "type": "uint256"
        },
        {
          "internalType": "uint256",
          "name": "amount",
          "type": "uint256"
        }
      ],
      "name": "fungibleBurn",
      "outputs": [
        {
          "internalType": "bool",
          "name": "",
          "type": "bool"
        }
      ],
      "stateMutability": "nonpayable",
      "type": "function"
    },
    {
      "inputs": [
        {
          "internalType": "address",
          "name": "account",
          "type": "address"
        },
        {
          "internalType": "uint256",
          "name": "id",
          "type": "uint256"
        },
        {
          "internalType": "uint256",
          "name": "amount",
          "type": "uint256"
        },
        {
          "internalType": "bytes",
          "name": "data",
          "type": "bytes"
        }
      ],
      "name": "fungibleMint",
      "outputs": [
        {
          "internalType": "bool",
          "name": "",
          "type": "bool"
        }
      ],
      "stateMutability": "nonpayable",
      "type": "function"
    },
    {
      "inputs": [
        {
          "internalType": "uint256",
          "name": "id",
          "type": "uint256"
        }
      ],
      "name": "getNfOwner",
      "outputs": [
        {
          "internalType": "address",
          "name": "",
          "type": "address"
        }
      ],
      "stateMutability": "view",
      "type": "function"
    },
    {
      "inputs": [
        {
          "internalType": "address",
          "name": "account",
          "type": "address"
        },
        {
          "internalType": "address",
          "name": "operator",
          "type": "address"
        }
      ],
      "name": "isApprovedForAll",
      "outputs": [
        {
          "internalType": "bool",
          "name": "",
          "type": "bool"
        }
      ],
      "stateMutability": "view",
      "type": "function"
    },
    {
      "inputs": [
        {
          "internalType": "uint256",
          "name": "id",
          "type": "uint256"
        }
      ],
      "name": "isFungible",
      "outputs": [
        {
          "internalType": "bool",
          "name": "",
          "type": "bool"
        }
      ],
      "stateMutability": "pure",
      "type": "function"
    },
    {
      "inputs": [
        {
          "internalType": "uint256",
          "name": "id",
          "type": "uint256"
        }
      ],
      "name": "isNonFungible",
      "outputs": [
        {
          "internalType": "bool",
          "name": "",
          "type": "bool"
        }
      ],
      "stateMutability": "pure",
      "type": "function"
    },
    {
      "inputs": [
        {
          "internalType": "address",
          "name": "account",
          "type": "address"
        },
        {
          "internalType": "uint256",
          "name": "id",
          "type": "uint256"
        },
        {
          "internalType": "string",
          "name": "tokenURI",
          "type": "string"
        }
      ],
      "name": "nonFungibleMint",
      "outputs": [],
      "stateMutability": "nonpayable",
      "type": "function"
    },
    {
      "inputs": [
        {
          "internalType": "address",
          "name": "operator",
          "type": "address"
        },
        {
          "internalType": "address",
          "name": "from",
          "type": "address"
        },
        {
          "internalType": "uint256[]",
          "name": "ids",
          "type": "uint256[]"
        },
        {
          "internalType": "uint256[]",
          "name": "values",
          "type": "uint256[]"
        },
        {
          "internalType": "bytes",
          "name": "data",
          "type": "bytes"
        }
      ],
      "name": "onERC1155BatchReceived",
      "outputs": [
        {
          "internalType": "bytes4",
          "name": "",
          "type": "bytes4"
        }
      ],
      "stateMutability": "nonpayable",
      "type": "function"
    },
    {
      "inputs": [
        {
          "internalType": "address",
          "name": "operator",
          "type": "address"
        },
        {
          "internalType": "address",
          "name": "from",
          "type": "address"
        },
        {
          "internalType": "uint256",
          "name": "id",
          "type": "uint256"
        },
        {
          "internalType": "uint256",
          "name": "value",
          "type": "uint256"
        },
        {
          "internalType": "bytes",
          "name": "data",
          "type": "bytes"
        }
      ],
      "name": "onERC1155Received",
      "outputs": [
        {
          "internalType": "bytes4",
          "name": "",
          "type": "bytes4"
        }
      ],
      "stateMutability": "nonpayable",
      "type": "function"
    },
    {
      "inputs": [
        {
          "internalType": "uint256",
          "name": "id",
          "type": "uint256"
        }
      ],
      "name": "provideDividend",
      "outputs": [],
      "stateMutability": "payable",
      "type": "function"
    },
    {
      "inputs": [
        {
          "internalType": "address",
          "name": "from",
          "type": "address"
        },
        {
          "internalType": "address",
          "name": "to",
          "type": "address"
        },
        {
          "internalType": "uint256[]",
          "name": "ids",
          "type": "uint256[]"
        },
        {
          "internalType": "uint256[]",
          "name": "amounts",
          "type": "uint256[]"
        },
        {
          "internalType": "bytes",
          "name": "data",
          "type": "bytes"
        }
      ],
      "name": "safeBatchTransferFrom",
      "outputs": [],
      "stateMutability": "nonpayable",
      "type": "function"
    },
    {
      "inputs": [
        {
          "internalType": "address",
          "name": "from",
          "type": "address"
        },
        {
          "internalType": "address",
          "name": "to",
          "type": "address"
        },
        {
          "internalType": "uint256",
          "name": "id",
          "type": "uint256"
        },
        {
          "internalType": "uint256",
          "name": "amount",
          "type": "uint256"
        },
        {
          "internalType": "bytes",
          "name": "data",
          "type": "bytes"
        }
      ],
      "name": "safeTransferFrom",
      "outputs": [],
      "stateMutability": "nonpayable",
      "type": "function"
    },
    {
      "inputs": [
        {
          "internalType": "address",
          "name": "operator",
          "type": "address"
        },
        {
          "internalType": "bool",
          "name": "approved",
          "type": "bool"
        }
      ],
      "name": "setApprovalForAll",
      "outputs": [],
      "stateMutability": "nonpayable",
      "type": "function"
    },
    {
      "inputs": [
        {
          "internalType": "bytes4",
          "name": "interfaceId",
          "type": "bytes4"
        }
      ],
      "name": "supportsInterface",
      "outputs": [
        {
          "internalType": "bool",
          "name": "",
          "type": "bool"
        }
      ],
      "stateMutability": "view",
      "type": "function"
    },
    {
      "inputs": [
        {
          "internalType": "uint256",
          "name": "",
          "type": "uint256"
        }
      ],
      "name": "uri",
      "outputs": [
        {
          "internalType": "string",
          "name": "",
          "type": "string"
        }
      ],
      "stateMutability": "view",
      "type": "function"
    }
  ],
  "bytecode": "0x60806040523480156200001157600080fd5b5060405162002d6238038062002d62833981016040819052620000349162000144565b81620000408162000068565b50600380546001600160a01b0319166001600160a01b0392909216919091179055506200027b565b80516200007d90600290602084019062000081565b5050565b8280546200008f9062000228565b90600052602060002090601f016020900481019282620000b35760008555620000fe565b82601f10620000ce57805160ff1916838001178555620000fe565b82800160010185558215620000fe579182015b82811115620000fe578251825591602001919060010190620000e1565b506200010c92915062000110565b5090565b5b808211156200010c576000815560010162000111565b80516001600160a01b03811681146200013f57600080fd5b919050565b6000806040838503121562000157578182fd5b82516001600160401b03808211156200016e578384fd5b818501915085601f83011262000182578384fd5b81518181111562000197576200019762000265565b6040516020601f8301601f1916820181018481118382101715620001bf57620001bf62000265565b6040528282528483018101891015620001d6578687fd5b8693505b82841015620001f95784840181015182850182015292830192620001da565b828411156200020a57868184840101525b8196506200021a81890162000127565b955050505050509250929050565b6002810460018216806200023d57607f821691505b602082108114156200025f57634e487b7160e01b600052602260045260246000fd5b50919050565b634e487b7160e01b600052604160045260246000fd5b612ad7806200028b6000396000f3fe60806040526004361061013f5760003560e01c8063a22cb465116100b6578063e44591f01161006f578063e44591f01461039a578063e985e9c5146103ba578063f23a6e61146103da578063f242432a146103fa578063f5b5bfb91461041a578063fc67bf1c1461042d5761013f565b8063a22cb465146102e3578063adebf6f214610303578063b4a99a4e14610323578063bc197c8114610338578063d533da2a14610365578063e0a5c949146103855761013f565b80633fa9f7f3116101085780633fa9f7f3146102165780634e1273f4146102435780634fe7baf6146102705780635977e82a14610283578063717b7f36146102a357806398b4ad6f146102c35761013f565b8062fdd58e1461014457806301ffc9a71461017a5780630e89341c146101a75780632eb2c2d6146101d45780633a3aea10146101f6575b600080fd5b34801561015057600080fd5b5061016461015f366004611ecf565b610442565b604051610171919061288b565b60405180910390f35b34801561018657600080fd5b5061019a6101953660046120c6565b610499565b604051610171919061228a565b3480156101b357600080fd5b506101c76101c23660046120fe565b6104e1565b60405161017191906122aa565b3480156101e057600080fd5b506101f46101ef366004611d2a565b610575565b005b34801561020257600080fd5b506101646102113660046120ac565b6105d3565b34801561022257600080fd5b506102366102313660046120fe565b610669565b604051610171919061219b565b34801561024f57600080fd5b5061026361025e366004611fef565b610684565b6040516101719190612252565b6101f461027e366004611ecf565b6107a3565b34801561028f57600080fd5b5061016461029e3660046120fe565b610850565b3480156102af57600080fd5b5061019a6102be366004611f5f565b610862565b3480156102cf57600080fd5b506101f46102de366004611ef8565b61092f565b3480156102ef57600080fd5b506101f46102fe366004611ea6565b610a52565b34801561030f57600080fd5b5061019a61031e3660046120fe565b610b20565b34801561032f57600080fd5b50610236610b2a565b34801561034457600080fd5b50610358610353366004611c74565b610b3a565b6040516101719190612295565b34801561037157600080fd5b5061019a610380366004611f91565b610b4e565b34801561039157600080fd5b50610358610cb3565b3480156103a657600080fd5b5061019a6103b53660046120fe565b610cbe565b3480156103c657600080fd5b5061019a6103d5366004611c42565b610cca565b3480156103e657600080fd5b506103586103f5366004611dcf565b610cf8565b34801561040657600080fd5b506101f4610415366004611e44565b610d0a565b6101f46104283660046120fe565b610deb565b34801561043957600080fd5b50610358610f1b565b60006001600160a01b0383166104735760405162461bcd60e51b815260040161046a90612390565b60405180910390fd5b506000908152602081815260408083206001600160a01b03949094168352929052205490565b60006001600160e01b03198216636cdb3d1360e11b14806104ca57506001600160e01b031982166303a24d0760e21b145b806104d957506104d982610f26565b90505b919050565b6060600280546104f09061295c565b80601f016020809104026020016040519081016040528092919081815260200182805461051c9061295c565b80156105695780601f1061053e57610100808354040283529160200191610569565b820191906000526020600020905b81548152906001019060200180831161054c57829003601f168201915b50505050509050919050565b61057d610f3f565b6001600160a01b0316856001600160a01b031614806105a357506105a3856103d5610f3f565b6105bf5760405162461bcd60e51b815260040161046a906124ff565b6105cc8585858585610f43565b5050505050565b6003546000906001600160a01b031633146106005760405162461bcd60e51b815260040161046a90612359565b60046000815461060f90612997565b91829055509050811561062357600160ff1b175b336001600160a01b03167f3b268e028f2b1bf58c83796923f89d1e1d1fcd7d3e76ae07ac57c0ddce79e5018260405161065c919061288b565b60405180910390a2919050565b6000908152600560205260409020546001600160a01b031690565b606081518351146106a75760405162461bcd60e51b815260040161046a906127b9565b600083516001600160401b038111156106d057634e487b7160e01b600052604160045260246000fd5b6040519080825280602002602001820160405280156106f9578160200160208202803683370190505b50905060005b845181101561079b5761076085828151811061072b57634e487b7160e01b600052603260045260246000fd5b602002602001015185838151811061075357634e487b7160e01b600052603260045260246000fd5b6020026020010151610442565b82828151811061078057634e487b7160e01b600052603260045260246000fd5b602090810291909101015261079481612997565b90506106ff565b509392505050565b6107ac81610b20565b6107c85760405162461bcd60e51b815260040161046a906123db565b60008181526008602052604081206107e09084611114565b6000838152600860205260408120919250906107fc9083611130565b600085815260086020526040902090925061081991508583611183565b506040516001600160a01b0385169082156108fc029083906000818181858888f193505050501580156105cc573d6000803e3d6000fd5b600c6020526000908152604090205481565b60035460009083906001600160a01b031633148061089e5750600081815260066020908152604080832033845290915290205460ff1615156001145b6108ba5760405162461bcd60e51b815260040161046a90612359565b6108c384610b20565b6108df5760405162461bcd60e51b815260040161046a9061246d565b6108ea85858561122e565b6000848152600c602052604081208054859290610908908490612945565b90915550506000848152600760205260409020610926908685611183565b95945050505050565b60008281526005602052604090205482906001600160a01b0316156109665760405162461bcd60e51b815260040161046a9061269c565b60035483906001600160a01b031633148061099f5750600081815260066020908152604080832033845290915290205460ff1615156001145b6109bb5760405162461bcd60e51b815260040161046a90612359565b6109c484610cbe565b6109e05760405162461bcd60e51b815260040161046a906126d3565b6109ea848661133d565b6000848152600c6020908152604080832060019055600b82529091208451610a1492860190611a19565b5060405184906001600160a01b038716907f1c99a3094efa6e992469bc3c39571effd2c0bb7c5c0e6b4dfbe767b3d2da142c90600090a35050505050565b816001600160a01b0316610a64610f3f565b6001600160a01b03161415610a8b5760405162461bcd60e51b815260040161046a90612770565b8060016000610a98610f3f565b6001600160a01b03908116825260208083019390935260409182016000908120918716808252919093529120805460ff191692151592909217909155610adc610f3f565b6001600160a01b03167f17307eab39ab6107e8899845ad3d59bd9653f200f220920489ca2b5937696c3183604051610b14919061228a565b60405180910390a35050565b600160ff1b161590565b6003546001600160a01b03165b90565b63bc197c8160e01b98975050505050505050565b60035460009084906001600160a01b0316331480610b8a5750600081815260066020908152604080832033845290915290205460ff1615156001145b610ba65760405162461bcd60e51b815260040161046a90612359565b610baf85610b20565b610bcb5760405162461bcd60e51b815260040161046a90612599565b610bd7868686866113c1565b60008581526009602090815260408083206001600160a01b038a16845290915290205460ff1615610c45576000858152600c602052604081208054869290610c209084906128ee565b90915550506000858152600760205260409020610c3e9087866114b0565b9150610caa565b6000858152600c602052604081208054869290610c639084906128ee565b909155505060008581526009602090815260408083206001600160a01b038a1684528252808320805460ff1916600117905587835260079091529020610c3e908786611522565b50949350505050565b63f23a6e6160e01b81565b600160ff1b9081161490565b6001600160a01b03918216600090815260016020908152604080832093909416825291909152205460ff1690565b63f23a6e6160e01b9695505050505050565b610d12610f3f565b6001600160a01b0316856001600160a01b03161480610d385750610d38856103d5610f3f565b610d545760405162461bcd60e51b815260040161046a90612551565b610d5d83610b20565b15610da857610d6f8585858585611684565b6000838152600760205260409020610d88908684611183565b506000838152600760205260409020610da29085846114b0565b506105cc565b846001600160a01b0316610dbb84610669565b6001600160a01b031614610de15760405162461bcd60e51b815260040161046a90612673565b6105cc838561133d565b6003546001600160a01b03163314610e155760405162461bcd60e51b815260040161046a90612359565b610e1e81610b20565b610e3a5760405162461bcd60e51b815260040161046a90612720565b346000808060015b6000868152600760205260409020610e5a90826117b8565b15610edb576000868152600760205260409020610e779082611130565b6000888152600c60205260409020549195509350610ea2908690610e9c9086906117c3565b906117cf565b9150610ec884610eb3846064612926565b60008981526008602052604090209190611522565b50610ed46001826128ee565b9050610e42565b50847f37dc85b4c5675703b4cd256ce394429805a35dfb7927cb9752de79f9e8c6aa6685604051610f0c919061288b565b60405180910390a25050505050565b63bc197c8160e01b81565b6001600160e01b031981166301ffc9a760e01b14919050565b3390565b8151835114610f645760405162461bcd60e51b815260040161046a90612802565b6001600160a01b038416610f8a5760405162461bcd60e51b815260040161046a906124ba565b6000610f94610f3f565b9050610fa481878787878761110c565b60005b84518110156110a6576000858281518110610fd257634e487b7160e01b600052603260045260246000fd5b602002602001015190506000858381518110610ffe57634e487b7160e01b600052603260045260246000fd5b602090810291909101810151600084815280835260408082206001600160a01b038e16835290935291909120549091508181101561104e5760405162461bcd60e51b815260040161046a90612629565b6000838152602081815260408083206001600160a01b038e8116855292528083208585039055908b1682528120805484929061108b9084906128ee565b925050819055505050508061109f90612997565b9050610fa7565b50846001600160a01b0316866001600160a01b0316826001600160a01b03167f4a39dc06d4c0dbc64b70af90fd698a233a518aa5d07e595d983b8c0526c8f7fb87876040516110f6929190612265565b60405180910390a461110c8187878787876117db565b505050505050565b6001600160a01b03166000908152602091909152604090205490565b60008083600101838154811061115657634e487b7160e01b600052603260045260246000fd5b60009182526020808320909101546001600160a01b03168083529590526040902060010154939492505050565b6001600160a01b0382166000908152602084905260408120548080158015906111e657508560010182815481106111ca57634e487b7160e01b600052603260045260246000fd5b600091825260209091200154600160a01b900460ff1615156001145b15611220576111f58482612945565b6001600160a01b03861660009081526020889052604090206001908101919091559250611227915050565b6000925050505b9392505050565b6001600160a01b0383166112545760405162461bcd60e51b815260040161046a906125e6565b600061125e610f3f565b905061128e81856000611270876118e9565b611279876118e9565b6040518060200160405280600081525061110c565b6000838152602081815260408083206001600160a01b0388168452909152902054828110156112cf5760405162461bcd60e51b815260040161046a90612429565b6000848152602081815260408083206001600160a01b03808a16808652919093528184208786039055905190918516907fc3d58168c5ae7397731d063d5bbf3d657854427343f4c083240f7aacaa2d0f629061132e9089908990612894565b60405180910390a45050505050565b60035482906001600160a01b03163314806113765750600081815260066020908152604080832033845290915290205460ff1615156001145b6113925760405162461bcd60e51b815260040161046a90612359565b5060009182526005602052604090912080546001600160a01b0319166001600160a01b03909216919091179055565b6001600160a01b0384166113e75760405162461bcd60e51b815260040161046a9061284a565b60006113f1610f3f565b905061141281600087611403886118e9565b61140c886118e9565b8761110c565b6000848152602081815260408083206001600160a01b0389168452909152812080548592906114429084906128ee565b92505081905550846001600160a01b031660006001600160a01b0316826001600160a01b03167fc3d58168c5ae7397731d063d5bbf3d657854427343f4c083240f7aacaa2d0f628787604051611499929190612894565b60405180910390a46105cc81600087878787611942565b6001600160a01b03821660009081526020849052604081205480801580159061151357508560010182815481106114f757634e487b7160e01b600052603260045260246000fd5b600091825260209091200154600160a01b900460ff1615156001145b15611220576111f584826128ee565b6001600160a01b03821660009081526020849052604081205480151580611583575084600101818154811061156757634e487b7160e01b600052603260045260246000fd5b600091825260209091200154600160a01b900460ff1615156001145b15611592576000915050611227565b6001808601546115a1916128ee565b60018087018054820181556001600160a01b038716600090815260208990526040902083815590910185905580549192508591839081106115f257634e487b7160e01b600052603260045260246000fd5b600091825260209091200180546001600160a01b0319166001600160a01b0392909216919091179055600185810180548390811061164057634e487b7160e01b600052603260045260246000fd5b600091825260208220018054921515600160a01b0260ff60a01b19909316929092179091556002860180549161167583612997565b91905055506001915050611227565b6001600160a01b0384166116aa5760405162461bcd60e51b815260040161046a906124ba565b60006116b4610f3f565b90506116c5818787611403886118e9565b6000848152602081815260408083206001600160a01b038a168452909152902054838110156117065760405162461bcd60e51b815260040161046a90612629565b6000858152602081815260408083206001600160a01b038b81168552925280832087850390559088168252812080548692906117439084906128ee565b92505081905550856001600160a01b0316876001600160a01b0316836001600160a01b03167fc3d58168c5ae7397731d063d5bbf3d657854427343f4c083240f7aacaa2d0f628888604051611799929190612894565b60405180910390a46117af828888888888611942565b50505050505050565b600191909101541190565b60006112278284612906565b60006112278284612926565b6117ed846001600160a01b0316611a13565b1561110c5760405163bc197c8160e01b81526001600160a01b0385169063bc197c819061182690899089908890889088906004016121af565b602060405180830381600087803b15801561184057600080fd5b505af1925050508015611870575060408051601f3d908101601f1916820190925261186d918101906120e2565b60015b6118b95761187c6129e4565b8061188757506118a1565b8060405162461bcd60e51b815260040161046a91906122aa565b60405162461bcd60e51b815260040161046a906122bd565b6001600160e01b0319811663bc197c8160e01b146117af5760405162461bcd60e51b815260040161046a90612311565b6040805160018082528183019092526060916000919060208083019080368337019050509050828160008151811061193157634e487b7160e01b600052603260045260246000fd5b602090810291909101015292915050565b611954846001600160a01b0316611a13565b1561110c5760405163f23a6e6160e01b81526001600160a01b0385169063f23a6e619061198d908990899088908890889060040161220d565b602060405180830381600087803b1580156119a757600080fd5b505af19250505080156119d7575060408051601f3d908101601f191682019092526119d4918101906120e2565b60015b6119e35761187c6129e4565b6001600160e01b0319811663f23a6e6160e01b146117af5760405162461bcd60e51b815260040161046a90612311565b3b151590565b828054611a259061295c565b90600052602060002090601f016020900481019282611a475760008555611a8d565b82601f10611a6057805160ff1916838001178555611a8d565b82800160010185558215611a8d579182015b82811115611a8d578251825591602001919060010190611a72565b50611a99929150611a9d565b5090565b5b80821115611a995760008155600101611a9e565b60006001600160401b03831115611acb57611acb6129c8565b611ade601f8401601f19166020016128a2565b9050828152838383011115611af257600080fd5b828260208301376000602084830101529392505050565b80356001600160a01b03811681146104dc57600080fd5b60008083601f840112611b31578182fd5b5081356001600160401b03811115611b47578182fd5b6020830191508360208083028501011115611b6157600080fd5b9250929050565b600082601f830112611b78578081fd5b81356020611b8d611b88836128cb565b6128a2565b8281528181019085830183850287018401881015611ba9578586fd5b855b85811015611bc757813584529284019290840190600101611bab565b5090979650505050505050565b803580151581146104dc57600080fd5b60008083601f840112611bf5578182fd5b5081356001600160401b03811115611c0b578182fd5b602083019150836020828501011115611b6157600080fd5b600082601f830112611c33578081fd5b61122783833560208501611ab2565b60008060408385031215611c54578182fd5b611c5d83611b09565b9150611c6b60208401611b09565b90509250929050565b60008060008060008060008060a0898b031215611c8f578384fd5b611c9889611b09565b9750611ca660208a01611b09565b965060408901356001600160401b0380821115611cc1578586fd5b611ccd8c838d01611b20565b909850965060608b0135915080821115611ce5578586fd5b611cf18c838d01611b20565b909650945060808b0135915080821115611d09578384fd5b50611d168b828c01611be4565b999c989b5096995094979396929594505050565b600080600080600060a08688031215611d41578081fd5b611d4a86611b09565b9450611d5860208701611b09565b935060408601356001600160401b0380821115611d73578283fd5b611d7f89838a01611b68565b94506060880135915080821115611d94578283fd5b611da089838a01611b68565b93506080880135915080821115611db5578283fd5b50611dc288828901611c23565b9150509295509295909350565b60008060008060008060a08789031215611de7578182fd5b611df087611b09565b9550611dfe60208801611b09565b9450604087013593506060870135925060808701356001600160401b03811115611e26578283fd5b611e3289828a01611be4565b979a9699509497509295939492505050565b600080600080600060a08688031215611e5b578081fd5b611e6486611b09565b9450611e7260208701611b09565b9350604086013592506060860135915060808601356001600160401b03811115611e9a578182fd5b611dc288828901611c23565b60008060408385031215611eb8578182fd5b611ec183611b09565b9150611c6b60208401611bd4565b60008060408385031215611ee1578182fd5b611eea83611b09565b946020939093013593505050565b600080600060608486031215611f0c578081fd5b611f1584611b09565b92506020840135915060408401356001600160401b03811115611f36578182fd5b8401601f81018613611f46578182fd5b611f5586823560208401611ab2565b9150509250925092565b600080600060608486031215611f73578081fd5b611f7c84611b09565b95602085013595506040909401359392505050565b60008060008060808587031215611fa6578182fd5b611faf85611b09565b9350602085013592506040850135915060608501356001600160401b03811115611fd7578182fd5b611fe387828801611c23565b91505092959194509250565b60008060408385031215612001578182fd5b82356001600160401b0380821115612017578384fd5b818501915085601f83011261202a578384fd5b8135602061203a611b88836128cb565b82815281810190858301838502870184018b1015612056578889fd5b8896505b8487101561207f5761206b81611b09565b83526001969096019591830191830161205a565b5096505086013592505080821115612095578283fd5b506120a285828601611b68565b9150509250929050565b6000602082840312156120bd578081fd5b61122782611bd4565b6000602082840312156120d7578081fd5b813561122781612a88565b6000602082840312156120f3578081fd5b815161122781612a88565b60006020828403121561210f578081fd5b5035919050565b6000815180845260208085019450808401835b8381101561214557815187529582019590820190600101612129565b509495945050505050565b60008151808452815b8181101561217557602081850181015186830182015201612159565b818111156121865782602083870101525b50601f01601f19169290920160200192915050565b6001600160a01b0391909116815260200190565b6001600160a01b0386811682528516602082015260a0604082018190526000906121db90830186612116565b82810360608401526121ed8186612116565b905082810360808401526122018185612150565b98975050505050505050565b6001600160a01b03868116825285166020820152604081018490526060810183905260a06080820181905260009061224790830184612150565b979650505050505050565b6000602082526112276020830184612116565b6000604082526122786040830185612116565b82810360208401526109268185612116565b901515815260200190565b6001600160e01b031991909116815260200190565b6000602082526112276020830184612150565b60208082526034908201527f455243313135353a207472616e7366657220746f206e6f6e20455243313135356040820152732932b1b2b4bb32b91034b6b83632b6b2b73a32b960611b606082015260800190565b60208082526028908201527f455243313135353a204552433131353552656365697665722072656a656374656040820152676420746f6b656e7360c01b606082015260800190565b6020808252601f908201527f596f752063616e6e6f7420706572666f726d207468697320616374696f6e2e00604082015260600190565b6020808252602b908201527f455243313135353a2062616c616e636520717565727920666f7220746865207a60408201526a65726f206164647265737360a81b606082015260800190565b6020808252602e908201527f54524945445f544f5f434c41494d5f4449564944454e445f464f525f4e4f4e5f60408201526d232aa723a4a12622afaa27a5a2a760911b606082015260800190565b60208082526024908201527f455243313135353a206275726e20616d6f756e7420657863656564732062616c604082015263616e636560e01b606082015260800190565b6020808252602d908201527f54524945445f544f5f4255524e5f46554e4749424c455f464f525f4e4f4e5f4660408201526c2aa723a4a12622afaa27a5a2a760991b606082015260800190565b60208082526025908201527f455243313135353a207472616e7366657220746f20746865207a65726f206164604082015264647265737360d81b606082015260800190565b60208082526032908201527f455243313135353a207472616e736665722063616c6c6572206973206e6f74206040820152711bdddb995c881b9bdc88185c1c1c9bdd995960721b606082015260800190565b60208082526028908201527f455243313135353a2043414c4c45525f49535f4e4f545f4f574e45525f4f525f6040820152671054141493d5915160c21b606082015260800190565b6020808252602d908201527f54524945445f544f5f4d494e545f4e4f4e5f46554e4749424c455f464f525f4660408201526c2aa723a4a12622afaa27a5a2a760991b606082015260800190565b60208082526023908201527f455243313135353a206275726e2066726f6d20746865207a65726f206164647260408201526265737360e81b606082015260800190565b6020808252602a908201527f455243313135353a20696e73756666696369656e742062616c616e636520666f60408201526939103a3930b739b332b960b11b606082015260800190565b6020808252600f908201526e2bb937b7339027232a1037bbb732b960891b604082015260600190565b6020808252601e908201527f4e465420697320616c7265616479206f776e6564206279206f74686572730000604082015260600190565b6020808252602d908201527f54524945445f544f5f4d494e545f46554e4749424c455f464f525f4e4f4e5f4660408201526c2aa723a4a12622afaa27a5a2a760991b606082015260800190565b60208082526030908201527f54524945445f544f5f50524f564944455f4449564944454e445f464f525f4e4f60408201526f272fa32aa723a4a12622afaa27a5a2a760811b606082015260800190565b60208082526029908201527f455243313135353a2073657474696e6720617070726f76616c20737461747573604082015268103337b91039b2b63360b91b606082015260800190565b60208082526029908201527f455243313135353a206163636f756e747320616e6420696473206c656e677468604082015268040dad2e6dac2e8c6d60bb1b606082015260800190565b60208082526028908201527f455243313135353a2069647320616e6420616d6f756e7473206c656e677468206040820152670dad2e6dac2e8c6d60c31b606082015260800190565b60208082526021908201527f455243313135353a206d696e7420746f20746865207a65726f206164647265736040820152607360f81b606082015260800190565b90815260200190565b918252602082015260400190565b6040518181016001600160401b03811182821017156128c3576128c36129c8565b604052919050565b60006001600160401b038211156128e4576128e46129c8565b5060209081020190565b60008219821115612901576129016129b2565b500190565b60008261292157634e487b7160e01b81526012600452602481fd5b500490565b6000816000190483118215151615612940576129406129b2565b500290565b600082821015612957576129576129b2565b500390565b60028104600182168061297057607f821691505b6020821081141561299157634e487b7160e01b600052602260045260246000fd5b50919050565b60006000198214156129ab576129ab6129b2565b5060010190565b634e487b7160e01b600052601160045260246000fd5b634e487b7160e01b600052604160045260246000fd5b60e01c90565b600060443d10156129f457610b37565b600481823e6308c379a0612a0882516129de565b14612a1257610b37565b6040513d600319016004823e80513d6001600160401b038160248401118184111715612a415750505050610b37565b82840192508251915080821115612a5b5750505050610b37565b503d83016020828401011115612a7357505050610b37565b601f01601f1916810160200160405291505090565b6001600160e01b031981168114612a9e57600080fd5b5056fea2646970667358221220615f2095dca185d4b38f6f4fa73bb02b95151ff530e6889e6830f6c9942a34ca64736f6c63430008000033",
  "linkReferences": {},
  "deployedLinkReferences": {}
}