{
  "contractName": "Exchange",
  "abi": [
    {
      "inputs": [
        {
          "internalType": "address",
          "name": "tokenOneAddress",
          "type": "address"
        },
        {
          "internalType": "address",
          "name": "tokenTwoAddress",
          "type": "address"
        },
        {
          "internalType": "address",
          "name": "tokenOneOwner",
          "type": "address"
        },
        {
          "internalType": "address",
          "name": "tokenTwoOwner",
          "type": "address"
        },
        {
          "internalType": "uint256",
          "name": "tokenOneId",
          "type": "uint256"
        },
        {
          "internalType": "uint256",
          "name": "tokenTwoId",
          "type": "uint256"
        },
        {
          "internalType": "uint256",
          "name": "tokenOneAmount",
          "type": "uint256"
        },
        {
          "internalType": "uint256",
          "name": "tokenTwoAmount",
          "type": "uint256"
        },
        {
          "internalType": "bytes",
          "name": "data",
          "type": "bytes"
        }
      ],
      "name": "executeOrder",
      "outputs": [],
      "stateMutability": "nonpayable",
      "type": "function"
    }
  ],
  "bytecode": "0x608060405234801561001057600080fd5b506102a4806100206000396000f3fe608060405234801561001057600080fd5b506004361061002b5760003560e01c8063dc3eb47e14610030575b600080fd5b61004361003e36600461013d565b610045565b005b604051637921219560e11b81526001600160a01b038b169063f242432a9061007b908b908b908b908a9089908990600401610215565b600060405180830381600087803b15801561009557600080fd5b505af11580156100a9573d6000803e3d6000fd5b5050604051637921219560e11b81526001600160a01b038c16925063f242432a91506100e3908a908c908a90899089908990600401610215565b600060405180830381600087803b1580156100fd57600080fd5b505af1158015610111573d6000803e3d6000fd5b5050505050505050505050505050565b80356001600160a01b038116811461013857600080fd5b919050565b6000806000806000806000806000806101208b8d03121561015c578586fd5b6101658b610121565b995061017360208c01610121565b985061018160408c01610121565b975061018f60608c01610121565b965060808b0135955060a08b0135945060c08b0135935060e08b013592506101008b013567ffffffffffffffff808211156101c8578384fd5b818d0191508d601f8301126101db578384fd5b8135818111156101e9578485fd5b8e60208285010111156101fa578485fd5b6020830194508093505050509295989b9194979a5092959850565b6001600160a01b03878116825286166020820152604081018590526060810184905260a06080820181905281018290526000828460c084013781830160c090810191909152601f909201601f191601019594505050505056fea26469706673582212204c59b028622164a62d359c85c62a40ee02a589e6a06800c2749150c1ab7a999564736f6c63430008000033",
  "immutableReferences": {},
  "source": "pragma solidity 0.8.0;\n\nimport \"@openzeppelin/contracts/token/ERC1155/IERC1155.sol\";\n\ncontract Exchange{\n    \n    function executeOrder(address tokenOneAddress, address tokenTwoAddress, address tokenOneOwner, address tokenTwoOwner, \n                         uint256 tokenOneId, uint256 tokenTwoId, uint256 tokenOneAmount, uint256 tokenTwoAmount, bytes calldata data ) public {\n\n        // Execute `safeBatchTransferFrom` call\n        // Either succeeds or throws\n        IERC1155(tokenOneAddress).safeTransferFrom(\n            tokenOneOwner,\n            tokenTwoOwner,\n            tokenOneId,\n            tokenOneAmount,\n            data\n        );\n\n\n        // Execute `safeBatchTransferFrom` call\n        // Either succeeds or throws\n        IERC1155(tokenTwoAddress).safeTransferFrom(\n            tokenTwoOwner,\n            tokenOneOwner,\n            tokenTwoId,\n            tokenTwoAmount,\n            data\n        );        \n    }\n }",
  "sourcePath": "/home/teja/Documents/PRoject/browserbook/client/contracts/Exchange.sol",
  "compiler": {
    "name": "solc",
    "version": "0.8.0+commit.c7dfd78e.Emscripten.clang"
  },
  "schemaVersion": "3.1.0",
  "updatedAt": "2021-09-21T18:26:09.492Z",
  "devdoc": {
    "kind": "dev",
    "methods": {},
    "version": 1
  },
  "userdoc": {
    "kind": "user",
    "methods": {},
    "version": 1
  }
}