{
  "_format": "hh-sol-artifact-1",
  "contractName": "ERC20Proxy",
  "sourceName": "contracts/0x/proxies/ERC20Proxy.sol",
  "abi": [
    {
      "anonymous": false,
      "inputs": [
        {
          "indexed": true,
          "internalType": "address",
          "name": "target",
          "type": "address"
        },
        {
          "indexed": true,
          "internalType": "address",
          "name": "caller",
          "type": "address"
        }
      ],
      "name": "AuthorizedAddressAdded",
      "type": "event"
    },
    {
      "anonymous": false,
      "inputs": [
        {
          "indexed": true,
          "internalType": "address",
          "name": "target",
          "type": "address"
        },
        {
          "indexed": true,
          "internalType": "address",
          "name": "caller",
          "type": "address"
        }
      ],
      "name": "AuthorizedAddressRemoved",
      "type": "event"
    },
    {
      "anonymous": false,
      "inputs": [
        {
          "indexed": true,
          "internalType": "address",
          "name": "previousOwner",
          "type": "address"
        },
        {
          "indexed": true,
          "internalType": "address",
          "name": "newOwner",
          "type": "address"
        }
      ],
      "name": "OwnershipTransferred",
      "type": "event"
    },
    {
      "payable": false,
      "stateMutability": "nonpayable",
      "type": "fallback"
    },
    {
      "constant": false,
      "inputs": [
        {
          "internalType": "address",
          "name": "target",
          "type": "address"
        }
      ],
      "name": "addAuthorizedAddress",
      "outputs": [],
      "payable": false,
      "stateMutability": "nonpayable",
      "type": "function"
    },
    {
      "constant": true,
      "inputs": [
        {
          "internalType": "uint256",
          "name": "",
          "type": "uint256"
        }
      ],
      "name": "authorities",
      "outputs": [
        {
          "internalType": "address",
          "name": "",
          "type": "address"
        }
      ],
      "payable": false,
      "stateMutability": "view",
      "type": "function"
    },
    {
      "constant": true,
      "inputs": [
        {
          "internalType": "address",
          "name": "",
          "type": "address"
        }
      ],
      "name": "authorized",
      "outputs": [
        {
          "internalType": "bool",
          "name": "",
          "type": "bool"
        }
      ],
      "payable": false,
      "stateMutability": "view",
      "type": "function"
    },
    {
      "constant": true,
      "inputs": [],
      "name": "getAuthorizedAddresses",
      "outputs": [
        {
          "internalType": "address[]",
          "name": "",
          "type": "address[]"
        }
      ],
      "payable": false,
      "stateMutability": "view",
      "type": "function"
    },
    {
      "constant": true,
      "inputs": [],
      "name": "getProxyId",
      "outputs": [
        {
          "internalType": "bytes4",
          "name": "",
          "type": "bytes4"
        }
      ],
      "payable": false,
      "stateMutability": "pure",
      "type": "function"
    },
    {
      "constant": true,
      "inputs": [],
      "name": "owner",
      "outputs": [
        {
          "internalType": "address",
          "name": "",
          "type": "address"
        }
      ],
      "payable": false,
      "stateMutability": "view",
      "type": "function"
    },
    {
      "constant": false,
      "inputs": [
        {
          "internalType": "address",
          "name": "target",
          "type": "address"
        }
      ],
      "name": "removeAuthorizedAddress",
      "outputs": [],
      "payable": false,
      "stateMutability": "nonpayable",
      "type": "function"
    },
    {
      "constant": false,
      "inputs": [
        {
          "internalType": "address",
          "name": "target",
          "type": "address"
        },
        {
          "internalType": "uint256",
          "name": "index",
          "type": "uint256"
        }
      ],
      "name": "removeAuthorizedAddressAtIndex",
      "outputs": [],
      "payable": false,
      "stateMutability": "nonpayable",
      "type": "function"
    },
    {
      "constant": false,
      "inputs": [
        {
          "internalType": "address",
          "name": "newOwner",
          "type": "address"
        }
      ],
      "name": "transferOwnership",
      "outputs": [],
      "payable": false,
      "stateMutability": "nonpayable",
      "type": "function"
    }
  ],
  "bytecode": "0x6080604052600080546001600160a01b03191633179055610b35806100256000396000f3fe608060405234801561001057600080fd5b50600436106100a35760003560e01c80639ad2674411610076578063b91816111161005b578063b9181611146102d6578063d39de6e914610310578063f2fde38b14610368576100a3565b80639ad267441461026d578063ae25532e14610299576100a3565b806342f1181e146101de578063494503d414610206578063707129391461023f5780638da5cb5b14610265575b7fffffffff00000000000000000000000000000000000000000000000000000000600035167fa85e59e4000000000000000000000000000000000000000000000000000000008114156101d9576040805133815260016020820152908120546101445762461bcd60e51b600052600160e51b6020527c1553454e4445525f4e4f545f415554484f52495a454400000000000000604052600060605260646000fd5b602860043501357f23b872dd0000000000000000000000000000000000000000000000000000000060005260606024600437602060006064600080855af1600080511160203d14163d151781169050801561019b57005b62461bcd60e51b600052600160e51b6020527c0f5452414e534645525f4641494c454400000000000000000000000000604052600060605260646000fd5b600080fd5b610204600480360360208110156101f457600080fd5b50356001600160a01b031661038e565b005b6102236004803603602081101561021c57600080fd5b50356104ec565b604080516001600160a01b039092168252519081900360200190f35b6102046004803603602081101561025557600080fd5b50356001600160a01b0316610513565b6102236106fb565b6102046004803603604081101561028357600080fd5b506001600160a01b03813516906020013561070a565b6102a161097c565b604080517fffffffff000000000000000000000000000000000000000000000000000000009092168252519081900360200190f35b6102fc600480360360208110156102ec57600080fd5b50356001600160a01b03166109b2565b604080519115158252519081900360200190f35b6103186109c7565b60408051602080825283518183015283519192839290830191858101910280838360005b8381101561035457818101518382015260200161033c565b505050509050019250505060405180910390f35b6102046004803603602081101561037e57600080fd5b50356001600160a01b0316610a29565b6000546001600160a01b031633146103e3576040805162461bcd60e51b815260206004820152601360248201527227a7262cafa1a7a72a2920a1aa2fa7aba722a960691b604482015290519081900360640190fd5b6001600160a01b03811660009081526001602052604090205460ff1615610451576040805162461bcd60e51b815260206004820152601960248201527f5441524745545f414c52454144595f415554484f52495a454400000000000000604482015290519081900360640190fd5b6001600160a01b0381166000818152600160208190526040808320805460ff19168317905560028054928301815583527f405787fa12a823e0f2b7631cc41b3ba8828b3321ca811111fa75cd3aa3bb5ace909101805473ffffffffffffffffffffffffffffffffffffffff191684179055513392917f3147867c59d17e8fa9d522465651d44aae0a9e38f902f3475b97e58072f0ed4c91a350565b600281815481106104f957fe5b6000918252602090912001546001600160a01b0316905081565b6000546001600160a01b03163314610568576040805162461bcd60e51b815260206004820152601360248201527227a7262cafa1a7a72a2920a1aa2fa7aba722a960691b604482015290519081900360640190fd5b6001600160a01b03811660009081526001602052604090205460ff166105d5576040805162461bcd60e51b815260206004820152601560248201527f5441524745545f4e4f545f415554484f52495a45440000000000000000000000604482015290519081900360640190fd5b6001600160a01b0381166000908152600160205260408120805460ff191690555b6002548110156106c157816001600160a01b03166002828154811061061757fe5b6000918252602090912001546001600160a01b031614156106b95760028054600019810190811061064457fe5b600091825260209091200154600280546001600160a01b03909216918390811061066a57fe5b6000918252602090912001805473ffffffffffffffffffffffffffffffffffffffff19166001600160a01b03929092169190911790556002805460001901906106b39082610ab9565b506106c1565b6001016105f6565b5060405133906001600160a01b038316907f1f32c1b084e2de0713b8fb16bd46bb9df710a3dbeae2f3ca93af46e016dcc6b090600090a350565b6000546001600160a01b031681565b6000546001600160a01b0316331461075f576040805162461bcd60e51b815260206004820152601360248201527227a7262cafa1a7a72a2920a1aa2fa7aba722a960691b604482015290519081900360640190fd5b6001600160a01b03821660009081526001602052604090205460ff166107cc576040805162461bcd60e51b815260206004820152601560248201527f5441524745545f4e4f545f415554484f52495a45440000000000000000000000604482015290519081900360640190fd5b6002548110610822576040805162461bcd60e51b815260206004820152601360248201527f494e4445585f4f55545f4f465f424f554e445300000000000000000000000000604482015290519081900360640190fd5b816001600160a01b03166002828154811061083957fe5b6000918252602090912001546001600160a01b0316146108a0576040805162461bcd60e51b815260206004820152601b60248201527f415554484f52495a45445f414444524553535f4d49534d415443480000000000604482015290519081900360640190fd5b6001600160a01b0382166000908152600160205260409020805460ff191690556002805460001981019081106108d257fe5b600091825260209091200154600280546001600160a01b0390921691839081106108f857fe5b6000918252602090912001805473ffffffffffffffffffffffffffffffffffffffff19166001600160a01b03929092169190911790556002805460001901906109419082610ab9565b5060405133906001600160a01b038416907f1f32c1b084e2de0713b8fb16bd46bb9df710a3dbeae2f3ca93af46e016dcc6b090600090a35050565b604080517f4552433230546f6b656e28616464726573732900000000000000000000000000815290519081900360130190205b90565b60016020526000908152604090205460ff1681565b60606002805480602002602001604051908101604052809291908181526020018280548015610a1f57602002820191906000526020600020905b81546001600160a01b03168152600190910190602001808311610a01575b5050505050905090565b6000546001600160a01b03163314610a7e576040805162461bcd60e51b815260206004820152601360248201527227a7262cafa1a7a72a2920a1aa2fa7aba722a960691b604482015290519081900360640190fd5b6001600160a01b03811615610ab6576000805473ffffffffffffffffffffffffffffffffffffffff19166001600160a01b0383161790555b50565b815481835581811115610add57600083815260209020610add918101908301610ae2565b505050565b6109af91905b80821115610afc5760008155600101610ae8565b509056fea265627a7a7231582011553bbb0383c8b53b3ee9bfb20e3f4423b6953f235ff8c836bcbe0612b5d38264736f6c63430005110032",
  "linkReferences": {},
  "deployedLinkReferences": {}
}