{
  "contracts/0x/erc20/ZRXToken.sol": {
    "Token": {
      "abi": [
        {
          "anonymous": false,
          "inputs": [
            {
              "indexed": true,
              "internalType": "address",
              "name": "_owner",
              "type": "address"
            },
            {
              "indexed": true,
              "internalType": "address",
              "name": "_spender",
              "type": "address"
            },
            {
              "indexed": false,
              "internalType": "uint256",
              "name": "_value",
              "type": "uint256"
            }
          ],
          "name": "Approval",
          "type": "event"
        },
        {
          "anonymous": false,
          "inputs": [
            {
              "indexed": true,
              "internalType": "address",
              "name": "_from",
              "type": "address"
            },
            {
              "indexed": true,
              "internalType": "address",
              "name": "_to",
              "type": "address"
            },
            {
              "indexed": false,
              "internalType": "uint256",
              "name": "_value",
              "type": "uint256"
            }
          ],
          "name": "Transfer",
          "type": "event"
        },
        {
          "constant": true,
          "inputs": [
            {
              "internalType": "address",
              "name": "_owner",
              "type": "address"
            },
            {
              "internalType": "address",
              "name": "_spender",
              "type": "address"
            }
          ],
          "name": "allowance",
          "outputs": [
            {
              "internalType": "uint256",
              "name": "remaining",
              "type": "uint256"
            }
          ],
          "payable": false,
          "stateMutability": "view",
          "type": "function"
        },
        {
          "constant": false,
          "inputs": [
            {
              "internalType": "address",
              "name": "_spender",
              "type": "address"
            },
            {
              "internalType": "uint256",
              "name": "_value",
              "type": "uint256"
            }
          ],
          "name": "approve",
          "outputs": [
            {
              "internalType": "bool",
              "name": "success",
              "type": "bool"
            }
          ],
          "payable": false,
          "stateMutability": "nonpayable",
          "type": "function"
        },
        {
          "constant": true,
          "inputs": [
            {
              "internalType": "address",
              "name": "_owner",
              "type": "address"
            }
          ],
          "name": "balanceOf",
          "outputs": [
            {
              "internalType": "uint256",
              "name": "balance",
              "type": "uint256"
            }
          ],
          "payable": false,
          "stateMutability": "view",
          "type": "function"
        },
        {
          "constant": false,
          "inputs": [
            {
              "internalType": "address",
              "name": "_to",
              "type": "address"
            },
            {
              "internalType": "uint256",
              "name": "_value",
              "type": "uint256"
            }
          ],
          "name": "transfer",
          "outputs": [
            {
              "internalType": "bool",
              "name": "success",
              "type": "bool"
            }
          ],
          "payable": false,
          "stateMutability": "nonpayable",
          "type": "function"
        },
        {
          "constant": false,
          "inputs": [
            {
              "internalType": "address",
              "name": "_from",
              "type": "address"
            },
            {
              "internalType": "address",
              "name": "_to",
              "type": "address"
            },
            {
              "internalType": "uint256",
              "name": "_value",
              "type": "uint256"
            }
          ],
          "name": "transferFrom",
          "outputs": [
            {
              "internalType": "bool",
              "name": "success",
              "type": "bool"
            }
          ],
          "payable": false,
          "stateMutability": "nonpayable",
          "type": "function"
        }
      ],
      "devdoc": {
        "methods": {
          "allowance(address,address)": {
            "params": {
              "_owner": "The address of the account owning tokens",
              "_spender": "The address of the account able to transfer the tokens"
            },
            "return": "Amount of remaining tokens allowed to spent"
          },
          "approve(address,uint256)": {
            "params": {
              "_spender": "The address of the account able to transfer the tokens",
              "_value": "The amount of wei to be approved for transfer"
            },
            "return": "Whether the approval was successful or not"
          },
          "balanceOf(address)": {
            "params": {
              "_owner": "The address from which the balance will be retrieved"
            },
            "return": "The balance"
          },
          "transfer(address,uint256)": {
            "params": {
              "_to": "The address of the recipient",
              "_value": "The amount of token to be transferred"
            },
            "return": "Whether the transfer was successful or not"
          },
          "transferFrom(address,address,uint256)": {
            "params": {
              "_from": "The address of the sender",
              "_to": "The address of the recipient",
              "_value": "The amount of token to be transferred"
            },
            "return": "Whether the transfer was successful or not"
          }
        }
      },
      "evm": {
        "bytecode": {
          "linkReferences": {},
          "object": "608060405234801561001057600080fd5b506101c4806100206000396000f3fe608060405234801561001057600080fd5b50600436106100675760003560e01c806370a082311161005057806370a08231146100fc578063a9059cbb1461006c578063dd62ed3e1461014157610067565b8063095ea7b31461006c57806323b872dd146100b9575b600080fd5b6100a56004803603604081101561008257600080fd5b5073ffffffffffffffffffffffffffffffffffffffff8135169060200135610178565b604080519115158252519081900360200190f35b6100a5600480360360608110156100cf57600080fd5b5073ffffffffffffffffffffffffffffffffffffffff813581169160208101359091169060400135610180565b61012f6004803603602081101561011257600080fd5b503573ffffffffffffffffffffffffffffffffffffffff16610189565b60408051918252519081900360200190f35b61012f6004803603604081101561015757600080fd5b5073ffffffffffffffffffffffffffffffffffffffff813581169160200135165b600092915050565b60009392505050565b5060009056fea265627a7a72315820ffde1273f01a14df901e5414080c1fa7975f6ffe62cd1a5109eeec20fe371c1d64736f6c63430005110032",
          "opcodes": "PUSH1 0x80 PUSH1 0x40 MSTORE CALLVALUE DUP1 ISZERO PUSH2 0x10 JUMPI PUSH1 0x0 DUP1 REVERT JUMPDEST POP PUSH2 0x1C4 DUP1 PUSH2 0x20 PUSH1 0x0 CODECOPY PUSH1 0x0 RETURN INVALID PUSH1 0x80 PUSH1 0x40 MSTORE CALLVALUE DUP1 ISZERO PUSH2 0x10 JUMPI PUSH1 0x0 DUP1 REVERT JUMPDEST POP PUSH1 0x4 CALLDATASIZE LT PUSH2 0x67 JUMPI PUSH1 0x0 CALLDATALOAD PUSH1 0xE0 SHR DUP1 PUSH4 0x70A08231 GT PUSH2 0x50 JUMPI DUP1 PUSH4 0x70A08231 EQ PUSH2 0xFC JUMPI DUP1 PUSH4 0xA9059CBB EQ PUSH2 0x6C JUMPI DUP1 PUSH4 0xDD62ED3E EQ PUSH2 0x141 JUMPI PUSH2 0x67 JUMP JUMPDEST DUP1 PUSH4 0x95EA7B3 EQ PUSH2 0x6C JUMPI DUP1 PUSH4 0x23B872DD EQ PUSH2 0xB9 JUMPI JUMPDEST PUSH1 0x0 DUP1 REVERT JUMPDEST PUSH2 0xA5 PUSH1 0x4 DUP1 CALLDATASIZE SUB PUSH1 0x40 DUP2 LT ISZERO PUSH2 0x82 JUMPI PUSH1 0x0 DUP1 REVERT JUMPDEST POP PUSH20 0xFFFFFFFFFFFFFFFFFFFFFFFFFFFFFFFFFFFFFFFF DUP2 CALLDATALOAD AND SWAP1 PUSH1 0x20 ADD CALLDATALOAD PUSH2 0x178 JUMP JUMPDEST PUSH1 0x40 DUP1 MLOAD SWAP2 ISZERO ISZERO DUP3 MSTORE MLOAD SWAP1 DUP2 SWAP1 SUB PUSH1 0x20 ADD SWAP1 RETURN JUMPDEST PUSH2 0xA5 PUSH1 0x4 DUP1 CALLDATASIZE SUB PUSH1 0x60 DUP2 LT ISZERO PUSH2 0xCF JUMPI PUSH1 0x0 DUP1 REVERT JUMPDEST POP PUSH20 0xFFFFFFFFFFFFFFFFFFFFFFFFFFFFFFFFFFFFFFFF DUP2 CALLDATALOAD DUP2 AND SWAP2 PUSH1 0x20 DUP2 ADD CALLDATALOAD SWAP1 SWAP2 AND SWAP1 PUSH1 0x40 ADD CALLDATALOAD PUSH2 0x180 JUMP JUMPDEST PUSH2 0x12F PUSH1 0x4 DUP1 CALLDATASIZE SUB PUSH1 0x20 DUP2 LT ISZERO PUSH2 0x112 JUMPI PUSH1 0x0 DUP1 REVERT JUMPDEST POP CALLDATALOAD PUSH20 0xFFFFFFFFFFFFFFFFFFFFFFFFFFFFFFFFFFFFFFFF AND PUSH2 0x189 JUMP JUMPDEST PUSH1 0x40 DUP1 MLOAD SWAP2 DUP3 MSTORE MLOAD SWAP1 DUP2 SWAP1 SUB PUSH1 0x20 ADD SWAP1 RETURN JUMPDEST PUSH2 0x12F PUSH1 0x4 DUP1 CALLDATASIZE SUB PUSH1 0x40 DUP2 LT ISZERO PUSH2 0x157 JUMPI PUSH1 0x0 DUP1 REVERT JUMPDEST POP PUSH20 0xFFFFFFFFFFFFFFFFFFFFFFFFFFFFFFFFFFFFFFFF DUP2 CALLDATALOAD DUP2 AND SWAP2 PUSH1 0x20 ADD CALLDATALOAD AND JUMPDEST PUSH1 0x0 SWAP3 SWAP2 POP POP JUMP JUMPDEST PUSH1 0x0 SWAP4 SWAP3 POP POP POP JUMP JUMPDEST POP PUSH1 0x0 SWAP1 JUMP INVALID LOG2 PUSH6 0x627A7A723158 KECCAK256 SELFDESTRUCT 0xDE SLT PUSH20 0xF01A14DF901E5414080C1FA7975F6FFE62CD1A51 MULMOD 0xEE 0xEC KECCAK256 INVALID CALLDATACOPY SHR SAR PUSH5 0x736F6C6343 STOP SDIV GT STOP ORIGIN "
        },
        "gasEstimates": {
          "creation": {
            "codeDepositCost": "90400",
            "executionCost": "141",
            "totalCost": "90541"
          },
          "external": {
            "allowance(address,address)": "307",
            "approve(address,uint256)": "275",
            "balanceOf(address)": "248",
            "transfer(address,uint256)": "296",
            "transferFrom(address,address,uint256)": "326"
          }
        },
        "methodIdentifiers": {
          "allowance(address,address)": "dd62ed3e",
          "approve(address,uint256)": "095ea7b3",
          "balanceOf(address)": "70a08231",
          "transfer(address,uint256)": "a9059cbb",
          "transferFrom(address,address,uint256)": "23b872dd"
        }
      },
      "storageLayout": {
        "storage": [],
        "types": null
      },
      "userdoc": {
        "methods": {
          "approve(address,uint256)": {
            "notice": "`msg.sender` approves `_addr` to spend `_value` tokens"
          },
          "transfer(address,uint256)": {
            "notice": "send `_value` token to `_to` from `msg.sender`"
          },
          "transferFrom(address,address,uint256)": {
            "notice": "send `_value` token to `_to` from `_from` on the condition it is approved by `_from`"
          }
        }
      }
    }
  }
}