{
  "contracts/0x/MaximumGasPrice.sol": {
    "MaximumGasPrice": {
      "abi": [
        {
          "constant": true,
          "inputs": [],
          "name": "checkGasPrice",
          "outputs": [],
          "payable": false,
          "stateMutability": "view",
          "type": "function"
        },
        {
          "constant": true,
          "inputs": [
            {
              "internalType": "uint256",
              "name": "maxGasPrice",
              "type": "uint256"
            }
          ],
          "name": "checkGasPrice",
          "outputs": [],
          "payable": false,
          "stateMutability": "view",
          "type": "function"
        }
      ],
      "devdoc": {
        "methods": {
          "checkGasPrice()": {
            "details": "Checks that the current transaction's gas price is less than      the default maximum value of 20 Gwei."
          },
          "checkGasPrice(uint256)": {
            "details": "Checks that the current transaction's gas price is less than      the specified maximum value.",
            "params": {
              "maxGasPrice": "The maximum gas price allowed for the current transaction."
            }
          }
        }
      },
      "evm": {
        "bytecode": {
          "linkReferences": {},
          "object": "608060405234801561001057600080fd5b50610171806100206000396000f3fe608060405234801561001057600080fd5b50600436106100365760003560e01c8063d728f5b71461003b578063da5b166a14610045575b600080fd5b610043610062565b005b6100436004803603602081101561005b57600080fd5b50356100a8565b6404a817c8003a11156100a65760405162461bcd60e51b81526004018080602001828103825260298152602001806101146029913960400191505060405180910390fd5b565b803a11156100e75760405162461bcd60e51b81526004018080602001828103825260298152602001806100eb6029913960400191505060405180910390fd5b5056fe4d6178696d756d47617350726963652f4741535f50524943455f455843454544535f4d4158494d554d4d6178696d756d47617350726963652f4741535f50524943455f455843454544535f32305f47574549a265627a7a72315820aae87c3146c047a8b4b9d50a69cbec6a2016d8e1d48026e9a4a98676a9e1c8cf64736f6c63430005110032",
          "opcodes": "PUSH1 0x80 PUSH1 0x40 MSTORE CALLVALUE DUP1 ISZERO PUSH2 0x10 JUMPI PUSH1 0x0 DUP1 REVERT JUMPDEST POP PUSH2 0x171 DUP1 PUSH2 0x20 PUSH1 0x0 CODECOPY PUSH1 0x0 RETURN INVALID PUSH1 0x80 PUSH1 0x40 MSTORE CALLVALUE DUP1 ISZERO PUSH2 0x10 JUMPI PUSH1 0x0 DUP1 REVERT JUMPDEST POP PUSH1 0x4 CALLDATASIZE LT PUSH2 0x36 JUMPI PUSH1 0x0 CALLDATALOAD PUSH1 0xE0 SHR DUP1 PUSH4 0xD728F5B7 EQ PUSH2 0x3B JUMPI DUP1 PUSH4 0xDA5B166A EQ PUSH2 0x45 JUMPI JUMPDEST PUSH1 0x0 DUP1 REVERT JUMPDEST PUSH2 0x43 PUSH2 0x62 JUMP JUMPDEST STOP JUMPDEST PUSH2 0x43 PUSH1 0x4 DUP1 CALLDATASIZE SUB PUSH1 0x20 DUP2 LT ISZERO PUSH2 0x5B JUMPI PUSH1 0x0 DUP1 REVERT JUMPDEST POP CALLDATALOAD PUSH2 0xA8 JUMP JUMPDEST PUSH5 0x4A817C800 GASPRICE GT ISZERO PUSH2 0xA6 JUMPI PUSH1 0x40 MLOAD PUSH3 0x461BCD PUSH1 0xE5 SHL DUP2 MSTORE PUSH1 0x4 ADD DUP1 DUP1 PUSH1 0x20 ADD DUP3 DUP2 SUB DUP3 MSTORE PUSH1 0x29 DUP2 MSTORE PUSH1 0x20 ADD DUP1 PUSH2 0x114 PUSH1 0x29 SWAP2 CODECOPY PUSH1 0x40 ADD SWAP2 POP POP PUSH1 0x40 MLOAD DUP1 SWAP2 SUB SWAP1 REVERT JUMPDEST JUMP JUMPDEST DUP1 GASPRICE GT ISZERO PUSH2 0xE7 JUMPI PUSH1 0x40 MLOAD PUSH3 0x461BCD PUSH1 0xE5 SHL DUP2 MSTORE PUSH1 0x4 ADD DUP1 DUP1 PUSH1 0x20 ADD DUP3 DUP2 SUB DUP3 MSTORE PUSH1 0x29 DUP2 MSTORE PUSH1 0x20 ADD DUP1 PUSH2 0xEB PUSH1 0x29 SWAP2 CODECOPY PUSH1 0x40 ADD SWAP2 POP POP PUSH1 0x40 MLOAD DUP1 SWAP2 SUB SWAP1 REVERT JUMPDEST POP JUMP INVALID 0x4D PUSH2 0x7869 PUSH14 0x756D47617350726963652F474153 0x5F POP MSTORE 0x49 NUMBER GASLIMIT 0x5F GASLIMIT PC NUMBER GASLIMIT GASLIMIT DIFFICULTY MSTORE8 0x5F 0x4D COINBASE PC 0x49 0x4D SSTORE 0x4D 0x4D PUSH2 0x7869 PUSH14 0x756D47617350726963652F474153 0x5F POP MSTORE 0x49 NUMBER GASLIMIT 0x5F GASLIMIT PC NUMBER GASLIMIT GASLIMIT DIFFICULTY MSTORE8 0x5F ORIGIN ADDRESS 0x5F SELFBALANCE JUMPI GASLIMIT 0x49 LOG2 PUSH6 0x627A7A723158 KECCAK256 0xAA 0xE8 PUSH29 0x3146C047A8B4B9D50A69CBEC6A2016D8E1D48026E9A4A98676A9E1C8CF PUSH5 0x736F6C6343 STOP SDIV GT STOP ORIGIN "
        },
        "gasEstimates": {
          "creation": {
            "codeDepositCost": "73800",
            "executionCost": "123",
            "totalCost": "73923"
          },
          "external": {
            "checkGasPrice()": "infinite",
            "checkGasPrice(uint256)": "infinite"
          }
        },
        "methodIdentifiers": {
          "checkGasPrice()": "d728f5b7",
          "checkGasPrice(uint256)": "da5b166a"
        }
      },
      "storageLayout": {
        "storage": [],
        "types": null
      },
      "userdoc": {
        "methods": {}
      }
    }
  }
}