{
  "_format": "hh-sol-artifact-1",
  "contractName": "LibTransactionDecoder",
  "sourceName": "contracts/0x/dev-utils/LibTransactionDecoder.sol",
  "abi": [
    {
      "constant": true,
      "inputs": [
        {
          "internalType": "bytes",
          "name": "transactionData",
          "type": "bytes"
        }
      ],
      "name": "decodeZeroExTransactionData",
      "outputs": [
        {
          "internalType": "string",
          "name": "functionName",
          "type": "string"
        },
        {
          "components": [
            {
              "internalType": "address",
              "name": "makerAddress",
              "type": "address"
            },
            {
              "internalType": "address",
              "name": "takerAddress",
              "type": "address"
            },
            {
              "internalType": "address",
              "name": "feeRecipientAddress",
              "type": "address"
            },
            {
              "internalType": "address",
              "name": "senderAddress",
              "type": "address"
            },
            {
              "internalType": "uint256",
              "name": "makerAssetAmount",
              "type": "uint256"
            },
            {
              "internalType": "uint256",
              "name": "takerAssetAmount",
              "type": "uint256"
            },
            {
              "internalType": "uint256",
              "name": "makerFee",
              "type": "uint256"
            },
            {
              "internalType": "uint256",
              "name": "takerFee",
              "type": "uint256"
            },
            {
              "internalType": "uint256",
              "name": "expirationTimeSeconds",
              "type": "uint256"
            },
            {
              "internalType": "uint256",
              "name": "salt",
              "type": "uint256"
            },
            {
              "internalType": "bytes",
              "name": "makerAssetData",
              "type": "bytes"
            },
            {
              "internalType": "bytes",
              "name": "takerAssetData",
              "type": "bytes"
            },
            {
              "internalType": "bytes",
              "name": "makerFeeAssetData",
              "type": "bytes"
            },
            {
              "internalType": "bytes",
              "name": "takerFeeAssetData",
              "type": "bytes"
            }
          ],
          "internalType": "struct LibOrder.Order[]",
          "name": "orders",
          "type": "tuple[]"
        },
        {
          "internalType": "uint256[]",
          "name": "takerAssetFillAmounts",
          "type": "uint256[]"
        },
        {
          "internalType": "bytes[]",
          "name": "signatures",
          "type": "bytes[]"
        }
      ],
      "payable": false,
      "stateMutability": "pure",
      "type": "function"
    }
  ],
  "bytecode": "0x6118ef610026600b82828239805160001a60731461001957fe5b30600052607381538281f3fe73000000000000000000000000000000000000000030146080604052600436106100355760003560e01c80636f83188e1461003a575b600080fd5b61004d6100483660046111f5565b610066565b60405161005d9493929190611713565b60405180910390f35b6060808080600061007d868263ffffffff61092416565b90506001600160e01b0319811663dedfc1f160e01b14156100d5576040518060400160405280601181526020017f626174636843616e63656c4f72646572730000000000000000000000000000008152509450610526565b6001600160e01b03198116634b4a520160e11b141561012b576040518060400160405280600f81526020017f626174636846696c6c4f726465727300000000000000000000000000000000008152509450610526565b6001600160e01b031981166323aa37f960e21b1415610181576040518060400160405280601681526020017f626174636846696c6c4f72646572734e6f5468726f77000000000000000000008152509450610526565b6001600160e01b03198116632fbb8b8560e21b14156101d7576040518060400160405280601581526020017f626174636846696c6c4f724b696c6c4f726465727300000000000000000000008152509450610526565b6001600160e01b03198116632da6298760e01b141561022d576040518060400160405280600b81526020017f63616e63656c4f726465720000000000000000000000000000000000000000008152509450610526565b6001600160e01b03198116634da26aab60e11b1415610283576040518060400160405280600981526020017f66696c6c4f7264657200000000000000000000000000000000000000000000008152509450610526565b6001600160e01b03198116633852d63160e21b14156102d9576040518060400160405280600f81526020017f66696c6c4f724b696c6c4f7264657200000000000000000000000000000000008152509450610526565b6001600160e01b031981166378d29ac160e01b141561032f576040518060400160405280601681526020017f6d61726b65744275794f72646572734e6f5468726f77000000000000000000008152509450610526565b6001600160e01b0319811663369da09960e01b1415610385576040518060400160405280601781526020017f6d61726b657453656c6c4f72646572734e6f5468726f770000000000000000008152509450610526565b6001600160e01b03198116638bc8efb360e01b14156103db576040518060400160405280601981526020017f6d61726b65744275794f726465727346696c6c4f724b696c6c000000000000008152509450610526565b6001600160e01b0319811663a6c3bf3360e01b1415610431576040518060400160405280601a81526020017f6d61726b657453656c6c4f726465727346696c6c4f724b696c6c0000000000008152509450610526565b6001600160e01b031981166388ec79fb60e01b1415610487576040518060400160405280600b81526020017f6d617463684f72646572730000000000000000000000000000000000000000008152509450610526565b6001600160e01b031981167f4f9559b10000000000000000000000000000000000000000000000000000000014806104e857506001600160e01b031981167f2280c91000000000000000000000000000000000000000000000000000000000145b1561050e5760405162461bcd60e51b81526004016105059061177a565b60405180910390fd5b60405162461bcd60e51b81526004016105059061176a565b6001600160e01b0319811663dedfc1f160e01b14156105b257855161055590879060049063ffffffff61096716565b80602001905161056891908101906110db565b604080516000808252602082019092529195505b50604080516000808252602082019092529194506105aa565b60608152602001906001900390816105955790505b50915061091c565b6001600160e01b03198116632fbb8b8560e21b14806105e157506001600160e01b03198116634b4a520160e11b145b806105fc57506001600160e01b031981166323aa37f960e21b145b156106165761060a866109ee565b9195509350915061091c565b6001600160e01b03198116632da6298760e01b14156106e55760408051600180825281830190925290816020015b61064c610cbf565b815260200190600190039081610644575050865190945061067790879060049063ffffffff61096716565b80602001905161068a919081019061122a565b8460008151811061069757fe5b6020026020010181905250600060405190808252806020026020018201604052801561057c5781602001602082028038833901905050604080516000808252602082019092529194506105aa565b6001600160e01b03198116633852d63160e21b148061071457506001600160e01b03198116634da26aab60e11b145b156107225761060a86610a2a565b6001600160e01b031981166378d29ac160e01b148061075157506001600160e01b0319811663369da09960e01b145b8061076c57506001600160e01b03198116638bc8efb360e01b145b8061078757506001600160e01b0319811663a6c3bf3360e01b145b156107955761060a86610b24565b6001600160e01b031981166388ec79fb60e01b141561091c576107b6610cbf565b6107be610cbf565b6060806107d860048b518c6109679092919063ffffffff16565b8060200190516107eb919081019061125f565b604080516002808252606082019092529498509296509094509250816020015b610813610cbf565b81526020019060019003908161080b579050509750838860008151811061083657fe5b6020026020010181905250828860018151811061084f57fe5b602090810291909101015260408051600280825260608201909252908160200160208202803883390190505096508360a001518760008151811061088f57fe5b6020026020010181815250508260a00151876001815181106108ad57fe5b60209081029190910101526040805160028082526060820190925290816020015b60608152602001906001900390816108ce57905050955081866000815181106108f357fe5b6020026020010181905250808660018151811061090c57fe5b6020026020010181905250505050505b509193509193565b6000816004018351101561094a5761094a6109456003855185600401610b98565b610c07565b5060208183018101519101906001600160e01b0319165b92915050565b6060818311156109805761098061094560008585610b98565b8351821115610999576109996109456001848751610b98565b8282036040519080825280601f01601f1916602001820160405280156109c6576020820181803883390190505b5090506109e76109d582610c0f565b846109df87610c0f565b018351610c19565b9392505050565b6060806060610a0a60048551866109679092919063ffffffff16565b806020019051610a1d9190810190611118565b9196909550909350915050565b60408051600180825281830190925260609182918291816020015b610a4d610cbf565b815260200190600190039081610a455750506040805160018082528183019092529194506020808301908038833901905050604080516001808252818301909252919350816020015b6060815260200190600190039081610a965750508451909150610ac390859060049063ffffffff61096716565b806020019051610ad6919081019061131f565b85600081518110610ae357fe5b6020026020010185600081518110610af757fe5b6020026020010185600081518110610b0b57fe5b6020908102919091010192909252919052529193909250565b604080516001808252818301909252606091829182916020808301908038833950508551919350610b609186915060049063ffffffff61096716565b806020019051610b7391908101906111ac565b84518590600090610b8057fe5b60209081029190910101919091529095929450925050565b6060632800659560e01b848484604051602401610bb7939291906116eb565b60408051601f198184030181529190526020810180517bffffffffffffffffffffffffffffffffffffffffffffffffffffffff166001600160e01b03199093169290921790915290509392505050565b805160208201fd5b602081015b919050565b6020811015610c43576001816020036101000a038019835116818551168082178652505050610cba565b82821415610c5057610cba565b82821115610c8a5760208103905080820181840181515b82851015610c82578451865260209586019590940193610c67565b905250610cba565b60208103905080820181840183515b81861215610cb55782518252601f199283019290910190610c99565b855250505b505050565b604051806101c0016040528060006001600160a01b0316815260200160006001600160a01b0316815260200160006001600160a01b0316815260200160006001600160a01b03168152602001600081526020016000815260200160008152602001600081526020016000815260200160008152602001606081526020016060815260200160608152602001606081525090565b80516109618161188f565b600082601f830112610d6e57600080fd5b8151610d81610d7c826117b1565b61178a565b81815260209384019390925082018360005b83811015610dbf5781518601610da98882610e96565b8452506020928301929190910190600101610d93565b5050505092915050565b600082601f830112610dda57600080fd5b8151610de8610d7c826117b1565b81815260209384019390925082018360005b83811015610dbf5781518601610e108882610f2b565b8452506020928301929190910190600101610dfa565b600082601f830112610e3757600080fd5b8151610e45610d7c826117b1565b91508181835260208401935060208101905083856020840282011115610e6a57600080fd5b60005b83811015610dbf5781610e8088826110d0565b8452506020928301929190910190600101610e6d565b600082601f830112610ea757600080fd5b8151610eb5610d7c826117d2565b91508082526020830160208301858383011115610ed157600080fd5b610edc838284611848565b50505092915050565b600082601f830112610ef657600080fd5b8135610f04610d7c826117d2565b91508082526020830160208301858383011115610f2057600080fd5b610edc83828461183c565b60006101c08284031215610f3e57600080fd5b610f496101c061178a565b90506000610f578484610d52565b8252506020610f6884848301610d52565b6020830152506040610f7c84828501610d52565b6040830152506060610f9084828501610d52565b6060830152506080610fa4848285016110d0565b60808301525060a0610fb8848285016110d0565b60a08301525060c0610fcc848285016110d0565b60c08301525060e0610fe0848285016110d0565b60e083015250610100610ff5848285016110d0565b6101008301525061012061100b848285016110d0565b6101208301525061014082015167ffffffffffffffff81111561102d57600080fd5b61103984828501610e96565b6101408301525061016082015167ffffffffffffffff81111561105b57600080fd5b61106784828501610e96565b6101608301525061018082015167ffffffffffffffff81111561108957600080fd5b61109584828501610e96565b610180830152506101a082015167ffffffffffffffff8111156110b757600080fd5b6110c384828501610e96565b6101a08301525092915050565b8051610961816118a3565b6000602082840312156110ed57600080fd5b815167ffffffffffffffff81111561110457600080fd5b61111084828501610dc9565b949350505050565b60008060006060848603121561112d57600080fd5b835167ffffffffffffffff81111561114457600080fd5b61115086828701610dc9565b935050602084015167ffffffffffffffff81111561116d57600080fd5b61117986828701610e26565b925050604084015167ffffffffffffffff81111561119657600080fd5b6111a286828701610d5d565b9150509250925092565b6000806000606084860312156111c157600080fd5b835167ffffffffffffffff8111156111d857600080fd5b6111e486828701610dc9565b9350506020611179868287016110d0565b60006020828403121561120757600080fd5b813567ffffffffffffffff81111561121e57600080fd5b61111084828501610ee5565b60006020828403121561123c57600080fd5b815167ffffffffffffffff81111561125357600080fd5b61111084828501610f2b565b6000806000806080858703121561127557600080fd5b845167ffffffffffffffff81111561128c57600080fd5b61129887828801610f2b565b945050602085015167ffffffffffffffff8111156112b557600080fd5b6112c187828801610f2b565b935050604085015167ffffffffffffffff8111156112de57600080fd5b6112ea87828801610e96565b925050606085015167ffffffffffffffff81111561130757600080fd5b61131387828801610e96565b91505092959194509250565b60008060006060848603121561133457600080fd5b835167ffffffffffffffff81111561134b57600080fd5b61135786828701610f2b565b9350506020611368868287016110d0565b925050604084015167ffffffffffffffff81111561138557600080fd5b6111a286828701610e96565b60006109e783836114f4565b60006109e783836115a7565b60006113b583836116e2565b505060200190565b6113c68161180d565b82525050565b60006113d782611800565b6113e18185611804565b9350836020820285016113f3856117fa565b8060005b8581101561142d57848403895281516114108582611391565b945061141b836117fa565b60209a909a01999250506001016113f7565b5091979650505050505050565b600061144582611800565b61144f8185611804565b935083602082028501611461856117fa565b8060005b8581101561142d578484038952815161147e858261139d565b9450611489836117fa565b60209a909a0199925050600101611465565b60006114a682611800565b6114b08185611804565b93506114bb836117fa565b8060005b838110156114e95781516114d388826113a9565b97506114de836117fa565b9250506001016114bf565b509495945050505050565b60006114ff82611800565b6115098185611804565b9350611519818560208601611848565b61152281611878565b9093019392505050565b6113c681611831565b6000611542601983611804565b7f554e4b4e4f574e5f46554e4354494f4e5f53454c4543544f5200000000000000815260200192915050565b600061157b600d83611804565b7f554e494d504c454d454e54454400000000000000000000000000000000000000815260200192915050565b80516000906101c08401906115bc85826113bd565b5060208301516115cf60208601826113bd565b5060408301516115e260408601826113bd565b5060608301516115f560608601826113bd565b50608083015161160860808601826116e2565b5060a083015161161b60a08601826116e2565b5060c083015161162e60c08601826116e2565b5060e083015161164160e08601826116e2565b506101008301516116566101008601826116e2565b5061012083015161166b6101208601826116e2565b5061014083015184820361014086015261168582826114f4565b9150506101608301518482036101608601526116a182826114f4565b9150506101808301518482036101808601526116bd82826114f4565b9150506101a08301518482036101a08601526116d982826114f4565b95945050505050565b6113c68161182e565b606081016116f9828661152c565b61170660208301856116e2565b61111060408301846116e2565b6080808252810161172481876114f4565b90508181036020830152611738818661143a565b9050818103604083015261174c818561149b565b9050818103606083015261176081846113cc565b9695505050505050565b6020808252810161096181611535565b602080825281016109618161156e565b60405181810167ffffffffffffffff811182821017156117a957600080fd5b604052919050565b600067ffffffffffffffff8211156117c857600080fd5b5060209081020190565b600067ffffffffffffffff8211156117e957600080fd5b506020601f91909101601f19160190565b60200190565b5190565b90815260200190565b600061096182611822565b80610c1481611882565b6001600160a01b031690565b90565b600061096182611818565b82818337506000910152565b60005b8381101561186357818101518382015260200161184b565b83811115611872576000848401525b50505050565b601f01601f191690565b6008811061188c57fe5b50565b6118988161180d565b811461188c57600080fd5b6118988161182e56fea365627a7a72315820b236f713bea6e086ab9ab4a0336701d6167672b10b56859d6f5d72cd089e24316c6578706572696d656e74616cf564736f6c63430005110040",
  "linkReferences": {},
  "deployedLinkReferences": {}
}