{
  "_format": "hh-sol-artifact-1",
  "contractName": "MixinAssetProxyDispatcher",
  "sourceName": "contracts/0x/exchange/MixinAssetProxyDispatcher.sol",
  "abi": [
    {
      "anonymous": false,
      "inputs": [
        {
          "indexed": false,
          "internalType": "bytes4",
          "name": "id",
          "type": "bytes4"
        },
        {
          "indexed": false,
          "internalType": "address",
          "name": "assetProxy",
          "type": "address"
        }
      ],
      "name": "AssetProxyRegistered",
      "type": "event"
    },
    {
      "anonymous": false,
      "inputs": [
        {
          "indexed": true,
          "internalType": "address",
          "name": "previousOwner",
          "type": "address"
        },
        {
          "indexed": true,
          "internalType": "address",
          "name": "newOwner",
          "type": "address"
        }
      ],
      "name": "OwnershipTransferred",
      "type": "event"
    },
    {
      "constant": true,
      "inputs": [
        {
          "internalType": "bytes4",
          "name": "assetProxyId",
          "type": "bytes4"
        }
      ],
      "name": "getAssetProxy",
      "outputs": [
        {
          "internalType": "address",
          "name": "assetProxy",
          "type": "address"
        }
      ],
      "payable": false,
      "stateMutability": "view",
      "type": "function"
    },
    {
      "constant": true,
      "inputs": [],
      "name": "owner",
      "outputs": [
        {
          "internalType": "address",
          "name": "",
          "type": "address"
        }
      ],
      "payable": false,
      "stateMutability": "view",
      "type": "function"
    },
    {
      "constant": false,
      "inputs": [
        {
          "internalType": "address",
          "name": "assetProxy",
          "type": "address"
        }
      ],
      "name": "registerAssetProxy",
      "outputs": [],
      "payable": false,
      "stateMutability": "nonpayable",
      "type": "function"
    },
    {
      "constant": false,
      "inputs": [
        {
          "internalType": "address",
          "name": "newOwner",
          "type": "address"
        }
      ],
      "name": "transferOwnership",
      "outputs": [],
      "payable": false,
      "stateMutability": "nonpayable",
      "type": "function"
    }
  ],
  "bytecode": "0x6080604052600080546001600160a01b03191633179055610473806100256000396000f3fe608060405234801561001057600080fd5b506004361061004c5760003560e01c806360704108146100515780638da5cb5b14610094578063c585bb931461009c578063f2fde38b146100c4575b600080fd5b6100786004803603602081101561006757600080fd5b50356001600160e01b0319166100ea565b604080516001600160a01b039092168252519081900360200190f35b61007861010f565b6100c2600480360360208110156100b257600080fd5b50356001600160a01b031661011e565b005b6100c2600480360360208110156100da57600080fd5b50356001600160a01b031661024b565b6001600160e01b0319166000908152600160205260409020546001600160a01b031690565b6000546001600160a01b031681565b6101266102ca565b6000816001600160a01b031663ae25532e6040518163ffffffff1660e01b815260040160206040518083038186803b15801561016157600080fd5b505afa158015610175573d6000803e3d6000fd5b505050506040513d602081101561018b57600080fd5b50516001600160e01b031981166000908152600160205260409020549091506001600160a01b031680156101cb576101cb6101c683836102f9565b610380565b6001600160e01b03198216600081815260016020908152604091829020805473ffffffffffffffffffffffffffffffffffffffff19166001600160a01b03881690811790915582519384529083015280517fd2c6b762299c609bdb96520b58a49bfb80186934d4f71a86a367571a15c031949281900390910190a1505050565b6102536102ca565b6001600160a01b0381166102715761026c6101c6610388565b6102c7565b6000805473ffffffffffffffffffffffffffffffffffffffff19166001600160a01b0383169081178255604051909133917f8be0079c531659141344cd1fd0a4f28419497f9722a3daafe3b4186f6b6457e09190a35b50565b6000546001600160a01b031633146102f7576000546102f7906101c69033906001600160a01b03166103bf565b565b604080516001600160e01b0319841660248201526001600160a01b0383166044808301919091528251808303909101815260649091019091526020810180517bffffffffffffffffffffffffffffffffffffffffffffffffffffffff167f11c7b7200000000000000000000000000000000000000000000000000000000017905292915050565b805160208201fd5b60408051808201909152600481527fe69edc3e00000000000000000000000000000000000000000000000000000000602082015290565b604080516001600160a01b03808516602483015283166044808301919091528251808303909101815260649091019091526020810180517bffffffffffffffffffffffffffffffffffffffffffffffffffffffff167f1de45ad1000000000000000000000000000000000000000000000000000000001790529291505056fea265627a7a723158200e005cb6084baf85ef6343b6015786dd7275187c9b40a5dc13bb50f6f74adf5964736f6c63430005110032",
  "linkReferences": {},
  "deployedLinkReferences": {}
}