{
  "_format": "hh-sol-artifact-1",
  "contractName": "LibEIP712ExchangeDomain",
  "sourceName": "@0x/contracts-exchange-libs/contracts/src/LibEIP712ExchangeDomain.sol",
  "abi": [
    {
      "inputs": [
        {
          "internalType": "uint256",
          "name": "chainId",
          "type": "uint256"
        },
        {
          "internalType": "address",
          "name": "verifyingContractAddressIfExists",
          "type": "address"
        }
      ],
      "payable": false,
      "stateMutability": "nonpayable",
      "type": "constructor"
    },
    {
      "constant": true,
      "inputs": [],
      "name": "EIP712_EXCHANGE_DOMAIN_HASH",
      "outputs": [
        {
          "internalType": "bytes32",
          "name": "",
          "type": "bytes32"
        }
      ],
      "payable": false,
      "stateMutability": "view",
      "type": "function"
    }
  ],
  "bytecode": "0x608060405234801561001057600080fd5b506040516101f53803806101f58339818101604052604081101561003357600080fd5b50805160209091015160006001600160a01b038216156100535781610055565b305b90506100ad6040518060400160405280600b81526020016a0c1e08141c9bdd1bd8dbdb60aa1b815250604051806040016040528060058152602001640332e302e360dc1b81525085846100b960201b61004b1760201c565b60005550610110915050565b8351602094850120835193850193909320604080517f8b73c3c69bb8fe3d512ecc4cf759cc79239f7b179b0ffacaa9a75d522b39400f815295860194909452928401929092526060830152608082015260a0902090565b60d78061011e6000396000f3fe6080604052348015600f57600080fd5b506004361060285760003560e01c8063c26cfecd14602d575b600080fd5b60336045565b60408051918252519081900360200190f35b60005481565b8351602094850120835193850193909320604080517f8b73c3c69bb8fe3d512ecc4cf759cc79239f7b179b0ffacaa9a75d522b39400f815295860194909452928401929092526060830152608082015260a090209056fea265627a7a72315820dfb4ab8f44eaee31d49e66e5a6201008a91711d533f085a0e56beb015cf0848264736f6c63430005110032",
  "linkReferences": {},
  "deployedLinkReferences": {}
}